:020000040800F2
:10000000F008002009010008210E0008D90B0008A3
:100010001D0E000865080008111700080000000008
:1000200000000000000000000000000015100008A3
:10003000AD0A000800000000B10E000851110008D0
:100040002301000823010008230100082301000800
:1000500023010008230100082301000823010008F0
:1000600023010008230100082301000823010008E0
:1000700023010008230100082301000823010008D0
:1000800023010008230100082301000823010008C0
:1000900023010008230100082301000823010008B0
:1000A00023010008230100082301000823010008A0
:1000B00023010008BD1100083912000823010008BF
:1000C0002301000823010008230100082301000880
:1000D00023010008DD1300081D1400088514000822
:1000E0002301000823010008230100082301000860
:1000F00023010008DFF80CD000F060F8004800474A
:10010000B91D0008F008002006488047064800474F
:10011000FEE7FEE7FEE7FEE7FEE7FEE7FEE7FEE7B7
:10012000FEE7FEE755110008F5000008D2B201E035
:1001300000F8012B491EFBD270470022F6E710B5EC
:1001400013460A4604461946FFF7F0FF204610BD45
:1001500030B505462A460B4612F8010B13F8014B41
:1001600008B1A042F8D01CB1002802D06D1CF1E704
:10017000284630BD10B5044600E0401C0378002B33
:10018000FBD100E0401C521E04D311F8013B037068
:10019000002BF7D100210170204610BD30B5054677
:1001A0000020034600E05B1C934205D2EC5CC85C77
:1001B000201A01D1002CF6D130BD0000064C074DAD
:1001C00006E0E06840F0010394E807009847103427
:1001D000AC42F6D3FFF792FF9C220008BC22000835
:1001E00010B5E3A001F096FA4FF4967000F060FCB1
:1001F000E1A1E248FFF7ACFFE149086000F040FCF4
:100200000EE000F03DFCDAA001F084FA4FF49670A5
:1002100000F04EFCD8A1D948FFF79AFFD8490860F2
:10022000D74800680028ECD00120D64981F8720038
:10023000D5A001F06FFA4FF4967000F039FCD5A10B
:10024000CE48FFF785FFCE49086000F019FC0EE0AC
:1002500000F016FCCCA001F05DFA4FF4967000F0AF
:1002600027FCCCA1C548FFF773FFC5490860C44807
:1002700000680028ECD0CAA001F04CFA4FF4967048
:1002800000F016FCC9A1BD48FFF762FFBC49086039
:1002900000F0F6FB0EE000F0F3FBC1A001F03AFA2B
:1002A0004FF4967000F004FCC0A1B448FFF750FF73
:1002B000B3490860B24800680028ECD0BDA001F046
:1002C00029FA4FF4967000F0F3FBBDA1AB48FFF79D
:1002D0003FFFAB490860102208460168891DBA48F3
:1002E00001F030FB00F0CCFB15E000F0C9FBB1A041
:1002F00001F010FA4FF4967000F0DAFBB0A19F48BD
:10030000FFF726FF9E490860102208460168891DF4
:10031000AD4801F017FB9A4800680028E5D0ABA073
:1003200001F0F8F94FF4967000F0C2FB92A19348E7
:10033000FFF70EFF9249086000F0A2FB0EE000F00C
:100340009FFBA2A001F0E6F94FF4967000F0B0FB1D
:1003500089A18A48FFF7FCFE89490860884800683F
:100360000028ECD09DA001F0D5F94FF4967000F074
:100370009FFB9DA18148FFF7EBFE8149086000F0DB
:100380007FFB0EE000F07CFB94A001F0C3F94FF47A
:10039000967000F08DFB94A17848FFF7D9FE78495C
:1003A0000860774800680028ECD092A001F0B2F90C
:1003B0004FF4967000F07CFB91A17048FFF7C8FEE7
:1003C0006F49086008460068E8B10846006880790F
:1003D000303809684979303901EB810100EB41007F
:1003E0006849087008460078632808D106E086A0AE
:1003F00001F050F94FF4967000F05AFBF7E7042033
:10040000604981F872002BE000F03AFB79A001F01E
:1004100081F94FF4967000F04BFB79A15748FFF734
:1004200097FE5749086008460068C8B1084600684A
:100430008079303809684979303901EB810100EB66
:1004400041005049087008460078632808D106E04A
:100450006DA001F01FF94FF4967000F029FBF7E74B
:10046000474800680028CFD000F00AFB6DA001F0DB
:1004700051F94FF4967000F01BFB6DA13F48FFF758
:1004800067FE3F4908606DA13C48FFF761FE6E4979
:10049000086000F0F5FA14E000F0F2FA61A001F053
:1004A00039F94FF4967000F003FB61A13348FFF770
:1004B0004FFE3349086061A13048FFF749FE6249A9
:1004C00008602F48006818B95F4800680028E3D02A
:1004D0005EA001F01FF94FF4967000F0E9FA26A132
:1004E0002648FFF735FE2649086000F0C9FA0EE0FD
:1004F00000F0C6FA55A001F00DF94FF4967000F027
:10050000D7FA1DA11D48FFF723FE1D4908601C48AE
:10051000006818B94C4800680028E9D04FA001F0E5
:10052000F9F84FF4967000F0C3FA50A11348FFF7A2
:100530000FFE134908600846006810B151A001F091
:10054000E9F84FF4967000F0B3FA0BA10B48FFF7EF
:10055000FFFD0B490860002404E00020074908550E
:10056000601CC4B2642CF8DB00F08AFA10BD0000F5
:1005700041540D0A000000004F4B000063010020B1
:1005800000000020F000002041542B4E42414E4418
:100590003F0D0A002B4E42414E443A350000000008
:1005A00041542B43494D490D0A0000003436303187
:1005B0003100000041542B4347534E3D310D0A009A
:1005C0002B4347534E000000E000002041542B43D2
:1005D000474154543D310D0A0000000041542B4363
:1005E000474154543F0D0A002B43474154543A317C
:1005F0000000000041542B4353510D0A000000003D
:100600002B43535100000000D0C5BAC5CBD1CBF766
:10061000CAA7B0DCA3ACC7EBB2E9BFB4D4ADD2F289
:10062000210D0A0041542B43455245473F0D0A0016
:100630002B43455245473A302C3100002B4345525D
:1006400045473A312C3100000400002041542B432F
:10065000455245473D310D0A0000000041542B4EE4
:100660004D5354415455533F0D0A00002B4E4D53EA
:1006700054415455533A494E49495449414C4953C0
:100680004544000041542B4E4E4D493D310D0A006A
:1006900010B50CA10D48FFF75BFD0D490860084639
:1006A000006868B10BA000F0F5FF00F0E9F9002444
:1006B00004E0002005490855601CC4B2642CF8DB36
:1006C00010BD00002B4E4E4D493A00006301002042
:1006D0000000002052454345495645202B4E494DC8
:1006E00049204F4B210D0A0070B504460D462A469D
:1006F000214619A001F00EF84FF47A7000F0D8F9F5
:1007000019A11A48FFF724FD194908600846006836
:1007100028B118A000F0BEFF00F0B2F919E0294698
:10072000204600F04DF8A0B916A000F0F3FF4FF4FA
:10073000967000F0BDF917A10C48FFF709FD0C49B0
:1007400008600846006810B119A000F0A3FF00F08F
:1007500097F900F095F970BD41542B4E4D47533D2C
:1007600025732C25730D0A004F4B000063010020F8
:100770000000002053454E442044415441204F4B3B
:10078000210D0A0041542B4E4D5354415455533FB3
:100790000D0A00002B4E4D5354415455533A4D4FC2
:1007A0005F444154415F454E41424C454400000086
:1007B000436F6E6E656374204F4B210D0A0000007D
:1007C0002DE9F04105460E460027002427E017A03A
:1007D00000F060FF04F13101C8B200F0EFFD15A098
:1007E00000F058FF3246294613A000F093FF4FF463
:1007F0007A7000F05DF914A11448FFF7A9FC1449C0
:1008000008600846006830B112A000F043FF00F015
:1008100037F9012705E000F033F9601CC4B2032C5E
:10082000D5DB00BF3846BDE8F08100007265747208
:10083000790900000D0A000041542B4E4D47533DED
:1008400025732C25730D0A004F4B00006301002017
:100850000000002053454E442044415441204F4B5A
:10086000210D0A0000BFFEE710B566A000F052FFA0
:100870004FF4967000F01CF964A16548FFF768FC1E
:100880006449086000F0FCF80EE000F0F9F85DA0A3
:1008900000F040FF4FF4967000F00AF95BA15C484D
:1008A000FFF756FC5B4908605A4800680028ECD006
:1008B0000120594981F8720058A000F02BFF4FF435
:1008C000967000F0F5F858A15148FFF741FC5149E6
:1008D000086000F0D5F80EE000F0D2F84FA000F06C
:1008E00019FF4FF4967000F0E3F84FA14848FFF766
:1008F0002FFC48490860474800680028ECD04DA00C
:1009000000F008FF4FF4967000F0D2F84CA1404878
:10091000FFF71EFC3F49086000F0B2F80EE000F05F
:10092000AFF844A000F0F6FE4FF4967000F0C0F867
:1009300043A13748FFF70CFC36490860354800688A
:100940000028ECD040A000F0E5FE4FF4967000F0D7
:10095000AFF82EA12E48FFF7FBFB2E49086005E0FB
:100960002AA12B48FFF7F4FB2A49086029480068B0
:100970000028F5D000F084F836A000F0CBFE4FF44C
:10098000967000F095F821A12148FFF7E1FB21497D
:10099000086005E01DA11E48FFF7DAFB1D4908604D
:1009A0001C4800680028F5D000F06AF831A000F07B
:1009B000B1FE4FF4FA6000F07BF81EA000F0AAFE32
:1009C0004FF4967000F074F81DA11148FFF7C0FBBA
:1009D0001049086000F054F80EE000F051F815A03E
:1009E00000F098FE4FF4967000F062F814A10848E9
:1009F000FFF7AEFB07490860064800680028ECD006
:100A000010BD000041540D0A000000004F4B0000D3
:100A10006301002000000020F000002041542B4E14
:100A200042414E443F0D0A002B4E42414E443A355E
:100A30000000000041542B43494D490D0A000000BD
:100A4000343630313100000041542B4346554E3D81
:100A5000300D0A0041542B4E4344503D3138302E66
:100A60003130312E3134372E3131352C3536383363
:100A70000D0A000041542B4E52420D0A00000000A6
:100A800010B5084800F006FE002404E000200549E7
:100A90000855601CC4B2642CF8DB002002490870C1
:100AA00010BD0000630100204100002070470000DD
:100AB000014600200D4A12884A434FF0E0235A6154
:100AC00000229A6101221A6100BF4FF0E0221069F2
:100AD00000F001021AB100F48032002AF5D00022A1
:100AE0004FF0E0231A619A61704700004A0000202D
:100AF000F0B502460B46002100240025002000BF6F
:100B000035E0012606FA01F41E6806EA0405A5424E
:100B10002CD110684F000326BE40B0431E794F0011
:100B2000BE40304310601E79012E02D01E79022E85
:100B300012D190684F000326BE40B0435E794F004B
:100B4000BE4030439060908801268E40B0439E792D
:100B50008E40B6B230439080D0684F000326BE402E
:100B6000B043DE794F00BE403043D060491C1029AD
:100B7000C7D3F0BDF0B5002300244D07ED0E02FAF7
:100B800005F3CE1000F1200555F826504E07F70E5C
:100B90000F26BE40B543CF1000F1200646F827507F
:100BA000CE1000F1200555F8265045EA0304CE107A
:100BB00000F1200545F82640F0BD02460020138ACA
:100BC0000B400BB1012000E000207047018370470B
:100BD000828A4A408282704700BFFEE74CF6CC40D2
:100BE00001490860704700000030004010B500F077
:100BF00013F810BD70B505460C4645F2555000F08F
:100C00001FF8284600F010F8204600F013F800F016
:100C100003F8FFF7E3FF70BD4AF6AA200149086018
:100C200070470000003000400149486070470000F4
:100C300000300040014988607047000000300040EB
:100C400001490860704700000030004010B5594865
:100C5000407800287ED010215748FFF7AEFF0128CA
:100C600019D020215448FFF7A8FF012813D04021B4
:100C70005148FFF7A2FF01280DD04FF480514F4893
:100C8000FFF79BFF012806D04FF400514B48FFF7B8
:100C900094FF01286ED10A2000F08AFE0020454909
:100CA000487010214448FFF788FF01280BD111201C
:100CB00040490870424800780B3041490870612073
:100CC00000F07CFB4AE020213B48FFF776FF01283B
:100CD0000BD1222037490870394800780B30384949
:100CE0000870622000F06AFB38E040213248FFF7CC
:100CF00064FF01280BD133202E490870304800785A
:100D00000B302F490870632000F058FB26E04FF4A9
:100D100080512A48FFF751FF01280BD15520254962
:100D20000870274800780B3025490870642000F0CF
:100D300045FB13E04FF400512048FFF73EFF012828
:100D40000CD166201B4908701D4800780B301C49E7
:100D5000087000E00EE0652000F030FB18480078D5
:100D6000422802DB00201649087001211348FFF7D2
:100D70002FFF1DE010211048FFF71FFFC0B92021F1
:100D80000D48FFF71AFF98B940210B48FFF715FFF0
:100D900070B94FF480510948FFF70FFF40B94FF485
:100DA00000510648FFF709FF10B9012001494870BA
:100DB00010BD00004C000020000002400004024072
:100DC000AE0000201CB50121032000F073F840F2B2
:100DD0000B20009001208DF8040000208DF8060003
:100DE00002208DF8050069460B48FFF781FE4FF49D
:100DF0000040009000208DF804008DF8070069463F
:100E00000548FFF775FE01210348FFF7DFFE0221C9
:100E10000148FFF7DBFE1CBD0004024000BFFEE7F7
:100E20007047000070B5002100230F22C4781CB366
:100E3000174C246804F4E064C4F5E064C4F30721AB
:100E4000C1F10404E3B20A4144789C40E1B28478E1
:100E5000144021430C07210E0E4C0578615504788F
:100E600004F01F050124AC4005786D11AD0005F1BB
:100E7000E025C5F8004109E0047804F01F050124CD
:100E8000AC40054D0678761145F8264070BD00004F
:100E90000CED00E000E400E080E100E002490143E5
:100EA000024A1160704700000000FA050CED00E0F6
:100EB0007047000029B1064A12680243044B1A60C9
:100EC00004E0034A12688243014B1A607047000035
:100ED0001C38024029B1064A12680243044B1A60CA
:100EE00004E0034A12688243014B1A607047000015
:100EF0002438024029B1064A12680243044B1A60A2
:100F000004E0034A12688243014B1A6070470000F4
:100F100020380240F0B500210022002300260024E2
:100F20000025374F3F6807F00C0131B1042912D07A
:100F3000082913D00C2934D113E0314F3F1F3F68EB
:100F4000C7F342356F1C4FF0010C0CFA07FC4FEA57
:100F5000CC37076033E02B4F076030E02A4F076043
:100F60002DE0274F3F6807F47012254F3F6807F4C4
:100F70004003264F07EB92473A78012707EB93533C
:100F80001F4F3F6807F480362EB91E4F5743B7FBFB
:100F9000F3F7076004E01C4F5743B7FBF3F7076014
:100FA0000DE0174F3F1F3F68C7F342356F1C4FF0EE
:100FB000010C0CFA07FC4FEACC37076000BF00BFFA
:100FC0000F4F3F6807F0F0010909114F7C5C07687B
:100FD000E74047600A4F3F6807F4E061090A0C4F99
:100FE0007C5C4768E7408760054F3F6807F46051C5
:100FF000C90A074F7C5C4768E740C760F0BD000046
:10100000083802400024F40000127A000800002092
:1010100011000020704700000CB5002001900090E6
:101020003E48006840F480303C49086000BF3B48BF
:10103000006800F4003000900198401C0190009876
:1010400018B90198B0F5A04FF1D13448006800F408
:10105000003010B10120009001E0002000900098C5
:10106000012859D12E48006840F004002C4908603E
:101070000846006840F0020008600846006840F03A
:101080000100086025482430006840F08050234962
:1010900024310860C8142349086000BF2148406813
:1010A00000F010000028F9D11C48083000681B49E6
:1010B0000831086008460068086008460068086053
:1010C0000846006820F47D0008600846006840F487
:1010D000110008601148006840F080700F490860F6
:1010E00000BF0E48006800F000700028F9D00B48DF
:1010F0000830006820F003000849083108600846FD
:10110000006840F00300086000BF04480830006831
:1011100000F00C000C28F8D10CBD00000038024093
:10112000003C024000700040042808D14FF0E0214C
:10113000096941F004014FF0E022116107E04FF02E
:10114000E021096921F004014FF0E02211617047AC
:101150007047000010B51548006840F480701349CE
:101160000860124808300068114908400F490831EA
:1011700008600E4800680F4908400C49086008469E
:10118000006820F48020086008480830006820F4D7
:101190007D000649083108600020091D0860FFF73E
:1011A0003BFF4FF000600449086010BD003802406A
:1011B0000CC0FF88FEFFFEEE08ED00E010B5012137
:1011C000054800F0B0F828B10121034800F09CF870
:1011D000FFF73CFD10BD0000000400407FB5054650
:1011E0000C4601210220FFF775FE0295ADF8044080
:1011F0000020ADF80C00ADF8060001A90D4800F084
:10120000ADF8012211460B4800F09EF81D208DF824
:10121000000002208DF8010003208DF8020001205B
:101220008DF803006846FFF7FDFD0021014800F03E
:101230006EF87FBD0004004010B50121164800F093
:1012400072F838B30121144800F05EF813480078B2
:10125000401C12490870124890F8720009788842C0
:1012600006DC00200D49087008210E48FFF7B0FC8D
:101270000D4890F82800401C0B4981F828000846CA
:1012800090F82800022805DB002081F828000120C2
:1012900081F8290010BD0000000800404700002030
:1012A000F000002000040240C20200207FB5054685
:1012B0000C4601210420FFF70DFE0295ADF8044015
:1012C0000020ADF80C00ADF8060001A90D4800F0B3
:1012D00045F8012211460B4800F036F81E208DF823
:1012E000000002208DF8010001208DF802008DF829
:1012F00003006846FFF796FD0121024800F007F859
:101300007FBD000000080040CA430282704721B13F
:10131000028842F00102028004E002884FF6FE7368
:101320001A400280704730B5024600200023002496
:10133000158A05EA0103958905EA010413B10CB188
:10134000012000E0002030BD1AB183890B43838166
:1013500002E083898B43838170470000002202886A
:10136000B0F1804F08D0104B984205D00F4B9842F7
:1013700002D00F4B984204D14FF68F731A404B881E
:101380001A430C4B984207D00B4B984204D04FF6AF
:10139000FF431A400B891A4302804B68C3620B88D3
:1013A0000385012383827047000400400008004049
:1013B000000C0040001000400014004010B504462E
:1013C00000BF8021044800F098F80028F9D0214699
:1013D000014800F05AF910BD0038014010B540F244
:1013E00025510B4800F096F880B140F2255108488D
:1013F00000F068F8064800F043F9C1B205480278E9
:101400000078401C034B18700348815410BD000045
:101410000038014042000020C701002070B540F2B2
:101420002551154800F076F828B340F225511248AE
:1014300000F048F8114802786421114800F02CFAB5
:1014400090B10D4800F01CF9C4B2412C0CDB5A2CB1
:101450000ADC094800F014F9C1B208480578681C94
:10146000064A10700648415504480078632802DD9A
:1014700000200249087070BD004400404400002074
:101480002B02002010B540F225510B4800F042F825
:1014900080B140F22551084800F014F8064800F0E9
:1014A000EFF8C1B2054802780078401C034B187071
:1014B0000348815410BD0000004800404100002056
:1014C0006301002010B50022002340F66A14A142F7
:1014D00000D100BF0A1201249440A3B2DC4304806F
:1014E00010BD21B1828942F40052828104E08289D8
:1014F0004DF6FF731A408281704702460020B1F515
:10150000007F00D100BF13880B400BB1012000E029
:101510000020704770B502460024002300250020FB
:1015200040F66A16B14200D100BFC1F3421501F086
:101530001F03012606FA03F3012D02D196893340D9
:1015400006E0022D02D1168A334001E0968A33402C
:101550000C12012606FA04F41688344013B10CB1BB
:10156000012000E0002070BDF0B5034600240026F5
:101570000025002040F66A17B94200D100BF184686
:10158000C1F3421401F01F06012707FA06F5012CEA
:1015900001D10C3004E0022C01D1103000E01430F5
:1015A0001AB107682F43076002E00768AF4307607E
:1015B000F0BD00002DE9FF4705460E460024A14678
:1015C00000BFA046B08900B100BF2C8A24F440546B
:1015D000F08804432C82AC8941F20C608443B088CB
:1015E00031890843718908430443AC81AC8A24F4EF
:1015F0004074B0890443AC826846FFF78BFC1F48F7
:10160000854202D1DDF80C9001E0DDF80890A88950
:1016100000F4004040B109EBC90000EB091031684B
:101620004900B0FBF1F707E009EBC90000EB091036
:1016300031688900B0FBF1F76420B7FBF0F00401DA
:101640002009642101FB1078A88900F4004040B112
:10165000322000EBC800B0FBF1F000F007000443BB
:1016600008E0322000EB08106421B0FBF1F000F03C
:101670000F0004432C81BDE8FF87000000380140C3
:1016800001468888C0F308007047C1F308028280D1
:10169000704700000BE000BF0749098801F04001D6
:1016A0000029F9D00178044A121D1180401C0178EC
:1016B0000029F0D1704700000038014010B5002229
:1016C0000CE000BF074B1B8803F04003002BF9D050
:1016D0000378044C241D2380401C521C8A42F0DBFA
:1016E00010BD0000003801400BE000BF0749098829
:1016F00001F040010029F9D00178044A121D11803F
:10170000401C01780029F0D17047000000440040DF
:1017100000BFFEE70FB4054B10B503A9044A0298B9
:1017200000F017F810BC5DF814FB0000F119000878
:10173000D400002002E008C8121F08C1002AFAD114
:1017400070477047002001E001C1121F002AFBD141
:1017500070472DE9F84F994692468846054600277E
:1017600006E025280AD051464A4690476D1C7F1C4A
:1017700028780028F5D13846BDE8F88F002315F801
:10178000011F18462E2915D115F8011F04232A29F7
:101790000DD06FF02F022978A1F13004092C09D85F
:1017A00000EB800002EB400008446D1CF3E758F8A2
:1017B000040B6D1C2A78002ADDD0632A07D0732A17
:1017C0000FD0104651464A4690477F1C2AE018F831
:1017D000042B8DF8002000218DF801106E460121A8
:1017E00003E058F8046B4FF0FF315A074FF0000444
:1017F00001D409E0641C84420BDA8C42FADB325DCE
:10180000002AF7D105E0641C8C42FCDB305D002827
:10181000F9D1274404E016F8010B51464A46904797
:10182000641EF8D26D1CA3E72DE9F04707468846F1
:10183000164606F10109484600F00AFB0546002459
:1018400012E0144800782044642805DA1148007832
:101850002044385C285505E00E4800782044643860
:10186000385C2855601CC4B2B442EADB0020A8559D
:10187000324641462846FEF791FC28B9284600F03A
:10188000C5F80120BDE8F087284600F0BFF8002029
:10189000F8E700004300002010B503460C4611464F
:1018A0000AE0585C412802DB585C5A2802DD0A46EF
:1018B000012010BD481CC1B2A142F2DB00210AE0A8
:1018C000585C412802DB585C5A2802DD0A46012098
:1018D000EFE7481CC1B29142F2DB0020E9E710B506
:1018E00003460C4611460AE0585C412805DB585C6B
:1018F0005A2802DC0A46012010BD481CC1B2A14290
:10190000F2DB00210AE0585C412805DB585C5A28CC
:1019100002DC0A460120EFE7481CC1B29142F2DB2B
:101920000020E9E710B50246002006E00023044C41
:10193000247804441355431CD8B28842F6DB10BD0A
:10194000430000202DE9F04105460F4616460024CD
:1019500003E0385D2855601CC4B2B442F9DB0020B6
:10196000A8552846FFF796FEBDE8F08110B56FF048
:101970000400FFF7D9FB0A4800680A49B0FBF1F000
:10198000094908700846007800EB4001C1EBC0101F
:101990004FF6FF7101EAC0000449088010BD000045
:1019A0002400002000127A00480000204A00002095
:1019B000014600200D4A12884A434FF0E0235A6145
:1019C00000229A6101221A6100BF4FF0E0221069E3
:1019D00000F001021AB100F48032002AF5D0002292
:1019E0004FF0E0231A619A61704700004A0000201E
:1019F00000BF054A128802F04002002AF9D0C2B2A4
:101A0000014B1B1D1A8070470048004010B500288C
:101A100021D0114B0022001F196803E0814203D836
:101A20000A4649680029F9D152B11368841A9C42C8
:101A300004D1006818441060104602E0506000E0D5
:101A4000186039B102680B1A934203D10B681A442B
:101A500002604968416010BDD800002010B5002028
:101A60007C4908707C48027864217C48FFF737FF86
:101A7000002875D00A20FFF7A1FC64217748FFF702
:101A80001DFE0A20FFF79AFC754802787548016828
:101A90007248FFF7C9FE90B173A0FFF7FBFD01206C
:101AA0006C4908706E4801786C48FFF73BFF6C4842
:101AB000007869490978084467490870B1E06848C6
:101AC0004278684841686548FFF7AEFE90B167A06C
:101AD000FFF7E0FD02205F490870614841785F48E8
:101AE000FFF720FF5E4840785B49097808445A496F
:101AF000087096E05A4882785A4881685748FFF73C
:101B000093FE90B15BA0FFF7C5FD0320514908701B
:101B1000534881785148FFF705FF514880784E4976
:101B2000097808444C4908707BE04D48C2784D481C
:101B3000C1684A48FFF778FE98B150A0FFF7AAFDA8
:101B40000420444908704648C1784448FFF7EAFE3B
:101B50004348C0784049097808443F49087060E02C
:101B600074E03F4802793F4801693C48FFF75CFE5A
:101B700090B144A0FFF78EFD052036490870384823
:101B800001793648FFF7CEFE3548007932490978A9
:101B900008443149087044E031484279314841698C
:101BA0002E48FFF741FE90B138A0FFF773FD0620E5
:101BB000284908702A4841792848FFF7B3FE284889
:101BC00040792549097808442349087029E02448C8
:101BD0008279244881692148FFF726FE90B12CA024
:101BE000FFF758FD0A201B4908701D4881791B48E2
:101BF000FFF798FE1A488079174909780844164972
:101C000008700EE024A0FFF745FD00201149087080
:101C100001211248FFF786FE0F480078401C0E494C
:101C200008700D480078632802DD00200A4908701A
:101C30000920FFF7C3FB0848007800F03FF90920AE
:101C4000FFF7BCFB1748007800F038F9C820FFF711
:101C5000AFFE10BDD0000020430000202B0200206A
:101C600064220008B400002075700000646F776E75
:101C7000000000006C65667400000000726967680F
:101C8000740000006E656172000000006661720001
:101C90006E6F6E65000000006E6F5F676573747530
:101CA000726500004400002010B50CA0FFF71CFD79
:101CB0004FF49670FFF77CFE06E04FF4FA70FFF7E2
:101CC00077FE06A0FFF710FD06A10748FEF740FAD1
:101CD0000028F2D005A0FFF7DDFC10BD41540D0A2D
:101CE000000000004F4B00002B0200203939363035
:101CF00020696E6974204F4B210D0A0010B5C3177F
:101D000000EB13730A24B4EB231F07DC0246C3174E
:101D100000EB13731B1137330B7006E00246C31739
:101D200000EB13731B1130330B70C31700EB1373ED
:101D30001B11A0EB03130A2B09DB0246C31700EBB0
:101D400013731B11A0EB031337334B7008E00246EB
:101D5000C31700EB13731B11A0EB031330334B704D
:101D600010BDF0B50446154600201FE0265C320980
:101D7000265C06F00F03092A04DD02F1370601F89C
:101D8000106003E002F1300601F81060092B06DD57
:101D900003F13706F7B24600761C8F5505E003F1D4
:101DA0003006F7B24600761C8F55401CA842DDD3A2
:101DB000002601F81060F0BD00F00AF807E0FEF719
:101DC00015FFFFF74BFE00F0B5F900F025FAF6E736
:101DD00010B54FF4A060FFF761F8FFF7C7FD4FF4AF
:101DE000165000F07BF84FF4165000F0E1F84FF475
:101DF000165000F03FF940F67F41C720FFF7EEF99B
:101E000040F67F4141F28730FFF750FAFEF72CFD94
:101E1000FEF7E6F900F016FAFEF7D4FF06A0FFF78A
:101E200039FC00F0BDF8FFF73FFF40F64E410520BA
:101E3000FEF7E0FE10BD000056455253494F4E5F7D
:101E4000595F4D5F443A3139303432340D0A000065
:101E5000F0B50B30154D20F007010024144A0FE0B7
:101E600003688B420BD38B4205D95E1A431847682F
:101E7000C3E9006700E04368136002C004E0021D8C
:101E800010680028ECD12046002802D1286808B14B
:101E90000020F0BD064A07481060074A121A22F0D7
:101EA0000702C0E9002401202860D7E7DC000020F9
:101EB000D8000020F4020020F004002038B50446C9
:101EC000254669462846FFF719FF9DF80000FFF7F1
:101ED00075FA9DF80100FFF771FA38BD10B588B0AA
:101EE000044601210846FEF7E5FF01218803FFF7BC
:101EF00001F8072209212848FEF73CFE07220A21A3
:101F00002548FEF737FE4FF40070069002208DF84A
:101F10001C008DF81D0000208DF81E0001208DF89A
:101F20001F0006A91C48FEF7E3FD4FF480600690F1
:101F300002208DF81C0006A91748FEF7D9FD2520C0
:101F40008DF8040001208DF8050003208DF80600AF
:101F500001208DF8070001A8FEF764FF029400201D
:101F6000ADF80C00ADF80E00ADF81000ADF814009F
:101F70000C20ADF8120002A90848FFF71BFB012254
:101F800040F225510548FFF7EFFA01210348FFF71A
:101F9000A8FA08B010BD000000000240003801405F
:101FA00010B501210148FFF79CFA10BD0044004024
:101FB00010B588B0044601210846FEF77BFF0121D9
:101FC0004804FEF787FF072202212748FEF7D2FDCB
:101FD000072203212448FEF7CDFD042006900220AD
:101FE0008DF81C008DF81D0000208DF81E000120CA
:101FF0008DF81F0006A91C48FEF77AFD0820069000
:1020000002208DF81C0006A91748FEF771FD262056
:102010008DF8040001208DF8050002208DF80600DF
:1020200001208DF8070001A8FEF7FCFE02940020B5
:10203000ADF80C00ADF80E00ADF81000ADF81400CE
:102040000C20ADF8120002A90848FFF7B3FA0122EC
:1020500040F225510548FFF787FA63210448FEF74F
:102060006CF808B010BD00000000024000440040C1
:102070002B02002010B588B0044601210220FEF793
:1020800019FF01218804FEF725FF07220A212748AE
:10209000FEF770FD07220B212448FEF76BFD4FF47D
:1020A0008060069002208DF81C008DF81D00002035
:1020B0008DF81E0001208DF81F0006A91B48FEF7B1
:1020C00017FD4FF40060069002208DF81C0006A951
:1020D0001648FEF70DFD27208DF8040001208DF82D
:1020E00005008DF806008DF8070001A8FEF79AFE9E
:1020F00002940020ADF80C00ADF80E00ADF8100011
:10210000ADF814000C20ADF8120002A90848FFF742
:1021100051FA012240F225510548FFF725FA012125
:102120000348FFF7DEF908B010BD000000040240CC
:102130000048004010B58AB0002432212848FDF73D
:10214000FCFF28480078002847D0022226A1244816
:10215000FEF710F8A01CC4B2022224A12048FEF70A
:1021600009F8A01CC4B20F2202A92148FFF7F9FD0B
:102170001E2202A91A48FDF7FDFF04F11E00C4B299
:1021800002221CA11648FDF7F5FFA01CC4B20122D3
:1021900001A91948FFF7E5FD022201A91048FDF742
:1021A000E9FFA01CC4B2012201A90E48FFF7D9FD26
:1021B000022201A90A48FDF7DDFFA01CC4B20020DD
:1021C0000749085500F01AF80A20FFF7F7F8044805
:1021D000FFF760FA0A20FFF7F1F80AB010BD00001F
:1021E0008F020020D0000020303400004444000062
:1021F000E000002046440000AD00002005480078C3
:10220000401C0449087008460078C82801DD0120F8
:1022100008707047AD00002010B50748007848B13D
:10222000064907A0FEF760FA4FF47A70FFF7C0FB8B
:10223000FEF72EFA10BD0000D00000208F02002013
:102240003230000010B530220A210448FDF76EFF3D
:10225000302241210248FDF769FF10BD60000020D7
:102260006B00002002040405040304004E4F4E4599
:1022700000000000444F574E000000005550000081
:102280004E45415200000000464152004C45465424
:10229000000000005249474854000000BC220008DA
:1022A00000000020E0000000341700089C23000814
:1022B000E0000020100800004417000800000000A3
:1022C00000000000030406080C1018203000000075
:1022D00000010203040102030406070809000000CC
:1022E0000048E801030406080C1018203000000024
:1022F00000000000000102030406070809000000B6
:10230000000000000000000000000030000000009D
:10231000000000000000000000000000300000008D
:10232000000000000000003000000000000000007D
:10233000000000000000000000000000000000009D
:10234000000000000000000000000000000000008D
:10235000000000000000000000000000000000007D
:10236000000000000000000000010000000000006C
:102370007C220008742200088C22000894220008A5
:1023800080220008882200086C220008000000005B
:0C23900000000000000000000000000041
:04000005080000F5FA
:00000001FF
