:020000040800F2
:10000000D80B002009010008990E0008510C0008C7
:10001000950E0008DD0800083517000800000000F4
:100020000000000000000000000000008D1000082B
:10003000250B000800000000290F0008C911000866
:100040002301000823010008230100082301000800
:1000500023010008230100082301000823010008F0
:1000600023010008230100082301000823010008E0
:1000700023010008230100082301000823010008D0
:1000800023010008230100082301000823010008C0
:1000900023010008230100082301000823010008B0
:1000A00023010008230100082301000823010008A0
:1000B0002301000835120008B112000823010008CE
:1000C0002301000823010008230100082301000880
:1000D000230100085514000895140008FD140008B9
:1000E0002301000823010008230100082301000860
:1000F00023010008DFF80CD000F06CF8004800473E
:10010000B14E0008D80B002006488047064800473B
:10011000FEE7FEE7FEE7FEE7FEE7FEE7FEE7FEE7B7
:10012000FEE7FEE7CD110008F500000840EA0103F4
:100130009B0703D009E008C9121F08C0042AFAD29D
:1001400003E011F8013B00F8013B521EF9D2704761
:10015000D2B201E000F8012B491EFBD27047002209
:10016000F6E710B513460A4604461946FFF7F0FFB6
:10017000204610BD30B505462A460B4612F8010B45
:1001800013F8014B08B1A042F8D01CB1002802D0EE
:100190006D1CF1E7284630BD10B5044600E0401C58
:1001A0000378002BFBD100E0401C521E04D311F851
:1001B000013B0370002BF7D100210170204610BDD8
:1001C000034611F8012B00F8012B002AF9D118463B
:1001D00070470000064C074D06E0E06840F0010360
:1001E00094E8070098471034AC42F6D3FFF786FF37
:1001F000A8570008C857000870B58D1810F8014BB3
:1002000014F0030201D110F8012B231106D110F8CC
:10021000013B03E010F8016B01F8016B521EF9D1AC
:10022000ABB110F8012B04F00C048A1A0C2C03D08B
:10023000A2EB84129B1C08E010F8014BA2EB0422F5
:10024000F8E712F8014B01F8014B5B1EF9D5A94202
:10025000D4D3002070BD000010B5E3A004F07EFBF5
:100260004FF4967000F060FCE1A1E248FFF782FFD6
:10027000E149086000F040FC0EE000F03DFCDAA02F
:1002800004F06CFB4FF4967000F04EFCD8A1D948F6
:10029000FFF770FFD8490860D74800680028ECD005
:1002A0000120D64981F87200D5A004F057FB4FF425
:1002B000967000F039FCD5A1CE48FFF75BFFCE4920
:1002C000086000F019FC0EE000F016FCCCA004F071
:1002D00045FB4FF4967000F027FCCCA1C548FFF712
:1002E00049FFC5490860C44800680028ECD0CAA08E
:1002F00004F034FB4FF4967000F016FCC9A1BD4821
:10030000FFF738FFBC49086000F0F6FB0EE000F094
:10031000F3FBC1A004F022FB4FF4967000F004FC44
:10032000C0A1B448FFF726FFB3490860B24800688F
:100330000028ECD0BDA004F011FB4FF4967000F043
:10034000F3FBBDA1AB48FFF715FFAB4908601022D6
:1003500008460168891DBA4804F0ADFB00F0CCFBEB
:1003600015E000F0C9FBB1A004F0F8FA4FF4967064
:1003700000F0DAFBB0A19F48FFF7FCFE9E49086041
:10038000102208460168891DAD4804F094FB9A4884
:1003900000680028E5D0ABA004F0E0FA4FF49670B6
:1003A00000F0C2FB92A19348FFF7E4FE9249086077
:1003B00000F0A2FB0EE000F09FFBA2A004F0CEFA3A
:1003C0004FF4967000F0B0FB89A18A48FFF7D2FE87
:1003D00089490860884800680028ECD09DA004F096
:1003E000BDFA4FF4967000F09FFB9DA18148FFF786
:1003F000C1FE8149086000F07FFB0EE000F07CFB4D
:1004000094A004F0ABFA4FF4967000F08DFB94A129
:100410007848FFF7AFFE7849086077480068002801
:10042000ECD092A004F09AFA4FF4967000F07CFBA6
:1004300091A17048FFF79EFE6F490860084600686A
:10044000E8B1084600688079303809684979303960
:1004500001EB810100EB4100684908700846007813
:10046000632808D106E086A001F050F94FF4967099
:1004700000F05AFBF7E70420604981F872002BE096
:1004800000F03AFB79A004F069FA4FF4967000F09E
:100490004BFB79A15748FFF76DFE574908600846A6
:1004A0000068C8B108460068807930380968497921
:1004B000303901EB810100EB4100504908700846DA
:1004C0000078632808D106E06DA001F01FF94FF411
:1004D000967000F029FBF7E7474800680028CFD066
:1004E00000F00AFB6DA004F039FA4FF4967000F0AA
:1004F0001BFB6DA13F48FFF73DFE3F4908606DA122
:100500003C48FFF737FE6E49086000F0F5FA14E04A
:1005100000F0F2FA61A004F021FA4FF4967000F0B6
:1005200003FB61A13348FFF725FE3349086061A151
:100530003048FFF71FFE624908602F48006818B96D
:100540005F4800680028E3D05EA004F007FA4FF48B
:10055000967000F0E9FA26A12648FFF70BFE26491F
:10056000086000F0C9FA0EE000F0C6FA55A004F0E9
:10057000F5F94FF4967000F0D7FA1DA11D48FFF76A
:10058000F9FD1D4908601C48006818B94C4800680E
:100590000028E9D04FA004F0E1F94FF4967000F084
:1005A000C3FA50A11348FFF7E5FD13490860084658
:1005B000006810B151A004F0D1F94FF4967000F02A
:1005C000B3FA0BA10B48FFF7D5FD0B4908600024D7
:1005D00004E0002007490855601CC4B2642CF8DB15
:1005E00000F08AFA10BD000041540D0A000000001E
:1005F0004F4B00002F04002000000020BC0300200F
:1006000041542B4E42414E443F0D0A002B4E424175
:100610004E443A350000000041542B43494D490DEA
:100620000A000000343630313100000041542B43C1
:1006300047534E3D310D0A002B4347534E000000F7
:10064000AC03002041542B43474154543D310D0A23
:100650000000000041542B43474154543F0D0A0011
:100660002B43474154543A310000000041542B437E
:1006700053510D0A000000002B43535100000000AD
:10068000D0C5BAC5CBD1CBF7CAA7B0DCA3ACC7EBFA
:10069000B2E9BFB4D4ADD2F2210D0A0041542B43CC
:1006A000455245473F0D0A002B43455245473A30D6
:1006B0002C3100002B43455245473A312C31000084
:1006C0000400002041542B43455245473D310D0A5B
:1006D0000000000041542B4E4D5354415455533F9C
:1006E0000D0A00002B4E4D5354415455533A494E78
:1006F00049495449414C49534544000041542B4E0B
:100700004E4D493D310D0A0010B50CA10D48FFF7C3
:1007100031FD0D4908600846006868B10BA000F083
:10072000F5FF00F0E9F9002404E000200549085530
:10073000601CC4B2642CF8DB10BD00002B4E4E4D83
:10074000493A00002F040020000000205245434594
:10075000495645202B4E494D49204F4B210D0A004B
:1007600070B504460D462A46214619A004F0F6F855
:100770004FF47A7000F0D8F919A11A48FFF7FAFC83
:10078000194908600846006828B118A000F0BEFFAB
:1007900000F0B2F919E02946204600F04DF8A0B962
:1007A00016A004F0DBF84FF4967000F0BDF917A125
:1007B0000C48FFF7DFFC0C4908600846006810B1E0
:1007C00019A000F0A3FF00F097F900F095F970BDB3
:1007D00041542B4E4D47533D25732C25730D0A0074
:1007E0004F4B00002F0400200000002053454E44D2
:1007F0002044415441204F4B210D0A0041542B4EBF
:100800004D5354415455533F0D0A00002B4E4D5348
:1008100054415455533A4D4F5F444154415F454E06
:1008200041424C4544000000436F6E6E6563742086
:100830004F4B210D0A0000002DE9F04105460E4600
:100840000027002427E017A000F060FF04F1310129
:10085000C8B200F0EFFD15A000F058FF324629465F
:1008600013A004F07BF84FF47A7000F05DF914A146
:100870001448FFF77FFC144908600846006830B14F
:1008800012A000F043FF00F037F9012705E000F067
:1008900033F9601CC4B2032CD5DB00BF3846BDE879
:1008A000F081000072657472790900000D0A000081
:1008B00041542B4E4D47533D25732C25730D0A0093
:1008C0004F4B00002F0400200000002053454E44F1
:1008D0002044415441204F4B210D0A0000BFFEE748
:1008E00010B566A004F03AF84FF4967000F01CF9C9
:1008F00064A16548FFF73EFC6449086000F0FCF81D
:100900000EE000F0F9F85DA004F028F84FF49670BE
:1009100000F00AF95BA15C48FFF72CFC5B4908601A
:100920005A4800680028ECD00120594981F872002B
:1009300058A004F013F84FF4967000F0F5F858A1A1
:100940005148FFF717FC5149086000F0D5F80EE058
:1009500000F0D2F84FA004F001F84FF4967000F0C8
:10096000E3F84FA14848FFF705FC484908604748AD
:1009700000680028ECD04DA003F0F0FF4FF4967013
:1009800000F0D2F84CA14048FFF7F4FB3F49086063
:1009900000F0B2F80EE000F0AFF844A003F0DEFF84
:1009A0004FF4967000F0C0F843A13748FFF7E2FB20
:1009B00036490860354800680028ECD040A003F0B4
:1009C000CDFF4FF4967000F0AFF82EA12E48FFF740
:1009D000D1FB2E49086005E02AA12B48FFF7CAFB8E
:1009E0002A490860294800680028F5D000F084F8FA
:1009F00036A003F0B3FF4FF4967000F095F821A1F4
:100A00002148FFF7B7FB2149086005E01DA11E48FA
:100A1000FFF7B0FB1D4908601C4800680028F5D0AE
:100A200000F06AF831A003F099FF4FF4FA6000F08B
:100A30007BF81EA003F092FF4FF4967000F074F85C
:100A40001DA11148FFF796FB1049086000F054F80B
:100A50000EE000F051F815A003F080FF4FF49670FF
:100A600000F062F814A10848FFF784FB074908600A
:100A7000064800680028ECD010BD000041540D0A63
:100A8000000000004F4B00002F0400200000002059
:100A9000BC03002041542B4E42414E443F0D0A00FE
:100AA0002B4E42414E443A350000000041542B4346
:100AB000494D490D0A000000343630313100000044
:100AC00041542B4346554E3D300D0A0041542B4EA8
:100AD0004344503D3138302E3130312E3134372EB1
:100AE0003131352C353638330D0A000041542B4E48
:100AF00052420D0A0000000010B5084800F006FE42
:100B0000002404E0002005490855601CC4B2642C90
:100B1000F8DB00200249087010BD00002F040020FF
:100B20004100002070470000014600200D4A128855
:100B30004A434FF0E0235A6100229A6101221A6170
:100B400000BF4FF0E022106900F001021AB100F47A
:100B50008032002AF5D000224FF0E0231A619A611A
:100B6000704700004A000020F0B502460B46002105
:100B700000240025002000BF35E0012606FA01F41C
:100B80001E6806EA0405A5422CD110684F00032612
:100B9000BE40B0431E794F00BE40304310601E7906
:100BA000012E02D01E79022E12D190684F0003262A
:100BB000BE40B0435E794F00BE40304390609088A5
:100BC00001268E40B0439E798E40B6B2304390806D
:100BD000D0684F000326BE40B043DE794F00BE40D0
:100BE0003043D060491C1029C7D3F0BDF0B50023B5
:100BF00000244D07ED0E02FA05F3CE1000F120059A
:100C000055F826504E07F70E0F26BE40B543CF10BD
:100C100000F1200646F82750CE1000F1200555F8C7
:100C2000265045EA0304CE1000F1200545F8264081
:100C3000F0BD02460020138A0B400BB1012000E0FA
:100C40000020704701837047828A4A408282704741
:100C500000BFFEE74CF6CC40014908607047000039
:100C60000030004010B500F013F810BD70B5054617
:100C70000C4645F2555000F01FF8284600F010F8D9
:100C8000204600F013F800F003F8FFF7E3FF70BD13
:100C90004AF6AA2001490860704700000030004071
:100CA00001494860704700000030004001498860F9
:100CB00070470000003000400149086070470000A4
:100CC0000030004010B55948407800287ED01021EF
:100CD0005748FFF7AEFF012819D020215448FFF7ED
:100CE000A8FF012813D040215148FFF7A2FF012897
:100CF0000DD04FF480514F48FFF79BFF012806D0DD
:100D00004FF400514B48FFF794FF01286ED10A20A1
:100D100003F008FF00204549487010214448FFF7C0
:100D200088FF01280BD11120404908704248007803
:100D30000B3041490870612000F07CFB4AE0202123
:100D40003B48FFF776FF01280BD122203749087076
:100D5000394800780B3038490870622000F06AFB8F
:100D600038E040213248FFF764FF01280BD13320DF
:100D70002E490870304800780B302F4908706320E6
:100D800000F058FB26E04FF480512A48FFF751FF4E
:100D900001280BD1552025490870274800780B30D1
:100DA00025490870642000F045FB13E04FF4005122
:100DB0002048FFF73EFF01280CD166201B49087030
:100DC0001D4800780B301C49087000E00EE06520DB
:100DD00000F030FB18480078422802DB002016495A
:100DE000087001211348FFF72FFF1DE01021104864
:100DF000FFF71FFFC0B920210D48FFF71AFF98B970
:100E000040210B48FFF715FF70B94FF48051094896
:100E1000FFF70FFF40B94FF400510648FFF709FFF5
:100E200010B901200149487010BD00004C0000209D
:100E30000000024000040240AE0000201CB5012169
:100E4000032000F073F840F20B20009001208DF891
:100E5000040000208DF8060002208DF80500694688
:100E60000B48FFF781FE4FF40040009000208DF802
:100E700004008DF8070069460548FFF775FE01215B
:100E80000348FFF7DFFE02210148FFF7DBFE1CBD30
:100E90000004024000BFFEE77047000070B500216B
:100EA00000230F22C4781CB3174C246804F4E064B8
:100EB000C4F5E064C4F30721C1F10404E3B20A41BC
:100EC00044789C40E1B28478144021430C07210E01
:100ED0000E4C05786155047804F01F050124AC40E0
:100EE00005786D11AD0005F1E025C5F8004109E078
:100EF000047804F01F050124AC40054D06787611F6
:100F000045F8264070BD00000CED00E000E400E074
:100F100080E100E002490143024A1160704700008D
:100F20000000FA050CED00E07047000029B1064A08
:100F300012680243044B1A6004E0034A12688243B9
:100F4000014B1A60704700001C38024029B1064A64
:100F500012680243044B1A6004E0034A1268824399
:100F6000014B1A60704700002438024029B1064A3C
:100F700012680243044B1A6004E0034A1268824379
:100F8000014B1A607047000020380240F0B5002184
:100F900000220023002600240025374F3F6807F079
:100FA0000C0131B1042912D0082913D00C2934D1F5
:100FB00013E0314F3F1F3F68C7F342356F1C4FF0BE
:100FC000010C0CFA07FC4FEACC37076033E02B4FDB
:100FD000076030E02A4F07602DE0274F3F6807F495
:100FE0007012254F3F6807F44003264F07EB9247E6
:100FF0003A78012707EB93531F4F3F6807F4803679
:101000002EB91E4F5743B7FBF3F7076004E01C4FA0
:101010005743B7FBF3F707600DE0174F3F1F3F68DB
:10102000C7F342356F1C4FF0010C0CFA07FC4FEA76
:10103000CC37076000BF00BF0F4F3F6807F0F001DB
:101040000909114F7C5C0768E74047600A4F3F6819
:1010500007F4E061090A0C4F7C5C4768E740876051
:10106000054F3F6807F46051C90A074F7C5C476829
:10107000E740C760F0BD0000083802400024F400DB
:1010800000127A00080000201100002070470000C4
:101090000CB50020019000903E48006840F480307C
:1010A0003C49086000BF3B48006800F400300090F5
:1010B0000198401C0190009818B90198B0F5A04F14
:1010C000F1D13448006800F4003010B101200090E4
:1010D00001E0002000900098012859D12E480068B6
:1010E00040F004002C4908600846006840F0020007
:1010F00008600846006840F0010008602548243078
:10110000006840F08050234924310860C814234906
:10111000086000BF2148406800F010000028F9D1A5
:101120001C48083000681B49083108600846006800
:1011300008600846006808600846006820F47D00E2
:1011400008600846006840F4110008601148006813
:1011500040F080700F49086000BF0E48006800F042
:1011600000700028F9D00B480830006820F0030018
:101170000849083108600846006840F0030008602C
:1011800000BF04480830006800F00C000C28F8D1BB
:101190000CBD000000380240003C024000700040DE
:1011A000042808D14FF0E021096941F004014FF013
:1011B000E022116107E04FF0E021096921F004010C
:1011C0004FF0E022116170477047000010B51548DC
:1011D000006840F4807013490860124808300068C5
:1011E000114908400F49083108600E4800680F494E
:1011F00008400C4908600846006820F48020086018
:1012000008480830006820F47D000649083108606D
:101210000020091D0860FFF73BFF4FF00060044904
:10122000086010BD003802400CC0FF88FEFFFEEED3
:1012300008ED00E010B50121054800F0B0F828B134
:101240000121034800F09CF8FFF73CFD10BD0000B1
:10125000000400407FB505460C4601210220FFF73F
:1012600075FE0295ADF804400020ADF80C00ADF815
:10127000060001A90D4800F0ADF8012211460B4807
:1012800000F09EF81D208DF8000002208DF801006E
:1012900003208DF8020001208DF803006846FFF757
:1012A000FDFD0021014800F06EF87FBD0004004004
:1012B00010B50121164800F072F838B30121144826
:1012C00000F05EF813480078401C1249087012487C
:1012D00090F872000978884206DC00200D490870F9
:1012E00008210E48FFF7B0FC0D4890F82800401C7C
:1012F0000B4981F82800084690F82800022805DBF1
:10130000002081F82800012081F8290010BD00008C
:101310000008004046000020BC03002000040240FA
:101320008E0500207FB505460C4601210420FFF7FD
:101330000DFE0295ADF804400020ADF80C00ADF8AC
:10134000060001A90D4800F045F8012211460B489E
:1013500000F036F81E208DF8000002208DF8010004
:1013600001208DF802008DF803006846FFF796FD16
:101370000121024800F007F87FBD0000000800408E
:10138000CA430282704721B1028842F00102028002
:1013900004E002884FF6FE731A400280704730B5B1
:1013A0000246002000230024158A05EA01039589DE
:1013B00005EA010413B10CB1012000E0002030BDAA
:1013C0001AB183890B43838102E083898B43838134
:1013D0007047000000220288B0F1804F08D0104B07
:1013E000984205D00F4B984202D00F4B984204D13F
:1013F0004FF68F731A404B881A430C4B984207D014
:101400000B4B984204D04FF6FF431A400B891A4306
:1014100002804B68C3620B88038501238382704777
:101420000004004000080040000C00400010004094
:101430000014004010B5044600BF8021044800F0AD
:1014400098F80028F9D02146014800F05AF910BD5B
:101450000038014010B540F225510B4800F096F8D5
:1014600080B140F22551084800F068F8064800F0C5
:1014700043F9C1B2054802780078401C034B18704C
:101480000348815410BD0000003801404200002094
:101490009304002070B540F22551154800F076F80D
:1014A00028B340F22551124800F048F8114802785C
:1014B0006421114803F0DCFA90B10D4800F01CF9EA
:1014C000C4B2412C0CDB5A2C0ADC094800F014F998
:1014D000C1B208480578681C064A10700648415594
:1014E00004480078632802DD00200249087070BDBE
:1014F0000044004044000020F704002010B540F2F2
:1015000025510B4800F042F880B140F225510848BF
:1015100000F014F8064800F0EFF8C1B20548027870
:101520000078401C034B18700348815410BD000024
:1015300000480040410000202F04002010B5002288
:10154000002340F66A14A14200D100BF0A12012410
:101550009440A3B2DC43048010BD21B1828942F4DF
:101560000052828104E082894DF6FF731A40828125
:10157000704702460020B1F5007F00D100BF1388FC
:101580000B400BB1012000E00020704770B502460F
:10159000002400230025002040F66A16B14200D145
:1015A00000BFC1F3421501F01F03012606FA03F341
:1015B000012D02D19689334006E0022D02D1168A10
:1015C000334001E0968A33400C12012606FA04F4F7
:1015D0001688344013B10CB1012000E0002070BD2A
:1015E000F0B50346002400260025002040F66A17C7
:1015F000B94200D100BF1846C1F3421401F01F06E2
:10160000012707FA06F5012C01D10C3004E0022C69
:1016100001D1103000E014301AB107682F43076081
:1016200002E00768AF430760F0BD00002DE9FF4707
:1016300005460E460024A14600BFA046B08900B171
:1016400000BF2C8A24F44054F08804432C82AC89D7
:1016500041F20C608443B0883189084371890843A2
:101660000443AC81AC8A24F44074B0890443AC8256
:101670006846FFF78BFC1F48854202D1DDF80C90CD
:1016800001E0DDF80890A88900F4004040B109EBC2
:10169000C90000EB091031684900B0FBF1F707E021
:1016A00009EBC90000EB091031688900B0FBF1F7C4
:1016B0006420B7FBF0F004012009642101FB1078DD
:1016C000A88900F4004040B1322000EBC800B0FB14
:1016D000F1F000F00700044308E0322000EB0810AE
:1016E0006421B0FBF1F000F00F0004432C81BDE851
:1016F000FF8700000038014001468888C0F30800D9
:101700007047C1F308028280704700000BE000BF01
:101710000749098801F040010029F9D00178044AFD
:10172000121D1180401C01780029F0D17047000083
:101730000038014000BFFEE72DE9FC4106460F4698
:101740000024DA20855D012D03D0022D01D0032D68
:101750002ED16B4601AA0121304600F0D7F904468C
:101760000198B0F57F0F03D80098B0F57F0F1FD90F
:10177000F4B92FB11049304602F042F9044617E09F
:101780000422FF21304601F012F8044300227021A8
:10179000304601F00CF804430022FF21304601F0EE
:1017A00006F8044300228021304601F000F804438B
:1017B0002046BDE8FC810000A6010020F8B50646E1
:1017C0000F460024002500BF01220B21304600F007
:1017D000EEFF044600220B21304600F0E8FF0443F0
:1017E0006A461321304600F00FFC0443681CC5B262
:1017F0009DF8000000F0070018B1032D01DA002C5D
:10180000E2D0032D01DB6FF00B042046F8BD000091
:1018100070B592B0054600240123FE228921284696
:1018200000F09CFF04462CB900228821284600F0D5
:10183000BEFF04460021F02041554FF47A70A5F810
:1018400052014FF4C870A5F854015A48C5F8580120
:101850005948C5F8D400296202A9284600F0BEF80C
:10186000044654B900208DF808008DF80900402284
:1018700002A905F11000FEF759FC642005F59A75E0
:1018800028804FF4617068804FF4FA70A8804FF49C
:101890002060288101202877A5F59A7501228021F2
:1018A000284600F084FF04430122FF21284600F06F
:1018B0007EFF044300221146284600F078FF0443CF
:1018C00001AA9121284600F09FFB04439DF80400E3
:1018D00085F83A0101220021284600F068FF044300
:1018E0000022FF21284600F062FF044300228021ED
:1018F000284600F05CFF0443002609E034B9B1B289
:101900000122284600F0BBFC044300E002E0761C04
:10191000062EF3DB00BF2CB900220221284600F07E
:10192000AEFC04462CB900220321284600F0A7FC97
:1019300004462CB900220421284600F0A0FC0446ED
:101940002CB900220521284600F099FC044634B940
:101950004FF490120021284600F0F2FC044634B9FE
:101960004FF480420121284600F0EAFC044634B9D5
:101970004FF40C120221284600F0E2FC04462CB978
:1019800000220321284600F0DBFC04465CB9FF205E
:1019900085F83001FF220121284600F008FF0446A7
:1019A000012085F8320114B9002185F8151120466F
:1019B00012B070BD856B0100A470090070B50446BB
:1019C0000D4600262946204601F044FA06463046D8
:1019D00070BD02460020137C0B7070472DE9F0416A
:1019E00007460D46002429463846FFF7F2FF044615
:1019F0002CB905F10801384600F051F804460CB93D
:101A0000002028732CB905F11001384600F07AFA4D
:101A100004462CB905F11401384600F037F90446A4
:101A2000E4B9002617E04CB905F1240000EB86026A
:101A3000B1B2384600F099F8044300E00DE044B933
:101A400005F118008219B1B2384600F080F804435D
:101A500000E002E0761C062EE5DB00BF2CB905F1A4
:101A60003C01384600F029FA044624B9291D3846BD
:101A700000F001F904462046BDE8F08170B5064645
:101A80000C46002522460921304600F0BDFA0546E5
:101A90001DB9207800F001002070284670BD7CB58B
:101AA00006460C46002501AAF821304600F0D8FA77
:101AB00005462DB96A460421304600F0BBFA0546BA
:101AC00055B9BDF8040028B1BDF804100098B0FB6A
:101AD000F1F020602168B16128467CBDF8B505466B
:101AE0000C4600266A461321284600F08DFA064669
:101AF0009DF8000000F0070020609DF8000000F055
:101B0000180008B16FF005063046F8BD2DE9F8431E
:101B10000746884614461D4600266A460E2138466A
:101B200000F09EFA0646BDF800000005C0082060DF
:101B300056B96A460C21384600F092FA0646BDF8BE
:101B400000000005C00828603046BDE8F88330B5C5
:101B500003460020062903DB001F0025157003E063
:101B600003F128056C5C147030BD2DE9F84305467F
:101B70000E4617464FF00008C146062E2FD2DFE86A
:101B800006F00307161A1E1F6C6B4FF0000929E0C0
:101B90006A464421284600F063FA8046B8F1000FF7
:101BA00002D1BDF8000044024FF001091AE0EC6BCD
:101BB0004FF0000916E02C6C4FF0000912E000BF56
:101BC0006A466421284600F04BFA8046B8F1000FBF
:101BD00002D1BDF8000044024FF0000902E06FF0AE
:101BE000030800BF00BFB8F1000F16D1B9F1010F13
:101BF00012D144B905F1340050F826403C60002170
:101C00000C38815509E03C6005F1340040F826406D
:101C100001210C38815500E03C604046BDE8F88366
:101C20002DE9FC4105460C460026DA20475D042FCD
:101C30000DD169462846FFF751FF06460098042853
:101C400002D10120207013E00020207010E001AAD2
:101C50001421284600F0D8F906464EB99DF8040034
:101C600000F0010010B10120207001E00020207080
:101C70003046BDE8FC8170B504460D460026294675
:101C8000204601F0FAFB0646304670BD70B50446AA
:101C90000D4600262946204601F066FC06463046E1
:101CA00070BD70B504460D4600262946204601F059
:101CB000A1FD0646304670BD2DE9F04F93B00546B4
:101CC0000C464FF000080C230AAA1421284600F005
:101CD000DDF98046B8F1000F7DD10020A0752060AD
:101CE0009DF833009DF8321000EB012087B20020F0
:101CF00060609DF82F009DF82E1000EB012000047D
:101D0000C609E6609DF831009DF8301000EB012017
:101D100080B20F900F98400220619DF82B009DF833
:101D20002A1000EB01201FFA80F9A4F814909DF806
:101D300028001290B5F852010D9095F831B10D9828
:101D4000B0F57A7F2AD00D98784300F5FA704FF4F9
:101D50007A7190FBF1F087B2288C80B20E90287FC8
:101D600010901098D0B10E9800FB09F0A6EB20203F
:101D700040B9BBF1000F02D042F2B82A0DE048F69C
:101D8000E02A0AE007FB06F10E9800FB09F0A6EB3B
:101D90002020B1FBF0F01FFA80FA5746BBF1000F8C
:101DA00005D0B8102081B807000EE07502E0278149
:101DB0000020E07511A84B463246CDE90040284688
:101DC000129901F0FCFB40EA0808B8F1000F02D1BB
:101DD0009DF844002076B8F1000F20D11C2205F1B7
:101DE000500103A8FEF7A2F92089ADF81400E07DA8
:101DF0008DF823006089ADF8160060680490E068F3
:101E0000069020690790A08AADF82000207E8DF80A
:101E100024001C2203A905F15000FEF787F9404673
:101E200013B0BDE8F08FF8B506460C46002500203B
:101E300000906A460121304600F0E6F805463DB9BB
:101E400023469DF800200021304603F0AEF80546F9
:101E50003DB9A31C9DF800200121304603F0A5F8F0
:101E600005463DB9631C9DF800200221304603F071
:101E70009CF805463DB9E31C9DF80020032130463F
:101E800003F093F805463DB9231D9DF80020042179
:101E9000304603F08AF805462846F8BD2DE9F041A2
:101EA00004460D461646002732462946204601F0D4
:101EB0003CFD07463846BDE8F081F8B506460C46BD
:101EC00000256A460121304600F09EF805466DB9AE
:101ED0009DF8000086F830019DF8000000F08000B9
:101EE00010B10120207001E00020207015B9217888
:101EF00086F84C102846F8BD10B502460020137F26
:101F00000B7010BDF8B504460E4600276A46202126
:101F1000204600F0A5F8074677B9BDF8000020B9C3
:101F2000256A35600021217706E0BDF80000C50074
:101F300035602562012121773846F8BD2DE9F04151
:101F400004460D4616460027012332462946204600
:101F500001F02AFE07463846BDE8F0812DE9F04140
:101F600004460D461646002732462946204601F013
:101F700041FE07463846BDE8F08138B505460024E5
:101F800069462846FFF725FD044634B99DF8000050
:101F900018B9284600F08BFA04461CB9284601F00F
:101FA000A4FD04462CB99DF8000010B9032085F863
:101FB0003201204638BD70B505460E46002400218A
:101FC000284600F090F804461CB92846FFF7D5FFD4
:101FD000044624B931462846FFF76EFE044624B96C
:101FE00000212846FFF7EAFB0446204670BD08B5ED
:101FF000014600200022009202E0009A521C00924A
:10200000009AFA2AF9D308BD2DE9F04704460D4697
:102010001646002794F85C9132462946484601F05E
:1020200091FF8046B8F1000F01D06FF013073846DA
:10203000BDE8F0872DE9F04704460D461646002717
:1020400094F85C9132462946484601F08BFF804661
:10205000B8F1000F01D06FF013073846BDE8F087E4
:102060002DE9F04704460D461646002794F85C918A
:1020700032462946484601F0A6FF8046B8F1000FD7
:1020800001D06FF013073846BDE8F0872DE9F0471F
:102090000646884691461C464FF0000A402C01D364
:1020A0006FF0030A96F85C71A3B24A46414638467F
:1020B00001F075FF05460DB16FF0130A5046BDE8FB
:1020C000F0872DE9F04105460C460026274604EB33
:1020D000D770C0F347028A21284600F068FB064605
:1020E0003046BDE8F0810246002003290BD003DC16
:1020F00039B101290BD105E0142905D0152906D1E4
:1021000003E000BF00BF00BF00BF117402E06FF02A
:10211000070000BF00BF70472DE9F04780468946A1
:1021200017461E46DDF820A00024B9F1000F02D0AA
:102130006FF00904A0E0142F0CD1BAF1000F01D107
:10214000102500E001252A468421404600F02FFB9F
:10215000044691E0152F5AD10122FF21404600F09C
:1021600026FB044300221146404600F020FB0443B6
:102170000022FF21404600F01AFB04430122802187
:10218000404600F014FB044302228521404600F043
:102190000EFB04430422FF21404600F008FB0443E9
:1021A0000022CD21404600F002FB04431122CC2145
:1021B000404600F0FCFA04430722FF21404600F0AD
:1021C000F6FA04430022BE21404600F0F0FA044330
:1021D0000622FF21404600F0EAFA04430922CC21FE
:1021E000404600F0E4FA04430022FF21404600F09C
:1021F000DEFA04430122FF21404600F0D8FA0443EE
:1022000000221146404600F0D2FA044334E0A4B95B
:10221000052E0ED2DFE806F0030507090B000025A6
:102220000AE0012508E0022506E0032504E0042574
:1022300002E06FF00A0400BF00BF2CB92A460A2151
:10224000404600F0B4FA044664B9BAF1000F01D177
:10225000002500E010252B46EF228421404600F0A7
:102260007DFA044614B9DA2000F8086024B9002188
:102270004046FFF7A3FA04462046BDE8F0872DE963
:10228000F05F04460D4616464FF00009CB46002786
:10229000BA46062D02DB6FF0030941E02EB94FF07C
:1022A000000B00274FF0010A06E004F1340050F85B
:1022B00025B04FF0000A0127062D2DD2DFE805F0EA
:1022C00003060E1114202820075528E0CBF34F22D7
:1022D0004421204600F081FA814620E084F82A70EB
:1022E0001DE084F82B701AE04FEA4A604FEA10684C
:1022F0004346FE226021204600F030FA81460EE07F
:102300004FEA0A704FEA10684346EF2260212046E8
:1023100000F024FA814602E06FF0030900BF00BF1D
:10232000B9F1000F09D126B9002104F12800415567
:1023300003E0012104F1280041554846BDE8F09F23
:102340002DE9F04105460E461446002705F1280008
:1023500010F80680B8F1000F03D10C3040F8264089
:1023600026E0062E1BD2DFE806F003050D0F111242
:102370006C6317E0C4F34F224421284600F02DFA85
:1023800007460FE0EC630DE02C640BE000BFC4F3E4
:102390004F226421284600F020FA074602E06FF041
:1023A000030700BF00BF1FB905F1340040F8264005
:1023B0003846BDE8F08170B504460D460026294632
:1023C000204601F06DFE0646304670BD2DE9F8430B
:1023D00007460D46904600260020009000246A46DD
:1023E00001213846FFF710FE06469DF80040002EFA
:1023F00036D1B8F1010F19D1052D13D2DFE805F060
:102400000306090C0F0044F010040EE044F0280409
:102410000BE044F0040408E044F0400405E044F01C
:10242000800402E06FF0030600BF19E0052D13D20F
:10243000DFE805F00306090C0F0004F0EF040EE0DE
:1024400004F0D7040BE004F0FB0408E004F0BF0440
:1024500005E004F07F0402E06FF0030600BF00BF58
:102460009DF80000844210D02EB922460121384642
:1024700000F09DF906460EB987F830412EB9D7F81D
:10248000149049463846FFF796FF3046BDE8F8837A
:102490002DE9F04104460D461646002732462946EE
:1024A000204601F0F1FE07463846BDE8F0812DE9EF
:1024B000FC4106460024012701A93046FFF789FAAE
:1024C00001228021304600F072F904460122FF21EA
:1024D000304600F06CF9044600221146304600F008
:1024E00066F9044696F83A219121304600F05FF9EA
:1024F000044601220021304600F059F9044600222A
:10250000FF21304600F053F9044600228021304676
:1025100000F04DF904469DF8040020B1012823D0B5
:10252000032843D131E001220021304600F03FF979
:1025300004460097BCB9002500BF2DB16A460021B2
:102540003046FFF761FD04466D1C9DF800003840E1
:10255000B84203D114B9B5F5FA6FEED3B5F5FA6FF9
:1025600001D36FF0060424E024B901213046FFF7BF
:10257000E3F8044602220021304600F018F9044630
:1025800014B9042086F8320113E024B90121304641
:10259000FFF7D2F8044604220021304600F007F984
:1025A000044614B9042086F8320102E06FF00704F3
:1025B00000BF00BF2046BDE8FC8100002DE9F043CC
:1025C00097B005460024402107A8FDF7C8FD00206C
:1025D0000690059081460027049003900026012173
:1025E000284600F0A5FC044695F8137195F814618F
:1025F000012E05DC01D1202F02D846B90C2F06D9B7
:1026000004AA03A9284601F0F5FA044605E032467B
:102610003946284601F0D7FD0446DFF83C814CB925
:1026200095F85091B9F1000F02D1D5F84C8101E035
:10263000DFF8248124B94146284601F0E1F9044637
:1026400044B9002004230246014600902846FFF7C3
:1026500063FD04468CB90122FF21284600F0A7F84B
:10266000044606AA84212846FFF7FAFC0443002208
:10267000FF21284600F09BF8044324B9BDF8180058
:102680000001C5F8D40024B907A92846FFF7A6F928
:1026900004464CB905A92846FFF7F0F904461CB9D1
:1026A0009DF8140085F831012CB9402207A905F1E5
:1026B0001000FDF73BFD54B905AA01212846FFF79C
:1026C000A3FC04461CB99DF8140085F830012CB910
:1026D000002211462846FFF779FE04462CB9002255
:1026E00002212846FFF772FE044614B9032085F83C
:1026F00032012CB902AA00212846FFF7CFFB04467D
:102700001CB99DF80810E82041552CB902AA0121F6
:102710002846FFF7C3FB04461CB99DF80810E020CB
:1027200041552CB901AA0321284602F0F9FA0446C2
:1027300014B9E420019941512CB901AA0421284679
:1027400002F0EEFA044614B9DC200199415120460A
:1027500017B0BDE8F0830000B30000202DE9F84F6A
:102760000446894615461E46002794F85CA16A4631
:102770004946504601F0E6FB8046B8F1000F01D013
:102780006FF0130787B99DF8000028403043009090
:102790009DF800204946504601F0F5FE8046B8F10C
:1027A000000F01D06FF013073846BDE8F88F2DE910
:1027B000F04704460D461646002794F85C913246D1
:1027C0002946484601F0DFFE8046B8F1000F01D0EF
:1027D0006FF013073846BDE8F0872DE9F04704464F
:1027E0000D461646002794F85C9132462946484625
:1027F00001F0EAFE8046B8F1000F01D06FF0130738
:102800003846BDE8F0872DE9F04705460F4690466B
:102810001C464FF00009CA46402C01D36FF0030953
:1028200095F85C61A3B242463946304601F0B8FEE5
:102830008246BAF1000F01D06FF013094846BDE897
:10284000F08700002DE9FF4F90B01746DDF8788043
:1028500012200F904FF480400E9042200D900620E1
:102860000C9007200B90002000901098B0F85401B5
:102870000A901098D0F858010990DDE9091000FB82
:1028800001FA0AF180004FEA102A0A980AFB00FABE
:1028900000256FB1119880020190019800EB570557
:1028A000B5FBF7F505EB45056D4305F50040050C57
:1028B0001D99139848430890089800F50040000CB3
:1028C000089008984043089008F50040000C0290DA
:1028D0000298C01C0621B0FBF1F002900298C0EBF8
:1028E000C00002900298B0F5803F02D337480790AD
:1028F0000DE008F103000621B0FBF1F8C8EBC808B1
:1029000008F50040000C079007984043079040F2FC
:102910002710059005984043059041F2041004905B
:102920000498083000090490DDE90410401A05906D
:10293000059800EB400000010690069800F5005055
:10294000800B0690DDE9071044181F9804EB500433
:102950001F98B4FBF0F4A403069804EB5004069807
:10296000B4FBF0F46C4304F5FA704FF47A71B0FBE9
:10297000F1F4240104F5FA70B0FBF1F44FF04009D2
:10298000B9F1000F05D00AEB5900B0FBF9F0039044
:1029900001E000200390039801F01CF8834624B165
:1029A0000AEB5400B0FBF4F600E00026304601F0DC
:1029B00011F806462098C0F800B0B34501D9209818
:1029C0000660009814B0BDE8F08F00000000F0FF32
:1029D000E0B5064640F277634FF4106202FB01F562
:1029E000A5FB0307E0BD00002DE9FF4FABB0054696
:1029F00088464FF448702A904FF4167029904FF48F
:102A0000C810289041F25C202790B84826904FF4D7
:102A100070402590B6482490B64823904FF400406B
:102A200022904FF44810219040F27760209000BF30
:102A3000286A15904FF47A71D8F810004843000CBA
:102A40001690D8F80C000C900DAA4146284600F0CC
:102A50003BFF15AA4146284600F04AFF13904FF469
:102A60007A710D9800FB01F707F50040070C1598E7
:102A7000484314901498B0F5481F02D94FF44810F9
:102A800014901398002849D1DC2040591E90E02072
:102A9000405D06902846069A1E9900F02DF909908F
:102AA000E42040591D90E820405D05902846059A95
:102AB0001D9900F021F9089003200A900698082833
:102AC00001D102200A900A98C002DDE908121144DF
:102AD00048430790079800F5FA704FF47A71B0FBFD
:102AE000F1F0079040F27761079848430790079804
:102AF00000F5FA704FF47A71B0FBF1F007900D9881
:102B00008030000A0D9007990D9848431F901F9838
:102B10008030000A1F900D9800020D90139818B194
:102B200013982FB0BDE8F08F4FB970492D98016010
:102B30000846C5F8400100212E980160D4E01F9896
:102B400008B901201F904FF448701B90169800049C
:102B5000B0FBF7F66648864200D906464FF4167079
:102B600046431F9901EB4101880000F033FF40000C
:102B70001A90B8F808005F4948431990149840002B
:102B8000C0EB074000F5FA704FF47A71B0FBF1F03A
:102B90001290481000EB0740B0FBF1F11191129830
:102BA00000021290DDE91112B2FBF1F0002801DB06
:102BB000014600E04142179117980002179098F8DB
:102BC000180010B14FF4803410E041F25C211998E4
:102BD000B0FBF1F41798C0F58030444304F5004091
:102BE000040C04F5803464086443A40B1B9804FBB4
:102BF00000FA0AF500404FEA104A0AFB0AFAB34607
:102C00000BF500404FEA104B0BFB0BFB0AEB0B00E4
:102C10001090109800F0DEFE0F900F9800040F90B7
:102C20000F9832306421B0FBF1F11A98B1FBF0F942
:102C300040F6B53009FB00F941F28830814440008C
:102C4000B9FBF0F9B9F5704F01D94FF47049DDE9DE
:102C50001D10084400F5FA704FF47A71B0FBF1F0E2
:102C60001C904FF4C8111C9801EB5001B1FBF0F01F
:102C7000049000F0AFFE0B900B9800020B900B98A5
:102C800000F5FA704FF47A71B0FBF1F00B9009FB8C
:102C900009FA0B9800FB00FB0AEB0B0000F09AFE10
:102CA0000E904FF47A710E98484318902FB11F98E8
:102CB00018B10E491898884201D90C4818902D99DE
:102CC000189808602D980068C5F84001079A1B996C
:102CD0002E982346CDE90162009103902846DDE954
:102CE0000C21FFF7AFFD139013981AE7AE878F0200
:102CF000666666009A9906002DE9F04307460C4681
:102D0000154600BF29463846FFF762FE814609F5A1
:102D1000FA704FF47A71B0FBF1F60846604300EBAD
:102D20005600B0FBF6F84046BDE8F0832DE9F043CD
:102D300006460C461546002729463046FFF748FE52
:102D4000804608F5FA704FF47A71B0FBF1F904FB94
:102D500009F000F5FA70B0FBF1F73846BDE8F083F2
:102D60002DE9F04704460D4616460027022120466D
:102D700000F0DEF80746AFB994F8F180B8F1000F23
:102D800006D10020287009A0007886F8400009E0EC
:102D9000F220005D287004F1F309494606F1400075
:102DA000FDF70EFA3846BDE8F0870000000000008D
:102DB00001460020CAB20B0A9A40501C70470146D7
:102DC00000204A1C5206100E7047F8B50646002433
:102DD000002283213046FFF7EAFC0443B4B9002502
:102DE00000BF6A4683213046FFF70EF904469DF87E
:102DF000000000B904B103E06D1CB5F5FA6FF0D323
:102E000000BFB5F5FA6F01D36FF0060401228321EC
:102E10003046FFF7CCFC04432046F8BD10B5014610
:102E200000200022002361B14A1E02E052085C1C0F
:102E3000A3B222F0FF04002CF8D1144663F31F2440
:102E4000A0B210BD014600200122C2EB6102D0B247
:102E5000704700007CB506460C46002522466946B0
:102E60003046FFF77DFF0546002D26D19DF8000076
:102E700020B91EA12046FDF7A3F919E09DF8000036
:102E8000222808DC9DF80000202804D01AA1204642
:102E9000FDF796F90CE09DF80000272804DA19A147
:102EA0002046FDF78DF903E019A12046FDF788F9CA
:102EB0001DA104F12000FDF783F935B904F160028A
:102EC000C0213046FFF7A0F805466DB901AAC2211E
:102ED0003046FFF799F80546012084F861009DF817
:102EE0000400000984F8620028467CBD564C353346
:102EF0004C30582054533000564C35334C30582009
:102F000054533100564C35334C3058205453320012
:102F1000564C35334C305820455331206F72206C5D
:102F20006174657200000000564C35334C30580017
:102F30002DE9F04F93B005460F46002400200E9077
:102F40000D900C900B90824683464FF4C8500A9027
:102F50004FF00009002009900290F020465D072EF6
:102F60007ED0012280212846FFF721FC0443012264
:102F7000FF212846FFF71BFC044300221146284688
:102F8000FFF715FC04430622FF212846FFF70FFC3C
:102F9000044312AA83212846FFF736F804439DF81C
:102FA000480040F0040283212846FFF700FC044358
:102FB0000722FF212846FFF7FAFB04430122812163
:102FC0002846FFF7F4FB04432846FFF710F80443B4
:102FD000012280212846FFF7EAFB044307F00100A5
:102FE000002855D006F00100002851D16B22942111
:102FF0002846FFF7DCFB04432846FFF7E6FE0443C0
:1030000011AA90212846FFF715F804431198C0F340
:1030100006200E901198C0F3C0300D902422942108
:103020002846FFF7C4FB04432846FFF7CEFE0443BF
:1030300011AA90212846FEF7FDFF04431198000EC7
:103040008DF800001198000C8DF801001198000A0D
:103050008DF802001198C0B28DF80300252200E01F
:10306000A4E194212846FFF7A2FB04432846FFF77A
:10307000ACFE044311AA90212846FEF7DBFF04436F
:103080001198000E8DF804001198000C8DF80500C1
:1030900007F0020002287DD106F002000028FAD1D4
:1030A000022294212846FFF782FB04432846FFF7BB
:1030B0008CFE044310AA90212846FEF7A5FF044386
:1030C0007B2294212846FFF772FB04432846FFF732
:1030D0007CFE04430FAA90212846FEF795FF044387
:1030E000772294212846FFF762FB04432846FFF726
:1030F0006CFE044311AA90212846FEF79BFF04436F
:103100007F21119801EA50608DF810001198C0F3EA
:1031100086408DF811001198C0F3C6208DF812007A
:103120001198C0F306108DF8130011980007400E97
:103130001290782294212846FFF739FB0443284651
:10314000FFF743FE044311AA90212846FEF772FFC1
:1031500004437F21119801EA50709DF848100844FB
:10316000C0B28DF814001198C0F386508DF8150088
:103170001198C0F3C6308DF816001198C0F30620E0
:103180008DF817001198C0F346008DF818001198BB
:10319000C00700E05FE0400E12907922942128469B
:1031A000FFF705FB04432846FFF70FFE044311AA6F
:1031B00090212846FEF73EFF04437F21119801EA43
:1031C00090609DF848100844C0B28DF8190011981D
:1031D000C0F3C6408DF81A001198C0F306308DF880
:1031E0001B001198C0F346108DF81C001198C00602
:1031F000400E12907A2294212846FFF7D8FA044311
:103200002846FFF7E2FD044311AA90212846FEF765
:1032100011FF04437F21119801EA90709DF8481036
:103220000844C0B28DF81D001198C0F3C6508DF847
:103230001E001198C0F306408DF81F001198C0F3CE
:1032400046208DF820001198C0F386008DF82100EB
:1032500000208DF8220007F00400042873D106F046
:10326000040000286FD17B2294212846FFF79FFAA3
:1032700004432846FFF7A9FD04430CAA90212846E1
:10328000FEF7D8FE04437C2294212846FFF78FFAEC
:1032900004432846FFF799FD04430BAA90212846D2
:1032A000FEF7C8FE0443732294212846FFF77FFAF5
:1032B00004432846FFF789FD044311AA90212846BC
:1032C000FEF7B8FE044311980006000C0990742222
:1032D00094212846FFF76BFA04432846FFF775FD53
:1032E000044311AA90212846FEF7A4FE0443119935
:1032F000099840EA11600990752294212846FFF749
:1033000056FA04432846FFF760FD044311AA9021B2
:103310002846FEF78FFE0443119800064FEA104935
:10332000762294212846FFF742FA04432846FFF705
:103330004CFD044311AA90212846FEF77BFE04436E
:10334000119849EA1069002281212846FFF72FFAD7
:1033500004430622FF212846FFF729FA044312AA54
:1033600083212846FEF750FE04439DF8480000F0F4
:10337000FB0283212846FFF71AFA04430122FF21AA
:103380002846FFF714FA0443012200212846FFF7DC
:103390000EFA04430022FF212846FFF708FA0443EF
:1033A000002280212846FFF702FA0443002C60D156
:1033B000072E5ED007F00100A8B106F0010090B919
:1033C0000E9885F813010D9885F81401A04607E0C2
:1033D0001DF8081005F5957000F8081008F10108AF
:1033E000B8F1060FF4DB07F00200022811D106F055
:1033F000020070B99DF84010F12041559DF83C1035
:10340000F220415505F1F300039004A90398FCF75D
:10341000D7FE07F00400042824D106F0040008BBFE
:103420004FF48C700C994151001D0B994151099832
:10343000400202904FF49071029848514FF0000BF7
:10344000B9F1000F0CD00A98A9EB000A4FF47A707A
:103450000AFB00F04FEA101BCBF100000FFA80FBD3
:10346000C5F80CB046EA070012909DF84810F0200D
:103470004155204613B0BDE8F08F2DE9F04F87B0DD
:1034800006460C4600254FF4FA60039040F276772A
:103490004FF470784FF4257940F24E2A40F2B22B67
:1034A0004846029040F2262001900020009007EB51
:1034B0000800206005A93046FEF7B5FC05461DB1A1
:1034C000284607B0BDE8F08F9DF8140028B99DF894
:1034D000150010B99DF8160008B303AA0221304662
:1034E00001F01EFC0546D5B99DF8140020B12068F6
:1034F00003995144084420609DF8160038B12068B3
:1035000003995944022202FB0100206007E09DF864
:10351000150020B12068039949440844206075B91A
:103520009DF8170058B16A460321304601F0F8FBB8
:1035300005462168009A029810440844206075B935
:103540009DF8180058B104AA0421304601F0E8FBA8
:1035500005462168049A01981044084420600DB97A
:10356000216871612846ACE72DE9F84306460C4610
:10357000002540F2FF774FF480586A4628213046F4
:10358000FEF76EFD0546BDB9BDF80000C0F30B00A7
:103590000090BDF80000B84208DDBDF80000A0EBC7
:1035A000080000B2FA214843206005E0BDF80000A1
:1035B00000B2FA21484320602846BDE8F8832DE98F
:1035C000FF4F8FB007469946DDE91CA60025002075
:1035D0000E900D900C900B900A900990089000248A
:1035E000029001901098C0F3C3045CB1052C09D07F
:1035F000072C07D00C2C05D00D2C03D00E2C01D09D
:103600000F2C02D14FF0010B01E04FF0000B2DB950
:103610000BAA00213846FEF79AFA05469DF82C00C1
:10362000D0B1CDB901AB07AA51463846FFF7DCF956
:10363000054615B90198AAF80A006DB906AA002135
:103640003846FEF792FA0546069828B1DDE90610DD
:10365000884201D901200E902DB909AA02213846CD
:10366000FEF775FA05469DF8240050B34DBB05AA38
:1036700002213846FEF779FA05462DB90122FF21CD
:103680003846FFF794F805462DB902AAB621384608
:10369000FEF7E6FC05462DB90022FF213846FFF76C
:1036A00086F80546BDF80800400200900098C7F86B
:1036B0004801059828B105990098884201D9012050
:1036C0000D902DB908AA03213846FEF740FA0546A9
:1036D0009DF82000C8B1C5B9B9F1000F02D1002092
:1036E000039004E011980002B0FBF9F0039004AAE3
:1036F00003213846FEF739FA0546049828B1DDE97A
:103700000301884201D201200C9035BBBBF1010FAF
:1037100002D1FF20307028E0012C03D0022C01D010
:10372000032C02D1052030701FE0062C01D0092C9B
:1037300002D10420307018E0082C04D00A2C02D0EA
:103740000D98012802D1032030700EE0042C02D025
:103750000C98012802D10220307006E00E98012852
:1037600001D1307001E000203070307810B90020B5
:10377000AAF80A000AAA01213846FEF7E8F9054628
:1037800075BB9DF82C0010B10E98012802D14FF0A6
:10379000010801E04FF0000887F82E80042C02D0C9
:1037A0009DF8280010B94FF0010801E04FF0000823
:1037B00087F82F809DF8240010B10D98012802D1C0
:1037C0004FF0010801E04FF0000887F830809DF8C5
:1037D000200010B10C98012803D14FF0010802E03D
:1037E00003E04FF0000887F83180284613B0BDE8A9
:1037F000F08F000070B504460D460026062C22D23C
:10380000DFE804F003080D12171C13A12846FCF78B
:10381000D7FC1DE014A12846FCF7D2FC18E016A145
:103820002846FCF7CDFC13E017A12846FCF7C8FC9E
:103830000EE019A12846FCF7C3FC09E01AA12846AE
:10384000FCF7BEFC04E01CA12846FCF7B9FC00BF55
:1038500000BF304670BD000052616E676520566142
:103860006C696420202000005369676D6120466107
:10387000696C2020202000005369676E616C20462F
:1038800061696C20202000004D696E2052616E67D6
:1038900065204661696C000050686173652046616F
:1038A000696C202020200000486172647761726595
:1038B000204661696C2000004E6F20557064617471
:1038C0006520202020200000F8B507460D4614464C
:1038D0000026E86820606A462946384600F008F865
:1038E00006461EB920680099084420603046F8BD9D
:1038F0002DE9F84305460E461446002700202060B7
:1039000069462846FEF7F8FA07465FB99DF80000B9
:1039100040B1D5F82080B08A00FB08F909F1800099
:10392000000A20603846BDE8F883F8B507460C4623
:103930001546002614B1012C0ED106E06A4650212E
:103940003846FEF761FB064609E06A4670213846B4
:10395000FEF75AFB064602E06FF0030600BF00BF09
:1039600026B99DF80000FFF72AFA28703046F8BD06
:103970001CB501210846FDF7D9FA3020009001203E
:103980008DF8040000208DF8060002208DF8050057
:1039900069460448FDF7E8F830210248FDF752F97E
:1039A0001CBD0000000002401CB501210846FDF7C7
:1039B000BDFA2020009000208DF804008DF807004B
:1039C00002208DF8050069460148FDF7CDF81CBDC1
:1039D00000000240024600204FF0804100E08908CC
:1039E0009142FCD809E04318934204D84318D21AF4
:1039F00001EB500000E0400889080029F3D170472E
:103A00002DE9FF5F06460D4600200390002463E089
:103A10002F5D641CFF2F44D1285D0290641C029826
:103A200030B1012811D002281CD0032834D126E05F
:103A300015F80480641C15F80490641C09EB082038
:103A40001FFA80FAA6F834A12AE015F80480641C55
:103A500015F80490641C09EB08201FFA80FAA6F8F8
:103A600036A11DE015F80480641C15F80490641C50
:103A700009EB08201FFA80FAA6F838A110E015F823
:103A80000480641C15F80490641C09EB08201FFADC
:103A900080FAA6F83CA103E06FF00300039000BF9A
:103AA0001AE0042F15DC285D0190641C4FF0000B18
:103AB00005E0285D0DF80B00641C0BF1010BBB4504
:103AC000F7DB3B466A4630460199FEF79CFE0390C1
:103AD00002E06FF003000390285D10B10398002806
:103AE00096D0039804B0BDE8F09FF8B506460024D0
:103AF00000200090002500BF69463046FEF790F890
:103B0000044604B10FE09DF80000012800D10AE04E
:103B10006D1CB5F5FA6F02D36FF0060403E0304672
:103B2000FEF765FAE8E700BF2046F8BD2DE9F04F43
:103B300085B005460E4690461F460024A146A24683
:103B4000A3460FB195F83091022201212846FEF7D5
:103B50002EFE044624B90021284600F094F90446BC
:103B60008CB9B8F1010F0ED10120002104AA5B46E7
:103B7000CDE90026CDE9021052460146284600F064
:103B800037FA044601E0002030704CB947B14A468C
:103B900001212846FEF70BFE04460CB985F830914A
:103BA000204605B0BDE8F08F2DE9F047054689466F
:103BB00016461F460024A04695F8308100233A4659
:103BC0004946284600F07FF9044634B900233A46B6
:103BD00031462846FFF7AAFF044644B94246012170
:103BE0002846FEF7E4FD04460CB985F830812046EE
:103BF000BDE8F0872DE9F74F94B0044600254FF05B
:103C0000B40B032011902C201090002600200F9060
:103C10000E904FF42067804681464FF0060A0C90C4
:103C20000B900A900990089007900690B4F83C71A8
:103C300000BF06E0002104F5927000F8091009F1B8
:103C40000109D145F6D30122FF212046FEF7AFFD41
:103C500005462DB900224F212046FEF7A8FD054656
:103C60002DB92C224E212046FEF7A1FD05462DB987
:103C70000022FF212046FEF79AFD05462DB95A463F
:103C8000B6212046FEF793FD05462DB9002280217E
:103C90002046FEF78CFD054635B9002308AA09A980
:103CA0002046FFF781FF05468DB900260F96B046E6
:103CB0000FA91198CDE900ABCDE90260049141460E
:103CC00004F592739A1D204600F06CFF0546002D06
:103CD00044D10F9E0DA9204601F030F90546002D74
:103CE0003AD1BDF83400B84236DDA94606E00021DD
:103CF00004F5927000F8091009F10109D145F6D3D5
:103D000000E0761C0BEB060001F0C6F810B9109825
:103D10008642F6D34FF001080FA91198CDE900AB08
:103D2000CDE902600491414604F592739A1D204644
:103D300000F038FF05468DB90F9E0DA9204601F011
:103D4000FDF8054655B9BDF83400B84206DD01203E
:103D500006901198079001E04FF00008002D7CD1EB
:103D6000BDF83400B84278DA08F0FF0006901198E8
:103D70000790524604F5927112A8FCF7D7F9BDF8E6
:103D80003410C81B002801DB014600E041420B91C2
:103D900000200A905DE00EAB3246514604F5957066
:103DA00000F07EFF0E98401C10B96FF0310553E013
:103DB0000E990BEB010001F06FF8404502D0012095
:103DC0000A9049E00798401C07900E9E32465146E3
:103DD00004F5927000F03CFF054635B9761C04F5F9
:103DE0009271204601F005F9054605B134E00DA9B0
:103DF000204601F0A3F8054605B12DE0BDF83410CA
:103E0000C81B002801DB014600E041420C91BDF8CF
:103E10003400B84215DDDDE90B1088420DD912A936
:103E2000204601F0E6F80546524612A904F59270C4
:103E3000FCF77CF90798401E079001200A9008E0E3
:103E40000BE00C980B90524604F5927112A8FCF707
:103E50006DF90A9800289ED000BF85B9159907987A
:103E60000860169906980870012184F815111598B4
:103E7000017884F813111698017884F814112846F3
:103E800017B0BDE8F08F70B506460D46002434B972
:103E900045F0010200213046FEF789FC04461CB9BA
:103EA0003046FFF722FE044624B900213046FDF7D4
:103EB00085FC04462CB9002211463046FEF777FCFB
:103EC0000446204670BD2DE9F04F85B005460E46EC
:103ED00090461F460024A146A246A3460020049017
:103EE0000FB195F83091012211462846FEF75FFC8C
:103EF000044624B940212846FFF7C5FF044684B98B
:103F0000B8F1010F0DD10020012104AA5B46CDE9D3
:103F10000062CDE902105246284600F069F80446D6
:103F200001E0002030704CB947B14A4601212846D3
:103F3000FEF73DFC04460CB985F83091204605B0EB
:103F4000BDE8F08F2DE9F04104460D4616460027E6
:103F5000012332462946204600F021F8074638461C
:103F6000BDE8F081F8B505460E4614460027042347
:103F70006A463146284600F012F807469DF80000D0
:103F800000069DF8011000EB01409DF8021000EBC7
:103F900001209DF80310084420603846F8BD2DE943
:103FA000F04106460F4614461D464FF000082346D2
:103FB0002A463946304600F0B7FB08B14FF00108F9
:103FC0004046BDE8F081F8B505460E461446002788
:103FD00002236A4631462846FFF7E1FF07469DF86F
:103FE00001009DF8001000EB012020803846F8BD4C
:103FF0002DE9F84F80460D4691469A46DDE90BB60D
:104000000D9F0024002000900122FF214046FEF772
:10401000CEFB0443002211464046FEF7C8FB044392
:104020000022FF214046FEF7C2FB044375B12EB1CA
:10403000CB2140460A9AFDF7E7FF0443AFB16A4639
:10404000EE214046FDF7E0FF04430EE02EB14A4664
:10405000CB214046FEF7ABFB044337B153468022E9
:10406000EE214046FEF77AFB04430122FF21404641
:10407000FEF79DFB0443012200214046FEF797FB1B
:1040800004430022FF214046FEF791FB04439DF8C4
:10409000000000F0EF008BF800002046BDE8F88F2C
:1040A0002DE9F04F89B080460F4600264FF4FA60A4
:1040B000069040F276794FF4707A4FF4257B40F207
:1040C0004E20059040F2B22004905846039040F2F2
:1040D000262002900020019044F6206000900025E8
:1040E0000098874204D22E1F304609B0BDE8F08FF9
:1040F00009EB0A003C1A07A94046FDF794FE064664
:10410000002E3BD19DF81C0030B99DF81D0018B958
:104110009DF81E00002831D006AA0221404600F07A
:10412000FFFD06460EB13046DFE79DF81C0040B1AA
:10413000DDE905010D18A54201D2641B01E06FF015
:1041400003060EB13046D0E79DF81E0050B1069927
:10415000049808444500A54201D2641B0EE06FF0AC
:1041600003060BE09DF81D0040B1069800EB0B051F
:10417000A54201D2641B01E06FF003060EB1304688
:10418000B3E79DF81F0070B101AA0321404600F07B
:10419000C7FD0646019903980D18A54201D2641B7C
:1041A00001E06FF0030666B99DF8200048B102985F
:1041B000241A22460421404600F027FF0646C8F88C
:1041C0001470304691E72DE9F04F87B004468946D8
:1041D0001646002500274FF0B40A4FF0060B2C209E
:1041E00006900122FF212046FEF7E1FA05462DB98F
:1041F00000224F212046FEF7DAFA05462DB92C227F
:104200004E212046FEF7D3FA05462DB90022FF21A4
:104210002046FEF7CCFA05462DB95246B621204677
:10422000FEF7C5FA05464FF0000806E0002104F548
:10423000927000F8081008F10108D845F6D34EB185
:1042400000E07F1C0AEB070000F026FE10B906987C
:104250008742F6D305A804F592739A1D3146CDE93D
:1042600000BACDE902790490204600F09BFC054697
:1042700035B9012184F8151184F8139184F814617B
:10428000284607B0BDE8F08F2DE9F04F87B007460C
:104290000E46154600244FF00C094FF0120A4FF05D
:1042A000080B0E20059000200190284605EBD071E8
:1042B0004910A5EB410109B1241F10E036B94D4565
:1042C00001DB554502DD6FF0030408E0012E06D145
:1042D0005D4502DB0598854201DD6FF003041CB1EA
:1042E000204607B0BDE8F08FDEBB0C2D0CD11822A4
:1042F00057213846FEF75BFA044608225621384615
:10430000FEF755FA0446E2E00E2D0CD1302257217B
:104310003846FEF74CFA0446082256213846FEF786
:1043200046FA0446D3E0102D0CD1402257213846DE
:10433000FEF73DFA0446082256213846FEF737FAC2
:104340000446C4E0122DDED1502257213846FEF734
:104350002EFA0446082256213846FEF728FA04466B
:10436000B5E0FFE7012ECED1082D2AD11022482139
:104370003846FEF71CFA0446082247213846FEF765
:1043800016FA0446022232213846FEF710FA044398
:104390000C2230213846FEF70AFA04430122FF219D
:1043A0003846FEF704FA0443302211463846FEF739
:1043B000FEF904430022FF213846FEF7F8F90443D2
:1043C00085E00A2D2AD1282248213846FEF7EFF948
:1043D0000446082247213846FEF7E9F9044603223D
:1043E00032213846FEF7E3F90443092230213846EA
:1043F000FEF7DDF904430122FF213846FEF7D7F925
:104400000443202230213846FEF7D1F9044300222C
:10441000FF213846FEF7CBF9044358E00C2D2AD192
:10442000382248213846FEF7C2F9044608224721BF
:104430003846FEF7BCF90446032232213846FEF71F
:10444000B6F90443082230213846FEF7B0F9044398
:104450000122FF213846FEF7AAF904432022302129
:104460003846FEF7A4F904430022FF213846FEF740
:104470009EF904432BE00E2D29D1482211463846DF
:10448000FEF795F90446082247213846FEF78FF9D2
:104490000446032232213846FEF789F904430722F5
:1044A00030213846FEF783F904430122FF213846C4
:1044B000FEF77DF90443202230213846FEF777F9D4
:1044C00004430022FF213846FEF771F90443002C13
:1044D00047D12846FEF7B6FC069016B1012E3CD116
:1044E00024E003AA0321384600F01AFC04462CB944
:1044F00002AA0221384600F013FC04462CB95021D0
:104500003846069AFEF753F904462CB9032138467B
:10451000039A00F07AFD04462CB902213846029A2B
:1045200000F073FD0446E820C55519E004AA0421F3
:10453000384600F0F5FB04462CB970213846069A3F
:10454000FEF735F904462CB904213846049A00F0E8
:104550005CFD0446E020C55502E06FF0030400BF97
:1045600000BF34B9D7F8148041463846FDF723FF21
:10457000044634B90123002201A93846FFF7D6FAD0
:1045800004462046ADE6F7B504460D460026012355
:1045900002AA2946204600F003F806463046FEBD32
:1045A0002DE9F04106460F4614461D464FF000081F
:1045B00023462A463946304600F0A8F908B14FF0A4
:1045C00001084046BDE8F081F8B506460C461546A0
:1045D000002728128DF80000E8B28DF8010020466F
:1045E00004EBD0714910A4EB410101290ED1012344
:1045F0006A4621463046FFF7D3FF074601236A4645
:1046000021463046FFF7CCFF074606E002236A4604
:1046100021463046FFF7C4FF07463846F8BD000084
:1046200010B50020114908601148006820F440408E
:104630000F4908600846006840F48060086008463A
:10464000808820F02000888000200A49C1F8940268
:10465000022000F087FA012004490860022000F0DF
:1046600081FA00200349C1F8900210BD9002404237
:10467000000002400000404210B5002011490860CF
:104680001148006820F440400F490860084600685F
:1046900040F4806008600846808820F02000888010
:1046A00001200A49C1F89402022000F05BFA0120BF
:1046B00004490860022000F055FA00200349C1F8BF
:1046C000900210BD900240420000024000004042B3
:1046D00070B505460024FFF767F9002616E00020B4
:1046E0000F490860042000F03DFA01200D49C1F88F
:1046F00090026006040E0A487C38006808B1601C0D
:10470000C4B2042000F02EFA701CC6B2082EE6DBFC
:1047100015B9FFF7B1FF01E0FFF782FF204670BD3A
:1047200090024042000040422DE9F04106460F460B
:1047300014461D4600F06EF8304600F02BF800F0ED
:10474000BFF820B100F092F80120BDE8F0813846B2
:1047500000F020F800F0B4F800F05CF846F001003A
:1047600000F018F800F0ACF80DE0012C04D10020A6
:10477000FFF7AEFF287003E00120FFF7A9FF2870C4
:104780006D1C601E84B2002CEFD100F06FF8002089
:10479000DBE7000070B504461B48006820F4404089
:1047A000194908600846006840F4806008600846BF
:1047B000808820F0200088800020144908600025AF
:1047C0001EE0E00920B101201049091D086003E046
:1047D00000200E49091D08606006040E022000F04A
:1047E000C1F9012009490860022000F0BBF900204E
:1047F0000749C1F89002022000F0B4F9681CC5B264
:10480000082DDEDB70BD0000000002409002404237
:104810000000404210B51248006820F440401049A2
:1048200008600846006840F4806008600846808898
:1048300020F02000888001200A4908600A49C1F858
:104840009002042000F08EF9002006490860042040
:1048500000F088F900200449C1F8900210BD000062
:1048600000000240940240420000404210B511484E
:10487000006820F440400F4908600846006840F492
:10488000806008600846808820F020008880002032
:10489000094908600949C1F89402042000F062F94E
:1048A0000120054908600549C1F89402042000F080
:1048B00059F910BD00000240900240420000404201
:1048C00010B50024FFF770F801200E49086000F0D1
:1048D00049F901200C49C1F8900200F043F907E0C2
:1048E000601CC4B2FA2C03DDFFF7C0FF012010BD2D
:1048F0000448803800680028F2D10249091F086086
:1049000000BFF4E794024042000040422DE9F0412C
:1049100007460D4616461C46FFF77CFF3846FFF754
:1049200039FFFFF7CDFF20B1FFF7A0FF0120BDE861
:10493000F0812846FFF72EFFFFF7C2FF05E014F8CD
:10494000010BFFF727FFFFF7BBFF3000A6F10101C6
:104950008EB2F4D1FFF78AFF0020E8E70FB4054BD1
:1049600010B503A9044A029800F017F810BC5DF8CE
:1049700014FB0000854C0008A803002002E008C8D2
:10498000121F08C1002AFAD170477047002001E0C9
:1049900001C1121F002AFBD170472DE9F84F99463B
:1049A000924688460546002706E025280AD051464B
:1049B0004A4690476D1C7F1C28780028F5D1384660
:1049C000BDE8F88F002315F8011F18462E2915D1D0
:1049D00015F8011F04232A290DD06FF02F02297822
:1049E000A1F13004092C09D800EB800002EB400053
:1049F00008446D1CF3E758F8040B6D1C2A78002A54
:104A0000DDD0632A07D0732A0FD0104651464A469C
:104A100090477F1C2AE018F8042B8DF80020002115
:104A20008DF801106E46012103E058F8046B4FF039
:104A3000FF315A074FF0000401D409E0641C84429E
:104A40000BDA8C42FADB325D002AF7D105E0641CF8
:104A50008C42FCDB305D0028F9D1274404E016F8D5
:104A6000010B51464A469047641EF8D26D1CA3E7DD
:104A700010B503460C4611460AE0585C412802DB9B
:104A8000585C5A2802DD0A46012010BD481CC1B2FC
:104A9000A142F2DB00210AE0585C412802DB585CAD
:104AA0005A2802DD0A460120EFE7481CC1B29142B4
:104AB000F2DB0020E9E72DE9F04105460F461646F6
:104AC000002403E0385D2855601CC4B2B442F9DB11
:104AD0000020A8552846FCF719FEBDE8F08100002B
:104AE00010B56FF00400FCF75BFB0A4800680A4948
:104AF000B0FBF1F0094908700846007800EB40016E
:104B0000C1EBC0104FF6FF7101EAC00004490880F4
:104B100010BD00002400002000127A004800002090
:104B20004A000020014600200D4A12884A434FF0F7
:104B3000E0235A6100229A6101221A6100BF4FF0FE
:104B4000E022106900F001021AB100F48032002A5C
:104B5000F5D000224FF0E0231A619A6170470000FF
:104B60004A000020014600200D4A12784A434FF0C7
:104B7000E0235A6100229A6101221A6100BF4FF0BE
:104B8000E022106900F001021AB100F48032002A1C
:104B9000F5D000224FF0E0231A619A6170470000BF
:104BA000480000202DE9FF4F85B0884691461D46FC
:104BB000DDF850B0DDF848A00026CDF80CB05F4617
:104BC000002004901FE003AB3A465146484600F0EF
:104BD00067F80398401C10B96FF0310617E0039A8C
:104BE0001399881800F058F9404502D06FF031064B
:104BF0000DE0039F3A465146284600F029F87F1CF5
:104C00000498401C0490159904988842DBD300BF97
:104C10001698076026B92946059800F0EAF9064675
:104C200096B901A9059800F06FF80646002408E03F
:104C3000285D01A9095D884202D06FF0310602E0CB
:104C4000641C5445F4D300BF304609B0BDE8F08F72
:104C5000F0B503460C4600200825B2FBF5F1B2FB87
:104C6000F5F705FB1726A14202D36FF0310007E0EC
:104C70005F5C4FF0010C0CFA06FC47EA0C075F542E
:104C8000F0BD000000BF054A128802F04002002A71
:104C9000F9D0C2B2014B1B1D1A807047004800407A
:104CA0002DE9F04706460F4608214FF000094FF066
:104CB000FF3AC3F800A0B2FBF1FCB2FBF1FA01FB32
:104CC0001A28604619E00024355C604502D145FA97
:104CD00008F544460DE005F0010ABAF1000F06D0D0
:104CE0004FF0010900FB014AC3F800A003E06D107A
:104CF000641C8C42EFD300BF401CB84202D2B9F111
:104D0000000FE0D0BDE8F08770B505460C460623DD
:104D10002246B0212846FDF7B9F90646304670BD57
:104D20002DE9F04F87B082460D461746002400203B
:104D300005908346049081461DB1012D01D0022DBE
:104D40001AD106AA00215046FDF7A8F804462CB94E
:104D500005AA46215046FDF757F904469DF8140070
:104D6000FEF726F81FFA80F89DF8182041465046B5
:104D7000FDF7DCFF83465EE0032D21D106AA00216A
:104D80005046FDF78BF80446002C54D106AA0021AA
:104D90005046FDF783F804462CB904AA5121504629
:104DA000FDF75EF90446BDF81000FEF701F886B283
:104DB0009DF8182031465046FDF7B8FF83463AE08B
:104DC000042D38D101A95046FDF72DF800269DF895
:104DD000070088B106AA00215046FDF75FF8044697
:104DE00054B904AA51215046FDF73AF90446BDF8DA
:104DF0001000FDF7DDFF86B22CB906AA012150464E
:104E0000FDF74CF804465CB903AA71215046FDF742
:104E100027F90446BDF80C00FDF7CAFF1FFA80F918
:104E2000A9EB06001FFA80F99DF818204946504664
:104E3000FDF77CFF8346C7F800B0204607B0BDE809
:104E4000F08FF0B50446154600201FE0265C3209BD
:104E5000265C06F00F03092A04DD02F1370601F88B
:104E6000106003E002F1300601F81060092B06DD46
:104E700003F13706F7B24600761C8F5505E003F1C3
:104E80003006F7B24600761C8F55401CA842DDD391
:104E9000002601F81060F0BD014601208A09034B8D
:104EA00053F8223003B90020704700005C03002053
:104EB00000F00AF807E0FBF7D5FE00F03FF900F03C
:104EC0003FFA00F0BBFAF6E710B54FF4A060FCF72C
:104ED00021F8FFF705FE4FF4165000F0CFF94FF41C
:104EE000165000F06BF940F67F41C720FCF7B2F98D
:104EF00040F67F4141F28730FCF714FAFBF7F0FCF3
:104F0000FBF7AAF900F08AFAFBF798FF00F022F904
:104F100004A0FCF7FBFB40F64E410520FBF7A6FE84
:104F200010BD000056455253494F4E5F595F4D5FCB
:104F3000443A3139303432340D0A0000F0B587B0CC
:104F400005460E460024002795F830712CB9C02282
:104F500001212846FDF72BFC044624B96946284662
:104F6000FDF729F804462CB90122FF212846FDF758
:104F70001EFC04462CB93246B6212846FDF770F8CF
:104F800004462CB90022FF212846FDF710FC0446F8
:104F900044B93A4601212846FDF709FC04460CB9FC
:104FA00085F83071204607B0F0BD30B504460020CA
:104FB00000251D70052917D2DFE801F003070B0F4C
:104FC0001300C2F300151D7011E0C2F3C0051D707F
:104FD0000DE0C2F380051D7009E0C2F380151D705D
:104FE00005E0D5091D7002E06FF0030000BF00BFAF
:104FF00030BD70B505460C4606232246B021284632
:10500000FDF701FC0646304670BD2DE9F04F85B036
:1050100006460D46174600241DB1012D01D0022D74
:1050200023D104AA00213046FCF738FF04469CB97E
:105030009DF8102039463046FDF75EFE1FFA80FAD3
:10504000BAF5807F02DD4FF0FF0803E0AAF101000E
:1050500000F0FF08A6F8D880002C6BD1424646210C
:105060003046FDF7A4FB044664E0032D23D1ACB920
:1050700004AA00213046FCF711FF04469DF81020D9
:1050800039463046FDF738FE1FFA80F94846FDF7ED
:10509000C5FE0390BDF80C10D820815334B9BDF87B
:1050A0000C2051213046FDF798FB0446002C41D1DD
:1050B000E42087513EE0042D3AD169463046FCF7A2
:1050C000B2FE4FF000099DF8030090B104AA002140
:1050D0003046FCF7E3FE04465CB903AA5121304692
:1050E000FCF7BEFF0446BDF80C00FDF761FE1FFA99
:1050F00080F92CB904AA01213046FCF7CFFE044602
:10510000C4B99DF8102039463046FDF7F5FD8346B9
:10511000CB445846FDF782FE02902CB971213046EF
:10512000029AFDF75AFB044624B9DC20875101E0BE
:105130006FF00304204605B0BDE8F08F10B50448B9
:1051400000F0D2F900F01CF83220FFF7EBFC10BDA4
:10515000B805002010B500BF044800F0E1F90028B0
:10516000FAD103A0FCF7D2FA10BD0000B805002068
:10517000564C35334C3058204F4B0D0A0000000080
:105180001CB50C480088C0B20090012201A96846F5
:10519000FFF757FE01A8FCF7B9FA0A20FCF74AF915
:1051A0000020054908709DF80000232801DA01203D
:1051B00008701CBD6C0300206E03002010B588B081
:1051C000044601210220FBF7B1FE01218804FBF710
:1051D000BDFE07220A212748FBF708FD07220B2105
:1051E0002448FBF703FD4FF48060069002208DF801
:1051F0001C008DF81D0000208DF81E0001208DF888
:105200001F0006A91B48FBF7AFFC4FF40060069097
:1052100002208DF81C0006A91648FBF7A5FC2720E4
:105220008DF8040001208DF805008DF806008DF83A
:10523000070001A8FBF732FE02940020ADF80C0035
:10524000ADF80E00ADF81000ADF814000C20ADF86C
:10525000120002A90848FCF7E9F9012240F22551A1
:105260000548FCF7BDF901210348FCF776F908B0C1
:1052700010BD0000000402400048004010B588B096
:10528000044601210846FBF751FE01218803FBF784
:105290006DFE072209212848FBF7A8FC07220A21F6
:1052A0002548FBF7A3FC4FF40070069002208DF810
:1052B0001C008DF81D0000208DF81E0001208DF8C7
:1052C0001F0006A91C48FBF74FFC4FF480600690B6
:1052D00002208DF81C0006A91748FBF745FC252085
:1052E0008DF8040001208DF8050003208DF80600DC
:1052F00001208DF8070001A8FBF7D0FD02940020E3
:10530000ADF80C00ADF80E00ADF81000ADF81400CB
:105310000C20ADF8120002A90848FCF787F9012219
:1053200040F225510548FCF75BF901210348FCF7E1
:1053300014F908B010BD0000000002400038014020
:1053400010B58AB0002432212648FAF708FF264813
:105350000078002844D0022224A12248FAF71CFF3A
:10536000A01CC4B2022222A11E48FAF715FFA01CFD
:10537000C4B20F2202A91F48FFF763FD1E2202A933
:105380001848FAF709FF04F11E00C4B202221AA15C
:105390001448FAF701FFA01CC4B2012201A9174862
:1053A000FFF74FFD022201A90E48FAF7F5FEA01CF7
:1053B000C4B2012201A90C48FFF743FD022201A952
:1053C0000848FAF7E9FEA01CC4B2002005490855B8
:1053D00000F016F80348FCF799F90A20FCF72AF8C0
:1053E0000AB010BD5B0500206E03002030340000C1
:1053F00044440000AC03002046440000AD000020FF
:1054000005480078401C0449087008460078C82800
:1054100001DD012008707047AD00002010B530227A
:105420000A210448FAF794FE302241210248FAF793
:105430008FFE10BD600000206B00002010B50748F3
:10544000007848B1064907A0FBF78AF94FF47A7053
:10545000FFF768FBFBF758F910BD00006E03002052
:105460005B050020323000002DE9F84305460E466A
:105470000024A046374695F85C01B84202D10020CE
:10548000BDE8F883002288212846FDF790F90446FC
:1054900014B14FF0010825E06A46C0212846FCF708
:1054A000DFFD044614B14FF002081BE0BDF8000018
:1054B0004EF6AA61884214D139462846FCF701FE0F
:1054C000044614B14FF003080CE085F85C716A469D
:1054D000C0212846FCF7C4FD044614B14FF004086F
:1054E00000E000BF2046CBE77CB50446002585B927
:1054F000084A0949204600F037F905460222694664
:105500000648FFF79EFC6846FCF700F90A20FBF707
:1055100091FF7CBDB80700207C0700206C030020B1
:105520002DE9F0410446012700252646522086F841
:105530005C01012086F85D014FF4C870A6F85E0199
:1055400000F038F8FEF714FA0020164908601E2013
:10555000FFF7E8FA01201449C1F898021E20FFF76E
:10556000E1FA54213046FFF77FFF054615B1284682
:10557000BDE8F0813046FCF74BF905460DB12846F1
:10558000F6E70220FFF7CEFA08493046FCF716FA94
:1055900005460DB12846EBE73946054800F042F8CC
:1055A00000BFE5E798024042000040421807002093
:1055B000B80500201CB501210846FBF7B7FC4020C8
:1055C000009001208DF8040000208DF806000220D4
:1055D0008DF8050069460248FBF7C6FA1CBD0000BD
:1055E0000000024070B5044694F85C5100200B495D
:1055F00008601E20FFF796FA01200949C1F89802B9
:105600001E20FFF78FFA522084F85C0129462046BD
:10561000FFF72AFF2046FCF7FBF870BD98024042D6
:10562000000040427FB506460D4600243046FFF795
:10563000D9FF3046FCF7C2FF044602AA03A9304650
:10564000FCF77CFC044604B178E00220FFF76AFA1C
:105650006A4601A93046FCF781FC044604B16DE0BE
:105660000220FFF75FFA00213046FCF73CFD0446BC
:1056700004B163E00220FFF755FA01220021304611
:10568000FCF7FDFD044604B158E00220FFF74AFA9A
:10569000012211463046FCF7F2FD044604B14DE00C
:1056A0000220FFF73FFAC5EBC500294901EB400096
:1056B000426800213046FCF743FE044604B13DE059
:1056C0000220FFF72FFAC5EBC500214901EB40008E
:1056D000026801213046FCF733FE044604B12DE098
:1056E0000220FFF71FFAC5EBC500194A02EB400084
:1056F00081683046FCF75FFE044604B11EE00220DC
:10570000FFF710FAC5EBC500114901EB4000027B21
:1057100000213046FCF7BCFE044604B10EE0022036
:10572000FFF700FAC5EBC500094901EB4000427BD9
:1057300001213046FCF7ACFE044600BF2CB105A0A9
:10574000FBF7E4FF204604B070BD2046FBE70000F5
:105750006F030020736574206D6F6465206572723D
:105760006F722121210D0A002DE9F04180460C467F
:105770001546002621464046FCF71DFC064616B19C
:105780003046BDE8F081277E20212846FAF7E7FC65
:1057900029463846FCF785FA2089024908803046B8
:1057A000EFE700006C030020C8570008000000204D
:1057B000AC030000F8010008A45A0008AC03002064
:1057C0002C0800008C490008520001200A0304063E
:1057D000080C101820300D200501020304042005D8
:1057E000060708091DB00448E801206124612081F2
:1057F00001C2300FB111F11C012F0142017A13FFD8
:105800000109301501FF000109000110000111001C
:105810000124010125FF01751B20094E2C014800C0
:1058200001302021203630090154000131040132B9
:105830000301408301462501600001270001500655
:1058400001510001529601560801573001610001D3
:1058500062000164000165000166A045300B223240
:105860000147140149FF014A6920097A0A017B00B6
:1058700001782160201B23340142000144FF0145CF
:1058800026014605014040010E0601201A01434051
:105890002A2006340301354487117520094B09017C
:1058A0004C05014D0442301D4400014520014708CC
:1058B0000148280167000170040171010172FE01B5
:1058C00076000177B7230D0169200680010101F8F8
:1058D000C6128EE4411241F3311B51F910670101E8
:1058E0004F0201FF0E01000301018401020A0103BE
:1058F000030104080105C801060301078D0108081A
:105900000109C6010A01010B02010C00010DD501BC
:105910000E18010F12011001011182011200011372
:10592000D501141801151301160301178601180A71
:10593000011909011A08011BC2011C03011D8F0175
:105940001E0A011FD5143101012102012200012389
:10595000D5012418012522012601012782012800F2
:105960000129D5012A18012B0B012C28012D7801C2
:105970002E28012F9101306B34380B013200013396
:105980000B0134000135A10136000137A0013800B8
:10599000013904013A28013B30013C0C013D04016E
:1059A0003E0F013F7901402801411E01422F014372
:1059B000872024080B01460001470BBF2749A77A1F
:1059C00024064BA6014C0041124EF315B6242F00BD
:1059D0000151800152090153080154010155000190
:1059E000560F015779015809015905015A00015B09
:1059F00060015C05015DD1015E0C015F3CEC142C83
:105A000061D001620B016303016428016510016626
:105A10002A01673901680B016902016A28016B10CC
:105A2000016C2A016D61016E0C016F9534110F013B
:105A3000717901720001730B01740001750B9E14E2
:105A40000DA10178000179A0017A00017BCB441FF0
:105A50000401791D017B2701960E0197FE01980331
:105A60000199EF019A02019B440173070170A4257B
:105A7000B919F1120A045A05FD61082E400A0314EF
:105A8000041200E8D7630E0A0E1004400D030E2323
:105A9000991921323C1C43120E2A30052000204E59
:045AA0002A210100B6
:04000005080000F5FA
:00000001FF
