:020000040800F2
:1000000010070020090100082D1000085D0D0008F0
:1000100029100008810800085D1900080000000090
:100020000000000000000000000000008112000835
:10003000C10A000800000000BD100008BD13000840
:100040002301000823010008230100082301000800
:1000500023010008230100082301000823010008F0
:1000600023010008230100082301000823010008E0
:1000700023010008230100082301000823010008D0
:1000800023010008230100082301000823010008C0
:1000900023010008230100082301000823010008B0
:1000A00023010008230100082301000823010008A0
:1000B0002301000829140008A514000823010008E2
:1000C0002301000823010008230100082301000880
:1000D000230100087D160008BD160008251700083A
:1000E0002301000823010008230100082301000860
:1000F00023010008DFF80CD000F050F8004800475A
:10010000DD1C00081007002006488047064800470D
:10011000FEE7FEE7FEE7FEE7FEE7FEE7FEE7FEE7B7
:10012000FEE7FEE7C1130008F5000008D2B201E0C7
:1001300000F8012B491EFBD270470022F6E710B5EC
:1001400013460A4604461946FFF7F0FF204610BD45
:1001500030B505462A460B4612F8010B13F8014B41
:1001600008B1A042F8D01CB1002802D06D1CF1E704
:10017000284630BD10B5044600E0401C0378002B33
:10018000FBD100E0401C521E04D311F8013B037068
:10019000002BF7D100210170204610BD064C074D01
:1001A00006E0E06840F0010394E807009847103447
:1001B000AC42F6D3FFF7A2FFC8240008E8240008E9
:1001C00021B1826842F00102826003E0826822F07D
:1001D000010282607047000010B504460548844261
:1001E00007D10121401500F09BFF0021601500F0B0
:1001F00097FF10BD002401400246002013680B4009
:100200000BB1012000E000207047000030B502462D
:10021000002000235068104C20400D790C6844EAFF
:1002200005242043506090680C4C2040D1E90354D1
:100230002C438D682C434D7944EA4504204390605B
:10024000106B20F0F8700C7D641EE4B2234340EA8A
:100250000350106330BD0000FFFEFFFCFDF7FFC040
:1002600010B5EAA001F07CFB4FF4967000F02AFC78
:10027000E8A1E948FFF76CFFE849086000F00EFCD0
:100280000EE000F00BFCE1A001F06AFB4FF4967069
:1002900000F018FCDFA1E048FFF75AFFDF490860D3
:1002A000DE4800680028ECD00120DD4981F87200AA
:1002B000DCA001F055FB4FF4967000F003FCDCA1CC
:1002C000D548FFF745FFD549086000F0E7FB0EE091
:1002D00000F0E4FBD3A001F043FB4FF4967000F074
:1002E000F1FBD3A1CC48FFF733FFCC490860CB48E2
:1002F00000680028ECD0D1A001F032FB4FF49670DA
:1003000000F0E0FBD0A1C448FFF722FFC34908601A
:10031000CFA001F00FFBC148006801F00BFB00F01B
:10032000BDFB15E000F0BAFBC4A001F019FB4FF4CF
:10033000967000F0C7FBC4A1B748FFF709FFB749A3
:100340000860C3A001F0F6FAB448006801F0F2FAC0
:10035000B24800680028E5D0BEA001F001FB4FF4D0
:10036000967000F0AFFBBEA1AB48FFF7F1FEAB49C2
:100370000860102208460168891DBB4801F09EFBF9
:1003800000F08CFB15E000F089FBB2A001F0E8FA68
:100390004FF4967000F096FBB1A19F48FFF7D8FE8E
:1003A0009E490860102208460168891DAE4801F088
:1003B00085FB9A4800680028E5D0ACA001F0D0FA8F
:1003C0004FF4967000F07EFB92A19348FFF7C0FEB9
:1003D0009249086000F062FB0EE000F05FFBA3A012
:1003E00001F0BEFA4FF4967000F06CFB89A18A48C8
:1003F000FFF7AEFE89490860884800680028ECD005
:100400009EA001F0ADFA4FF4967000F05BFB9EA148
:100410008148FFF79DFE8149086000F03FFB0EE038
:1004200000F03CFB95A001F09BFA4FF4967000F0B1
:1004300049FB95A17848FFF78BFE7849086077481B
:1004400000680028ECD093A001F08AFA4FF496706F
:1004500000F038FB92A17048FFF77AFE6F49086000
:1004600008460068E8B108460068807930380968B5
:100470004979303901EB810100EB4100684908708E
:1004800008460078632808D106E087A001F052FAF8
:100490004FF4967000F016FBF7E70420604981F8EE
:1004A00072002BE000F0FAFA7AA001F059FA4FF44A
:1004B000967000F007FB7AA15748FFF749FE5749AD
:1004C000086008460068C8B108460068807930387E
:1004D00009684979303901EB810100EB410050494D
:1004E000087008460078632808D106E06EA001F085
:1004F00021FA4FF4967000F0E5FAF7E747480068F4
:100500000028CFD000F0CAFA6EA001F029FA4FF40B
:10051000967000F0D7FA6EA13F48FFF719FE3F49E9
:1005200008606EA13C48FFF713FE6F49086000F0B9
:10053000B5FA14E000F0B2FA62A001F011FA4FF43B
:10054000967000F0BFFA62A13348FFF701FE33490D
:10055000086062A13048FFF7FBFD634908602F483F
:10056000006818B9604800680028E3D05FA001F077
:10057000F7F94FF4967000F0A5FA26A12648FFF788
:10058000E7FD2649086000F089FA0EE000F086FADF
:1005900056A001F0E5F94FF4967000F093FA1DA112
:1005A0001D48FFF7D5FD1D4908601C48006818B9B3
:1005B0004D4800680028E9D050A001F0D1F94FF46F
:1005C000967000F07FFA51A11348FFF7C1FD13495F
:1005D00008600846006810B152A001F0C1F94FF45C
:1005E000967000F06FFA0BA10B48FFF7B1FD0B49B5
:1005F0000860002404E0002007490855601CC4B2CC
:10060000642CF8DB00F04AFA10BD000041540D0ADA
:10061000000000004F4B0000DF0000200000002021
:100620006C00002041542B4E42414E443F0D0A00C5
:100630002B4E42414E443A350000000041542B43BA
:10064000494D490D0A0000003436303131000000B8
:100650000D0A000041542B4347534E3D310D0A0013
:100660002B4347534E0000005C00002041542B43B5
:10067000474154543D310D0A0000000041542B43C2
:10068000474154543F0D0A002B43474154543A31DB
:100690000000000041542B4353510D0A000000009C
:1006A0002B43535100000000D0C5BAC5CBD1CBF7C6
:1006B000CAA7B0DCA3ACC7EBB2E9BFB4D4ADD2F2E9
:1006C000210D0A0041542B43455245473F0D0A0076
:1006D0002B43455245473A302C3100002B434552BD
:1006E00045473A312C3100000400002041542B438F
:1006F000455245473D310D0A0000000041542B4E44
:100700004D5354415455533F0D0A00002B4E4D5349
:1007100054415455533A494E49495449414C49531F
:100720004544000041542B4E4E4D493D310D0A00C9
:1007300010B50AA10B48FFF70BFD0B4908600846EE
:10074000006850B100F0AAF9002404E00020054937
:100750000855601CC4B2642CF8DB10BD2B4E4E4D06
:10076000493A0000DF0000200000002070B5044678
:100770000D462A46214615A001F0F2F84FF47A7092
:1007800000F0A0F915A11648FFF7E2FC1549086032
:100790000846006810B100F081F913E029462046B0
:1007A00000F038F870B910A001F0DAF84FF4967044
:1007B00000F088F910A10A48FFF7CAFC094908604F
:1007C00000F06CF900F06AF970BD000041542B4E46
:1007D0004D47533D25732C25730D0A004F4B0000E8
:1007E000DF0000200000002041542B4E4D535441A7
:1007F0005455533F0D0A00002B4E4D535441545550
:10080000533A4D4F5F444154415F454E41424C4540
:10081000440000002DE9F04104460D460027002663
:1008200019E02A4621460FA001F09AF84FF47A7099
:1008300000F048F90FA11048FFF78AFC0F49086043
:100840000846006818B100F029F9012705E000F01A
:1008500025F9701CC6B2032EE3DB00BF3846BDE8A5
:10086000F081000041542B4E4D47533D25732C25FC
:10087000730D0A004F4B0000DF0000200000002035
:1008800000BFFEE710B566A001F06AF84FF496705D
:1008900000F018F964A16548FFF75AFC6449086044
:1008A00000F0FCF80EE000F0F9F85DA001F058F857
:1008B0004FF4967000F006F95BA15C48FFF748FC26
:1008C0005B4908605A4800680028ECD0012059496B
:1008D00081F8720058A001F043F84FF4967000F0D0
:1008E000F1F858A15148FFF733FC5149086000F076
:1008F000D5F80EE000F0D2F84FA001F031F84FF437
:10090000967000F0DFF84FA14848FFF721FC4849F6
:100910000860474800680028ECD04DA001F020F89E
:100920004FF4967000F0CEF84CA14048FFF710FC51
:100930003F49086000F0B2F80EE000F0AFF844A0C4
:1009400001F00EF84FF4967000F0BCF843A1374860
:10095000FFF7FEFB36490860354800680028ECD0F8
:1009600040A000F0FDFF4FF4967000F0ABF82EA110
:100970002E48FFF7EDFB2E49086005E02AA12B4821
:10098000FFF7E6FB2A490860294800680028F5D0EF
:1009900000F084F836A000F0E3FF4FF4967000F00A
:1009A00091F821A12148FFF7D3FB2149086005E018
:1009B0001DA11E48FFF7CCFB1D4908601C480068BC
:1009C0000028F5D000F06AF831A000F0C9FF4FF41C
:1009D000FA6000F077F81EA000F0C2FF4FF49670A6
:1009E00000F070F81DA11148FFF7B2FB1049086034
:1009F00000F054F80EE000F051F815A000F0B0FF40
:100A00004FF4967000F05EF814A10848FFF7A0FBC1
:100A100007490860064800680028ECD010BD0000B7
:100A200041540D0A000000004F4B0000DF00002081
:100A3000000000206C00002041542B4E42414E44E7
:100A40003F0D0A002B4E42414E443A350000000053
:100A500041542B43494D490D0A00000034363031D2
:100A60003100000041542B4346554E3D300D0A00E5
:100A700041542B4E4344503D3138302E3130312ECD
:100A80003134372E3131352C353638330D0A0000EC
:100A900041542B4E52420D0A00000000002004E099
:100AA0000021054A1154411CC8B26428F8DB00211A
:100AB000024A117070470000DF0000204100002052
:100AC00070470000014600200D4A12884A434FF04B
:100AD000E0235A6100229A6101221A6100BF4FF09F
:100AE000E022106900F001021AB100F48032002AFD
:100AF000F5D000224FF0E0231A619A6170470000A0
:100B00004A000020F0B502460B46002100240025D3
:100B1000002000BF35E0012606FA01F41E6806EA4F
:100B20000405A5422CD110684F000326BE40B043F7
:100B30001E794F00BE40304310601E79012E02D056
:100B40001E79022E12D190684F000326BE40B0439A
:100B50005E794F00BE4030439060908801268E4001
:100B6000B0439E798E40B6B230439080D0684F003B
:100B70000326BE40B043DE794F00BE403043D06014
:100B8000491C1029C7D3F0BDF0B5002300244D0740
:100B9000ED0E02FA05F3CE1000F1200555F82650AF
:100BA0004E07F70E0F26BE40B543CF1000F12006CA
:100BB00046F82750CE1000F1200555F8265045EA9A
:100BC0000304CE1000F1200545F82640F0BD024692
:100BD0000020138A0B400BB1012000E00020704779
:100BE00001837047828A4A40828270470AB101833A
:100BF00000E041837047000010B500F06DF81C491B
:100C000088600846806800EB8000400040F2B12117
:100C1000B0FBF1F01649C8600A2000F01FFD14492E
:100C2000886801F031FA092000F018FD092000F071
:100C300015FD0F49C86801F0F0F90E480C498860AD
:100C40000D48C860092000F009FD092000F006FDEC
:100C50000749886801F018FA092000F0FFFC092014
:100C600000F0FCFC0249C86801F0D7F910BD000093
:100C70009C0200202EA07600C1B8010010B500240F
:100C800024E000F029F813490861084600698968E2
:100C9000884214D90F4800690E498968401A0D49E5
:100CA00008610846006900EB8000400040F2B12175
:100CB000B0FBF1F10748143040F8241004E00021A3
:100CC0000448143040F82410601CC4B2142CD8DB43
:100CD00010BD00009C02002070B5002210211E48AB
:100CE000FFF784FF0024012000F044FF00BF202113
:100CF0001948FFF76CFF0028F9D1002518E0012200
:100D000010211548FFF772FF6400012000F032FF48
:100D1000002210211048FFF769FF20210E48FFF73D
:100D200056FF00B1641C012000F024FF681CC5B20E
:100D3000182DE4DB012210210748FFF757FF84F448
:100D40000004012000F016FF002210210248FFF7E6
:100D50004DFF204670BD00000000024000BFFEE7CE
:100D60004CF6CC400149086070470000003000405C
:100D700010B500F013F810BD70B505460C4645F2ED
:100D8000555000F01FF8284600F010F8204600F0FB
:100D900013F800F003F8FFF7E3FF70BD4AF6AA204E
:100DA0000149086070470000003000400149486078
:100DB0007047000000300040014988607047000023
:100DC00000300040014908607047000000300040DA
:100DD0001CB50121084600F073F910200090012095
:100DE0008DF8040000208DF8060002208DF8050023
:100DF00069460848FFF786FE2020009000208DF805
:100E0000040001208DF8070069460248FFF77AFECA
:100E10001CBD0000000002401CB50121032000F0B1
:100E20004FF97020009000208DF8040002208DF80A
:100E3000070069460B48FFF765FE4FF440500090ED
:100E400000208DF8040002208DF80700694606484E
:100E5000FFF758FE05480021018001200349487032
:100E60001CBD000000000240000402404C000020B5
:100E700010B55748407800287ED010215548FFF71C
:100E8000A6FE012819D020215248FFF7A0FE012814
:100E900013D040214F48FFF79AFE01280DD04FF4A0
:100EA00080514D48FFF793FE012806D04FF40051C2
:100EB0004948FFF78CFE01286AD10A2000F03AFE6B
:100EC00000204349487010214248FFF780FE012866
:100ED0000BD111203E490870404800780B303F4943
:100EE0000870612000F0BAFB4AE020213948FFF782
:100EF0006EFE01280BD12220354908703748007852
:100F00000B3036490870622000F0A8FB38E0402121
:100F10003048FFF75CFE01280BD133202C490870C4
:100F20002E4800780B302D490870632000F096FBA6
:100F300026E04FF480512848FFF749FE01280BD1E5
:100F4000552023490870254800780B302349087044
:100F5000642000F083FB13E04FF400511E48FFF7BC
:100F600036FE01280CD16620194908701B4800780C
:100F70000B301A49087000E00AE0652000F06EFBB3
:100F800016480078422821DB0020144908701DE033
:100F900010211048FFF71BFEC0B920210D48FFF7B4
:100FA00016FE98B940210B48FFF711FE70B94FF4B7
:100FB00080510948FFF70BFE40B94FF40051064835
:100FC000FFF705FE10B901200149487010BD00006F
:100FD0004C00002000000240000402404E000020AF
:100FE0001CB50121022000F06BF801208DF80400EF
:100FF00040F20B20009069460A48FFF783FD4FF44A
:1010000000710848FFF7ECFD08210648FFF7E8FDEE
:1010100001210448FFF7E4FD02210248FFF7E0FD4B
:101020001CBD00000004024000BFFEE77047000046
:1010300070B5002100230F22C4781CB3174C24681C
:1010400004F4E064C4F5E064C4F30721C1F10404CE
:10105000E3B20A4144789C40E1B2847814402143D1
:101060000C07210E0E4C05786155047804F01F051D
:101070000124AC4005786D11AD0005F1E025C5F8FF
:10108000004109E0047804F01F050124AC40054D3F
:101090000678761145F8264070BD00000CED00E0A2
:1010A00000E400E080E100E002490143024A1160EF
:1010B000704700000000FA050CED00E070470000EA
:1010C00029B1064A12680243044B1A6004E0034A3D
:1010D00012688243014B1A60704700001C380240BE
:1010E00029B1064A12680243044B1A6004E0034A1D
:1010F00012688243014B1A60704700002438024096
:1011000029B1064A12680243044B1A6004E0034AFC
:1011100012688243014B1A60704700002038024079
:1011200029B1064A12680243044B1A6004E0034ADC
:1011300012688243014B1A60704700001438024065
:10114000F0B5002100220023002600240025374F9F
:101150003F6807F00C0131B1042912D0082913D0DF
:101160000C2934D113E0314F3F1F3F68C7F342359C
:101170006F1C4FF0010C0CFA07FC4FEACC370760EC
:1011800033E02B4F076030E02A4F07602DE0274FF8
:101190003F6807F47012254F3F6807F44003264F5D
:1011A00007EB92473A78012707EB93531F4F3F68AD
:1011B00007F480362EB91E4F5743B7FBF3F707608D
:1011C00004E01C4F5743B7FBF3F707600DE0174FE0
:1011D0003F1F3F68C7F342356F1C4FF0010C0CFAFC
:1011E00007FC4FEACC37076000BF00BF0F4F3F68D6
:1011F00007F0F0010909114F7C5C0768E740476080
:101200000A4F3F6807F4E061090A0C4F7C5C4768AD
:10121000E7408760054F3F6807F46051C90A074FF0
:101220007C5C4768E740C760F0BD000008380240BA
:101230000024F40000127A000800002011000020B1
:1012400010B501460022002300204A11012A02D1D4
:10125000074C236802E0064C3434236801F01F0277
:10126000012494401C400CB1012000E0002010BD7E
:101270000038024001490860704700000000474202
:10128000704700000CB50020019000903E480068B7
:1012900040F480303C49086000BF3B48006800F4DF
:1012A000003000900198401C0190009818B90198F6
:1012B000B0F5A04FF1D13448006800F4003010B10F
:1012C0000120009001E0002000900098012859D1F1
:1012D0002E48006840F004002C4908600846006869
:1012E00040F0020008600846006840F00100086015
:1012F00025482430006840F080502349243108609C
:10130000C8142349086000BF2148406800F010005D
:101310000028F9D11C48083000681B4908310860D2
:1013200008460068086008460068086008460068CB
:1013300020F47D0008600846006840F41100086051
:101340001148006840F080700F49086000BF0E48E7
:10135000006800F000700028F9D00B4808300068E1
:1013600020F003000849083108600846006840F092
:101370000300086000BF04480830006800F00C005B
:101380000C28F8D10CBD000000380240003C02409F
:1013900000700040042808D14FF0E021096941F0B5
:1013A00004014FF0E022116107E04FF0E0210969EC
:1013B00021F004014FF0E0221161704770470000F6
:1013C00010B51548006840F4807013490860124851
:1013D00008300068114908400F49083108600E487C
:1013E00000680F4908400C4908600846006820F46E
:1013F0008020086008480830006820F47D00064915
:10140000083108600020091D0860FFF73BFF4FF01E
:1014100000600449086010BD003802400CC0FF881D
:10142000FEFFFEEE08ED00E010B50121054800F0DA
:10143000CAF828B10121034800F0B6F8FFF718FDFB
:1014400010BD0000000400407FB505460C46012198
:101450000220FFF745FE0295ADF804400020ADF8EC
:101460000C00ADF8060001A90D4800F0C7F80122F4
:1014700011460B4800F0B8F81D208DF8000002203E
:101480008DF8010003208DF8020001208DF8030083
:101490006846FFF7CDFD0021014800F088F87FBDC8
:1014A0000004004010B50121224800F08CF800280B
:1014B0003FD001211F4800F077F81F480078401CFA
:1014C0001D4908701D4890F872000978884215DCA3
:1014D000002019490870194890F87200022809DDA7
:1014E00008211748FFF77CFB4FF400711448FFF701
:1014F00079FB03E008211248FFF774FB114880785C
:10150000401C1049887008468078012803DB0020C1
:101510008870012048700C480088401C0A490880E7
:1015200008460088B0F5167F03DB00200880012004
:10153000887010BD00080040460000206C000020AC
:10154000000402409C020020500000207FB50546A8
:101550000C4601210420FFF7C3FD0295ADF80440BD
:101560000020ADF80C00ADF8060001A90D4800F010
:1015700045F8012211460B4800F036F81E208DF880
:10158000000002208DF8010001208DF802008DF886
:1015900003006846FFF74CFD0121024800F007F800
:1015A0007FBD000000080040CA430282704721B19D
:1015B000028842F00102028004E002884FF6FE73C6
:1015C0001A400280704730B50246002000230024F4
:1015D000158A05EA0103958905EA010413B10CB1E6
:1015E000012000E0002030BD1AB183890B438381C4
:1015F00002E083898B4383817047000000220288C8
:10160000B0F1804F08D0104B984205D00F4B984254
:1016100002D00F4B984204D14FF68F731A404B887B
:101620001A430C4B984207D00B4B984204D04FF60C
:10163000FF431A400B891A4302804B68C3620B8830
:1016400003850123838270470004004000080040A6
:10165000000C0040001000400014004010B504468B
:1016600000BF8021044800F098F80028F9D02146F6
:10167000014800F05AF910BD0038014010B540F2A1
:1016800025510B4800F096F880B140F225510848EA
:1016900000F068F8064800F043F9C1B20548027846
:1016A0000078401C034B18700348815410BD0000A3
:1016B00000380140420000204301002070B540F294
:1016C0002551154800F076F828B340F2255112480C
:1016D00000F048F8114802786421114800F0CAF976
:1016E00090B10D4800F01CF9C4B2412C0CDB5A2C0F
:1016F0000ADC094800F014F9C1B208480578681CF2
:10170000064A10700648415504480078632802DDF7
:1017100000200249087070BD0044004044000020D1
:10172000A701002010B540F225510B4800F042F807
:1017300080B140F22551084800F014F8064800F046
:10174000EFF8C1B2054802780078401C034B1870CE
:101750000348815410BD00000048004041000020B3
:10176000DF00002010B50022002340F66A14A142D9
:1017700000D100BF0A1201249440A3B2DC430480CC
:1017800010BD21B1828942F40052828104E0828935
:101790004DF6FF731A408281704702460020B1F572
:1017A000007F00D100BF13880B400BB1012000E087
:1017B0000020704770B50246002400230025002059
:1017C00040F66A16B14200D100BFC1F3421501F0E4
:1017D0001F03012606FA03F3012D02D19689334037
:1017E00006E0022D02D1168A334001E0968A33408A
:1017F0000C12012606FA04F41688344013B10CB119
:10180000012000E0002070BDF0B503460024002652
:101810000025002040F66A17B94200D100BF1846E3
:10182000C1F3421401F01F06012707FA06F5012C47
:1018300001D10C3004E0022C01D1103000E0143052
:101840001AB107682F43076002E00768AF430760DB
:10185000F0BD00002DE9FF4705460E460024A146D5
:1018600000BFA046B08900B100BF2C8A24F44054C8
:10187000F08804432C82AC8941F20C608443B08828
:1018800031890843718908430443AC81AC8A24F44C
:101890004074B0890443AC826846FFF751FC1F488E
:1018A000854202D1DDF80C9001E0DDF80890A889AE
:1018B00000F4004040B109EBC90000EB09103168A9
:1018C0004900B0FBF1F707E009EBC90000EB091094
:1018D00031688900B0FBF1F76420B7FBF0F0040138
:1018E0002009642101FB1078A88900F4004040B170
:1018F000322000EBC800B0FBF1F000F00700044319
:1019000008E0322000EB08106421B0FBF1F000F099
:101910000F0004432C81BDE8FF8700000038014020
:1019200001468888C0F308007047C1F3080282802E
:10193000704700000BE000BF0749098801F0400133
:101940000029F9D00178044A121D1180401C017849
:101950000029F0D1704700000038014000BFFEE7C9
:101960000FB4054B10B503A9044A029800F017F80C
:1019700010BC5DF814FB0000B51B000858000020E7
:1019800002E008C8121F08C1002AFAD17047704748
:10199000002001E001C1121F002AFBD170472DE990
:1019A000F84F9946924688460546002706E02528C6
:1019B0000AD051464A4690476D1C7F1C2878002863
:1019C000F5D13846BDE8F88F002315F8011F1846F9
:1019D0002E2915D115F8011F04232A290DD06FF0E7
:1019E0002F022978A1F13004092C09D800EB8000DE
:1019F00002EB400008446D1CF3E758F8040B6D1C23
:101A00002A78002ADDD0632A07D0732A0FD0104627
:101A100051464A4690477F1C2AE018F8042B8DF85F
:101A2000002000218DF801106E46012103E058F8D6
:101A3000046B4FF0FF315A074FF0000401D409E066
:101A4000641C84420BDA8C42FADB325D002AF7D147
:101A500005E0641C8C42FCDB305D0028F9D1274492
:101A600004E016F8010B51464A469047641EF8D22E
:101A70006D1CA3E710B503460C4611460AE0585CFE
:101A8000412802DB585C5A2802DD0A46012010BDBD
:101A9000481CC1B2A142F2DB00210AE0585C412897
:101AA00002DB585C5A2802DD0A460120EFE7481C99
:101AB000C1B29142F2DB0020E9E700002DE9F041DC
:101AC00005460F461646002403E0385D2855601C85
:101AD000C4B2B442F9DB0020A85504A0FFF72AFFE6
:101AE0002846FFF727FFBDE8F08100000D0A00003F
:101AF00010B56FF00400FFF74DFC0A4800680A4972
:101B0000B0FBF1F0094908700846007800EB40018D
:101B1000C1EBC0104FF6FF7101EAC0000449088014
:101B200010BD00002400002000127A0048000020B0
:101B30004A000020014600200D4A12884A434FF017
:101B4000E0235A6100229A6101221A6100BF4FF01E
:101B5000E022106900F001021AB100F48032002A7C
:101B6000F5D000224FF0E0231A619A61704700001F
:101B70004A000020014600200D4A12784A434FF0E7
:101B8000E0235A6100229A6101221A6100BF4FF0DE
:101B9000E022106900F001021AB100F48032002A3C
:101BA000F5D000224FF0E0231A619A6170470000DF
:101BB0004800002000BF054A128802F04002002AB7
:101BC000F9D0C2B2014B1B1D1A807047004800407B
:101BD000F0B50446251200201FE02A0905F00F0386
:101BE000092A04DD02F1370601F8106003E002F172
:101BF000300601F81060092B06DD03F13706F7B255
:101C00004600761C8F5505E003F13006F7B246001A
:101C1000761C8F55E5B2461CF0B20228DDDBF0BD24
:101C200010B5C31700EB13730A24B4EB231F07DCB2
:101C30000246C31700EB13731B1137330B7006E01A
:101C40000246C31700EB13731B1130330B70C3171D
:101C500000EB13731B11A0EB03130A2B09DB0246E5
:101C6000C31700EB13731B11A0EB031337334B7037
:101C700008E00246C31700EB13731B11A0EB03131C
:101C800030334B7010BDF0B50446154600201FE000
:101C9000265C3209265C06F00F03092A04DD02F1F6
:101CA000370601F8106003E002F1300601F8106019
:101CB000092B06DD03F13706F7B24600761C8F5577
:101CC00005E003F13006F7B24600761C8F55401C44
:101CD000A842DDD3002601F81060F0BD00F008F83E
:101CE00005E0FFF745F800F0A5F800F033FBF8E752
:101CF00010B54FF4A060FFF7D7F9FFF7F9FEFFF733
:101D00006FF9FFF789F800F03BF800F0A1F84FF405
:101D1000165000F0AFFA4FF4165000F0E9F94FF406
:101D2000165000F047FA40F67F41C720FFF78CFBC2
:101D300040F67F4141F28730FFF708FCFEF7A2FD35
:101D4000FEF78EFA00F04CFB06A0FFF7F3FD06A0AD
:101D5000FFF7F0FD00F086F840F64E410520FFF752
:101D60000BF810BD0D0A000056455253494F4E5F07
:101D7000595F4D5F443A313931313037000000004E
:101D800000B589B001210320FFF79AF9012148022B
:101D9000FFF7B6F90120019003208DF8080001A992
:101DA0002048FEF7AFFE7020019003208DF8080058
:101DB00001A91C48FEF7A6FE4FF4704001900320D5
:101DC0008DF8080001A91848FEF79CFE1748FEF799
:101DD00003FA0120FFF74EFA00BF2120FFF730FA87
:101DE0000028FAD000208DF810008DF81100039023
:101DF0000690079001208DF8200003A90B48FEF7FC
:101E000005FA01210948FEF7DBF92A210848FEF707
:101E100094F900BF40210548FEF7EEF90028F9D0FB
:101E200009B000BD0000024000040240002401404F
:101E30007002002010B50548407830B100200349F9
:101E40004870FEF71BFF00F01BF810BD9C0200203D
:101E500010B5FEF7BDFF70210148FEF76EF910BD09
:101E60009C02002010B5FEF7C7FE4FF47A70FFF712
:101E700061FE4FF47A70FFF75DFEFEF7BDFE10BD08
:101E800000B51421474800F091F8464914394866D6
:101E90000020087088800846416E806E001D8142D7
:101EA00006D840481438816E406E001D814206D924
:101EB0003C481438406E3B491439886600BD3948A7
:101EC0001438406E642816D236481438C078052875
:101ED00056DAFD203349143908700846C078401C92
:101EE000C0B2C870052801DB0520C8702D48143821
:101EF000416EC16644E02B481438416EC06E814289
:101F000024D3002027491439C8700846416EC06E9A
:101F10001930814234D323481438C06E20B90020D0
:101F200020491439087003E0FF201E491439087055
:101F30001C481438B0F86410B0F86C00081A19493D
:101F4000143988800846416EC16619E000201549A1
:101F50001439C8700846C16E406E193081420FD3E3
:101F6000FE201049143908700846B0F86C00B1F82A
:101F70006410401A0B49143988800846416EC166C6
:101F800008481438406E07491439886608460078B6
:101F900028B10548807840F004000349887000BFEC
:101FA0008CE70000B002002050000020F0B502468F
:101FB0000C46002500231AE0002112E052F821709F
:101FC000481C52F82000874209D952F82160481C69
:101FD00052F8200042F82100481C42F82060481CBA
:101FE000C1B2601EC01A8842E8DC581CC3B2A342CA
:101FF000E2DB052304E052F823000544581CC3B279
:10200000601F9842F7DC0A20B5FBF0F0F0BD10B578
:1020100004462046FFF722FB10BDFEB506463746B4
:1020200000240BE00A20B7FBF0F100FB11700DF863
:1020300004000A20B7FBF0F7601CC4B20A2CF1DBE5
:10204000002407E0C4F109001DF8000000B103E01E
:10205000601CC4B2082CF5DB00BF254607E0C5F1C3
:1020600009011DF8010000F02FF8681CC5B2092D08
:10207000F5DB2E20FFF7CBFF9DF8000000F024F8E1
:102080006720FFF7C4FFFEBDFEB505462E460024BF
:102090000BE00A20B6FBF0F100FB11600DF8040024
:1020A0000A20B6FBF0F6601CC4B20A2CF1DB002457
:1020B00007E0C4F109011DF8010000F005F8601CFB
:1020C000C4B20A2CF5DBFEBD38B504462546694688
:1020D0002846FFF7A5FD9DF80000302803D09DF8A5
:1020E0000000FFF794FF9DF80100FFF790FF38BD57
:1020F00010B588B0044601210846FEF7E1FF012132
:102100004804FEF7EDFF072202212748FEF73CFDB9
:10211000072203212448FEF737FD04200690022001
:102120008DF81C008DF81D0000208DF81E00012088
:102130008DF81F0006A91C48FEF7E4FC0820069055
:1021400002208DF81C0006A91748FEF7DBFC2620AC
:102150008DF8040001208DF8050002208DF806009E
:1021600001208DF8070001A8FEF762FF029400200D
:10217000ADF80C00ADF80E00ADF81000ADF814008D
:102180000C20ADF8120002A90848FFF763FB0122FA
:1021900040F225510548FFF737FB63210448FDF75E
:1021A000CCFF08B010BD0000000002400044004019
:1021B000A701002010B588B0044601210220FEF7D7
:1021C0007FFF01218804FEF78BFF07220A212748A1
:1021D000FEF7DAFC07220B212448FEF7D5FC4FF46A
:1021E0008060069002208DF81C008DF81D000020F4
:1021F0008DF81E0001208DF81F0006A91B48FEF770
:1022000081FC4FF40060069002208DF81C0006A9A6
:102210001648FEF777FC27208DF8040001208DF882
:1022200005008DF806008DF8070001A8FEF700FFF5
:1022300002940020ADF80C00ADF80E00ADF81000CF
:10224000ADF814000C20ADF8120002A90848FFF701
:1022500001FB012240F225510548FFF7D5FA012183
:102260000348FFF78EFA08B010BD000000040240DA
:102270000048004010B588B0044601210846FEF72A
:102280001FFF01218803FEF73BFF07220921284891
:10229000FEF77AFC07220A212548FEF775FC4FF469
:1022A0000070069002208DF81C008DF81D000020A3
:1022B0008DF81E0001208DF81F0006A91C48FEF7AE
:1022C00021FC4FF48060069002208DF81C0006A9C6
:1022D0001748FEF717FC25208DF8040001208DF823
:1022E000050003208DF8060001208DF8070001A8E5
:1022F000FEF79EFE02940020ADF80C00ADF80E0033
:10230000ADF81000ADF814000C20ADF8120002A9D1
:102310000848FFF79FFA012240F225510548FFF7D0
:1023200073FA01210348FFF72CFA08B010BD000032
:10233000000002400038014005480078401C044974
:10234000087008460078C82801DD01200870704731
:102350005400002010B51E48807800F0010060B1E4
:102360001B48807820F00100194988700022012163
:1023700018A000F03BF800F097F81548807800F0BE
:10238000020028B11248807820F0020010498870BD
:102390000F48807800F0040068B10D48807820F084
:1023A00004000B4988700C48828801780BA000F06B
:1023B0001DF800F079F80648807800F0080028B190
:1023C0000348807820F008000149887010BD0000A3
:1023D00050000020303100009C020020313200000B
:1023E0000148002101607047500000202DE9F041B4
:1023F0008CB005460E461746002464212548FDF79B
:102400009CFE022224A12348FDF7B4FEA41C022254
:1024100022A12048FDF7AEFEA41C0F2203A92048EC
:10242000FFF731FC1E2203A91A48FDF7A3FE1E3454
:10243000022229461748FDF79DFEA41C194890F872
:1024400000800BA94046FFF7EBFB02220BA91148C5
:10245000FDF790FEA41CB0460BA94046FFF7E0FB39
:1024600002220BA90B48FDF785FEA01CC4B201A9EE
:102470003846FFF7ADFB042201A90648FDF77AFEB6
:10248000201DC4B2002003490855FFF755FF0CB0CA
:10249000BDE8F0810B02002030340000444400000D
:1024A0005C0000205400002010B5054905A0FEF78F
:1024B0005DF94FF47A70FFF73DFBFEF739F910BD77
:1024C0000B02002032320000E82400080000002047
:1024D0005C00000080190008442500085C00002012
:1024E000B406000090190008000000000000000081
:1024F000030406080C10182030000000000102033D
:102500000401020304060708090000000048E8016E
:10251000030406080C101820300000000000000022
:102520000001020304060708090000000000000083
:10253000000000000000000000000000010000009A
:042540000000000097
:04000005080000F5FA
:00000001FF
