:020000040800F2
:10000000E009002009010008191E0008491B00082A
:10001000151E0008C5150008BD27000800000000D7
:100020000000000000000000000000006D2000083B
:100030000D18000800000000A91E0008A9210008F2
:100040002301000823010008230100082301000800
:1000500023010008230100082301000823010008F0
:1000600023010008230100082301000823010008E0
:1000700023010008230100082301000823010008D0
:1000800023010008230100082301000823010008C0
:1000900023010008230100082301000823010008B0
:1000A00023010008230100082301000823010008A0
:1000B00023010008152200089122000823010008EE
:1000C0002301000823010008230100082301000880
:1000D00023010008DD2400081D25000885250008EF
:1000E0002301000823010008230100082301000860
:1000F00023010008DFF80CD000F002FC00480047A4
:10010000C5380008E0090020064880470648004737
:10011000FEE7FEE7FEE7FEE7FEE7FEE7FEE7FEE7B7
:10012000FEE7FEE7AD210008F500000838B5D0E98C
:100130000221491E01EB410102EBC1014268C1EB02
:10014000011102EB81010268C1EB011102EB810296
:10015000D0E9043101EB410103EB81013023A1F52A
:10016000527191FBF3F4174D6C4302EBC41291FBF7
:10017000F3F403FB141100921A2902DB124B1A4408
:1001800000920C2291FBF2F3104C6343009C04EBB1
:10019000C313009391FBF2F302FB13110C4A08E026
:1001A000491E40F2A324535C6343009C04EBC31339
:1001B00000930029F4DC0146684600F085FA0098B7
:1001C00038BD00003F0C0F008051010067C20300E2
:1001D00044450008D2B201E000F8012B491EFBD2D1
:1001E00070470022F6E710B513460A460446194642
:1001F000FFF7F0FF204610BD30B505462A460B46F6
:1002000012F8010B13F8014B08B1A042F8D01CB151
:10021000002802D06D1CF1E7284630BD10B5044619
:1002200000E0401C0378002BFBD100E0401C521E74
:1002300004D311F8013B0370002BF7D100210170AA
:10024000204610BD0FB400B58DB010A909900B90D9
:1002500000914FF0FF300A9000200C900548069066
:10026000054807906A4609A80F9900F087FA0DB073
:100270005DF814FB99070008B70700082DE9FF5F38
:100280001D464FF0FF3BD5E9014691465F464FF0D2
:100290000008A9697F1C01988847296A8246884717
:1002A0000028F6D1BAF1FF3F0CD024F4C064002E30
:1002B00019DD600614D5BAF12B0F09D0BAF12D0F54
:1002C0000ED103E0584604B0BDE8F09F44F48064CA
:1002D000A9697F1C01988847761E8246002E02DDA0
:1002E000BAF1300F03D0B9F1000F26D032E0A9697E
:1002F000761E44F400747F1C019888478246002EC5
:1003000005DDBAF1780F06D0BAF1580F03D0B9F174
:10031000000F10D01EE0B9F1000F02D0B9F1100F9C
:1003200018D1A969761E24F400747F1C01988847AF
:100330008246102002E0082000E00A20814609E001
:1003400008FB0908A969761E44F400747F1C019813
:1003500088478246002E05DD4946504600F0FAF9EE
:100360000028EDDAE96901988847A00502D46FF00A
:100370000100A8E7E00725D1600613D5600502D586
:10038000C8F1000000E0404629680A1D2A6009689B
:10039000220501D5087015E0220701D5088011E07B
:1003A00008600FE02868011D29600068210502D55A
:1003B00080F8008006E0210702D5A0F8008001E067
:1003C000C0F8008038467EE780EA010210B502F0EE
:1003D0000043400022D04A001FD0010E01EB126101
:1003E000C0F35600C2F3560240F4000042F400028B
:1003F000A0FB022000047F39140400D0401C50EA06
:10040000124001D44000491EC2B20C0604EBD010C9
:10041000401C4008802A02D003E0002010BD20F0DC
:100420000100002900DA0020184310BD2DE9FE4F1D
:1004300081EA030404F0004421F0004100944FF0ED
:10044000000B23F0004350EA01045ED052EA03049B
:100450005BD0C3F30A54C1F30A552C44A4F2F3341D
:100460000194A0FB0254C1F3130141F48011C3F3C2
:10047000130343F4801301FB024400FB034E840A80
:10048000970A44EA815447EA8357A4FB0768029518
:100490008D0A05FB07854FEA932C04FB0C542705B6
:1004A000029D4FEA065847EA1637B5EB08056EEB92
:1004B000070C870E920E47EA811742EA8312A7FBC8
:1004C0000201B6EB0B0164EB00042B0D43EA0C3385
:1004D0005E1844EB1C50DA465146E7FB0201C5F3B7
:1004E00013044FEA0B3343EA14534FEA0432019CDE
:1004F00043EA0603A4F10C040294009CCDE900B485
:1005000000F0B0F903B0BDE8F08F00200146F9E734
:100510002DE9F04D81EA030404F0004B21F0004581
:1005200014464FF0000A23F0004150EA050220D0A3
:1005300054EA01021DD0C5F30A570246C5F313035E
:10054000C1F31300C1F30A5640F4801543F480133D
:10055000A7EB0608101BD64608F2FD3873EB050022
:1005600002D308F1010801E092185B41B8F1000FD5
:1005700003DA00200146BDE8F08D00204FF4801121
:10058000064684460EE0171B73EB050705D3121BC6
:1005900063EB050306434CEA010C49084FEA3000BF
:1005A00092185B4150EA0107EDD152EA030012D0E4
:1005B00082EA040083EA0501084305D0101BAB4121
:1005C00006D20122002306E000224FF0004302E0A1
:1005D0006FF0010253101AEB06004CEB085110EBC0
:1005E0000A0041EB0B01BDE8F04D00F02CB90EB54F
:1005F00040F2334102910021CDE900110A460B4639
:1006000000F030F903B000BD20F00040C10DC0F390
:10061000160040F400007F2901DA00207047962977
:1006200003DCC1F19601C840704796398840704795
:10063000C1F30A5210B5C1F3130140F2FF3341F484
:1006400080119A4201DA002010BD40F233439A42F1
:10065000A2F2334203DC524200F01FF810BD90407A
:1006600010BD01F0004330B421F0004150EA010216
:1006700006D00A0DA2F56072C1F31301002A02DC54
:1006800030BC00207047440F44EAC104C100E018A8
:1006900030BC00EBC25000F09FB8202A04DB203AA7
:1006A00021FA02F00021704721FA02F3D040C2F192
:1006B000200291400843194670470000014900F0AC
:1006C00003B80000B003002010B500683C22B0FB66
:1006D000F2F302FB1303B0FBF2F00B60B0FBF2F39A
:1006E00002FB1303B0FBF2F018224B60B0FBF2F3F5
:1006F00002FB1303B0FBF2F0021D8B600723B2FB79
:10070000F3F403FB1422800040F2B55300F66C3082
:100710008A61B0FBF3F2B0FBF3F403FB1400443244
:1007200080084A61C8613B2802D3920700D0401C70
:100730000022074C13460A61E25C824203D8801A09
:100740005B1C0B61F8E7401CC860084610BD000048
:10075000504500083A2800D2303820F02002412AC3
:1007600001D3A2F13700884201D34FF0FF30704728
:10077000026811441378016018467047D16004493B
:1007800051610449116200211161114600F0DEB887
:100790007107000843090008426842B1016811F876
:1007A000013B23B1521EC0E90012184670470121D7
:1007B000C160881E704742685AB1C368016843B976
:1007C00083688B4205D0491E521CC0E900120020EC
:1007D00070474FF0FF3070470029A8BF7047401C9A
:1007E000490008BF20F00100704710B4B0FA80FC47
:1007F00000FA0CF050EA010404BF10BC704749B184
:10080000CCF1200421FA04F411FA0CF118BF0121F3
:1008100021430843A3EB0C01CB1D4FEA00614FEAD3
:10082000102042BF002010BC704700EBC3501044A2
:100830000029A4BF10BC7047401C490008BF20F02D
:10084000010010BC704710B5141E73F1000408DAE3
:10085000401C41F1000192185B411A4301D120F084
:10086000010010BD2DE9F04D92469B4611B1B1FA41
:1008700081F202E0B0FA80F22032904600F052F8A5
:1008800004460F4640EA0A0041EA0B0153465A4625
:10089000084313D0114653EA010019D0C8F14002B1
:1008A0005046FFF7FAFE05460E4650465946424668
:1008B00000F038F8084305D0012004E0204639460E
:1008C000BDE8F08D0020054346EAE0762C4337432F
:1008D0000A986305E40AA0EB08000022FD0A44EA36
:1008E00047540A3002D500200146E9E701051019F6
:1008F0006941DDE9084500196941BDE8F04DA2E70D
:10090000064C074D06E0E06840F0010394E807005C
:1009100098471034AC42F6D3FFF7F0FB9C45000833
:10092000BC450008202A04DB203A00FA02F100202E
:1009300070479140C2F1200320FA03F3194390401D
:100940007047C0B24FF4F05100F096B92DE9F34F63
:100950008BB04FF0000801F10C000C464FF0010B7A
:1009600046460DF1080A01906269012101989047FD
:1009700005002DD0252D2CD0216A8847C0B1626991
:10098000012101989047216A88470028F7D1411E2C
:1009900062690198904700E0761CA1690B9888472E
:1009A000216A88470028F7D1E1690B988847DBE77F
:1009B000A1690B9888470746A84201D1761CD3E766
:1009C000E1690B9888477F1C02D1B8F1000F6FD006
:1009D00046E1002762693D463946019890472A283A
:1009E00004D162690121019890470125DFF88492C2
:1009F0006269012101989047A0F130010A290AD2C9
:100A00004F45E5DC07EB870100EB4107303FDFD4C2
:100A100045F01005ECE7E90601D46FF000476C28BB
:100A20000AD04C2814D0682815D06A280DD0742814
:100A30001CD07A281AD01DE06269012101989047E4
:100A40006C2802D045F0040514E045F002050DE0E5
:100A500045F020050AE06269012101989047682865
:100A600002D045F0080505E045F400656269012102
:100A700001989047C4E9015765283DD019DC5828F2
:100A80007AD00CDC452837D004DC252826D0412834
:100A900031D131E046282FD047282CD12CE05B28DB
:100AA00077D0612828D063287CD0642823D15AE0ED
:100AB000D0E06F2848D008DC66281DD067281BD0FE
:100AC000692821D06E2816D127E0702845D07328D8
:100AD00068D0752847D078280DD14DE0A1690B98D2
:100AE0008847054625283FF469AFE1690B98884798
:100AF0006D1C3FF46AAFB3E023466A466FF0010015
:100B00000B99AFF300809EE045F040006060A807BD
:100B100023464FF0000236D43EE0E8077FF447AFAB
:100B20002068011D21600068290501D506701BE7BA
:100B3000290701D5068017E7A90703D5F117C0E9F2
:100B4000006111E706600FE745F040006060A8070C
:100B500023464FF0080216D41EE040F60E0125EAA7
:100B60000100606016E045F040006060A807234681
:100B70004FF00A0207D40FE045F040006060A8077C
:100B800008D5234610226FF001000B99AFF30080C7
:100B900059E007E0234610226FF001000B99FFF7A0
:100BA0006DFB50E04FF000094F464B46632802D0E2
:100BB0005B2806D040E0E80601D40120A0600127B0
:100BC0003AE062690121019890475E2805D14FF013
:100BD00001096269494601989047216939B90021A4
:100BE0000A46534643F82120491C0829FADBB0B3D2
:100BF000216969B9C11700EBD16253110AEB830176
:100C000022F01F02821A01200B68904003430B6000
:100C100062690121019890475D28E8D1B9F1000F80
:100C200009D00020514651F82020D24341F820201D
:100C3000401C0828F7DB02AB224600976FF001004A
:100C40000B99AFF3008000280CDA401C08D1BBF1EF
:100C5000000F05D04FF0FF300DB0BDE8F08FFFE77B
:100C60004046F9E7E90701D108F1010806444FF0D1
:100C7000000B79E6CCCCCC0C7F2801D9002208E00F
:100C8000064A02EB5002C007127800D1120902F0A6
:100C90000F02012090400840704700005C450008AA
:100CA00021B1826842F00102826003E0826822F092
:100CB000010282607047000010B504460548844276
:100CC00007D10121401501F021F90021601501F043
:100CD0001DF910BD002401400146886D80B27047A7
:100CE0000246002013680B400BB1012000E00020F9
:100CF0007047000030B50246002000235068104CB9
:100D000020400D790C6844EA052420435060906827
:100D10000C4C2040D1E903542C438D682C434D7971
:100D200044EA450420439060106B20F0F8700C7D7D
:100D3000641EE4B2234340EA0350106330BD000058
:100D4000FFFEFFFCFDF7FFC0F0B504460D46002096
:100D500000211D2D11DDE06DA5F11E0606EB4607F5
:100D6000072606FA07F18843A5F11E0606EB46069C
:100D700003FA06F10843E06534E0132D11DDE06865
:100D8000A5F1140606EB4607072606FA07F1884385
:100D9000A5F1140606EB460603FA06F10843E060E7
:100DA00020E0092D11DD2069A5F10A0606EB4607B2
:100DB000072606FA07F18843A5F10A0606EB460660
:100DC00003FA06F1084320610CE0606905EB450772
:100DD000072606FA07F1884305EB450603FA06F1F4
:100DE00008436061072A0FDA206C561E06EB86075F
:100DF0001F2606FA07F18843561E06EB860605FAFB
:100E000006F1084320644AE00D2A0FDAE06BD61F92
:100E100006EB86071F2606FA07F18843D61F06EB66
:100E2000860605FA06F10843E06338E0132A11DA72
:100E3000A06BA2F10D0606EB86071F2606FA07F146
:100E40008843A2F10D0606EB860605FA06F1084373
:100E5000A06324E0192A11DA606BA2F1130606EBF5
:100E600086071F2606FA07F18843A2F1130606EB50
:100E7000860605FA06F10843606310E0206BA2F1D4
:100E8000190606EB86071F2606FA07F18843A2F12A
:100E9000190606EB860605FA06F108432063F0BD45
:100EA000816841F0804181607047000010B5FDA06D
:100EB00001F086FC4FF4967000F0AAFCFBA1FC4800
:100EC000FFF79AF9FB49086000F08AFC0EE000F099
:100ED00087FCF4A001F074FC4FF4967000F098FCCD
:100EE000F2A1F348FFF788F9F2490860F148006879
:100EF0000028ECD00120F04981F87200EFA001F049
:100F00005FFC4FF4967000F083FCEFA1E848FFF718
:100F100073F9E849086000F063FC0EE000F060FC43
:100F2000E6A001F04DFC4FF4967000F071FCE6A1D4
:100F3000DF48FFF761F9DF490860DE4800680028F4
:100F4000ECD0E4A001F03CFC4FF4967000F060FCA3
:100F5000E3A1D748FFF750F9D6490860E2A001F0B5
:100F600019FCD448006801F015FC00F039FC15E0CC
:100F700000F036FCD7A001F023FC4FF4967000F08F
:100F800047FCD7A1CA48FFF737F9CA490860D6A07D
:100F900001F000FCC748006801F0FCFBC548006890
:100FA0000028E5D0D1A001F00BFC4FF4967000F0C2
:100FB0002FFCD1A1BE48FFF71FF9BE4908601022DF
:100FC00008460168891DCE4801F05AFF00F008FC70
:100FD00015E000F005FCC5A001F0F2FB4FF496709F
:100FE00000F016FCC4A1B248FFF706F9B149086049
:100FF000102208460168891DC14801F041FFAD4833
:1010000000680028E5D0BFA001F0DAFB4FF496702D
:1010100000F0FEFBA5A1A648FFF7EEF8A549086081
:1010200000F0DEFB0EE000F0DBFBB6A001F0C8FB39
:101030004FF4967000F0ECFB9CA19D48FFF7DCF8A4
:101040009C4908609B4800680028ECD0B1A001F0E2
:10105000B7FB4FF4967000F0DBFBB1A19448FFF7AB
:10106000CBF89449086000F0BBFB0EE000F0B8FB41
:10107000A8A001F0A5FB4FF4967000F0C9FBA8A151
:101080008B48FFF7B9F88B4908608A480068002848
:10109000ECD0A6A001F094FB4FF4967000F0B8FBE2
:1010A000A5A18348FFF7A8F88249086008460068B0
:1010B000E8B10846006880793038096849793039E4
:1010C00001EB810100EB41007B4908700846007884
:1010D000632808D106E09AA001F05CFB4FF49670FB
:1010E00000F096FBF7E70420734981F872002BE0CB
:1010F00000F076FB8DA001F063FB4FF4967000F0DA
:1011000087FB8DA16A48FFF777F86A4908600846AF
:101110000068C8B1084600688079303809684979A4
:10112000303901EB810100EB41006349087008464A
:101130000078632808D106E081A001F02BFB4FF472
:10114000967000F065FBF7E75A4800680028CFD09A
:1011500000F046FB81A001F033FB4FF4967000F0E5
:1011600057FB81A15248FFF747F85249086081A117
:101170004F48FFF741F88249086000F031FB14E066
:1011800000F02EFB75A001F01BFB4FF4967000F0F1
:101190003FFB75A14648FFF72FF84649086075A147
:1011A0004348FFF729F8764908604248006818B9B3
:1011B000734800680028E3D072A001F001FB4FF4EF
:1011C000967000F025FB39A13948FFF715F8394929
:1011D000086000F005FB0EE000F002FB69A001F0E2
:1011E000EFFA4FF4967000F013FB30A13048FFF790
:1011F00003F8304908602F48006818B96048006853
:101200000028E9D063A001F0DBFA4FF4967000F0FB
:10121000FFFA64A12648FEF7EFFF2649086067A0A1
:1012200001F0CEFA4FF4967000F0F2FA1FA12048B8
:10123000FEF7E2FF1F490860002404E000201C497B
:101240000855601CC4B2642CF8DB00F0C9FA5EA03B
:1012500001F0B6FA4FF4967000F0DAFA5DA1144886
:10126000FEF7CAFF134908600EE000F0B9FA56A075
:1012700001F0A6FA4FF4967000F0CAFA55A10C4896
:10128000FEF7BAFF0B4908600A4800680028ECD056
:101290000120524988710748006801F0C7FC00F03E
:1012A0009FFA10BD41540D0A000000004F4B000092
:1012B0002701002004000020B400002041542B4EE0
:1012C00042414E443F0D0A002B4E42414E443A35B6
:1012D0000000000041542B43494D490D0A00000015
:1012E00034363031310000000D0A000041542B43E8
:1012F00047534E3D310D0A002B4347534E0000002B
:10130000A400002041542B43474154543D310D0A61
:101310000000000041542B43474154543F0D0A0044
:101320002B43474154543A310000000041542B43B1
:1013300053510D0A000000002B43535100000000E0
:10134000D0C5BAC5CBD1CBF7CAA7B0DCA3ACC7EB2D
:10135000B2E9BFB4D4ADD2F2210D0A0041542B43FF
:10136000455245473F0D0A002B43455245473A3009
:101370002C3100002B43455245473A312C310000B7
:101380000800002041542B43455245473D310D0A8A
:101390000000000041542B4E4D5354415455533FCF
:1013A0000D0A00002B4E4D5354415455533A494EAB
:1013B00049495449414C49534544000041542B4E3E
:1013C0004E4D493D320D0A0041542B43434C4B3F97
:1013D0000D0A00002B43434C4B000000740000201A
:1013E00010B507A10848FEF707FF0849086008463E
:1013F000006810B101200649887100F0F1F910BDB4
:101400002B4E4E4D49000000270100200400002013
:101410005400002070B504460D462A4621461DA002
:1014200001F0CEF94FF47A7000F0F2F91DA11E48D8
:10143000FEF7E2FE1D4908600846006818B11CA0CE
:1014400001F0A8F917E02946204600F05DF890B9B0
:101450001BA001F0B5F94FF4967000F0D9F91CA16A
:101460001148FEF7C9FE114908600846006810B12E
:101470001EA001F08FF921A10B48FEF7BDFE0B491C
:1014800008600846006810B101201E49887100F00C
:10149000A7F970BD41542B4E4D47533D25732C2564
:1014A000730D0A004F4B00002701002004000020AC
:1014B00053454E442044415441204F4B210D0A00D6
:1014C00041542B4E4D5354415455533F0D0A000087
:1014D0002B4E4D5354415455533A4D4F5F44415454
:1014E000415F454E41424C45440000000A436F6E47
:1014F0006E656374204F4B21000000002B4E4E4D53
:1015000049000000540000202DE9F04105460E4638
:101510000024002700BF2EE01AA001F03BF904F1DF
:101520003101C8B200F0CAFF3246294617A001F0C7
:1015300047F94FF47A7000F06BF918A11848FEF7DC
:101540005BFE184908600846006820B116A002F04A
:10155000BCFC012711E018A11148FEF74DFE11490E
:1015600008600846006810B101201549887100F034
:1015700037F9601CC4B2022CCEDB00BF3846BDE890
:10158000F0810000726574727909000041542B4E9D
:101590004D47533D25732C25730D0A004F4B00001A
:1015A00027010020040000200A53454E44204441F6
:1015B0005441204F4B2100002B4E4E4D490000005E
:1015C0005400002000BFFEE710B566A001F0F8F857
:1015D0004FF4967000F01CF964A16548FEF70CFE0C
:1015E0006449086000F0FCF80EE000F0F9F85DA036
:1015F00001F0E6F84FF4967000F00AF95BA15C4840
:10160000FEF7FAFD5B4908605A4800680028ECD0F4
:101610000120594981F8720058A001F0D1F84FF427
:10162000967000F0F5F858A15148FEF7E5FD5149D4
:10163000086000F0D5F80EE000F0D2F84FA001F0FD
:10164000BFF84FF4967000F0E3F84FA14848FEF75A
:10165000D3FD48490860474800680028ECD04DA0F9
:1016600001F0AEF84FF4967000F0D2F84CA140486B
:10167000FEF7C2FD3F49086000F0B2F80EE000F04E
:10168000AFF844A001F09CF84FF4967000F0C0F859
:1016900043A13748FEF7B0FD364908603548006879
:1016A0000028ECD040A001F08BF84FF4967000F0C9
:1016B000AFF82EA12E48FEF79FFD2E49086005E0E9
:1016C0002AA12B48FEF798FD2A490860294800689E
:1016D0000028F5D000F084F836A001F071F84FF43E
:1016E000967000F095F821A12148FEF785FD21496B
:1016F000086005E01DA11E48FEF77EFD1D4908603B
:101700001C4800680028F5D000F06AF831A001F00C
:1017100057F84FF4FA6000F07BF81EA001F050F883
:101720004FF4967000F074F81DA11148FEF764FDA7
:101730001049086000F054F80EE000F051F815A0D0
:1017400001F03EF84FF4967000F062F814A10848DA
:10175000FEF752FD07490860064800680028ECD0F3
:1017600010BD000041540D0A000000004F4B000066
:101770002701002004000020B400002041542B4E1B
:1017800042414E443F0D0A002B4E42414E443A35F1
:101790000000000041542B43494D490D0A00000050
:1017A000343630313100000041542B4346554E3D14
:1017B000300D0A0041542B4E4344503D3138302EF9
:1017C0003130312E3134372E3131352C35363833F6
:1017D0000D0A000041542B4E52420D0A0000000039
:1017E00010B5084800F0D6FF002404E000200549A9
:1017F0000855601CC4B2642CF8DB00200249087054
:1018000010BD0000270100204500002070470000A7
:10181000014600200D4A12884A434FF0E0235A61E6
:1018200000229A6101221A6100BF4FF0E022106984
:1018300000F001021AB100F48032002AF5D0002233
:101840004FF0E0231A619A61704700004E000020BB
:10185000F0B502460B46002100240025002000BF01
:1018600035E0012606FA01F41E6806EA0405A542E1
:101870002CD110684F000326BE40B0431E794F00A4
:10188000BE40304310601E79012E02D01E79022E18
:1018900012D190684F000326BE40B0435E794F00DE
:1018A000BE4030439060908801268E40B0439E79C0
:1018B0008E40B6B230439080D0684F000326BE40C1
:1018C000B043DE794F00BE403043D060491C102940
:1018D000C7D3F0BDF0B5002300244D07ED0E02FA8A
:1018E00005F3CE1000F1200555F826504E07F70EEF
:1018F0000F26BE40B543CF1000F1200646F8275012
:10190000CE1000F1200555F8265045EA0304CE100C
:1019100000F1200545F82640F0BD02460020138A5C
:101920000B400BB1012000E000207047418370475D
:1019300001837047828A4A40828270470AB10183DC
:1019400000E04183704700002DE9FF5F00F0BAF826
:101950002849C860C86CFEF74AFECDE90001254958
:10196000C868FEF744FE80460022234BFEF75EFD6A
:101970000646224A224BFEF7CBFD0446DDE9002352
:10198000FEF7C6FD824600221E4BFEF74FFDCDE955
:101990000201FEF74DFE174908610A2000F08EFD96
:1019A0001449C86802F0CBFA092000F087FD09202D
:1019B00000F084FD0F49086902F050FA12480D4901
:1019C000C86012480861092000F078FD092000F085
:1019D00075FD0849C86802F0B2FA092000F06EFDF2
:1019E000092000F06BFD0349086902F037FABDE8F1
:1019F000FF9F00006003002000002440CDCCCCCC31
:101A0000CCF4884000408F400EF47400E87601006A
:101A10002DE9F04786B04FF0000A43E000F052F89D
:101A20002349486108464069C96888422ED9204840
:101A300040691F49C968401A1D494861C86CFEF7D2
:101A4000D6FD06460F461A494869FEF7D0FD804686
:101A50000022184BFEF7EAFC174A184BCDE90001AB
:101A6000FEF756FD32463B46CDE90201FEF750FD3A
:101A700004460022124BFEF7D9FCCDE90401FEF723
:101A8000D7FD0B49183141F82A0004E0002108482D
:101A9000183040F82A10642001F060FA0AF10100C1
:101AA00000F0FF0ABAF10A0FB8DB06B0BDE8F08714
:101AB0006003002000002440CDCCCCCCCCF4884086
:101AC00000408F4070B5002210211E48FFF736FFFE
:101AD0000024012001F062FA00BF20211948FFF71D
:101AE0001CFF0028F9D1002518E00122102115481B
:101AF000FFF724FF6400012001F050FA00221021BA
:101B00001048FFF71BFF20210E48FFF706FF00B12A
:101B1000641C012001F042FA681CC5B2182DE4DBF8
:101B2000012210210748FFF709FF84F40004012077
:101B300001F034FA002210210248FFF7FFFE204690
:101B400070BD00000000024000BFFEE74CF6CC4034
:101B500001490860704700000030004010B500F0F7
:101B600013F810BD70B505460C4645F2555000F00F
:101B70001FF8284600F010F8204600F013F800F097
:101B800003F8FFF7E3FF70BD4AF6AA200149086099
:101B90007047000000300040014948607047000075
:101BA000003000400149886070470000003000406C
:101BB0000149086070470000003000401CB5012159
:101BC000084600F073F91020009001208DF8040001
:101BD00000208DF8060002208DF8050069460848AF
:101BE000FFF736FE2020009000208DF80400012031
:101BF0008DF8070069460248FFF72AFE1CBD000069
:101C0000000002401CB50121032000F04FF97020B4
:101C1000009000208DF8040002208DF8070069462E
:101C20000B48FFF715FE4FF40050009000208DF890
:101C3000040002208DF8070069460648FFF708FEF9
:101C40000548002101800120034948701CBD0000A7
:101C500000000240000402405000002010B5574828
:101C6000407800287ED010215548FFF756FE012805
:101C700019D020215248FFF750FE012813D04021EF
:101C80004F48FFF74AFE01280DD04FF480514D48D0
:101C9000FFF743FE012806D04FF400514948FFF7F3
:101CA0003CFE01286AD10A2001F058F9002043497E
:101CB000487010214248FFF730FE01280BD1112057
:101CC0003E490870404800780B303F490870612059
:101CD00000F0F4FB4AE020213948FFF71EFE0128FE
:101CE0000BD1222035490870374800780B3036492F
:101CF0000870622000F0E2FB38E040213048FFF736
:101D00000CFE01280BD133202C4908702E48007896
:101D10000B302D490870632000F0D0FB26E04FF413
:101D200080512848FFF7F9FD01280BD155202349A0
:101D30000870254800780B3023490870642000F0B3
:101D4000BDFB13E04FF400511E48FFF7E6FD0128EC
:101D50000CD16620194908701B4800780B301A49CD
:101D6000087000E00AE0652000F0A8FB1648007843
:101D7000422821DB0020144908701DE01021104882
:101D8000FFF7CBFDC0B920210D48FFF7C6FD98B97C
:101D900040210B48FFF7C1FD70B94FF4805109484D
:101DA000FFF7BBFD40B94FF400510648FFF7B5FD02
:101DB00010B901200149487010BD000050000020FA
:101DC0000000024000040240520000201CB5012126
:101DD000022000F06BF801208DF8040040F20B2087
:101DE000009069460A48FFF733FD4FF40071084838
:101DF000FFF79EFD08210648FFF79AFD01210448E0
:101E0000FFF796FD02210248FFF792FD1CBD00007E
:101E10000004024000BFFEE77047000070B50021DB
:101E200000230F22C4781CB3174C246804F4E06428
:101E3000C4F5E064C4F30721C1F10404E3B20A412C
:101E400044789C40E1B28478144021430C07210E71
:101E50000E4C05786155047804F01F050124AC4050
:101E600005786D11AD0005F1E025C5F8004109E0E8
:101E7000047804F01F050124AC40054D0678761166
:101E800045F8264070BD00000CED00E000E400E0E5
:101E900080E100E002490143024A116070470000FE
:101EA0000000FA050CED00E07047000029B1064A79
:101EB00012680243044B1A6004E0034A126882432A
:101EC000014B1A60704700001C38024029B1064AD5
:101ED00012680243044B1A6004E0034A126882430A
:101EE000014B1A60704700002438024029B1064AAD
:101EF00012680243044B1A6004E0034A12688243EA
:101F0000014B1A60704700002038024029B1064A90
:101F100012680243044B1A6004E0034A12688243C9
:101F2000014B1A607047000014380240F0B50021E0
:101F300000220023002600240025374F3F6807F0C9
:101F40000C0131B1042912D0082913D00C2934D145
:101F500013E0314F3F1F3F68C7F342356F1C4FF00E
:101F6000010C0CFA07FC4FEACC37076033E02B4F2B
:101F7000076030E02A4F07602DE0274F3F6807F4E5
:101F80007012254F3F6807F44003264F07EB924736
:101F90003A78012707EB93531F4F3F6807F48036C9
:101FA0002EB91E4F5743B7FBF3F7076004E01C4FF1
:101FB0005743B7FBF3F707600DE0174F3F1F3F682C
:101FC000C7F342356F1C4FF0010C0CFA07FC4FEAC7
:101FD000CC37076000BF00BF0F4F3F6807F0F0012C
:101FE0000909114F7C5C0768E74047600A4F3F686A
:101FF00007F4E061090A0C4F7C5C4768E7408760A2
:10200000054F3F6807F46051C90A074F7C5C476879
:10201000E740C760F0BD0000083802400024F4002B
:1020200000127A000C0000201500002010B50146B7
:102030000022002300204A11012A02D1074C236804
:1020400002E0064C3434236801F01F02012494405E
:102050001C400CB1012000E0002010BD00380240FF
:1020600001490860704700000000474270470000C7
:102070000CB50020019000903E48006840F480308C
:102080003C49086000BF3B48006800F40030009005
:102090000198401C0190009818B90198B0F5A04F24
:1020A000F1D13448006800F4003010B101200090F4
:1020B00001E0002000900098012859D12E480068C6
:1020C00040F004002C4908600846006840F0020017
:1020D00008600846006840F0010008602548243088
:1020E000006840F08050234924310860C814234917
:1020F000086000BF2148406800F010000028F9D1B6
:102100001C48083000681B49083108600846006810
:1021100008600846006808600846006820F47D00F2
:1021200008600846006840F4110008601148006823
:1021300040F080700F49086000BF0E48006800F052
:1021400000700028F9D00B480830006820F0030028
:102150000849083108600846006840F0030008603C
:1021600000BF04480830006800F00C000C28F8D1CB
:102170000CBD000000380240003C024000700040EE
:10218000042808D14FF0E021096941F004014FF023
:10219000E022116107E04FF0E021096921F004011C
:1021A0004FF0E022116170477047000010B51548EC
:1021B000006840F4807013490860124808300068D5
:1021C000114908400F49083108600E4800680F495E
:1021D00008400C4908600846006820F48020086028
:1021E00008480830006820F47D000649083108607E
:1021F0000020091D0860FFF73BFF4FF00060044915
:10220000086010BD003802400CC0FF88FEFFFEEEE3
:1022100008ED00E010B50121054800F004F928B1EF
:102220000121034800F0F0F8FFF718FD10BD000091
:10223000000400407FB505460C4601210220FFF74F
:1022400045FE0295ADF804400020ADF80C00ADF855
:10225000060001A90D4800F001F9012211460B48C2
:1022600000F0F2F81D208DF8000002208DF801002A
:1022700003208DF8020001208DF803006846FFF767
:10228000CDFD0021014800F0C2F87FBD00040040F0
:1022900010B501213C4800F0C6F8002872D0012199
:1022A000394800F0B1F839480078401C37490870C7
:1022B000374890F872000978884219DC00203349C9
:1022C00008703448C07A022812D0314890F8720061
:1022D000022809DD08213048FFF72AFB4FF400717E
:1022E0002D48FFF727FB03E008212B48FFF722FBCF
:1022F0002A488078401C294988700846807801283F
:1023000003DB0020887001204870254890F82800E1
:10231000401C234981F82800084690F8280001282D
:1023200005DB002081F82800012081F829001D48E4
:102330000088401C1B49088008460088B0F5167FBD
:1023400011DB002008800846807840F0010088708A
:102350000120154948710F4988721248807840F071
:1023600020001049887010480079401C0E490871FF
:1023700008460079022805DB00200871084600683D
:10238000401C086010BD0000000800404A0000200A
:10239000B40000205203002000040240600300202B
:1023A0002603002054000020740000207FB505465D
:1023B0000C4601210420FFF789FD0295ADF8044089
:1023C0000020ADF80C00ADF8060001A90D4800F0A2
:1023D00045F8012211460B4800F036F81E208DF812
:1023E000000002208DF8010001208DF802008DF818
:1023F00003006846FFF712FD0121024800F007F8CC
:102400007FBD000000080040CA430282704721B12E
:10241000028842F00102028004E002884FF6FE7357
:102420001A400280704730B5024600200023002485
:10243000158A05EA0103958905EA010413B10CB177
:10244000012000E0002030BD1AB183890B43838155
:1024500002E083898B438381704700000022028859
:10246000B0F1804F08D0104B984205D00F4B9842E6
:1024700002D00F4B984204D14FF68F731A404B880D
:102480001A430C4B984207D00B4B984204D04FF69E
:10249000FF431A400B891A4302804B68C3620B88C2
:1024A0000385012383827047000400400008004038
:1024B000000C0040001000400014004010B504461D
:1024C00000BF8021044800F098F80028F9D0214688
:1024D000014800F05AF910BD0038014010B540F233
:1024E00025510B4800F096F880B140F2255108487C
:1024F00000F068F8064800F043F9C1B205480278D8
:102500000078401C034B18700348815410BD000034
:1025100000380140460000208B01002070B540F2D9
:102520002551154800F076F828B340F2255112489D
:1025300000F048F8114802786421114800F052FB7D
:1025400090B10D4800F01CF9C4B2412C0CDB5A2CA0
:102550000ADC094800F014F9C1B208480578681C83
:10256000064A10700648415504480078632802DD89
:1025700000200249087070BD00440040480000205F
:10258000EF01002010B540F225510B4800F042F851
:1025900080B140F22551084800F014F8064800F0D8
:1025A000EFF8C1B2054802780078401C034B187060
:1025B0000348815410BD0000004800404500002041
:1025C0002701002010B50022002340F66A14A14222
:1025D00000D100BF0A1201249440A3B2DC4304805E
:1025E00010BD21B1828942F40052828104E08289C7
:1025F0004DF6FF731A408281704702460020B1F504
:10260000007F00D100BF13880B400BB1012000E018
:102610000020704770B502460024002300250020EA
:1026200040F66A16B14200D100BFC1F3421501F075
:102630001F03012606FA03F3012D02D196893340C8
:1026400006E0022D02D1168A334001E0968A33401B
:102650000C12012606FA04F41688344013B10CB1AA
:10266000012000E0002070BDF0B5034600240026E4
:102670000025002040F66A17B94200D100BF184675
:10268000C1F3421401F01F06012707FA06F5012CD9
:1026900001D10C3004E0022C01D1103000E01430E4
:1026A0001AB107682F43076002E00768AF4307606D
:1026B000F0BD00002DE9FF4705460E460024A14667
:1026C00000BFA046B08900B100BF2C8A24F440545A
:1026D000F08804432C82AC8941F20C608443B088BA
:1026E00031890843718908430443AC81AC8A24F4DE
:1026F0004074B0890443AC826846FFF717FC1F485A
:10270000854202D1DDF80C9001E0DDF80890A8893F
:1027100000F4004040B109EBC90000EB091031683A
:102720004900B0FBF1F707E009EBC90000EB091025
:1027300031688900B0FBF1F76420B7FBF0F00401C9
:102740002009642101FB1078A88900F4004040B101
:10275000322000EBC800B0FBF1F000F007000443AA
:1027600008E0322000EB08106421B0FBF1F000F02B
:102770000F0004432C81BDE8FF87000000380140B2
:1027800001468888C0F308007047C1F308028280C0
:10279000704700000BE000BF0749098801F04001C5
:1027A0000029F9D00178044A121D1180401C0178DB
:1027B0000029F0D1704700000038014000BFFEE75B
:1027C0000FB4054B10B503A9044A029800F017F89E
:1027D00010BC5DF814FB0000D932000898000020FE
:1027E00002E008C8121F08C1002AFAD170477047DA
:1027F000002001E001C1121F002AFBD170472DE922
:10280000F84F9946924688460546002706E0252857
:102810000AD051464A4690476D1C7F1C28780028F4
:10282000F5D13846BDE8F88F002315F8011F18468A
:102830002E2915D115F8011F04232A290DD06FF078
:102840002F022978A1F13004092C09D800EB80006F
:1028500002EB400008446D1CF3E758F8040B6D1CB4
:102860002A78002ADDD0632A07D0732A0FD01046B9
:1028700051464A4690477F1C2AE018F8042B8DF8F1
:10288000002000218DF801106E46012103E058F868
:10289000046B4FF0FF315A074FF0000401D409E0F8
:1028A000641C84420BDA8C42FADB325D002AF7D1D9
:1028B00005E0641C8C42FCDB305D0028F9D1274424
:1028C00004E016F8010B51464A469047641EF8D2C0
:1028D0006D1CA3E710B500210148FEF7E1F910BD1A
:1028E0000024014000B589B001210320FFF7DEFA82
:1028F00001214802FFF7FAFA0120019003208DF828
:10290000080000208DF80B0001A91D48FEF7A0FF6C
:102910004FF44040019003208DF8080000208DF80E
:102920000B0001A91748FEF793FF1748FEF7C4F9FB
:102930000120FFF795FB00BF2120FFF777FB002860
:10294000FAD000208DF810008DF811004FF00070C3
:10295000039000200690079001208DF8200003A925
:102960000948FEF7C7F901210748FEF799F900BFAA
:1029700040210548FEF7B4F90028F9D009B000BDA0
:102980000000024000040240002401402DE9F84FFD
:10299000002000902E490888FDF729FE80464FF060
:1029A00066322C4BFDF742FD064600222A4BFDF70E
:1029B000AFFD044600224FF08043FDF737FD82460D
:1029C000FDF74FFE009025490098FDF7FDFC0446F9
:1029D000FDF71AFE1E4948800846408880B908461F
:1029E000007B401C08730846007B042803DB084674
:1029F0004088888014E016488088154948800FE098
:102A000013484088B0F5DC7F04DD11488088104908
:102A1000488005E000200E490873084640888880F9
:102A20000FA001F052FA0A49488801F0CCF90CA035
:102A300001F04BFA0649488801F04DFA09A001F06F
:102A400044FA0349087B01F09AFABDE8F88F0000C8
:102A50005203002066660A4000E06F400000C84252
:102A60000900000009636F756E743A0010B50648DE
:102A7000807A40B100200449887200F077F8FFF7AF
:102A800085FF00F00FF810BD5203002010B50E2195
:102A90000348FDF7A6FB01200149887210BD000024
:102AA000520300202F484088B0F5DC7F00DD7047DE
:102AB0002C484088B0F5B97F14DC00202949887182
:102AC00008464088B0F5AF7F1ADD0020087208463E
:102AD000C079401CC8710846C079032810DB01206A
:102AE000C8720DE000201F490872C871084680793D
:102AF000401C887108468079032801DB0020C872D9
:102B00001848C07A10B1012827D115E016488078FE
:102B100020F08000144988700846C07820F08000BA
:102B2000C8700846807820F0400088700846C07859
:102B300020F04000C87011E00B48C07820F0800001
:102B40000949C8700846C07800F0400020B908461E
:102B5000807840F04000887000E000BF00BF00BFF8
:102B6000A5E70000520300205400002010B5002407
:102B7000012000F0E7FB0E49088004460020088091
:102B800000F0E0FB0A490880084600780880FFF75B
:102B9000A1FE08A001F099F9204601F0BEF909A0B4
:102BA00001F093F90249088801F0B7F910BD00005F
:102BB000520300200A6261745F73616D706C653A44
:102BC00000000000093A000010B50548407920B126
:102BD00000200349487100F0E3FC00F0A1FC10BDA7
:102BE0007400002010B503460C4611460AE0585CFC
:102BF000412802DB585C5A2802DD0A46012010BD3C
:102C0000481CC1B2A142F2DB00210AE0585C412815
:102C100002DB585C5A2802DD0A460120EFE7481C17
:102C2000C1B29142F2DB0020E9E7000010B58EB09E
:102C3000044600200C900D900A900B90A41D04A84F
:102C400005A906AA07ABCDE90032CDE9021008AB11
:102C500009AA10A12046FDF7F5FA099880B2ADF84F
:102C600030000898C0B28DF832000798C0B28DF8D5
:102C700033000698C0B28DF834000598C0B28DF8C4
:102C800035000498C0B28DF836000CA800F05EF84C
:102C90000EB010BD253032642F253032642F253020
:102CA00032642C253032643A253032643A25303291
:102CB000640000001CB504460020009001906846A6
:102CC00000F018F8BDF80000A0F5FA6020709DF83B
:102CD000020060709DF80300A0709DF80400E07091
:102CE0009DF8050020719DF8060060710020A0711C
:102CF0001CBD000070B504460F48FDF7DFFC05461B
:102D00002878A07128796071287A08302071287B92
:102D1000E070287C401CA070A88A00F26C702080B3
:102D20002079182190FBF1F201FB1200207120465E
:102D300000F050F870BD000074000020024800212F
:102D400001604160704700007400002010B5044627
:102D5000208800F5FA602080204600F072F80549CE
:102D6000086005A001F0B1F80249086801F0E7F831
:102D700010BD0000740000200A7574633A00000062
:102D800010B500240CA0FFF71BFD4FF49670FEF762
:102D90003FFD0CA10D48FDF72FFA0D4908600846CC
:102DA000006820B108460068FFF740FF0124FEF7E5
:102DB00017FD204610BD000041542B43434C4B3FB0
:102DC0000D0A00002B43434C4B3A00002701002022
:102DD00004000020F0B5024611889378012B01D041
:102DE000022B04D103F10C00C3B2481E81B25D1C5A
:102DF00005EB4505052695FBF6F5D678022707FB7A
:102E0000036635440D440846CE1701EB967605EB74
:102E1000A605642691FBF6F6AD1B4FF4C87691FB30
:102E2000F6F63544072695FBF6F706FB1755ECB288
:102E3000601C072590FBF5F605FB1600D071D079D4
:102E4000F0BD30B58BB0044600252C216846FDF757
:102E5000C8F92088A0F26C700590A078401E0490FC
:102E6000E07803902079029060790190A079009039
:102E70006846FDF75BF9054628460BB030BD0000FB
:102E80002DE9F04105460F461646002403E0385D63
:102E90002855601CC4B2B442F9DB0020A85504A038
:102EA000FFF778FC2846FFF775FCBDE8F0810000CD
:102EB0000D0A0000F0B504461546002025E0265C0A
:102EC0000A2796FBF7F6F2B2265C96FBF7FC07FBA7
:102ED0001C66F3B2092A04DD02F1370601F810601E
:102EE00003E002F1300601F81060092B06DD03F162
:102EF0003706F7B24600761C8F5505E003F1300621
:102F0000F7B24600761C8F55401CA842D7D3002646
:102F100001F81060F0BD000010B56FF00400FFF77D
:102F20002FF90A4800680A49B0FBF1F00949087016
:102F30000846007800EB4001C1EBC0104FF6FF716E
:102F400001EAC0000449088010BD000028000020EC
:102F500000127A004C0000204E00002001460020A4
:102F60000D4A12884A434FF0E0235A6100229A61C9
:102F700001221A6100BF4FF0E022106900F0010247
:102F80001AB100F48032002AF5D000224FF0E0237D
:102F90001A619A61704700004E000020014600202F
:102FA0000D4A12784A434FF0E0235A6100229A6199
:102FB00001221A6100BF4FF0E022106900F0010207
:102FC0001AB100F48032002AF5D000224FF0E0233D
:102FD0001A619A61704700004C00002030B5184C0F
:102FE000031972B6174C184D2C60184C2C6000BF9A
:102FF000154C083C246804F00104002CF8D1124C54
:10300000083C246844F480740F4D083D2C6008E0AF
:1030100002C300BF0C4C0C34246804F00104002CE3
:10302000F8D11400A2F10105AAB2F1D1064C083C76
:10303000246844F00104044D083D2C6062B630BDA4
:1030400000000808EFCDAB890C3C024005040302E8
:103050000EB54E494A880888694600F0B7F800283E
:103060002AD0BDF8000060B948490888192200211B
:10307000FFF7B4FF45494A880888454900F0DAF867
:103080000BE0BDF80000424908390989884204D0A4
:10309000BDF800003E49083908813EA000F015FF48
:1030A000BDF8000000F039FF40A000F00EFF3849E5
:1030B0000839088900F031FF3449CA888888694690
:1030C00000F084F850B3BDF8000060B92F4988883B
:1030D00019220021FFF782FF2C49CA8888883449C9
:1030E00000F0A8F80BE0BDF800003149091F09798C
:1030F000884204D0BDF800002D49091F08712DA099
:1031000000F0E3FEBDF8000000F007FF27A000F08C
:10311000DCFE2749091F087900F0FFFE1B494A8998
:103120000889694600F052F870B3BDF80000052820
:103130000DDC1649088919220021FFF74FFF1349BA
:103140004A8908891249443100F074F80BE0BDF84F
:1031500000000F490839C96C884204D0BDF800004E
:103160000B490839C86416A000F0AFFEBDF8000096
:1031700000F0D3FE0DA000F0A8FE05490839B1F813
:103180004C1088B200F0C9FE0EBD00008400002083
:10319000680300200A656570726F6D5F696E6974FF
:1031A0002C7765696768743A000000000900000028
:1031B00058000020092075706C6F61643A000000AF
:1031C0000920666163746F723A0000002DE9F041D6
:1031D000074613460120DFF8588007EB08054FF03B
:1031E000000C21E02A8835F823404FF6FF7808EAE2
:1031F000430835F82860A24202D121F8022B0EE0E4
:10320000B24202D121F8022B09E0B44202D121F8E6
:10321000024B04E04FF0000821F8028B00202D1D26
:103220000CF1010808F0FF0C9C45DBDBBDE8F081E8
:1032300000000808F0B503460C461646224FDD197B
:1032400072B6224FDFF888C0CCF80070214FCCF85E
:10325000007000BF1E4F083F3F6807F00107002FB6
:10326000F8D11B4F083F3F6847F48077DFF860C014
:10327000ACF1080CCCF80070002015E00C461646A6
:103280000AE034F8027B80C500BF114F0C373F685D
:1032900007F00107002FF8D13700A6F1010C1FFA43
:1032A0008CF6EED1471CF8B20328E7DB084F083F45
:1032B0003F6847F00107DFF818C0ACF1080CCCF804
:1032C000007062B6F0BD000000000808EFCDAB89C9
:1032D0000C3C02400504030200BF054A128802F0BC
:1032E0004002002AF9D0C2B2014B1B1D1A80704760
:1032F0000048004010B5002821D0114B0022001FCB
:10330000196803E0814203D80A4649680029F9D1C7
:1033100052B11368841A9C4204D1006818441060AA
:10332000104602E0506000E0186039B102680B1AE4
:10333000934203D10B681A4402604968416010BD92
:103340009C00002010B50446FFF7CCFA07230122A9
:1033500021460848FDF7F8FC0648FDF7A1FD00BF2F
:1033600002210448FDF7BCFC0028F9D00148FDF714
:10337000B3FC10BD0024014000B58FB007A808A918
:1033800009AA0AABCDE90232CDE904100BA80CA9B9
:10339000CDE9001045490968881E0DAB0EAA44A16D
:1033A000FCF750FF4BA000F090FD0E99C8B200F062
:1033B00008FE4AA000F089FD0D99C8B200F001FE98
:1033C00047A000F082FD0C99C8B200F0FAFD44A0BD
:1033D00000F07BFD0B99C8B200F0F3FD40A000F0B7
:1033E00074FD0A99C8B200F0ECFD3DA000F06DFD3F
:1033F000099988B200F091FD39A000F066FD0899A6
:1034000088B200F08AFD36A000F05FFD079988B20F
:1034100000F083FD32A000F058FD0D98052843D13F
:103420000C98DD2840D12F48C0780A99884201D1F4
:103430000FB000BD2B490A98C8700B98012818D10D
:1034400029480089099988420BD0099848B1264932
:103450000998088125494A88088823490831FFF7D7
:10346000E9FE23A000F031FD1F49088900F033FD7B
:103470001AE00B98022817D123480079099988424D
:103480000BD0099848B12049099808711749CA8892
:1034900088881D49091DFFF7CDFE1CA000F015FD11
:1034A0001949087900F017FD00BFC1E704000020AA
:1034B000253032642C253032782530327825303270
:1034C00078253032782530347825303478253034FA
:1034D000780000000A70617273653A002C090000E0
:1034E0000900000054020020600300208400002036
:1034F0000A635F7765696768745F7468726573688B
:103500006F6C643A00000000540000200A635F758D
:10351000706C6F61645F74696D65733A00000000E0
:1035200010B51448807900B313A000F0CEFC15A0AC
:10353000FFF746F94FF47A70FFF710FD14A1154814
:10354000FCF75AFE144908600846006828B1FFF7E6
:1035500013FF03201149087004E000200549887119
:103560000E490870FEF73CF902E000200B49087094
:1035700010BD0000540000200A726563656976651D
:103580003A20000041542B4E4D47520D0A000000D6
:103590002C00000027010020040000200000002073
:1035A0001CB56846FFF7A6FB9DF8040070B90948F2
:1035B000807970B9FFF7E4FB0649887106A000F036
:1035C00084FC0449887900F0DAFC02E0002001491B
:1035D00088711CBD740000200A73796E3A000000E7
:1035E000F0B50446251200201FE02A0905F00F035C
:1035F000092A04DD02F1370601F8106003E002F148
:10360000300601F81060092B06DD03F13706F7B22A
:103610004600761C8F5505E003F13006F7B24600F0
:10362000761C8F55E5B2461CF0B20228DDDBF0BDFA
:1036300010B5C31700EB13730A24B4EB231F07DC88
:103640000246C31700EB13731B1137330B7006E0F0
:103650000246C31700EB13731B1130330B70C317F3
:1036600000EB13731B11A0EB03130A2B09DB0246BB
:10367000C31700EB13731B11A0EB031337334B700D
:1036800008E00246C31700EB13731B11A0EB0313F2
:1036900030334B7010BDF0B50446154600201FE0D6
:1036A000265C3209265C06F00F03092A04DD02F1CC
:1036B000370601F8106003E002F1300601F81060EF
:1036C000092B06DD03F13706F7B24600761C8F554D
:1036D00005E003F13006F7B24600761C8F55401C1A
:1036E000A842DDD3002601F81060F0BD2DE9F04FAF
:1036F00091B04FF0000A3BE0FEF7E4F98346224820
:10370000C068584529D22048C068ABEB000B1E4961
:10371000C86CFCF76CFFCDE902015846FCF767FF67
:1037200080460022194BFCF781FE0646184A194BC9
:10373000FCF7EEFECDE90001DDE90223FCF7E8FE2F
:1037400004460022144BFCF771FECDE90401FCF79E
:103750006FFF07A941F82A0003E0002007A941F8FC
:103760002A006420FFF7FAFB0AF1010000F0FF0ACB
:10377000BAF10A0FC0DB0A2107A800F0F3FA06909D
:10378000069811B0BDE8F08F6003002000002440CF
:10379000CDCCCCCCCCF4884000408F401CB501216E
:1037A0000220FEF783FB4FF48050009000208DF83C
:1037B000040001208DF8070069460248FEF748F82A
:1037C0001CBD0000000402407CB500200090019068
:1037D0004FF480513548FEF7A0F8002863D14FF42C
:1037E0007A70FFF7BBFB4FF480513048FEF795F835
:1037F000012800D17CBD01212C48FEF797F8FFF786
:1038000075FF01900446009001212848FEF790F8CA
:1038100000261CE0FEF7A2F9FFF768FF044603E06C
:103820000094FFF763FF04460098001DA042F7D301
:10383000201D00998142F3D801983230A04205D270
:10384000FEF78CF9FFF752FF044602E0761C0A2EC1
:10385000E0DB00BF01211548FEF768F80198A0429F
:1038600002D20198251A01E00198051B1048C06C8E
:10387000A84209D045B10E48C5640E494A89088955
:103880000B494C31FFF7D6FC4FF47A70FFF766FB1B
:1038900001210648FEF74CF807A000F016FB04498A
:1038A000C86C00F04CFB00BFA4E70000000402401D
:1038B00060030020840000200A666163746F723127
:1038C00030303A0000F032F805E0FEF747F900F03A
:1038D0007FF800F001F8F8E710B51348007830B130
:1038E00001280CD002280DD0032816D112E0FFF7D2
:1038F0006BFF00F003F901200B49087011E000F0A4
:1039000019F90EE0FFF7B2F800F0D8FC03200649E1
:10391000087006E0FFF758F903E00020024908703C
:1039200000BF00BF10BD00000000002010B54FF424
:10393000A060FEF7AFFAFFF7EFFAFEF747FAFEF7DF
:1039400061F9FFF72BFF4FF4165000F011FC4FF414
:10395000165000F04BFB4FF4165000F0A9FB40F658
:103960007F41C720FEF766FC40F67F4141F2873079
:10397000FEF71CFDFFF7E2F9FDF726FEFDF796FACC
:1039800000F0E4FCFEF7AEFFFFF780F800F0CAF8A5
:1039900000F0D6F8FFF75CFB06A0FEF7FBFE06A0E2
:1039A000FEF7F8FE00F0DCF840F64E410520FEF789
:1039B000D9F810BD0D0A000056455253494F4E5FCD
:1039C000595F4D5F443A31393132313700000000E0
:1039D0000348807810B10220024908707047000047
:1039E0005400002000000020F0B50B30154D20F0F1
:1039F00007010024144A0FE003688B420BD38B426B
:103A000005D95E1A43184768C3E9006700E04368B8
:103A1000136002C004E0021D10680028ECD12046AB
:103A2000002802D1286808B10020F0BD064A0748E6
:103A30001060074A121A22F00702C0E90024012090
:103A40002860D7E7A00000209C000020E4030020AD
:103A5000E00500200F48808964280DDA0D48C089F0
:103A6000642804DA02200B4981F82A0011E00120C1
:103A7000084981F82A000CE00648C089642804DA65
:103A80000120044981F82A0003E00020014981F85F
:103A90002A0070472603002010B5002111488181BB
:103AA0001420FFF74FFC0F4988810846017B818174
:103AB0000021C1811520FFF745FC0A49C88108464D
:103AC000817BC18108A000F000FA0649888900F0D6
:103AD00002FA09A000F0F9F90249C88900F0FBF9DF
:103AE00010BD0000260300200A70726573735F73B7
:103AF000616D706C653A00000900000010B508485F
:103B000090F82900012809D10020054981F82900F1
:103B1000FFF7C2FFFEF7DEFEFFF79CFF10BD0000BF
:103B20002603002010B52C210148FCF75AFB10BDDC
:103B30002603002010B5FDF76BFF00F01FF810BD45
:103B400010B5FEF73BF850210448FCF74AFB19205A
:103B5000024908814FF47A70C86410BD60030020E8
:103B600010B5FDF7F1FE4FF47A70FFF7F7F94FF457
:103B70007A70FFF7F3F9FDF7E7FE10BD10B50A21E3
:103B80006C4800F0EFF86B49183908646AA000F03F
:103B90009CF968491839086C00F060F90020654903
:103BA00018390870C8800846016C406C001D8142BD
:103BB00006D860481838416C006C001D814208D955
:103BC0005C481838006C5B4918394864002008715B
:103BD00010BD58481838006C5649183948640846D2
:103BE0000079401C087108460079032802DB032095
:103BF000087100E0ECE74F481838006C642811D2D7
:103C00004C481838C078052851DA4A481838C07826
:103C1000401CC0B247491839C870052847DB052049
:103C2000C87044E043481838016C806C814224D34A
:103C3000002040491839C8700846806C098908443A
:103C40003C491839096C884231D83A481838806C98
:103C500020B9002037491839087003E0FF203549A2
:103C60001839087033481838B0F84010B0F84800D8
:103C7000081A30491839C88019E000202D49183930
:103C8000C8700846006C098901442A481838806CBD
:103C900081420CD8FE202749183908700846B0F830
:103CA0004800B1F84010401A22491839C88021480C
:103CB0001838006C1F49183948640846016C816443
:103CC000007848B12048807840F004001E49887090
:103CD00002201E49087002E000201C4908701CA048
:103CE00000F0F3F813491839087800F06AF9092050
:103CF00000F0AEF80F491839C88800F0ECF8092038
:103D000000F0A6F80B491839C88800F0A7F8092078
:103D100000F09EF807491839486C00F09FF8092018
:103D200000F096F803491839886C00F097F800BF46
:103D30004EE70000780300200A7765696768745FC2
:103D40006176653A00000000540000200000002069
:103D500009737461206368616E6765206C617374B8
:103D60003A092000F0B502460C46002500231AE06F
:103D7000002112E052F82170481C52F820008742BE
:103D800009D952F82160481C52F8200042F821005D
:103D9000481C42F82060481CC1B2601EC01A88420C
:103DA000E8DC581CC3B2A342E2DB022304E052F871
:103DB00023000544581CC3B2A01E9842F7DC06201D
:103DC000B5FBF0F0F0BD2DE9F04780460525C14672
:103DD000AA465046FFF708FE064600240CE00A20DB
:103DE00099FBF0F100FB119030550A2099FBF0F09F
:103DF0001FFA80F9601CC4B2AC42F0DB002406E07C
:103E0000681E001B305C00B104E0601CC4B2E81EF8
:103E1000A042F5DC00BF274606E0691EC91B705CA6
:103E200000F0CFF8781CC7B2A81EB842F5DC2E20EF
:103E300000F00EF8707800F0C4F8307800F0C1F8A7
:103E4000762000F005F83046FFF754FABDE8F08719
:103E500010B504462046FEF731FB10BDFEB5064600
:103E6000374600240BE00A20B7FBF0F100FB11708D
:103E70000DF804000A20B7FBF0F7601CC4B20A2C4E
:103E8000F1DB002407E0C4F109001DF8000000B1D7
:103E900003E0601CC4B2082CF5DB00BF254607E038
:103EA000C5F109011DF8010000F08BF8681CC5B2CE
:103EB000092DF5DB2E20FFF7CBFF9DF8000000F069
:103EC00080F86720FFF7C4FFFEBD10B5044620460A
:103ED000FEF760FC10BD7CB505462E4600240DE0C3
:103EE0000A2096FBF0F100FB1160C0B20DF804004F
:103EF0000A2096FBF0F086B2601CC4B2052CEFDB02
:103F0000002407E0C4F104011DF8010000F059F895
:103F1000601CC4B2052CF5DB7CBDF8B505462E4609
:103F200069463046FFF75CFB002405E01DF80400FD
:103F3000FFF78EFF601CC4B2042CF7DBF8BDFEB5A2
:103F400005462E4600240BE00A20B6FBF0F100FBEC
:103F500011600DF804000A20B6FBF0F6601CC4B234
:103F60000A2CF1DB002407E0C4F109011DF801006F
:103F700000F027F8601CC4B20A2CF5DBFEBDF8B5D2
:103F800005462E4600240DE00A2096FBF0F100FBCA
:103F90001160C0B20DF804000A2096FBF0F0C6B222
:103FA000601CC4B2032CEFDB002407E0C4F1020163
:103FB0001DF8010000F005F8601CC4B2032CF5DB0D
:103FC000F8BD38B50446254669462846FFF730FB5C
:103FD0009DF80000302803D09DF80000FFF738FF5F
:103FE0009DF80100FFF734FF38BD000010B588B020
:103FF000044601210846FDF759FF01214804FDF759
:1040000065FF072202212748FDF764FC07220321F0
:104010002448FDF75FFC0420069002208DF81C0068
:104020008DF81D0000208DF81E0001208DF81F0066
:1040300006A91C48FDF70CFC0820069002208DF80C
:104040001C0006A91748FDF703FC26208DF8040084
:1040500001208DF8050002208DF8060001208DF862
:10406000070001A8FDF7DAFE02940020ADF80C006D
:10407000ADF80E00ADF81000ADF814000C20ADF84E
:10408000120002A90848FEF715FB012240F2255153
:104090000548FEF7E9FA63210448FCF7A2F808B0E6
:1040A00010BD00000000024000440040EF0100206D
:1040B00010B588B0044601210220FDF7F7FE01216A
:1040C0008804FDF703FF07220A212748FDF702FCB9
:1040D00007220B212448FDF7FDFB4FF4806006907A
:1040E00002208DF81C008DF81D0000208DF81E00A8
:1040F00001208DF81F0006A91B48FDF7A9FB4FF40E
:104100000060069002208DF81C0006A91648FDF7F5
:104110009FFB27208DF8040001208DF805008DF805
:1041200006008DF8070001A8FDF778FE0294002034
:10413000ADF80C00ADF80E00ADF81000ADF81400AD
:104140000C20ADF8120002A90848FEF7B3FA0122CC
:1041500040F225510548FEF787FA01210348FEF792
:1041600040FA08B010BD00000004024000480040C2
:1041700010B588B0044601210846FDF797FE0121DD
:104180008803FDF7B3FE072209212848FDF7A2FBAB
:1041900007220A212548FDF79DFB4FF40070069089
:1041A00002208DF81C008DF81D0000208DF81E00E7
:1041B00001208DF81F0006A91C48FDF749FB4FF4AC
:1041C0008060069002208DF81C0006A91748FDF7B4
:1041D0003FFB25208DF8040001208DF80500032009
:1041E0008DF8060001208DF8070001A8FDF716FEE6
:1041F00002940020ADF80C00ADF80E00ADF81000F0
:10420000ADF814000C20ADF8120002A90848FEF722
:1042100051FA012240F225510548FEF725FA012105
:104220000348FEF7DEF908B010BD000000000240B0
:104230000038014008B500200346024601210090E5
:1042400008A000F08DF800F025F90748807820F0EC
:104250004000054988700846C07840F04000C870AA
:1042600008BD0000303200005400002008B50020D6
:104270000090084842880023194607A000F070F813
:1042800000F008F90548807820F020000349887084
:1042900008BD00005203002030320000540000200E
:1042A00005480078401C0449087008460078C82872
:1042B00001DD0120087070475C00002010B513A0DC
:1042C000FFF703FE15498878FFF77BFE13488078D7
:1042D00000F0040010B100F0F7F816E00F48807805
:1042E00000F0400010B1FFF7A5FF0EE00B4880780A
:1042F00000F0200010B1FFF7B9FF06E00748807812
:1043000000F0010008B100F00BF810BD0A726570F2
:104310006F72745F666C61673A00000054000020A1
:1043200008B50020034602460121009005A000F0D8
:1043300017F800F0AFF80448807820F00100024937
:10434000887008BD3031000054000020034800216F
:10435000016041600320014908717047540000204A
:104360002DE9F0479AB005460E4617469846DDF807
:1043700088900024C8214148FBF733FF022240A166
:104380003E48FBF74BFFA41C02223EA13B48FBF733
:1043900045FFA41C0F2211A93B48FFF77CF91E2200
:1043A00011A93648FBF73AFF1E340222294633484A
:1043B000FBF734FFA41C354890F800A019A950461B
:1043C000FFF736F9022219A92C48FBF727FFA41C96
:1043D000B24619A95046FFF72BF9022219A927481E
:1043E000FBF71CFFA01CC4B20FA93846FFF7F8F872
:1043F00004220FA92148FBF711FF201DC4B20FA909
:104400004046FFF7EDF804220FA91C48FBF706FF12
:10441000201DC4B20FA94846FFF7E2F804220FA9F5
:104420001648FBF7FBFE201DC4B20DA8FEF742FCA8
:10443000062209A90DA8FEF73DFD0C2202A909A834
:10444000FFF729F9182202A90C48FBF7E7FE04F14F
:104450001800C4B2062269460D48FFF71CF906226F
:1044600069460648FBF7DAFEA01DC4B200200349E6
:104470000855FFF715FF1AB0BDE8F0875E0200206F
:104480003034000044440000A40000205C00002000
:104490004045000810B50A20FEF710F80848FEF75E
:1044A00079F90A20FEF70AF8054906A0FCF7B2FFE1
:1044B0004FF47A70FEF752FDFCF792FF10BD00003A
:1044C0005E0200203431000008B515A0FFF7FDFCA6
:1044D00017494879FFF753FD1548407950B91548F9
:1044E000C0890090134883891348C288017813A0BB
:1044F000FFF736FFFFF7CEFF0D484079401C0C490F
:104500004871084640790979884207D1084880787F
:1045100020F00400064988700020487108BD0000A2
:104520000A7265706F72745F636F756E743A000023
:1045300054000020260300206003002031320000D8
:10454000312E31001F1C1F1E1F1E1F1F1E1F1E1F6E
:104550001F1D1F1E1F1E1F1F1E1F1E1FDDDDDDDD79
:10456000DCBBBBDDDDDDDDDDDDDDDDDD9888888804
:1045700088888888777777777788888885555556AB
:104580006666666666666666666888888333333202
:1045900022222222222222222228888DBC450008A3
:1045A00000000020A4000000E0270008604600088A
:1045B000A40000203C090000F027000800000000D3
:1045C0000000000000000000030406080C10182082
:1045D0003000000000010203040102030406070882
:1045E000090000000048E801030406080C10182028
:1045F000300000000000000000010203040607086C
:1046000009000000000000000000000000000000A1
:104610000000000000000000010000000000303138
:104620003233343536373839616263646566000089
:10463000000000000000000000000000000000007A
:104640000000010064000100C80001002C0101000D
:1046500090010100000000000000000000000000C8
:04000005080000F5FA
:00000001FF
