:020000040800F2
:10000000B00F002009010008FD1D00082D1B00088D
:10001000F91D0008B1150008E927000800000000DC
:100020000000000000000000000000005120000857
:10003000F1170008000000008D1E00088D21000847
:100040002301000823010008230100082301000800
:1000500023010008230100082301000823010008F0
:1000600023010008230100082301000823010008E0
:1000700023010008230100082301000823010008D0
:1000800023010008230100082301000823010008C0
:1000900023010008230100082301000823010008B0
:1000A00023010008230100082301000823010008A0
:1000B00023010008F9210008752200082301000827
:1000C0002301000823010008230100082301000880
:1000D000230100080925000849250008B12500086A
:1000E0002301000823010008230100082301000860
:1000F00023010008DFF80CD000F002FC00480047A4
:100100000D380008B00F0020064880470648004719
:10011000FEE7FEE7FEE7FEE7FEE7FEE7FEE7FEE7B7
:10012000FEE7FEE791210008F500000838B5D0E9A8
:100130000221491E01EB410102EBC1014268C1EB02
:10014000011102EB81010268C1EB011102EB810296
:10015000D0E9043101EB410103EB81013023A1F52A
:10016000527191FBF3F4174D6C4302EBC41291FBF7
:10017000F3F403FB141100921A2902DB124B1A4408
:1001800000920C2291FBF2F3104C6343009C04EBB1
:10019000C313009391FBF2F302FB13110C4A08E026
:1001A000491E40F2A324535C6343009C04EBC31339
:1001B00000930029F4DC0146684600F085FA0098B7
:1001C00038BD00003F0C0F008051010067C20300E2
:1001D00070450008D2B201E000F8012B491EFBD2A5
:1001E00070470022F6E710B513460A460446194642
:1001F000FFF7F0FF204610BD30B505462A460B46F6
:1002000012F8010B13F8014B08B1A042F8D01CB151
:10021000002802D06D1CF1E7284630BD10B5044619
:1002200000E0401C0378002BFBD100E0401C521E74
:1002300004D311F8013B0370002BF7D100210170AA
:10024000204610BD0FB400B58DB010A909900B90D9
:1002500000914FF0FF300A9000200C900548069066
:10026000054807906A4609A80F9900F087FA0DB073
:100270005DF814FB99070008B70700082DE9FF5F38
:100280001D464FF0FF3BD5E9014691465F464FF0D2
:100290000008A9697F1C01988847296A8246884717
:1002A0000028F6D1BAF1FF3F0CD024F4C064002E30
:1002B00019DD600614D5BAF12B0F09D0BAF12D0F54
:1002C0000ED103E0584604B0BDE8F09F44F48064CA
:1002D000A9697F1C01988847761E8246002E02DDA0
:1002E000BAF1300F03D0B9F1000F26D032E0A9697E
:1002F000761E44F400747F1C019888478246002EC5
:1003000005DDBAF1780F06D0BAF1580F03D0B9F174
:10031000000F10D01EE0B9F1000F02D0B9F1100F9C
:1003200018D1A969761E24F400747F1C01988847AF
:100330008246102002E0082000E00A20814609E001
:1003400008FB0908A969761E44F400747F1C019813
:1003500088478246002E05DD4946504600F0FAF9EE
:100360000028EDDAE96901988847A00502D46FF00A
:100370000100A8E7E00725D1600613D5600502D586
:10038000C8F1000000E0404629680A1D2A6009689B
:10039000220501D5087015E0220701D5088011E07B
:1003A00008600FE02868011D29600068210502D55A
:1003B00080F8008006E0210702D5A0F8008001E067
:1003C000C0F8008038467EE780EA010210B502F0EE
:1003D0000043400022D04A001FD0010E01EB126101
:1003E000C0F35600C2F3560240F4000042F400028B
:1003F000A0FB022000047F39140400D0401C50EA06
:10040000124001D44000491EC2B20C0604EBD010C9
:10041000401C4008802A02D003E0002010BD20F0DC
:100420000100002900DA0020184310BD2DE9FE4F1D
:1004300081EA030404F0004421F0004100944FF0ED
:10044000000B23F0004350EA01045ED052EA03049B
:100450005BD0C3F30A54C1F30A552C44A4F2F3341D
:100460000194A0FB0254C1F3130141F48011C3F3C2
:10047000130343F4801301FB024400FB034E840A80
:10048000970A44EA815447EA8357A4FB0768029518
:100490008D0A05FB07854FEA932C04FB0C542705B6
:1004A000029D4FEA065847EA1637B5EB08056EEB92
:1004B000070C870E920E47EA811742EA8312A7FBC8
:1004C0000201B6EB0B0164EB00042B0D43EA0C3385
:1004D0005E1844EB1C50DA465146E7FB0201C5F3B7
:1004E00013044FEA0B3343EA14534FEA0432019CDE
:1004F00043EA0603A4F10C040294009CCDE900B485
:1005000000F0B0F903B0BDE8F08F00200146F9E734
:100510002DE9F04D81EA030404F0004B21F0004581
:1005200014464FF0000A23F0004150EA050220D0A3
:1005300054EA01021DD0C5F30A570246C5F313035E
:10054000C1F31300C1F30A5640F4801543F480133D
:10055000A7EB0608101BD64608F2FD3873EB050022
:1005600002D308F1010801E092185B41B8F1000FD5
:1005700003DA00200146BDE8F08D00204FF4801121
:10058000064684460EE0171B73EB050705D3121BC6
:1005900063EB050306434CEA010C49084FEA3000BF
:1005A00092185B4150EA0107EDD152EA030012D0E4
:1005B00082EA040083EA0501084305D0101BAB4121
:1005C00006D20122002306E000224FF0004302E0A1
:1005D0006FF0010253101AEB06004CEB085110EBC0
:1005E0000A0041EB0B01BDE8F04D00F02CB90EB54F
:1005F00040F2334102910021CDE900110A460B4639
:1006000000F030F903B000BD20F00040C10DC0F390
:10061000160040F400007F2901DA00207047962977
:1006200003DCC1F19601C840704796398840704795
:10063000C1F30A5210B5C1F3130140F2FF3341F484
:1006400080119A4201DA002010BD40F233439A42F1
:10065000A2F2334203DC524200F01FF810BD90407A
:1006600010BD01F0004330B421F0004150EA010216
:1006700006D00A0DA2F56072C1F31301002A02DC54
:1006800030BC00207047440F44EAC104C100E018A8
:1006900030BC00EBC25000F09FB8202A04DB203AA7
:1006A00021FA02F00021704721FA02F3D040C2F192
:1006B000200291400843194670470000014900F0AC
:1006C00003B80000800B002010B500683C22B0FB8E
:1006D000F2F302FB1303B0FBF2F00B60B0FBF2F39A
:1006E00002FB1303B0FBF2F018224B60B0FBF2F3F5
:1006F00002FB1303B0FBF2F0021D8B600723B2FB79
:10070000F3F403FB1422800040F2B55300F66C3082
:100710008A61B0FBF3F2B0FBF3F403FB1400443244
:1007200080084A61C8613B2802D3920700D0401C70
:100730000022074C13460A61E25C824203D8801A09
:100740005B1C0B61F8E7401CC860084610BD000048
:100750007C4500083A2800D2303820F02002412A97
:1007600001D3A2F13700884201D34FF0FF30704728
:10077000026811441378016018467047D16004493B
:1007800051610449116200211161114600F0DEB887
:100790007107000843090008426842B1016811F876
:1007A000013B23B1521EC0E90012184670470121D7
:1007B000C160881E704742685AB1C368016843B976
:1007C00083688B4205D0491E521CC0E900120020EC
:1007D00070474FF0FF3070470029A8BF7047401C9A
:1007E000490008BF20F00100704710B4B0FA80FC47
:1007F00000FA0CF050EA010404BF10BC704749B184
:10080000CCF1200421FA04F411FA0CF118BF0121F3
:1008100021430843A3EB0C01CB1D4FEA00614FEAD3
:10082000102042BF002010BC704700EBC3501044A2
:100830000029A4BF10BC7047401C490008BF20F02D
:10084000010010BC704710B5141E73F1000408DAE3
:10085000401C41F1000192185B411A4301D120F084
:10086000010010BD2DE9F04D92469B4611B1B1FA41
:1008700081F202E0B0FA80F22032904600F052F8A5
:1008800004460F4640EA0A0041EA0B0153465A4625
:10089000084313D0114653EA010019D0C8F14002B1
:1008A0005046FFF7FAFE05460E4650465946424668
:1008B00000F038F8084305D0012004E0204639460E
:1008C000BDE8F08D0020054346EAE0762C4337432F
:1008D0000A986305E40AA0EB08000022FD0A44EA36
:1008E00047540A3002D500200146E9E701051019F6
:1008F0006941DDE9084500196941BDE8F04DA2E70D
:10090000064C074D06E0E06840F0010394E807005C
:1009100098471034AC42F6D3FFF7F0FBC845000807
:10092000E8450008202A04DB203A00FA02F1002002
:1009300070479140C2F1200320FA03F3194390401D
:100940007047C0B24FF4F05100F096B92DE9F34F63
:100950008BB04FF0000801F10C000C464FF0010B7A
:1009600046460DF1080A01906269012101989047FD
:1009700005002DD0252D2CD0216A8847C0B1626991
:10098000012101989047216A88470028F7D1411E2C
:1009900062690198904700E0761CA1690B9888472E
:1009A000216A88470028F7D1E1690B988847DBE77F
:1009B000A1690B9888470746A84201D1761CD3E766
:1009C000E1690B9888477F1C02D1B8F1000F6FD006
:1009D00046E1002762693D463946019890472A283A
:1009E00004D162690121019890470125DFF88492C2
:1009F0006269012101989047A0F130010A290AD2C9
:100A00004F45E5DC07EB870100EB4107303FDFD4C2
:100A100045F01005ECE7E90601D46FF000476C28BB
:100A20000AD04C2814D0682815D06A280DD0742814
:100A30001CD07A281AD01DE06269012101989047E4
:100A40006C2802D045F0040514E045F002050DE0E5
:100A500045F020050AE06269012101989047682865
:100A600002D045F0080505E045F400656269012102
:100A700001989047C4E9015765283DD019DC5828F2
:100A80007AD00CDC452837D004DC252826D0412834
:100A900031D131E046282FD047282CD12CE05B28DB
:100AA00077D0612828D063287CD0642823D15AE0ED
:100AB000D0E06F2848D008DC66281DD067281BD0FE
:100AC000692821D06E2816D127E0702845D07328D8
:100AD00068D0752847D078280DD14DE0A1690B98D2
:100AE0008847054625283FF469AFE1690B98884798
:100AF0006D1C3FF46AAFB3E023466A466FF0010015
:100B00000B99AFF300809EE045F040006060A807BD
:100B100023464FF0000236D43EE0E8077FF447AFAB
:100B20002068011D21600068290501D506701BE7BA
:100B3000290701D5068017E7A90703D5F117C0E9F2
:100B4000006111E706600FE745F040006060A8070C
:100B500023464FF0080216D41EE040F60E0125EAA7
:100B60000100606016E045F040006060A807234681
:100B70004FF00A0207D40FE045F040006060A8077C
:100B800008D5234610226FF001000B99AFF30080C7
:100B900059E007E0234610226FF001000B99FFF7A0
:100BA0006DFB50E04FF000094F464B46632802D0E2
:100BB0005B2806D040E0E80601D40120A0600127B0
:100BC0003AE062690121019890475E2805D14FF013
:100BD00001096269494601989047216939B90021A4
:100BE0000A46534643F82120491C0829FADBB0B3D2
:100BF000216969B9C11700EBD16253110AEB830176
:100C000022F01F02821A01200B68904003430B6000
:100C100062690121019890475D28E8D1B9F1000F80
:100C200009D00020514651F82020D24341F820201D
:100C3000401C0828F7DB02AB224600976FF001004A
:100C40000B99AFF3008000280CDA401C08D1BBF1EF
:100C5000000F05D04FF0FF300DB0BDE8F08FFFE77B
:100C60004046F9E7E90701D108F1010806444FF0D1
:100C7000000B79E6CCCCCC0C7F2801D9002208E00F
:100C8000064A02EB5002C007127800D1120902F0A6
:100C90000F0201209040084070470000884500087E
:100CA00021B1826842F00102826003E0826822F092
:100CB000010282607047000010B504460548844276
:100CC00007D10121401501F013F90021601501F051
:100CD0000FF910BD002401400146886D80B27047B5
:100CE0000246002013680B400BB1012000E00020F9
:100CF0007047000030B50246002000235068104CB9
:100D000020400D790C6844EA052420435060906827
:100D10000C4C2040D1E903542C438D682C434D7971
:100D200044EA450420439060106B20F0F8700C7D7D
:100D3000641EE4B2234340EA0350106330BD000058
:100D4000FFFEFFFCFDF7FFC0F0B504460D46002096
:100D500000211D2D11DDE06DA5F11E0606EB4607F5
:100D6000072606FA07F18843A5F11E0606EB46069C
:100D700003FA06F10843E06534E0132D11DDE06865
:100D8000A5F1140606EB4607072606FA07F1884385
:100D9000A5F1140606EB460603FA06F10843E060E7
:100DA00020E0092D11DD2069A5F10A0606EB4607B2
:100DB000072606FA07F18843A5F10A0606EB460660
:100DC00003FA06F1084320610CE0606905EB450772
:100DD000072606FA07F1884305EB450603FA06F1F4
:100DE00008436061072A0FDA206C561E06EB86075F
:100DF0001F2606FA07F18843561E06EB860605FAFB
:100E000006F1084320644AE00D2A0FDAE06BD61F92
:100E100006EB86071F2606FA07F18843D61F06EB66
:100E2000860605FA06F10843E06338E0132A11DA72
:100E3000A06BA2F10D0606EB86071F2606FA07F146
:100E40008843A2F10D0606EB860605FA06F1084373
:100E5000A06324E0192A11DA606BA2F1130606EBF5
:100E600086071F2606FA07F18843A2F1130606EB50
:100E7000860605FA06F10843606310E0206BA2F1D4
:100E8000190606EB86071F2606FA07F18843A2F12A
:100E9000190606EB860605FA06F108432063F0BD45
:100EA000816841F0804181607047000010B5FEA06C
:100EB00001F09CFC4FF4967000F09CFCFCA1FD48F6
:100EC000FFF79AF9FC49086000F080FC0EE000F0A2
:100ED0007DFCF5A001F08AFC4FF4967000F08AFCCE
:100EE000F3A1F448FFF788F9F3490860F248006875
:100EF0000028ECD00120F14981F87200F0A001F047
:100F000075FC4FF4967000F075FCF0A1E948FFF70E
:100F100073F9E949086000F059FC0EE000F056FC56
:100F2000E7A001F063FC4FF4967000F063FCE7A1CA
:100F3000E048FFF761F9E0490860DF4800680028F1
:100F4000ECD0E5A001F052FC4FF4967000F052FC9A
:100F5000E4A1D848FFF750F9D7490860E3A001F0B1
:100F60002FFCD548006801F02BFC00F02FFC15E0A9
:100F700000F02CFCD8A001F039FC4FF4967000F082
:100F800039FCD8A1CB48FFF737F9CB490860D7A087
:100F900001F016FCC848006801F012FCC648006861
:100FA0000028E5D0D2A001F021FC4FF4967000F0AB
:100FB00021FCD2A1BF48FFF71FF9BF4908601022EA
:100FC00008460168891DCF4801F05FFFC4A002F008
:100FD00057FECC4802F054FE00F0F8FB1BE000F096
:100FE000F5FBC3A001F002FC4FF4967000F002FC88
:100FF000C2A1B048FFF700F9AF49086010220846C7
:101000000168891DBF4801F040FFB5A002F038FE1D
:10101000BC4802F035FEA84800680028DFD0BAA01E
:1010200001F0E4FB4FF4967000F0E4FBA0A1A148AE
:10103000FFF7E2F8A049086000F0C8FB0EE000F0FE
:10104000C5FBB1A001F0D2FB4FF4967000F0D2FBCB
:1010500097A19848FFF7D0F897490860964800682C
:101060000028ECD0ACA001F0C1FB4FF4967000F06A
:10107000C1FBACA18F48FFF7BFF88F49086000F0B3
:10108000A5FB0EE000F0A2FBA3A001F0AFFB4FF424
:10109000967000F0AFFBA3A18648FFF7ADF8864934
:1010A0000860854800680028ECD0A1A001F09EFBF4
:1010B0004FF4967000F09EFBA0A17E48FFF79CF8CD
:1010C0007D49086008460068E8B1084600688079F4
:1010D000303809684979303901EB810100EB410072
:1010E0007649087008460078632808D106E095A084
:1010F00001F066FB4FF4967000F07CFBF7E70420EC
:101100006E4981F872002BE000F060FB88A001F0CE
:101110006DFB4FF4967000F06DFB88A16548FFF7FA
:101120006BF86549086008460068C8B10846006861
:101130008079303809684979303901EB810100EB59
:1011400041005E49087008460078632808D106E02F
:101150007CA001F035FB4FF4967000F04BFBF7E7F5
:10116000554800680028CFD000F030FB7CA001F08B
:101170003DFB4FF4967000F03DFB7CA14D48FFF71E
:101180003BF84D4908607CA14A48FFF735F87D4996
:10119000086000F01BFB14E000F018FB70A001F0E9
:1011A00025FB4FF4967000F025FB70A14148FFF736
:1011B00023F84149086070A13E48FFF71DF87149C6
:1011C00008603D48006818B96E4800680028E3D000
:1011D0006DA001F00BFB4FF4967000F00BFB34A1F7
:1011E0003448FFF709F83449086000F0EFFA0EE0E0
:1011F00000F0ECFA64A001F0F9FA4FF4967000F0F8
:10120000F9FA2BA12B48FEF7F7FF2B4908602A4873
:10121000006818B95B4800680028E9D05EA001F0BA
:10122000E5FA4FF4967000F0E5FA5FA12148FEF769
:10123000E3FF2149086062A001F0D8FA4FF49670EC
:1012400000F0D8FA1AA11B48FEF7D6FF1A49086029
:10125000002404E0002017490855601CC4B2642C27
:10126000F8DB00F0B3FA59A001F0C0FA4FF4967021
:1012700000F0C0FA58A10F48FEF7BEFF0E49086003
:101280000EE000F0A3FA51A001F0B0FA4FF496700E
:1012900000F0B0FA50A10748FEF7AEFF064908601B
:1012A0000548006800289BE041540D0A000000003A
:1012B0004F4B00001B01002004000020A80000206C
:1012C00041542B4E42414E443F0D0A002B4E4241A9
:1012D0004E443A350000000041542B43494D490D1E
:1012E0000A00000034363031310000000D0A0000E1
:1012F00041542B4347534E3D310D0A002B43475376
:101300004E0000009800002041542B4347415454A4
:101310003D310D0A0000000041542B434741545415
:101320003F0D0A002B43474154543A31000000005E
:1013300041542B4353510D0A000000002B435351DD
:1013400000000000D0C5BAC5CBD1CBF7CAA7B0DC2E
:10135000A3ACC7EBB2E9BFB4D4ADD2F2210D0A0001
:1013600041542B43455245473F0D0A002B434552FC
:1013700045473A302C3100002B43455245473A311E
:101380002C3100000800002041542B4345524547B2
:101390003D310D0A0000000041542B4E4D53544185
:1013A0005455533F0D0A00002B4E4D535441545594
:1013B000533A494E49495449414C49534544000028
:1013C00041542B4E4E4D493D320D0A0041542B43A2
:1013D000434C4B3F0D0A00002B43434C4B00000095
:1013E0003FF44FAF0020044988710448006801F0C1
:1013F000FFFB00F0EBF910BD70000020040000209E
:1014000010B507A10848FEF7F7FE0849086008462E
:10141000006810B101200649C87200F0D7F910BD6C
:101420002B4E4E4D490000001B01002004000020FF
:101430004802002070B504460D462A46214619A0F0
:1014400001F0D4F94FF47A7000F0D4F919A11A48D8
:10145000FEF7D2FE194908600846006890B929468F
:10146000204600F049F868B915A001F0BFF94FF423
:10147000967000F0BFF916A10F48FEF7BDFE0F49A8
:10148000086000BF19A10C48FEF7B6FE0B490860C2
:101490000846006810B101201649C87200F096F99C
:1014A00070BD000041542B4E4D47533D25732C25F4
:1014B000730D0A004F4B00001B01002004000020A8
:1014C00041542B4E4D5354415455533F0D0A000087
:1014D0002B4E4D5354415455533A4D4F5F44415454
:1014E000415F454E41424C45440000002B4E4E4D5D
:1014F00049000000480200202DE9F04104460D4655
:101500000026002700BF23E02A46214613A001F051
:101510006DF94FF47A7000F06DF914A11448FEF7DC
:101520006BFE144908600846006808B1012711E005
:1015300011A10F48FEF760FE0E49086008460068DA
:1015400010B101200E49C87200F040F9701CC6B2FB
:10155000022ED9DB00BF3846BDE8F08141542B4E46
:101560004D47533D25732C25730D0A004F4B00004A
:101570001B010020040000202B4E4E4D49000000AE
:10158000480200201CB50121022000F081FC01204E
:101590008DF80400000200906946044800F04AF902
:1015A0004FF48071014800F0B3F91CBD0004024003
:1015B00000BFFEE710B566A001F018F94FF4967071
:1015C00000F018F964A16548FEF716FE644908604A
:1015D00000F0FCF80EE000F0F9F85DA001F006F96B
:1015E0004FF4967000F006F95BA15C48FEF704FE2C
:1015F0005B4908605A4800680028ECD0012059492E
:1016000081F8720058A001F0F1F84FF4967000F0E4
:10161000F1F858A15148FEF7EFFD5149086000F07C
:10162000D5F80EE000F0D2F84FA001F0DFF84FF44B
:10163000967000F0DFF84FA14848FEF7DDFD4849FD
:101640000860474800680028ECD04DA001F0CEF8B3
:101650004FF4967000F0CEF84CA14048FEF7CCFD58
:101660003F49086000F0B2F80EE000F0AFF844A087
:1016700001F0BCF84FF4967000F0BCF843A1374875
:10168000FEF7BAFD36490860354800680028ECD0FE
:1016900040A001F0ABF84FF4967000F0ABF82EA12B
:1016A0002E48FEF7A9FD2E49086005E02AA12B4827
:1016B000FEF7A2FD2A490860294800680028F5D0F5
:1016C00000F084F836A001F091F84FF4967000F025
:1016D00091F821A12148FEF78FFD2149086005E01E
:1016E0001DA11E48FEF788FD1D4908601C480068C2
:1016F0000028F5D000F06AF831A001F077F84FF437
:10170000FA6000F077F81EA001F070F84FF49670C0
:1017100000F070F81DA11148FEF76EFD1049086039
:1017200000F054F80EE000F051F815A001F05EF85A
:101730004FF4967000F05EF814A10848FEF75CFDC7
:1017400007490860064800680028ECD010BD00007A
:1017500041540D0A000000004F4B00001B01002007
:1017600004000020A800002041542B4E42414E446A
:101770003F0D0A002B4E42414E443A350000000016
:1017800041542B43494D490D0A0000003436303195
:101790003100000041542B4346554E3D300D0A00A8
:1017A00041542B4E4344503D3131372E36302E318B
:1017B00035372E3133372C353638330D0A000000DB
:1017C00041542B4E52420D0A00000000002004E05C
:1017D0000021054A1154411CC8B26428F8DB0021DD
:1017E000024A1170704700001B01002045000020D4
:1017F00070470000014600200D4A12884A434FF00E
:10180000E0235A6100229A6101221A6100BF4FF061
:10181000E022106900F001021AB100F48032002ABF
:10182000F5D000224FF0E0231A619A617047000062
:101830004E000020F0B502460B4600210024002592
:10184000002000BF35E0012606FA01F41E6806EA12
:101850000405A5422CD110684F000326BE40B043BA
:101860001E794F00BE40304310601E79012E02D019
:101870001E79022E12D190684F000326BE40B0435D
:101880005E794F00BE4030439060908801268E40C4
:10189000B0439E798E40B6B230439080D0684F00FE
:1018A0000326BE40B043DE794F00BE403043D060D7
:1018B000491C1029C7D3F0BDF0B5002300244D0703
:1018C000ED0E02FA05F3CE1000F1200555F8265072
:1018D0004E07F70E0F26BE40B543CF1000F120068D
:1018E00046F82750CE1000F1200555F8265045EA5D
:1018F0000304CE1000F1200545F82640F0BD024655
:101900000020138A0B400BB1012000E0002070473B
:101910004183704701837047828A4A4082827047C0
:101920000AB1018300E04183704700002DE9FF5FA9
:1019300000F0BAF82849C860C86CFEF758FECDE937
:1019400000012549C868FEF752FE80460022234B5D
:10195000FEF76CFD0646224A224BFEF7D9FD0446EF
:10196000DDE90023FEF7D4FD824600221E4BFEF780
:101970005DFDCDE90201FEF75BFE174908610A2013
:1019800000F0B2FD1449C86802F0B4F9092000F073
:10199000ABFD092000F0A8FD0F49086902F039F9F4
:1019A00012480D49C86012480861092000F09CFDEA
:1019B000092000F099FD0849C86802F09BF9092048
:1019C00000F092FD092000F08FFD0349086902F044
:1019D00020F9BDE8FF9F0000300B002000002440EC
:1019E000CDCCCCCCCCF4884000408F400EF47400B9
:1019F000E87601002DE9F04786B04FF0000A43E099
:101A000000F052F82349486108464069C968884295
:101A10002ED9204840691F49C968401A1D494861AC
:101A2000C86CFEF7E4FD06460F461A494869FEF702
:101A3000DEFD80460022184BFEF7F8FC174A184BD3
:101A4000CDE90001FEF764FD32463B46CDE90201D7
:101A5000FEF75EFD04460022124BFEF7E7FCCDE9DF
:101A60000401FEF7E5FD0B49183141F82A0004E0B6
:101A700000210848183040F82A10642001F066FA66
:101A80000AF1010000F0FF0ABAF10A0FB8DB06B054
:101A9000BDE8F087300B002000002440CDCCCCCC3A
:101AA000CCF4884000408F4070B5002210211E48C1
:101AB000FFF736FF0024012001F068FA00BF202163
:101AC0001948FFF71CFF0028F9D1002518E0012272
:101AD00010211548FFF724FF6400012001F056FA99
:101AE000002210211048FFF71BFF20210E48FFF7AE
:101AF00006FF00B1641C012001F048FA681CC5B261
:101B0000182DE4DB012210210748FFF709FF84F4B8
:101B10000004012001F03AFA002210210248FFF7E8
:101B2000FFFE204670BD00000000024000BFFEE73F
:101B30004CF6CC400149086070470000003000407E
:101B400010B500F013F810BD70B505460C4645F20F
:101B5000555000F01FF8284600F010F8204600F01D
:101B600013F800F003F8FFF7E3FF70BD4AF6AA2070
:101B7000014908607047000000300040014948609A
:101B80007047000000300040014988607047000045
:101B900000300040014908607047000000300040FC
:101BA0001CB50121084600F073F9102000900120B7
:101BB0008DF8040000208DF8060002208DF8050045
:101BC00069460848FFF736FE2020009000208DF877
:101BD000040001208DF8070069460248FFF72AFE3D
:101BE0001CBD0000000002401CB50121032000F0D4
:101BF0004FF97020009000208DF8040002208DF82D
:101C0000070069460B48FFF715FE4FF4005000909F
:101C100000208DF8040002208DF807006946064870
:101C2000FFF708FE054800210180012003494870A4
:101C30001CBD0000000002400004024050000020D3
:101C400010B55748407800287ED010215548FFF73E
:101C500056FE012819D020215248FFF750FE0128D6
:101C600013D040214F48FFF74AFE01280DD04FF412
:101C700080514D48FFF743FE012806D04FF4005134
:101C80004948FFF73CFE01286AD10A2001F05EF9BD
:101C900000204349487010214248FFF730FE0128D8
:101CA0000BD111203E490870404800780B303F4965
:101CB0000870612000F018FC4AE020213948FFF745
:101CC0001EFE01280BD122203549087037480078C4
:101CD0000B3036490870622000F006FC38E04021E5
:101CE0003048FFF70CFE01280BD133202C49087037
:101CF0002E4800780B302D490870632000F0F4FB6B
:101D000026E04FF480512848FFF7F9FD01280BD158
:101D1000552023490870254800780B302349087066
:101D2000642000F0E1FB13E04FF400511E48FFF780
:101D3000E6FD01280CD16620194908701B4800787F
:101D40000B301A49087000E00AE0652000F0CCFB77
:101D500016480078422821DB0020144908701DE055
:101D600010211048FFF7CBFDC0B920210D48FFF727
:101D7000C6FD98B940210B48FFF7C1FD70B94FF47B
:101D800080510948FFF7BBFD40B94FF400510648A8
:101D9000FFF7B5FD10B901200149487010BD0000E2
:101DA00050000020000002400004024052000020C9
:101DB0001CB50121022000F06BF801208DF8040011
:101DC00040F20B20009069460A48FFF733FD4FF4BC
:101DD00000710848FFF79EFD08210648FFF79AFDAD
:101DE00001210448FFF796FD02210248FFF792FD0A
:101DF0001CBD00000004024000BFFEE77047000069
:101E000070B5002100230F22C4781CB3174C24683E
:101E100004F4E064C4F5E064C4F30721C1F10404F0
:101E2000E3B20A4144789C40E1B2847814402143F3
:101E30000C07210E0E4C05786155047804F01F053F
:101E40000124AC4005786D11AD0005F1E025C5F821
:101E5000004109E0047804F01F050124AC40054D61
:101E60000678761145F8264070BD00000CED00E0C4
:101E700000E400E080E100E002490143024A116011
:101E8000704700000000FA050CED00E0704700000C
:101E900029B1064A12680243044B1A6004E0034A5F
:101EA00012688243014B1A60704700001C380240E0
:101EB00029B1064A12680243044B1A6004E0034A3F
:101EC00012688243014B1A607047000024380240B8
:101ED00029B1064A12680243044B1A6004E0034A1F
:101EE00012688243014B1A6070470000203802409C
:101EF00029B1064A12680243044B1A6004E0034AFF
:101F000012688243014B1A60704700001438024087
:101F1000F0B5002100220023002600240025374FC1
:101F20003F6807F00C0131B1042912D0082913D001
:101F30000C2934D113E0314F3F1F3F68C7F34235BE
:101F40006F1C4FF0010C0CFA07FC4FEACC3707600E
:101F500033E02B4F076030E02A4F07602DE0274F1A
:101F60003F6807F47012254F3F6807F44003264F7F
:101F700007EB92473A78012707EB93531F4F3F68CF
:101F800007F480362EB91E4F5743B7FBF3F70760AF
:101F900004E01C4F5743B7FBF3F707600DE0174F02
:101FA0003F1F3F68C7F342356F1C4FF0010C0CFA1E
:101FB00007FC4FEACC37076000BF00BF0F4F3F68F8
:101FC00007F0F0010909114F7C5C0768E7404760A2
:101FD0000A4F3F6807F4E061090A0C4F7C5C4768D0
:101FE000E7408760054F3F6807F46051C90A074F13
:101FF0007C5C4768E740C760F0BD000008380240DD
:102000000024F40000127A000C00002015000020CB
:1020100010B501460022002300204A11012A02D1F6
:10202000074C236802E0064C3434236801F01F0299
:10203000012494401C400CB1012000E0002010BDA0
:102040000038024001490860704700000000474224
:10205000704700000CB50020019000903E480068D9
:1020600040F480303C49086000BF3B48006800F401
:10207000003000900198401C0190009818B9019818
:10208000B0F5A04FF1D13448006800F4003010B131
:102090000120009001E0002000900098012859D113
:1020A0002E48006840F004002C490860084600688B
:1020B00040F0020008600846006840F00100086037
:1020C00025482430006840F08050234924310860BE
:1020D000C8142349086000BF2148406800F0100080
:1020E0000028F9D11C48083000681B4908310860F5
:1020F00008460068086008460068086008460068EE
:1021000020F47D0008600846006840F41100086073
:102110001148006840F080700F49086000BF0E4809
:10212000006800F000700028F9D00B480830006803
:1021300020F003000849083108600846006840F0B4
:102140000300086000BF04480830006800F00C007D
:102150000C28F8D10CBD000000380240003C0240C1
:1021600000700040042808D14FF0E021096941F0D7
:1021700004014FF0E022116107E04FF0E02109690E
:1021800021F004014FF0E022116170477047000018
:1021900010B51548006840F4807013490860124873
:1021A00008300068114908400F49083108600E489E
:1021B00000680F4908400C4908600846006820F490
:1021C0008020086008480830006820F47D00064937
:1021D000083108600020091D0860FFF73BFF4FF041
:1021E00000600449086010BD003802400CC0FF8840
:1021F000FEFFFEEE08ED00E010B50121054800F0FD
:1022000028F928B10121034800F014F9FFF718FD5F
:1022100010BD0000000400407FB505460C460121BA
:102220000220FFF745FE0295ADF804400020ADF80E
:102230000C00ADF8060001A90D4800F025F90122B7
:1022400011460B4800F016F91D208DF80000022001
:102250008DF8010003208DF8020001208DF80300A5
:102260006846FFF7CDFD0021014800F0E6F87FBD8C
:102270000004004010B501214D4800F0EAF80028A4
:102280007ED001214A4800F0D5F84A480078401C29
:1022900048490870484890F872000978884219DC6B
:1022A0000020444908704548C07A022812D04248AC
:1022B00090F87200022809DD08214148FFF72AFB47
:1022C0004FF400713E48FFF727FB03E008213C482C
:1022D000FFF722FB3B488078401C3A49887008464B
:1022E0008078012803DB0020887001204870364880
:1022F00090F82800401C344981F82800084690F8DE
:102300002800012805DB002081F82800012081F841
:1023100029002E480088401C2C4908800846008867
:10232000B0F5167F11DB002008800846C07940F028
:102330000100C8710120264948712049887223484C
:10234000C07940F020002149C87121480079401C23
:102350001F49087108460079022805DB0020087132
:1023600008460068401C086018488079B0B11748DA
:102370004088401C1549488008464188808800E014
:102380000BE0B1EB400F12DB0020104948801148F0
:10239000007840F010000F49087008E000200B4959
:1023A00048800C48007820F010000A49087010BDE1
:1023B000000800404A000020A8000020220B002056
:1023C00000040240300B0020F60A002048020020E2
:1023D00070000020490000207FB505460C46012111
:1023E0000420FFF765FD0295ADF804400020ADF82C
:1023F0000C00ADF8060001A90D4800F045F80122D7
:1024000011460B4800F036F81E208DF8000002201F
:102410008DF8010001208DF802008DF80300684658
:10242000FFF7EEFC0121024800F007F87FBD000035
:1024300000080040CA430282704721B1028842F07E
:102440000102028004E002884FF6FE731A40028007
:10245000704730B50246002000230024158A05EAA3
:102460000103958905EA010413B10CB1012000E0D4
:10247000002030BD1AB183890B43838102E0838938
:102480008B4383817047000000220288B0F1804FA7
:1024900008D0104B984205D00F4B984202D00F4BFA
:1024A000984204D14FF68F731A404B881A430C4B55
:1024B000984207D00B4B984204D04FF6FF431A4086
:1024C0000B891A4302804B68C3620B880385012382
:1024D000838270470004004000080040000C004068
:1024E000001000400014004010B5044600BF8021D9
:1024F000044800F098F80028F9D02146014800F07F
:102500005AF910BD0038014010B540F225510B4872
:1025100000F096F880B140F22551084800F068F8C4
:10252000064800F043F9C1B2054802780078401C23
:10253000034B18700348815410BD0000003801405F
:10254000460000207F01002070B540F2255115485B
:1025500000F076F828B340F22551124800F048F810
:10256000114802786421114800F01EFB90B10D481B
:1025700000F01CF9C4B2412C0CDB5A2C0ADC0948CF
:1025800000F014F9C1B208480578681C064A1070BA
:102590000648415504480078632802DD00200249BE
:1025A000087070BD0044004048000020E301002096
:1025B00010B540F225510B4800F042F880B140F2CE
:1025C0002551084800F014F8064800F0EFF8C1B2B1
:1025D000054802780078401C034B1870034881546A
:1025E00010BD000000480040450000201B010020F5
:1025F00010B50022002340F66A14A14200D100BFAA
:102600000A1201249440A3B2DC43048010BD21B11E
:10261000828942F40052828104E082894DF6FF7380
:102620001A408281704702460020B1F5007F00D138
:1026300000BF13880B400BB1012000E00020704761
:1026400070B50246002400230025002040F66A16DB
:10265000B14200D100BFC1F3421501F01F030126B2
:1026600006FA03F3012D02D19689334006E0022DCC
:1026700002D1168A334001E0968A33400C120126BB
:1026800006FA04F41688344013B10CB1012000E0BE
:10269000002070BDF0B50346002400260025002070
:1026A00040F66A17B94200D100BF1846C1F3421480
:1026B00001F01F06012707FA06F5012C01D10C30A5
:1026C00004E0022C01D1103000E014301AB1076888
:1026D0002F43076002E00768AF430760F0BD0000CA
:1026E0002DE9FF4705460E460024A14600BFA0463F
:1026F000B08900B100BF2C8A24F44054F088044310
:102700002C82AC8941F20C608443B0883189084343
:10271000718908430443AC81AC8A24F44074B089C5
:102720000443AC826846FFF7F3FB1F48854202D1A1
:10273000DDF80C9001E0DDF80890A88900F4004075
:1027400040B109EBC90000EB091031684900B0FB4A
:10275000F1F707E009EBC90000EB091031688900C7
:10276000B0FBF1F76420B7FBF0F00401200964210D
:1027700001FB1078A88900F4004040B1322000EB42
:10278000C800B0FBF1F000F00700044308E032207D
:1027900000EB08106421B0FBF1F000F00F000443DF
:1027A0002C81BDE8FF870000003801400146888881
:1027B000C0F308007047C1F3080282807047000030
:1027C0000BE000BF0749098801F040010029F9D05A
:1027D0000178044A121D1180401C01780029F0D1B3
:1027E000704700000038014000BFFEE70FB4054B02
:1027F00010B503A9044A029800F017F810BC5DF860
:1028000014FB0000413300089400002002E008C8D7
:10281000121F08C1002AFAD170477047002001E05A
:1028200001C1121F002AFBD170472DE9F84F9946CC
:10283000924688460546002706E025280AD05146DC
:102840004A4690476D1C7F1C28780028F5D13846F1
:10285000BDE8F88F002315F8011F18462E2915D161
:1028600015F8011F04232A290DD06FF02F022978B3
:10287000A1F13004092C09D800EB800002EB4000E4
:1028800008446D1CF3E758F8040B6D1C2A78002AE5
:10289000DDD0632A07D0732A0FD0104651464A462E
:1028A00090477F1C2AE018F8042B8DF800200021A7
:1028B0008DF801106E46012103E058F8046B4FF0CB
:1028C000FF315A074FF0000401D409E0641C844230
:1028D0000BDA8C42FADB325D002AF7D105E0641C8A
:1028E0008C42FCDB305D0028F9D1274404E016F867
:1028F000010B51464A469047641EF8D26D1CA3E76F
:1029000010B500210148FEF7CBF910BD00240140AD
:1029100000B589B001210320FFF7BAFA012148026E
:10292000FFF7D6FA0120019003208DF8080000205F
:102930008DF80B0001A91D48FEF77CFF4FF44040C5
:10294000019003208DF8080000208DF80B0001A9EC
:102950001748FEF76FFF1748FEF7AEF90120FFF7A3
:1029600071FB00BF2120FFF753FB0028FAD00020A5
:102970008DF810008DF811004FF0007003900020CA
:102980000690079001208DF8200003A90948FEF762
:10299000B1F901210748FEF783F900BF402105483E
:1029A000FEF79EF90028F9D009B000BD00000240F2
:1029B00000040240002401402DE9F84F002000905F
:1029C00023490888FDF713FE80464FF06632214BFD
:1029D000FDF72CFD064600221F4BFDF799FD04462E
:1029E00000224FF08043FDF721FD8246FDF739FEBE
:1029F00000901A490098FDF7E7FC0446FDF704FE35
:102A0000134948800846408880B90846007B401C2E
:102A100008730846007B042803DB0846408888804A
:102A200014E00B4880880A4948800FE00848408835
:102A3000B0F5DC7F04DD064880880549488005E064
:102A4000002003490873084640888880BDE8F88F55
:102A5000220B002066660A4000E06F400000C8427A
:102A600010B50648807A40B100200449887200F011
:102A700077F8FFF7A1FF00F00FF810BD220B002040
:102A800010B50E210348FDF7ACFB01200149887207
:102A900010BD0000220B00202F484088B0F5DC7FDD
:102AA00000DD70472C484088B0F5B97F14DC002069
:102AB0002949887108464088B0F5AF7F1ADD0020AB
:102AC00008720846C079401CC8710846C0790328BE
:102AD00010DB0120C8720DE000201F490872C87188
:102AE00008468079401C887108468079032801DBFC
:102AF0000020C8721848C07A10B1012827D115E00B
:102B00001648C07920F080001449C8710846007A40
:102B100020F0800008720846C07920F04000C8719B
:102B20000846007A20F04000087211E00B48007A55
:102B300020F08000094908720846007A00F0400041
:102B400020B90846C07940F04000C87100E000BFDD
:102B500000BF00BFA5E70000220B002048020020B4
:102B600010B50024012000F0F9FB07490880044655
:102B70000020088000F0F2FB034908800846007836
:102B80000880FFF7BDFE10BD220B002010B50548E0
:102B9000407920B100200349487100F0BDFC00F0ED
:102BA0007BFC10BD7000002010B503460C4611469A
:102BB0000AE0585C412802DB585C5A2802DD0A46CC
:102BC000012010BD481CC1B2A142F2DB00210AE085
:102BD000585C412802DB585C5A2802DD0A46012075
:102BE000EFE7481CC1B29142F2DB0020E9E70000A8
:102BF00010B58EB0044600200C900D900A900B90FA
:102C0000A41D04A805A906AA07ABCDE90032CDE9A9
:102C1000021008AB09AA25A12046FDF713FB09986D
:102C200080B2ADF830000898C0B28DF83200079835
:102C3000C0B28DF833000698C0B28DF83400059804
:102C4000C0B28DF835000498C0B28DF836000CA8DB
:102C500000F08EF81DA001F013F8BDF8300001F06F
:102C600015F81CA001F00CF89DF8320001F062F894
:102C700018A001F005F89DF8330001F05BF816A0EC
:102C800000F0FEFF9DF8340001F054F812A000F0AF
:102C9000F7FF9DF8350001F04DF80FA000F0F0FFB0
:102CA0009DF8360001F046F80EB010BD25303264B4
:102CB0002F253032642F253032642C253032643A8F
:102CC000253032643A253032640000000A74696DA0
:102CD000653A00002F0000003A0000001CB50446D1
:102CE000002000900190684600F018F8BDF8000040
:102CF000A0F5FA6020709DF8020060709DF8030056
:102D0000A0709DF80400E0709DF8050020719DF80A
:102D1000060060710020A0711CBD000070B5044663
:102D20000E48FDF7CBFC05462878A0712879607124
:102D3000287A2071287BE070287C401CA070A88A2B
:102D400000F26C7020802079182190FBF1F201FBD9
:102D500012002071204600F043F870BD7000002082
:102D600002480021016041607047000070000020AF
:102D700010B50446208800F5FA602080204600F057
:102D800066F80149086010BD7000002010B50024ED
:102D90000CA0FFF72BFD4FF49670FEF72BFD0CA156
:102DA0000D48FDF729FA0D4908600846006820B172
:102DB00008460068FFF71CFF0124FEF707FD2046C8
:102DC00010BD000041542B43434C4B3F0D0A000003
:102DD0002B43434C4B3A00001B0100200400002011
:102DE000F0B5024611889378012B01D0022B04D153
:102DF00003F10C00C3B2481E81B25D1C05EB450512
:102E0000052695FBF6F5D678022707FB03663544C1
:102E10000D440846CE1701EB967605EBA605642611
:102E200091FBF6F6AD1B4FF4C87691FBF6F63544F0
:102E3000072695FBF6F706FB1755ECB2601C072535
:102E400090FBF5F605FB1600D071D079F0BD30B5DA
:102E50008BB0044600252C216846FDF7C2F9208876
:102E6000A0F26C700590A078401E0490E07803906A
:102E70002079029060790190A07900906846FDF772
:102E800055F9054628460BB030BD10B50346002065
:102E900003E00C5C1C54441CE0B29042F9DB0024BB
:102EA0009C5410BDF0B504461546002025E0265C74
:102EB0000A2796FBF7F6F2B2265C96FBF7FC07FBB7
:102EC0001C66F3B2092A04DD02F1370601F810602E
:102ED00003E002F1300601F81060092B06DD03F172
:102EE0003706F7B24600761C8F5505E003F1300631
:102EF000F7B24600761C8F55401CA842D7D3002657
:102F000001F81060F0BD000010B56FF00400FFF78D
:102F100029F90A4800680A49B0FBF1F0094908702C
:102F20000846007800EB4001C1EBC0104FF6FF717E
:102F300001EAC0000449088010BD000028000020FC
:102F400000127A004C0000204E00002001460020B4
:102F50000D4A12884A434FF0E0235A6100229A61D9
:102F600001221A6100BF4FF0E022106900F0010257
:102F70001AB100F48032002AF5D000224FF0E0238D
:102F80001A619A61704700004E000020014600203F
:102F90000D4A12784A434FF0E0235A6100229A61A9
:102FA00001221A6100BF4FF0E022106900F0010217
:102FB0001AB100F48032002AF5D000224FF0E0234D
:102FC0001A619A61704700004C00002030B5184C1F
:102FD000031972B6174C184D2C60184C2C6000BFAA
:102FE000154C083C246804F00104002CF8D1124C64
:102FF000083C246844F480740F4D083D2C6008E0C0
:1030000002C300BF0C4C0C34246804F00104002CF3
:10301000F8D11400A2F10105AAB2F1D1064C083C86
:10302000246844F00104044D083D2C6062B630BDB4
:1030300000000808EFCDAB890C3C024005040302F8
:103040000EB567494A880888694600F0F3F80028F9
:103050002AD0BDF8000060B9614908881922002112
:10306000FFF7B4FF5E494A8808885E4900F016F908
:103070000BE0BDF800005B4908390989884204D09B
:10308000BDF8000057490839088157A000F0F8FD45
:10309000BDF8000000F01CFE59A000F0F1FD514900
:1030A0000839088900F014FE4D49CA8888886946A5
:1030B00000F0C0F850B3BDF8000060B948498888F6
:1030C00019220021FFF782FF4549CA8888884D49A7
:1030D00000F0E4F80BE0BDF800004A490939497AEC
:1030E000884204D0BDF8000046490939487246A01C
:1030F00000F0C6FDBDF8000000F0EAFD40A000F0C1
:10310000BFFD40490939487A00F0E2FD34494A8957
:103110000889694600F08EF870B3BDF800000528F4
:103120000DDC2F49088919220021FFF74FFF2C4998
:103130004A8908892B49443100F0B0F80BE0BDF80A
:10314000000028490839C96C884204D0BDF8000045
:1031500024490839C8642FA000F092FDBDF8000092
:1031600000F0B6FD26A000F08BFD1E490839B1F82D
:103170004C1088B200F0ACFD1949CA8988896946AB
:1031800000F058F858B3BDF8000068B914498889B0
:1031900019220021FFF71AFF1149CA8988891949A4
:1031A000491F00F07BF80BE0BDF800000D4908391D
:1031B000C96C884204D0BDF80000124909398880E2
:1031C00017A000F05DFDBDF8000000F081FD0CA02F
:1031D00000F056FD0B490939888800F079FD0EBDD5
:1031E00080000020380B00200A656570726F6D5FEB
:1031F000696E69742C7765696768743A000000002D
:103200000900000051020020092075706C6F616494
:103210003A0000000920666163746F723A00000092
:1032200009207265706F72745F696E746572766181
:103230006C3A00002DE9F041074613460120DFF803
:10324000588007EB08054FF0000C21E02A8835F87C
:1032500023404FF6FF7808EA430835F82860A24279
:1032600002D121F8022B0EE0B24202D121F8022B4A
:1032700009E0B44202D121F8024B04E04FF000080B
:1032800021F8028B00202D1D0CF1010808F0FF0C25
:103290009C45DBDBBDE8F08100000808F0B5034683
:1032A0000C461646224FDD1972B6224FDFF888C051
:1032B000CCF80070214FCCF8007000BF1E4F083FC3
:1032C0003F6807F00107002FF8D11B4F083F3F6808
:1032D00047F48077DFF860C0ACF1080CCCF80070E0
:1032E000002015E00C4616460AE034F8027B80C543
:1032F00000BF114F0C373F6807F00107002FF8D1CE
:103300003700A6F1010C1FFA8CF6EED1471CF8B27B
:103310000328E7DB084F083F3F6847F00107DFF865
:1033200018C0ACF1080CCCF8007062B6F0BD00001B
:1033300000000808EFCDAB890C3C024005040302F5
:1033400000BF054A128802F04002002AF9D0C2B23A
:10335000014B1B1D1A8070470048004010B5044601
:10336000FFF7D6FA0723012221460848FDF7ECFCB7
:103370000648FDF795FD00BF02210448FDF7B0FCAB
:103380000028F9D00148FDF7A7FC10BD002401403A
:1033900000B58FB007A808A909AA0AABCDE9023287
:1033A000CDE904100BA80CA9CDE900102C4909683F
:1033B000881E0DAB0EAA2BA1FCF744FF0D98052823
:1033C0004BD10C98DD2848D12F48C0780A99884203
:1033D00001D10FB000BD2C490A98C8700B98012884
:1033E00012D12A4800890999884236D009980028C4
:1033F00033D026490998088125494A8808882349F5
:103400000831FFF74BFF28E00B98022811D1214823
:10341000407A0999884220D00998F0B11D4909984D
:1034200048721B49CA8888881A490931FFF736FF54
:1034300013E00B98042810D1164880880999884217
:103440000BD0099848B11349099888801049CA8956
:1034500088891049091DFFF721FF00BFB9E7000067
:1034600004000020253032642C253032782530329B
:10347000782530327825303278253034782530344C
:10348000782530347800000054020020300B0020F2
:10349000800000204802002010B51448C07A00B314
:1034A00013A000F0EDFB15A0FFF7A0F94FF47A7020
:1034B000FFF74CFD14A11548FCF79EFE1449086067
:1034C0000846006828B1FFF763FF03201149087020
:1034D00004E000200549C8720E490870FEF776F92D
:1034E00002E000200B49087010BD000048020020D7
:1034F0000A726563656976653A20000041542B4E77
:103500004D47520D0A0000002C0000001B01002056
:1035100004000020000000201CB56846FFF7FEFBF9
:103520009DF80400102807D10548807938B9FFF7C5
:103530002DFC0349887102E00020014988711CBDFF
:1035400070000020F0B50446251200201FE02A0973
:1035500005F00F03092A04DD02F1370601F81060B7
:1035600003E002F1300601F81060092B06DD03F1DB
:103570003706F7B24600761C8F5505E003F130069A
:10358000F7B24600761C8F55E5B2461CF0B2022811
:10359000DDDBF0BD10B5C31700EB13730A24B4EBE9
:1035A000231F07DC0246C31700EB13731B113733CD
:1035B0000B7006E00246C31700EB13731B11303388
:1035C0000B70C31700EB13731B11A0EB03130A2B33
:1035D00009DB0246C31700EB13731B11A0EB0313A7
:1035E00037334B7008E00246C31700EB13731B110F
:1035F000A0EB031330334B7010BDF0B504461546F5
:1036000000201FE0265C3209265C06F00F03092A21
:1036100004DD02F1370601F8106003E002F1300624
:1036200001F81060092B06DD03F13706F7B24600FA
:10363000761C8F5505E003F13006F7B24600761C84
:103640008F55401CA842DDD3002601F81060F0BD64
:103650002DE9F04F91B04FF0000A3BE0FEF724FA5D
:1036600083462248C068584529D22048C068ABEB41
:10367000000B1E49C86CFCF7BAFFCDE902015846A1
:10368000FCF7B5FF80460022194BFCF7CFFE06463B
:10369000184A194BFCF73CFFCDE90001DDE9022394
:1036A000FCF736FF04460022144BFCF7BFFECDE9C1
:1036B0000401FCF7BDFF07A941F82A0003E0002040
:1036C00007A941F82A006420FFF740FC0AF1010035
:1036D00000F0FF0ABAF10A0FC0DB0A2107A800F0C8
:1036E00061FA0690069811B0BDE8F08F300B00200B
:1036F00000002440CDCCCCCCCCF4884000408F409E
:103700001CB501210220FEF7C3FB4FF4805000904E
:1037100000208DF8040001208DF80700694602485A
:10372000FEF788F81CBD0000000402407CB50020B4
:10373000009001904FF480513148FEF7E0F80028E6
:103740005CD14FF47A70FFF701FC4FF480512C48A4
:10375000FEF7D5F8012800D17CBD01212848FEF7ED
:10376000D7F8FFF775FF0190044600900121244827
:10377000FEF7D0F800261CE0FEF7E2F9FFF768FF3D
:10378000044603E00094FFF763FF04460098001D21
:10379000A042F7D3201D00998142F3D8019832301E
:1037A000A04205D2FEF7CCF9FFF752FF044602E033
:1037B000761C0A2EE0DB00BF01211148FEF7A8F8B5
:1037C0000198A04202D20198251A01E00198051B38
:1037D0000C48C06CA84209D045B10A48C5640A49E2
:1037E0004A89088907494C31FFF758FD4FF47A7030
:1037F000FFF7ACFB01210248FEF78CF800BFABE7F6
:1038000000040240300B00208000002000F032F85D
:1038100005E0FEF795F900F081F800F001F8F8E70F
:1038200010B51348007830B101280CD002280DD013
:10383000032816D112E0FFF779FF00F0C3F801204A
:103840000B49087011E000F0D9F80EE0FFF708F915
:1038500000F042FD03200649087006E0FFF796F9E4
:1038600003E000200249087000BF00BF10BD000047
:103870000000002010B54FF4A060FEF7FDFAFFF73E
:1038800043FBFEF795FAFEF7AFF9FFF739FF4FF468
:10389000165000F047FB4FF4165000F081FA4FF439
:1038A000165000F0DFFA40F67F41C720FEF7B4FC67
:1038B00040F67F4141F28730FEF78EFDFFF750FA68
:1038C000FDF760FEFDF776FEFDF7F0FA00F04AFD29
:1038D000FFF71EF8FFF7D4F800F088F800F094F82E
:1038E000FFF7AEFB06A0FEF76BFF06A0FEF768FF32
:1038F00000F09AF840F64E410520FEF725F910BD7C
:103900000D0A000056455253494F4E5F595F4D5FB7
:10391000443A323032303031303800000748C07914
:1039200038B90748007800F0100010B90548007851
:1039300010B10220044908707047000048020020BE
:103940004900002058000020000000200F48808916
:1039500064280DDA0D48C089642804DA02200B4976
:1039600081F82A0011E00120084981F82A000CE0C2
:103970000648C089642804DA0120044981F82A0035
:1039800003E00020014981F82A007047F60A002070
:1039900010B500210A4881811420FFF7DFFC084997
:1039A00088810846017B81810021C1811520FFF7B4
:1039B000D5FC0349C8810846817BC18110BD000048
:1039C000F60A002010B5084890F82900012809D10E
:1039D0000020054981F82900FFF7DAFFFEF790FF84
:1039E000FFF7B4FF10BD0000F60A002010B52C212F
:1039F0000148FCF7F6FB10BDF60A002010B5FDF7F4
:103A0000F9FF00F01FF810BD10B5FEF7C9F85021FE
:103A10000448FCF7E6FB1920024908814FF47A704C
:103A2000C86410BD300B002010B5FDF77FFF4FF4C8
:103A30007A70FFF78BFA4FF47A70FFF787FAFDF789
:103A400075FF10BD00B50A21534800F0ABF852498C
:103A50001839086400200870C8800846016C406C62
:103A6000001D814206D84C481838416C006C001D7E
:103A7000814208D948481838006C474918394864C9
:103A80000020087100BD44481838006C42491839BC
:103A9000486408460079401C0871084600790328EC
:103AA00002DB0320087100E0ECE73B481838006CAB
:103AB000642811D238481838C078052851DA3648B9
:103AC0001838C078401CC0B233491839C87005286E
:103AD00047DB0520C87044E02F481838016C806C23
:103AE000814224D300202C491839C8700846806CC4
:103AF0000989084428491839096C884231D8264870
:103B00001838806C20B9002023491839087003E068
:103B1000FF202149183908701F481838B0F84010A4
:103B2000B0F84800081A1C491839C88019E000206C
:103B300019491839C8700846006C098901441648AB
:103B40001838806C81420CD8FE201349183908704F
:103B50000846B0F84800B1F84010401A0E4918392C
:103B6000C8800D481838006C0B491839486408465D
:103B7000016C8164007848B10848C07940F00400C5
:103B80000649C87102200649087002E00020044975
:103B9000087000BF76E70000480B002048020020B4
:103BA00000000020F0B502460C46002500231AE074
:103BB000002112E052F82170481C52F82000874280
:103BC00009D952F82160481C52F8200042F821001F
:103BD000481C42F82060481CC1B2601EC01A8842CE
:103BE000E8DC581CC3B2A342E2DB022304E052F833
:103BF00023000544581CC3B2A01E9842F7DC0620DF
:103C0000B5FBF0F0F0BD10B504462046FEF76CFCA5
:103C100010BDFEB50646374600240BE00A20B7FB70
:103C2000F0F100FB11700DF804000A20B7FBF0F76B
:103C3000601CC4B20A2CF1DB002407E0C4F10900C7
:103C40001DF8000000B103E0601CC4B2082CF5DBD5
:103C500000BF254607E0C5F109011DF8010000F08D
:103C60008BF8681CC5B2092DF5DB2E20FFF7CBFFC2
:103C70009DF8000000F080F86720FFF7C4FFFEBD4C
:103C800010B504462046FEF79BFD10BD7CB50546E9
:103C90002E4600240DE00A2096FBF0F100FB116097
:103CA000C0B20DF804000A2096FBF0F086B2601C4A
:103CB000C4B2052CEFDB002407E0C4F104011DF8B9
:103CC000010000F059F8601CC4B2052CF5DB7CBD86
:103CD000F8B505462E4669463046FFF733FC00240A
:103CE00005E01DF80400FFF78EFF601CC4B2042C31
:103CF000F7DBF8BDFEB505462E4600240BE00A2092
:103D0000B6FBF0F100FB11600DF804000A20B6FBD1
:103D1000F0F6601CC4B20A2CF1DB002407E0C4F109
:103D200009011DF8010000F027F8601CC4B20A2C3C
:103D3000F5DBFEBDF8B505462E4600240DE00A2051
:103D400096FBF0F100FB1160C0B20DF804000A20F0
:103D500096FBF0F0C6B2601CC4B2032CEFDB00246B
:103D600007E0C4F102011DF8010000F005F8601C35
:103D7000C4B2032CF5DBF8BD38B5044625466946C8
:103D80002846FFF707FC9DF80000302803D09DF877
:103D90000000FFF738FF9DF80100FFF734FF38BD42
:103DA00010B588B0044601210846FEF771F80121DC
:103DB0004804FEF77DF8072202212748FDF77CFD25
:103DC000072203212448FDF777FD042006900220F6
:103DD0008DF81C008DF81D0000208DF81E000120BC
:103DE0008DF81F0006A91C48FDF724FD0820069049
:103DF00002208DF81C0006A91748FDF71BFD2620A0
:103E00008DF8040001208DF8050002208DF80600D1
:103E100001208DF8070001A8FDF7F2FF02940020B1
:103E2000ADF80C00ADF80E00ADF81000ADF81400C0
:103E30000C20ADF8120002A90848FEF751FC01223F
:103E400040F225510548FEF725FC63210448FCF7A4
:103E5000C8F908B010BD0000000002400044004056
:103E6000E301002010B588B0044601210220FEF7CE
:103E70000FF801218804FEF71BF807220A212748C2
:103E8000FDF71AFD07220B212448FDF715FD4FF41D
:103E90008060069002208DF81C008DF81D00002027
:103EA0008DF81E0001208DF81F0006A91B48FDF7A4
:103EB000C1FC4FF40060069002208DF81C0006A99A
:103EC0001648FDF7B7FC27208DF8040001208DF877
:103ED00005008DF806008DF8070001A8FDF790FF9A
:103EE00002940020ADF80C00ADF80E00ADF8100003
:103EF000ADF814000C20ADF8120002A90848FEF736
:103F0000EFFB012240F225510548FEF7C3FB0121DA
:103F10000348FEF77CFB08B010BD0000000402401F
:103F20000048004010B588B0044601210846FDF75E
:103F3000AFFF01218803FDF7CBFF072209212848A5
:103F4000FDF7BAFC07220A212548FDF7B5FC4FF41E
:103F50000070069002208DF81C008DF81D000020D6
:103F60008DF81E0001208DF81F0006A91C48FDF7E2
:103F700061FC4FF48060069002208DF81C0006A9B9
:103F80001748FDF757FC25208DF8040001208DF817
:103F9000050003208DF8060001208DF8070001A818
:103FA000FDF72EFF02940020ADF80C00ADF80E00D6
:103FB000ADF81000ADF814000C20ADF8120002A905
:103FC0000848FEF78DFB012240F225510548FEF717
:103FD00061FB01210348FEF71AFB08B010BD000089
:103FE000000002400038014008B5002003460246A8
:103FF0000121009008A000F0C3F900F05BFA074827
:10400000C07920F040000549C8710846007A40F0A8
:104010004000087208BD0000303200004802002055
:1040200008B500200090084842880023194607A0E0
:1040300000F0A6F900F03EFA0548C07920F0200013
:104040000349C87108BD0000220B00203032000077
:1040500048020020002100200BE000EBC00202EB30
:104060000012064B13F832200AB14A1CD1B2421C8E
:10407000D0B20A28F1DB0846704700005E0200203B
:1040800070B52B4800782B490978884248DB2A48CC
:1040900005782A480678AE420EDA344609E004EB89
:1040A000C40000EB0410264911F8300000B102E012
:1040B000641CAC42F3DB1FE0344609E004EBC400AF
:1040C00000EB04101E4911F8300000B102E0641C3E
:1040D0000A2CF3DB00BF0A2C0ED1002409E004EB0C
:1040E000C40000EB0410164911F8300000B102E0E2
:1040F000641CAC42F3DB00BF10490C7000200C497B
:10410000087010490870FFF7A5FF0A49087000F011
:104110001FF858B100200C4988710649087005E065
:1041200002200A49087001200649087070BD00008D
:1041300056000020570000205400002055000020A9
:104140005E020020580000204802002000000020ED
:1041500000210BE001EBC10000EB0110054A12F851
:10416000300008B100207047481CC1B20A29F1DBB9
:104170000120F8E75E02002000210BE001EBC10006
:1041800000EB0110054A12F8300008B90020704712
:10419000481CC1B20A29F1DB0120F8E75E020020C9
:1041A00070B501250024FFF7D3FF20B116A0FFF75B
:1041B00067FD002070BD1948007819490978084446
:1041C000C4B20A2C02DBA4F10A00C4B204EBC4009E
:1041D00000EB0410134A02EBC000411CC822124835
:1041E000FEF753FE04EBC40000EB04100D4911F878
:1041F0003000401E04EBC40101EB0411094A02F82F
:1042000031000120D6E700000A20726561645F6F0B
:1042100075745F656D707479210000005500002091
:10422000560000205E0200202E0A002010B5FFF785
:10423000A3FF18B117A0FFF723FD10BD1A48407A5D
:104240001A49097801EBC10202EB0111184A02F880
:1042500031001649097801EBC10202EB0111144A41
:1042600002EBC101481CC8221249FEF70EFE0F489E
:104270000078401C0D4908700F480078401C0E491A
:1042800008700A4800780A2802DB002007490870F5
:1042900000BFD2E70A2077726974655F696E5F6656
:1042A000756C6C21000000004802002054000020C2
:1042B0005E0200202E0A00205700002005480078EA
:1042C000401C0449087008460078C82801DD012018
:1042D000087070475900002010B51448C07900F0EC
:1042E000040038B91248007800F0100010B91148E5
:1042F000007810B100F0EEF816E00C48C07900F03C
:10430000400010B1FFF770FE0EE00848C07900F0E1
:10431000200010B1FFF784FE06E00448C07900F0E9
:10432000010008B100F008F810BD000048020020AC
:10433000490000205800002008B50020034602462E
:104340000121009005A000F01BF800F0B3F804482C
:10435000C07920F001000249C87108BD3031000069
:10436000480200200548002101604160816003206F
:10437000024948720A2088807047000048020020E5
:104380002DE9F0479AB005460E4617469846DDF8E7
:1043900088900024C8214148FBF723FF022240A156
:1043A0003E48FBF73BFFA41C02223EA13B48FBF723
:1043B00035FFA41C0F2211A93B48FFF71EF91E224E
:1043C00011A93648FBF72AFF1E340222294633483A
:1043D000FBF724FFA41C354890F800A019A950460B
:1043E000FFF7D8F8022219A92C48FBF717FFA41CE5
:1043F000B24619A95046FFF7CDF8022219A927485D
:10440000FBF70CFFA01CC4B20FA93846FFF79AF8BF
:1044100004220FA92148FBF701FF201DC4B20FA9F8
:104420004046FFF78FF804220FA91C48FBF7F6FE61
:10443000201DC4B20FA94846FFF784F804220FA933
:104440001648FBF7EBFE201DC4B20DA8FEF746FC94
:10445000062209A90DA8FEF725FD0C2202A909A82C
:10446000FFF7CBF8182202A90C48FBF7D7FE04F19E
:104470001800C4B2062269460D48FFF7BEF80622AE
:1044800069460648FBF7CAFEA01DC4B200200349D6
:104490000855FFF713FF1AB0BDE8F0872E0A002079
:1044A00030340000444400009800002059000020EF
:1044B0006C45000810B5054905A0FCF7BBFF4FF49B
:1044C0007A70FEF743FDFCF79BFF10BD2E0A00201B
:1044D0003431000008B51E48C07900F0040090B1E6
:1044E0001B48C07920F004001949C8711948C089D7
:1044F0000090184883891848C288017817A0FFF7F0
:104500003FFFFFF793FE1248807920B114480078EE
:1045100000F0100028B90E48807910B111480078D9
:10452000A0B10F48007820F010000D490870FFF787
:1045300037FE58B10120064988710B480078401CAD
:1045400009490870FFF7B6FFFFF79AFD08BD0000A4
:1045500048020020F60A0020300B00203132000013
:10456000490000205800002056000020312E320063
:104570001F1C1F1E1F1E1F1F1E1F1E1F1F1D1F1E55
:104580001F1E1F1F1E1F1E1FDDDDDDDDDCBBBBDD93
:10459000DDDDDDDDDDDDDDDD9888888888888888E3
:1045A0007777777777888888855555566666666603
:1045B00066666666666888888333333222222222E2
:1045C000222222222228888DE845000800000020AF
:1045D000980000000C280008804600089800002081
:1045E000180F00001C280008000000000000000058
:1045F00000000000030406080C1018203000000022
:104600000001020304010203040607080900000078
:104610000048E801030406080C10182030000000D0
:104620000000000000010203040607080900000062
:10463000000000000000000000000000000000007A
:10464000000100000000303132333435363738395C
:104650006162636465660000000000000000000005
:1046600000000000000000000000010064000100E4
:10467000C80001002C0101009001010000000000B1
:04000005080000F5FA
:00000001FF
