:020000040800F2
:10000000D809002009010008651D0008951A00089C
:10001000611D00089D150008292700080000000048
:10002000000000000000000000000000B91F0008F0
:10003000F517000800000000F51D0008F520000875
:100040002301000823010008230100082301000800
:1000500023010008230100082301000823010008F0
:1000600023010008230100082301000823010008E0
:1000700023010008230100082301000823010008D0
:1000800023010008230100082301000823010008C0
:1000900023010008230100082301000823010008B0
:1000A00023010008230100082301000823010008A0
:1000B0002301000861210008DD2100082301000858
:1000C0002301000823010008230100082301000880
:1000D000230100084924000889240008F1240008AD
:1000E0002301000823010008230100082301000860
:1000F00023010008DFF80CD000F0DEFB00480047C9
:1001000041350008D80900200648804706480047C6
:10011000FEE7FEE7FEE7FEE7FEE7FEE7FEE7FEE7B7
:10012000FEE7FEE7F9200008F500000838B5D0E941
:100130000221491E01EB410102EBC1014268C1EB02
:10014000011102EB81010268C1EB011102EB810296
:10015000D0E9043101EB410103EB81013023A1F52A
:10016000527191FBF3F4174D6C4302EBC41291FBF7
:10017000F3F403FB141100921A2902DB124B1A4408
:1001800000920C2291FBF2F3104C6343009C04EBB1
:10019000C313009391FBF2F302FB13110C4A08E026
:1001A000491E40F2A324535C6343009C04EBC31339
:1001B00000930029F4DC0146684600F061FA0098DB
:1001C00038BD00003F0C0F008051010067C20300E2
:1001D000C8410008D2B201E000F8012B491EFBD251
:1001E00070470022F6E710B513460A460446194642
:1001F000FFF7F0FF204610BD30B505462A460B46F6
:1002000012F8010B13F8014B08B1A042F8D01CB151
:10021000002802D06D1CF1E7284630BD10B5044619
:1002200000E0401C0378002BFBD100E0401C521E74
:1002300004D311F8013B0370002BF7D100210170AA
:10024000204610BD0FB400B58DB010A909900B90D9
:1002500000914FF0FF300A9000200C900548069066
:10026000054807906A4609A80F9900F063FA0DB097
:100270005DF814FB510700086F0700082DE9FF5FC8
:100280001D464FF0FF3BD5E9014691465F464FF0D2
:100290000008A9697F1C01988847296A8246884717
:1002A0000028F6D1BAF1FF3F0CD024F4C064002E30
:1002B00019DD600614D5BAF12B0F09D0BAF12D0F54
:1002C0000ED103E0584604B0BDE8F09F44F48064CA
:1002D000A9697F1C01988847761E8246002E02DDA0
:1002E000BAF1300F03D0B9F1000F26D032E0A9697E
:1002F000761E44F400747F1C019888478246002EC5
:1003000005DDBAF1780F06D0BAF1580F03D0B9F174
:10031000000F10D01EE0B9F1000F02D0B9F1100F9C
:1003200018D1A969761E24F400747F1C01988847AF
:100330008246102002E0082000E00A20814609E001
:1003400008FB0908A969761E44F400747F1C019813
:1003500088478246002E05DD4946504600F0D6F912
:100360000028EDDAE96901988847A00502D46FF00A
:100370000100A8E7E00725D1600613D5600502D586
:10038000C8F1000000E0404629680A1D2A6009689B
:10039000220501D5087015E0220701D5088011E07B
:1003A00008600FE02868011D29600068210502D55A
:1003B00080F8008006E0210702D5A0F8008001E067
:1003C000C0F8008038467EE780EA010210B502F0EE
:1003D0000043400022D04A001FD0010E01EB126101
:1003E000C0F35600C2F3560240F4000042F400028B
:1003F000A0FB022000047F39140400D0401C50EA06
:10040000124001D44000491EC2B20C0604EBD010C9
:10041000401C4008802A02D003E0002010BD20F0DC
:100420000100002900DA0020184310BD2DE9FE4F1D
:1004300081EA030404F0004421F0004100944FF0ED
:10044000000B23F0004350EA01045ED052EA03049B
:100450005BD0C3F30A54C1F30A552C44A4F2F3341D
:100460000194A0FB0254C1F3130141F48011C3F3C2
:10047000130343F4801301FB024400FB034E840A80
:10048000970A44EA815447EA8357A4FB0768029518
:100490008D0A05FB07854FEA932C04FB0C542705B6
:1004A000029D4FEA065847EA1637B5EB08056EEB92
:1004B000070C870E920E47EA811742EA8312A7FBC8
:1004C0000201B6EB0B0164EB00042B0D43EA0C3385
:1004D0005E1844EB1C50DA465146E7FB0201C5F3B7
:1004E00013044FEA0B3343EA14534FEA0432019CDE
:1004F00043EA0603A4F10C040294009CCDE900B485
:1005000000F08CF903B0BDE8F08F00200146F9E758
:100510002DE9F04D81EA030404F0004B21F0004581
:1005200014464FF0000A23F0004150EA050220D0A3
:1005300054EA01021DD0C5F30A570246C5F313035E
:10054000C1F31300C1F30A5640F4801543F480133D
:10055000A7EB0608101BD64608F2FD3873EB050022
:1005600002D308F1010801E092185B41B8F1000FD5
:1005700003DA00200146BDE8F08D00204FF4801121
:10058000064684460EE0171B73EB050705D3121BC6
:1005900063EB050306434CEA010C49084FEA3000BF
:1005A00092185B4150EA0107EDD152EA030012D0E4
:1005B00082EA040083EA0501084305D0101BAB4121
:1005C00006D20122002306E000224FF0004302E0A1
:1005D0006FF0010253101AEB06004CEB085110EBC0
:1005E0000A0041EB0B01BDE8F04D00F008B996237D
:1005F0000022114600F0D5B80EB540F23341029109
:100600000021CDE900110A460B4600F007F903B0BE
:1006100000BD20F00040C10DC0F3160040F4000002
:100620007F2901DA00207047962903DCC1F1960189
:10063000C840704796398840704701F0004330B495
:1006400021F0004150EA010206D00A0DA2F56072C5
:10065000C1F31301002A02DC30BC00207047440FB4
:1006600044EAC104C100E01830BC00EBC25000F005
:100670008FB80000014900F003B80000A803002073
:1006800010B500683C22B0FBF2F302FB1303B0FB91
:10069000F2F00B60B0FBF2F302FB1303B0FBF2F0DD
:1006A00018224B60B0FBF2F302FB1303B0FBF2F035
:1006B000021D8B600723B2FBF3F403FB14228000BE
:1006C00040F2B55300F66C308A61B0FBF3F2B0FB38
:1006D000F3F403FB1400443280084A61C8613B28EC
:1006E00002D3920700D0401C0022074C13460A6137
:1006F000E25C824203D8801A5B1C0B61F8E7401C65
:10070000C860084610BD0000D44100083A2800D255
:10071000303820F02002412A01D3A2F1370088426C
:1007200001D34FF0FF307047026811441378016025
:1007300018467047D1600449516104491162002193
:100740001161114600F0EEB8290700081B090008E6
:10075000426842B1016811F8013B23B1521EC0E961
:100760000012184670470121C160881E7047426818
:100770005AB1C368016843B983688B4205D0491EEA
:10078000521CC0E90012002070474FF0FF30704744
:100790000029A8BF7047401C490008BF20F0010095
:1007A000704710B4B0FA80FC00FA0CF050EA010473
:1007B00004BF10BC704749B1CCF1200421FA04F405
:1007C00011FA0CF118BF012121430843A3EB0C01DE
:1007D000CB1D4FEA00614FEA102042BF002010BC41
:1007E000704700EBC35010440029A4BF10BC7047F1
:1007F000401C490008BF20F0010010BC704710B534
:10080000141E73F1000408DA401C41F10001921833
:100810005B411A4301D120F0010010BD2DE9F04DDC
:1008200092469B4611B1B1FA81F202E0B0FA80F231
:100830002032904600F052F804460F4640EA0A0083
:1008400041EA0B0153465A46084313D0114653EA76
:10085000010019D0C8F14002504600F04EF805469C
:100860000E4650465946424600F038F8084305D037
:10087000012004E020463946BDE8F08D0020054304
:1008800046EAE0762C4337430A986305E40AA0EB76
:1008900008000022FD0A44EA47540A3002D500202D
:1008A0000146E9E7010510196941DDE9084500192C
:1008B0006941BDE8F04DA2E7064C074D06E0E0684F
:1008C00040F0010394E8070098471034AC42F6D397
:1008D000FFF714FC2042000840420008202A04DBF5
:1008E000203A00FA02F1002070479140C2F1200343
:1008F00020FA03F3194390407047202A04DB203A82
:1009000021FA02F00021704721FA02F3D040C2F12F
:1009100020029140084319467047C0B24FF4F0518D
:1009200000F096B92DE9F34F8BB04FF0000801F1BC
:100930000C000C464FF0010B46460DF1080A0190E1
:10094000626901210198904705002DD0252D2CD0FA
:10095000216A8847C0B16269012101989047216AE4
:1009600088470028F7D1411E62690198904700E04E
:10097000761CA1690B988847216A88470028F7D11F
:10098000E1690B988847DBE7A1690B988847074620
:10099000A84201D1761CD3E7E1690B9888477F1CF8
:1009A00002D1B8F1000F6FD046E1002762693D46E1
:1009B0003946019890472A2804D16269012101989B
:1009C00090470125DFF884926269012101989047E0
:1009D000A0F130010A290AD24F45E5DC07EB870177
:1009E00000EB4107303FDFD445F01005ECE7E906A6
:1009F00001D46FF000476C280AD04C2814D0682826
:100A000015D06A280DD074281CD07A281AD01DE081
:100A100062690121019890476C2802D045F00405D5
:100A200014E045F002050DE045F020050AE062699A
:100A3000012101989047682802D045F0080505E09B
:100A400045F400656269012101989047C4E90157A6
:100A500065283DD019DC58287AD00CDC452837D0E1
:100A600004DC252826D0412831D131E046282FD07A
:100A700047282CD12CE05B2877D0612828D0632828
:100A80007CD0642823D15AE0D0E06F2848D008DC1D
:100A900066281DD067281BD0692821D06E2816D162
:100AA00027E0702845D0732868D0752847D078286B
:100AB0000DD14DE0A1690B988847054625283FF4E4
:100AC00069AFE1690B9888476D1C3FF46AAFB3E0EA
:100AD00023466A466FF001000B99AFF300809EE059
:100AE00045F040006060A80723464FF0000236D46E
:100AF0003EE0E8077FF447AF2068011D21600068F1
:100B0000290501D506701BE7290701D5068017E7DF
:100B1000A90703D5F117C0E9006111E706600FE7E7
:100B200045F040006060A80723464FF0080216D445
:100B30001EE040F60E0125EA0100606016E045F077
:100B400040006060A80723464FF00A0207D40FE078
:100B500045F040006060A80708D5234610226FF0DA
:100B600001000B99AFF3008059E007E02346102203
:100B70006FF001000B99FFF781FB50E04FF0000987
:100B80004F464B46632802D05B2806D040E0E8067B
:100B900001D40120A06001273AE062690121019897
:100BA00090475E2805D14FF00109626949460198D6
:100BB0009047216939B900210A46534643F821205C
:100BC000491C0829FADBB0B3216969B9C11700EBE8
:100BD000D16253110AEB830122F01F02821A012015
:100BE0000B68904003430B606269012101989047B4
:100BF0005D28E8D1B9F1000F09D00020514651F825
:100C00002020D24341F82020401C0828F7DB02AB0B
:100C1000224600976FF001000B99AFF30080002887
:100C20000CDA401C08D1BBF1000F05D04FF0FF30AB
:100C30000DB0BDE8F08FFFE74046F9E7E90701D1C5
:100C400008F1010806444FF0000B79E6CCCCCC0C3F
:100C50007F2801D9002208E0064A02EB5002C007B3
:100C6000127800D1120902F00F02012090400840D2
:100C700070470000E041000821B1826842F00102A3
:100C8000826003E0826822F0010282607047000007
:100C900010B504460548844207D10121401501F0F2
:100CA000DBF80021601501F0D7F810BD00240140E9
:100CB0000146886D80B270470246002013680B40E1
:100CC0000BB1012000E000207047000030B5024663
:100CD000002000235068104C20400D790C6844EA35
:100CE00005242043506090680C4C2040D1E9035407
:100CF0002C438D682C434D7944EA45042043906091
:100D0000106B20F0F8700C7D641EE4B2234340EABF
:100D10000350106330BD0000FFFEFFFCFDF7FFC075
:100D2000F0B504460D46002000211D2D11DDE06DBB
:100D3000A5F11E0606EB4607072606FA07F18843CB
:100D4000A5F11E0606EB460603FA06F10843E06528
:100D500034E0132D11DDE068A5F1140606EB46071B
:100D6000072606FA07F18843A5F1140606EB4606A6
:100D700003FA06F10843E06020E0092D11DD206947
:100D8000A5F10A0606EB4607072606FA07F188438F
:100D9000A5F10A0606EB460603FA06F108432061B0
:100DA0000CE0606905EB4507072606FA07F1884362
:100DB00005EB450603FA06F108436061072A0FDADE
:100DC000206C561E06EB86071F2606FA07F188439D
:100DD000561E06EB860605FA06F1084320644AE033
:100DE0000D2A0FDAE06BD61F06EB86071F2606FAE0
:100DF00007F18843D61F06EB860605FA06F108437D
:100E0000E06338E0132A11DAA06BA2F10D0606EBBD
:100E100086071F2606FA07F18843A2F10D0606EBA6
:100E2000860605FA06F10843A06324E0192A11DAC0
:100E3000606BA2F1130606EB86071F2606FA07F180
:100E40008843A2F1130606EB860605FA06F108436D
:100E5000606310E0206BA2F1190606EB86071F26DF
:100E600006FA07F18843A2F1190606EB860605FA91
:100E700006F108432063F0BD816841F08041816044
:100E80007047000010B5FDA001F050FC4FF49670C3
:100E900000F0B2FCFBA1FC48FFF7AEF9FB4908608B
:100EA00000F08AFC0EE000F087FCF4A001F03EFCAC
:100EB0004FF4967000F0A0FCF2A1F348FFF79CF904
:100EC000F2490860F14800680028ECD00120F049A0
:100ED00081F87200EFA001F029FC4FF4967000F049
:100EE0008BFCEFA1E848FFF787F9E849086000F0BC
:100EF00063FC0EE000F060FCE6A001F017FC4FF48C
:100F0000967000F079FCE6A1DF48FFF775F9DF493C
:100F10000860DE4800680028ECD0E4A001F006FC80
:100F20004FF4967000F068FCE3A1D748FFF764F92E
:100F3000D6490860E2A001F0E3FBD448006801F064
:100F4000DFFB00F039FC15E000F036FCD7A001F023
:100F5000EDFB4FF4967000F04FFCD7A1CA48FFF7A5
:100F60004BF9CA490860D6A001F0CAFBC74800681F
:100F700001F0C6FBC54800680028E5D0D1A001F00B
:100F8000D5FB4FF4967000F037FCD1A1BE48FFF7B7
:100F900033F9BE490860102208460168891DCE4811
:100FA00001F0F0FE00F008FC15E000F005FCC5A023
:100FB00001F0BCFB4FF4967000F01EFCC4A1B248D7
:100FC000FFF71AF9B1490860102208460168891D27
:100FD000C14801F0D7FEAD4800680028E5D0BFA0A9
:100FE00001F0A4FB4FF4967000F006FCA5A1A64802
:100FF000FFF702F9A549086000F0DEFB0EE000F003
:10100000DBFBB6A001F092FB4FF4967000F0F4FB0E
:101010009CA19D48FFF7F0F89C4908609B48006838
:101020000028ECD0B1A001F081FB4FF4967000F0E5
:10103000E3FBB1A19448FFF7DFF89449086000F0A2
:10104000BBFB0EE000F0B8FBA8A001F06FFB4FF473
:10105000967000F0D1FBA8A18B48FFF7CDF88B4923
:1010600008608A4800680028ECD0A6A001F05EFB6A
:101070004FF4967000F0C0FBA5A18348FFF7BCF8C1
:101080008249086008460068E8B10846006880792F
:10109000303809684979303901EB810100EB4100B2
:1010A0007B49087008460078632808D106E09AA0BA
:1010B00001F026FB4FF4967000F09EFBF7E704204A
:1010C000734981F872002BE000F076FB8DA001F0EF
:1010D0002DFB4FF4967000F08FFB8DA16A48FFF74F
:1010E0008BF86A49086008460068C8B1084600687D
:1010F0008079303809684979303901EB810100EB9A
:1011000041006349087008460078632808D106E06A
:1011100081A001F0F5FA4FF4967000F06DFBF7E74F
:101120005A4800680028CFD000F046FB81A001F0AB
:10113000FDFA4FF4967000F05FFB81A15248FFF773
:101140005BF85249086081A14F48FFF755F8824982
:10115000086000F031FB14E000F02EFB75A001F0F8
:10116000E5FA4FF4967000F047FB75A14648FFF78B
:1011700043F84649086075A14348FFF73DF87649B2
:1011800008604248006818B9734800680028E3D036
:1011900072A001F0CBFA4FF4967000F02DFB39A14C
:1011A0003948FFF729F83949086000F005FB0EE0DF
:1011B00000F002FB69A001F0B9FA4FF4967000F05C
:1011C0001BFB30A13048FFF717F8304908602F4863
:1011D000006818B9604800680028E9D063A001F0F1
:1011E000A5FA4FF4967000F007FB64A12648FFF7BC
:1011F00003F82649086067A001F098FA4FF496704A
:1012000000F0FAFA1FA12048FEF7F6FF1F49086018
:10121000002404E000201C490855601CC4B2642C62
:10122000F8DB00F0C9FA5EA001F080FA4FF4967086
:1012300000F0E2FA5DA11448FEF7DEFF13490860F2
:101240000EE000F0B9FA56A001F070FA4FF4967073
:1012500000F0D2FA55A10C48FEF7CEFF0B4908600A
:101260000A4800680028ECD00120524988710748DC
:10127000006801F05DFC00F09FFA10BD41540D0ABA
:10128000000000004F4B00002B0100200400002054
:10129000B800002041542B4E42414E443F0D0A00FD
:1012A0002B4E42414E443A350000000041542B433E
:1012B000494D490D0A00000034363031310000003C
:1012C0000D0A000041542B4347534E3D310D0A0097
:1012D0002B4347534E000000A800002041542B43ED
:1012E000474154543D310D0A0000000041542B4346
:1012F000474154543F0D0A002B43474154543A315F
:101300000000000041542B4353510D0A000000001F
:101310002B43535100000000D0C5BAC5CBD1CBF749
:10132000CAA7B0DCA3ACC7EBB2E9BFB4D4ADD2F26C
:10133000210D0A0041542B43455245473F0D0A00F9
:101340002B43455245473A302C3100002B43455240
:1013500045473A312C3100000800002041542B430E
:10136000455245473D310D0A0000000041542B4EC7
:101370004D5354415455533F0D0A00002B4E4D53CD
:1013800054415455533A494E49495449414C4953A3
:101390004544000041542B4E4E4D493D320D0A004C
:1013A00041542B43434C4B3F0D0A00002B43434C0D
:1013B0004B0000008000002010B507A10848FEF790
:1013C0001BFF084908600846006810B10120064963
:1013D000887100F0F1F910BD2B4E4E4D4900000010
:1013E0002B010020040000205400002070B50446AA
:1013F0000D462A4621461DA001F098F94FF47A7057
:1014000000F0FAF91DA11E48FEF7F6FE1D4908601E
:101410000846006818B11CA001F072F917E02946CF
:10142000204600F05DF890B91BA001F07FF94FF461
:10143000967000F0E1F91CA11148FEF7DDFE11499C
:1014400008600846006810B11EA001F059F921A1FA
:101450000B48FEF7D1FE0B4908600846006810B142
:1014600001201E49887100F0A7F970BD41542B4E30
:101470004D47533D25732C25730D0A004F4B00003B
:101480002B0100200400002053454E4420444154C9
:1014900041204F4B210D0A0041542B4E4D535441D6
:1014A0005455533F0D0A00002B4E4D535441545593
:1014B000533A4D4F5F444154415F454E41424C4584
:1014C000440000000A436F6E6E656374204F4B2129
:1014D000000000002B4E4E4D49000000540000203B
:1014E0002DE9F04105460E460024002700BF2EE0FE
:1014F0001AA001F005F904F13101C8B200F094FF1F
:101500003246294617A001F011F94FF47A7000F025
:1015100073F918A11848FEF76FFE184908600846CD
:10152000006820B116A002F00AFB012711E018A103
:101530001148FEF761FE114908600846006810B1C5
:1015400001201549887100F037F9601CC4B2022CE3
:10155000CEDB00BF3846BDE8F081000072657472D2
:101560007909000041542B4E4D47533D25732C25DE
:10157000730D0A004F4B00002B01002004000020D7
:101580000A53454E442044415441204F4B21000012
:101590002B4E4E4D490000005400002000BFFEE7D6
:1015A00010B566A001F0C2F84FF4967000F024F96F
:1015B00064A16548FEF720FE6449086000F0FCF86D
:1015C0000EE000F0F9F85DA001F0B0F84FF496706D
:1015D00000F012F95BA15C48FEF70EFE5B49086063
:1015E0005A4800680028ECD00120594981F872005F
:1015F00058A001F09BF84FF4967000F0FDF858A148
:101600005148FEF7F9FD5149086000F0D5F80EE0A9
:1016100000F0D2F84FA001F089F84FF4967000F076
:10162000EBF84FA14848FEF7E7FD484908604748F6
:1016300000680028ECD04DA001F078F84FF49670C7
:1016400000F0DAF84CA14048FEF7D6FD3F490860AB
:1016500000F0B2F80EE000F0AFF844A001F066F838
:101660004FF4967000F0C8F843A13748FEF7C4FD68
:1016700036490860354800680028ECD040A001F0E9
:1016800055F84FF4967000F0B7F82EA12E48FEF7EB
:10169000B3FD2E49086005E02AA12B48FEF7ACFDFA
:1016A0002A490860294800680028F5D000F084F82D
:1016B00036A001F03BF84FF4967000F09DF821A1A0
:1016C0002148FEF799FD2149086005E01DA11E484B
:1016D000FEF792FD1D4908601C4800680028F5D0FF
:1016E00000F06AF831A001F021F84FF4FA6000F040
:1016F00083F81EA001F01AF84FF4967000F07CF801
:101700001DA11148FEF778FD1049086000F054F85B
:101710000EE000F051F815A001F008F84FF49670B3
:1017200000F06AF814A10848FEF766FD0749086052
:10173000064800680028ECD010BD000041540D0A96
:10174000000000004F4B00002B010020040000208F
:10175000B800002041542B4E42414E443F0D0A0038
:101760002B4E42414E443A350000000041542B4379
:10177000494D490D0A000000343630313100000077
:1017800041542B4346554E3D300D0A0041542B4EDB
:101790004344503D3138302E3130312E3134372EE4
:1017A0003131352C353638330D0A000041542B4E7B
:1017B00052420D0A0000000010B5094800F0A0FFD9
:1017C000002404E0002006490855601CC4B2642CC3
:1017D000F8DB00200349087003A002F0B0F910BD47
:1017E0002B010020450000200A636C6561723221E4
:1017F0000A00000070470000014600200D4A1288D0
:101800004A434FF0E0235A6100229A6101221A6193
:1018100000BF4FF0E022106900F001021AB100F49D
:101820008032002AF5D000224FF0E0231A619A613D
:10183000704700004E000020F0B502460B46002124
:1018400000240025002000BF35E0012606FA01F43F
:101850001E6806EA0405A5422CD110684F00032635
:10186000BE40B0431E794F00BE40304310601E7929
:10187000012E02D01E79022E12D190684F0003264D
:10188000BE40B0435E794F00BE40304390609088C8
:1018900001268E40B0439E798E40B6B23043908090
:1018A000D0684F000326BE40B043DE794F00BE40F3
:1018B0003043D060491C1029C7D3F0BDF0B50023D8
:1018C00000244D07ED0E02FA05F3CE1000F12005BD
:1018D00055F826504E07F70E0F26BE40B543CF10E1
:1018E00000F1200646F82750CE1000F1200555F8EB
:1018F000265045EA0304CE1000F1200545F82640A5
:10190000F0BD02460020138A0B400BB1012000E01D
:101910000020704701837047828A4A408282704764
:101920000AB1018300E041837047000010B500F068
:101930006FF81C4988600846806800EB8000400012
:101940004FF44471B0FBF1F01649C8600A2000F072
:101950006BFD1449886802F02CF9092000F064FD41
:10196000092000F061FD0F49C86802F0B1F80E4887
:101970000C4988600D48C860092000F055FD092019
:1019800000F052FD0749886802F013F9092000F0C1
:101990004BFD092000F048FD0249C86802F098F8A4
:1019A00010BD000060030020162D75009D7E010013
:1019B00010B5002427E000F02BF814490861084610
:1019C00000698968884214D9104800690F498968FC
:1019D000401A0E4908610846006900EB800040008B
:1019E0004FF44471B0FBF1F10848143040F8241072
:1019F00004E000210548143040F82410642001F070
:101A00002FFA601CC4B20A2CD5DB10BD6003002085
:101A100070B5002210211E48FFF782FF002401202C
:101A200001F03EFA00BF20211948FFF76AFF0028A5
:101A3000F9D1002518E0012210211548FFF770FFA9
:101A40006400012001F02CFA002210211048FFF759
:101A500067FF20210E48FFF754FF00B1641C0120EE
:101A600001F01EFA681CC5B2182DE4DB012210211A
:101A70000748FFF755FF84F40004012001F010FA35
:101A8000002210210248FFF74BFF204670BD0000E6
:101A90000000024000BFFEE74CF6CC400149086060
:101AA000704700000030004010B500F013F810BD82
:101AB00070B505460C4645F2555000F01FF8284613
:101AC00000F010F8204600F013F800F003F8FFF7DC
:101AD000E3FF70BD4AF6AA20014908607047000084
:101AE000003000400149486070470000003000406D
:101AF00001498860704700000030004001490860DB
:101B000070470000003000401CB50121084600F07D
:101B100073F91020009001208DF8040000208DF84A
:101B2000060002208DF8050069460848FFF784FE8C
:101B30002020009000208DF8040001208DF807007F
:101B400069460248FFF778FE1CBD00000000024015
:101B50001CB50121032000F04FF9702000900020F7
:101B60008DF8040002208DF8070069460B48FFF746
:101B700063FE4FF44050009000208DF804000220D6
:101B80008DF8070069460648FFF756FE0548002114
:101B900001800120034948701CBD00000000024084
:101BA000000402405000002010B55748407800283B
:101BB0007ED010215548FFF7A4FE012819D020211E
:101BC0005248FFF79EFE012813D040214F48FFF7EF
:101BD00098FE01280DD04FF480514D48FFF791FE3B
:101BE000012806D04FF400514948FFF78AFE01282A
:101BF0006AD10A2001F034F90020434948701021CD
:101C00004248FFF77EFE01280BD111203E490870A3
:101C1000404800780B303F490870612000F004FC18
:101C20004AE020213948FFF76CFE01280BD1222021
:101C300035490870374800780B3036490870622003
:101C400000F0F2FB38E040213048FFF75AFE01284F
:101C50000BD133202C4908702E4800780B302D49C9
:101C60000870632000F0E0FB26E04FF48051284824
:101C7000FFF747FE01280BD155202349087025485E
:101C800000780B3023490870642000F0CDFB13E08E
:101C90004FF400511E48FFF734FE01280CD1662096
:101CA000194908701B4800780B301A49087000E089
:101CB0000AE0652000F0B8FB16480078422821DBD6
:101CC0000020144908701DE010211048FFF719FE8C
:101CD000C0B920210D48FFF714FE98B940210B48E8
:101CE000FFF70FFE70B94FF480510948FFF709FE66
:101CF00040B94FF400510648FFF703FE10B9012028
:101D00000149487010BD0000500000200000024052
:101D100000040240520000201CB50121022000F006
:101D20006BF801208DF8040040F20B20009069460A
:101D30000A48FFF781FD4FF400710848FFF7EAFDFC
:101D400008210648FFF7E6FD01210448FFF7E2FD00
:101D500002210248FFF7DEFD1CBD00000004024026
:101D600000BFFEE77047000070B5002100230F227E
:101D7000C4781CB3174C246804F4E064C4F5E06430
:101D8000C4F30721C1F10404E3B20A4144789C4042
:101D9000E1B28478144021430C07210E0E4C0578E3
:101DA0006155047804F01F050124AC4005786D11DD
:101DB000AD0005F1E025C5F8004109E0047804F024
:101DC0001F050124AC40054D0678761145F82640E4
:101DD00070BD00000CED00E000E400E080E100E0F8
:101DE00002490143024A1160704700000000FA05F1
:101DF0000CED00E07047000029B1064A126802436A
:101E0000044B1A6004E0034A12688243014B1A60D3
:101E1000704700001C38024029B1064A126802438C
:101E2000044B1A6004E0034A12688243014B1A60B3
:101E3000704700002438024029B1064A1268024364
:101E4000044B1A6004E0034A12688243014B1A6093
:101E5000704700002038024029B1064A1268024348
:101E6000044B1A6004E0034A12688243014B1A6073
:101E70007047000014380240F0B500210022002312
:101E8000002600240025374F3F6807F00C0131B1D0
:101E9000042912D0082913D00C2934D113E0314F72
:101EA0003F1F3F68C7F342356F1C4FF0010C0CFA1F
:101EB00007FC4FEACC37076033E02B4F076030E078
:101EC0002A4F07602DE0274F3F6807F47012254F17
:101ED0003F6807F44003264F07EB92473A78012703
:101EE00007EB93531F4F3F6807F480362EB91E4F00
:101EF0005743B7FBF3F7076004E01C4F5743B7FBAA
:101F0000F3F707600DE0174F3F1F3F68C7F34235F7
:101F10006F1C4FF0010C0CFA07FC4FEACC3707603E
:101F200000BF00BF0F4F3F6807F0F0010909114FD4
:101F30007C5C0768E74047600A4F3F6807F4E06150
:101F4000090A0C4F7C5C4768E7408760054F3F6893
:101F500007F46051C90A074F7C5C4768E740C760D7
:101F6000F0BD0000083802400024F40000127A009E
:101F70000C0000201500002010B5014600220023AF
:101F800000204A11012A02D1074C236802E0064CC6
:101F90003434236801F01F02012494401C400CB12A
:101FA000012000E0002010BD003802400149086017
:101FB0007047000000004742704700000CB5002049
:101FC000019000903E48006840F480303C49086031
:101FD00000BF3B48006800F4003000900198401CAE
:101FE0000190009818B90198B0F5A04FF1D134488C
:101FF000006800F4003010B10120009001E00020E2
:1020000000900098012859D12E48006840F0040043
:102010002C4908600846006840F002000860084645
:10202000006840F00100086025482430006840F056
:102030008050234924310860C8142349086000BF38
:102040002148406800F010000028F9D11C480830F1
:1020500000681B49083108600846006808600846A7
:10206000006808600846006820F47D0008600846A3
:10207000006840F4110008601148006840F080706A
:102080000F49086000BF0E48006800F0007000288B
:10209000F9D00B480830006820F0030008490831E7
:1020A00008600846006840F00300086000BF04486C
:1020B0000830006800F00C000C28F8D10CBD0000BE
:1020C00000380240003C024000700040042808D163
:1020D0004FF0E021096941F004014FF0E022116165
:1020E00007E04FF0E021096921F004014FF0E02200
:1020F000116170477047000010B51548006840F442
:10210000807013490860124808300068114908407F
:102110000F49083108600E4800680F4908400C4913
:1021200008600846006820F48020086008480830ED
:10213000006820F47D000649083108600020091D70
:102140000860FFF73BFF4FF000600449086010BDD6
:10215000003802400CC0FF88FEFFFEEE08ED00E0F4
:1021600010B50121054800F014F928B101210348F8
:1021700000F000F9FFF718FD10BD0000000400405A
:102180007FB505460C4601210220FFF745FE02956A
:10219000ADF804400020ADF80C00ADF8060001A930
:1021A0000D4800F011F9012211460B4800F002F928
:1021B0001D208DF8000002208DF8010003208DF80D
:1021C000020001208DF803006846FFF7CDFD0021D5
:1021D000014800F0D2F87FBD0004004010B5012195
:1021E000444800F0D6F800287ED00121414800F094
:1021F000C1F841480078401C3F4908703F4890F8BA
:1022000072000978884219DC00203B4908703C487C
:10221000407A022812D0394890F87200022809DD6D
:1022200008213848FFF776FB4FF400713548FFF777
:1022300073FB03E008213348FFF76EFB32488078D8
:10224000401C3149887008468078012803DB002053
:102250008870012048702A48407A02280CD128480A
:10226000C079401C2649C8710846C0793C2803DB68
:102270000020C87101200872244890F82800401CF2
:10228000224981F82800084690F82800012805DB3B
:10229000002081F82800012081F829001C480088CE
:1022A000401C1B49088008460088B0F5167F0FDBEC
:1022B000002008800846807840F0010088700120E6
:1022C000144948711248807840F020001049887005
:1022D00010480079401C0F4908710846007902280F
:1022E00007DB0020087100E003E008460068401C9E
:1022F000086010BD000800404A000020B80000201F
:102300005603002000040240600300202A0300203E
:1023100054000020800000207FB505460C460121B6
:102320000420FFF779FD0295ADF804400020ADF8D8
:102330000C00ADF8060001A90D4800F045F8012297
:1023400011460B4800F036F81E208DF800000220E0
:102350008DF8010001208DF802008DF80300684619
:10236000FFF702FD0121024800F007F87FBD0000E1
:1023700000080040CA430282704721B1028842F03F
:102380000102028004E002884FF6FE731A400280C8
:10239000704730B50246002000230024158A05EA64
:1023A0000103958905EA010413B10CB1012000E095
:1023B000002030BD1AB183890B43838102E08389F9
:1023C0008B4383817047000000220288B0F1804F68
:1023D00008D0104B984205D00F4B984202D00F4BBB
:1023E000984204D14FF68F731A404B881A430C4B16
:1023F000984207D00B4B984204D04FF6FF431A4047
:102400000B891A4302804B68C3620B880385012342
:10241000838270470004004000080040000C004028
:10242000001000400014004010B5044600BF802199
:10243000044800F098F80028F9D02146014800F03F
:102440005AF910BD0038014010B540F225510B4833
:1024500000F096F880B140F22551084800F068F885
:10246000064800F043F9C1B2054802780078401CE4
:10247000034B18700348815410BD00000038014020
:10248000460000208F01002070B540F2255115480C
:1024900000F076F828B340F22551124800F048F8D1
:1024A000114802786421114800F01EFB90B10D48DC
:1024B00000F01CF9C4B2412C0CDB5A2C0ADC094890
:1024C00000F014F9C1B208480578681C064A10707B
:1024D0000648415504480078632802DD002002497F
:1024E000087070BD0044004048000020F301002047
:1024F00010B540F225510B4800F042F880B140F28F
:102500002551084800F014F8064800F0EFF8C1B271
:10251000054802780078401C034B1870034881542A
:1025200010BD000000480040450000202B010020A5
:1025300010B50022002340F66A14A14200D100BF6A
:102540000A1201249440A3B2DC43048010BD21B1DF
:10255000828942F40052828104E082894DF6FF7341
:102560001A408281704702460020B1F5007F00D1F9
:1025700000BF13880B400BB1012000E00020704722
:1025800070B50246002400230025002040F66A169C
:10259000B14200D100BFC1F3421501F01F03012673
:1025A00006FA03F3012D02D19689334006E0022D8D
:1025B00002D1168A334001E0968A33400C1201267C
:1025C00006FA04F41688344013B10CB1012000E07F
:1025D000002070BDF0B50346002400260025002031
:1025E00040F66A17B94200D100BF1846C1F3421441
:1025F00001F01F06012707FA06F5012C01D10C3066
:1026000004E0022C01D1103000E014301AB1076848
:102610002F43076002E00768AF430760F0BD00008A
:102620002DE9FF4705460E460024A14600BFA046FF
:10263000B08900B100BF2C8A24F44054F0880443D0
:102640002C82AC8941F20C608443B0883189084304
:10265000718908430443AC81AC8A24F44074B08986
:102660000443AC826846FFF707FC1F48854202D14D
:10267000DDF80C9001E0DDF80890A88900F4004036
:1026800040B109EBC90000EB091031684900B0FB0B
:10269000F1F707E009EBC90000EB09103168890088
:1026A000B0FBF1F76420B7FBF0F0040120096421CE
:1026B00001FB1078A88900F4004040B1322000EB03
:1026C000C800B0FBF1F000F00700044308E032203E
:1026D00000EB08106421B0FBF1F000F00F000443A0
:1026E0002C81BDE8FF870000003801400146888842
:1026F000C0F308007047C1F30802828070470000F1
:102700000BE000BF0749098801F040010029F9D01A
:102710000178044A121D1180401C01780029F0D173
:10272000704700000038014000BFFEE70FB4054BC2
:1027300010B503A9044A029800F017F810BC5DF820
:1027400014FB00002D3100089C00002002E008C8A6
:10275000121F08C1002AFAD170477047002001E01B
:1027600001C1121F002AFBD170472DE9F84F99468D
:10277000924688460546002706E025280AD051469D
:102780004A4690476D1C7F1C28780028F5D13846B2
:10279000BDE8F88F002315F8011F18462E2915D122
:1027A00015F8011F04232A290DD06FF02F02297874
:1027B000A1F13004092C09D800EB800002EB4000A5
:1027C00008446D1CF3E758F8040B6D1C2A78002AA6
:1027D000DDD0632A07D0732A0FD0104651464A46EF
:1027E00090477F1C2AE018F8042B8DF80020002168
:1027F0008DF801106E46012103E058F8046B4FF08C
:10280000FF315A074FF0000401D409E0641C8442F0
:102810000BDA8C42FADB325D002AF7D105E0641C4A
:102820008C42FCDB305D0028F9D1274404E016F827
:10283000010B51464A469047641EF8D26D1CA3E72F
:1028400010B500210148FEF717FA10BD0024014021
:1028500000B589B001210320FFF7CEFA012148021B
:10286000FFF7EAFA0120019003208DF8080000200C
:102870008DF80B0001A91D48FEF7DEFF4FF4404024
:10288000019003208DF8080000208DF80B0001A9AD
:102890001748FEF7D1FF1748FEF7FAF90120FFF7B6
:1028A00085FB00BF2120FFF767FB0028FAD000203E
:1028B0008DF810008DF811004FF00070039000208B
:1028C0000690079001208DF8200003A90948FEF723
:1028D000FDF901210748FEF7CFF900BF4021054867
:1028E000FEF7EAF90028F9D009B000BD0000024067
:1028F00000040240002401402DE9F84F1B490888DC
:10290000FDF775FE009019490888FDF775FE8046B1
:102910004FF06632164BFDF789FD06460022154B37
:10292000FDF7F6FD044600224FF08043FDF77EFDE3
:102930008246FDF782FE00900F490098FDF744FDA6
:102940000446FDF766FE09494880092001F0BAF8FF
:102950000649488801F071F8092001F0B3F80349ED
:10296000488801F0F2F8BDE8F88F00005603002017
:1029700066660A4000E06F400000C84210B5054896
:10298000007A28B100F082F8FFF7B6FF00F010F8E7
:1029900010BD000056030020044800210160416082
:1029A0000181012001490872704700005603002090
:1029B00034484088B0F5DC7F00DD704731484088FE
:1029C000B0F5B97F1CDC00202E490871084640880C
:1029D000B0F5AF7F04DC08468079401C88711FE0A9
:1029E00000202849887108464079401C4871012020
:1029F000087208464079032812DB012048720FE074
:102A0000002020498871487108460079401C0871EF
:102A10000120087208460079032801DB0020487273
:102A20001848407A10B1012827D115E0164880785F
:102A300020F08000144988700846C07820F080009B
:102A4000C8700846807820F0400088700846C0783A
:102A500020F04000C87011E00B48C07820F08000E2
:102A60000949C8700846C07800F0400020B90846FF
:102A7000807840F04000887000E000BF00BF00BFD9
:102A80009BE70000560300205400002010B50020F2
:102A90000949088000F080FB074908800846007853
:102AA0000880FFF7CDFE05A001F049F8024908882B
:102AB00001F06DF810BD0000560300200A62617439
:102AC0005F73616D706C653A0000000010B50548D9
:102AD000407920B100200349487100F08BFC00F0E0
:102AE00049FC10BD8000002010B503460C4611467D
:102AF0000AE0585C412802DB585C5A2802DD0A468D
:102B0000012010BD481CC1B2A142F2DB00210AE045
:102B1000585C412802DB585C5A2802DD0A46012035
:102B2000EFE7481CC1B29142F2DB0020E9E7000068
:102B300010B58EB0044600200C900D900A900B90BA
:102B4000A41D04A805A906AA07ABCDE90032CDE96A
:102B5000021008AB09AA10A12046FDF773FB0998E3
:102B600080B2ADF830000898C0B28DF832000798F6
:102B7000C0B28DF833000698C0B28DF834000598C5
:102B8000C0B28DF835000498C0B28DF836000CA89C
:102B900000F05EF80EB010BD253032642F253032C3
:102BA000642F253032642C253032643A253032646B
:102BB0003A253032640000001CB504460020009025
:102BC0000190684600F018F8BDF80000A0F5FA6022
:102BD00020709DF8020060709DF80300A0709DF8C1
:102BE0000400E0709DF8050020719DF806006071FA
:102BF0000020A0711CBD000070B504460F48FDF711
:102C000039FD05462878A07128796071287A083046
:102C10002071287BE070287C401CA070A88A00F2FC
:102C20006C7020802079182190FBF1F201FB1200DA
:102C30002071204600F050F870BD00008000002098
:102C400002480021016041607047000080000020C0
:102C500010B50446208800F5FA602080204600F078
:102C600072F80549086005A000F069FF024908688C
:102C700000F09FFF10BD0000800000200A75746303
:102C80003A00000010B500240CA0FFF74FFD4FF4F0
:102C90009670FEF7B1FD0CA10D48FDF7ADFA0D4998
:102CA00008600846006820B108460068FFF740FF4A
:102CB0000124FEF781FD204610BD000041542B4346
:102CC000434C4B3F0D0A00002B43434C4B3A000052
:102CD0002B01002004000020F0B5024611889378F3
:102CE000012B01D0022B04D103F10C00C3B2481E0A
:102CF00081B25D1C05EB4505052695FBF6F5D678FA
:102D0000022707FB036635440D440846CE1701EB46
:102D1000967605EBA605642691FBF6F6AD1B4FF4FF
:102D2000C87691FBF6F63544072695FBF6F706FBC9
:102D30001755ECB2601C072590FBF5F605FB160055
:102D4000D071D079F0BD30B58BB0044600252C2170
:102D50006846FDF746FA2088A0F26C700590A078CE
:102D6000401E0490E07803902079029060790190F1
:102D7000A07900906846FDF7D9F9054628460BB0C2
:102D800030BD00002DE9F04105460F4616460024EF
:102D900003E0385D2855601CC4B2B442F9DB002062
:102DA000A85504A0FFF7ACFC2846FFF7A9FCBDE836
:102DB000F08100000D0A0000F0B504461546002021
:102DC00025E0265C0A2796FBF7F6F2B2265C96FB16
:102DD000F7FC07FB1C66F3B2092A04DD02F1370693
:102DE00001F8106003E002F1300601F81060092BD1
:102DF00006DD03F13706F7B24600761C8F5505E075
:102E000003F13006F7B24600761C8F55401CA842ED
:102E1000D7D3002601F81060F0BD000010B56FF0A8
:102E20000400FFF753F90A4800680A49B0FBF1F0C3
:102E3000094908700846007800EB4001C1EBC0105A
:102E40004FF6FF7101EAC0000449088010BD000080
:102E50002800002000127A004C0000204E000020C4
:102E6000014600200D4A12884A434FF0E0235A6180
:102E700000229A6101221A6100BF4FF0E02210691E
:102E800000F001021AB100F48032002AF5D00022CD
:102E90004FF0E0231A619A61704700004E00002055
:102EA000014600200D4A12784A434FF0E0235A6150
:102EB00000229A6101221A6100BF4FF0E0221069DE
:102EC00000F001021AB100F48032002AF5D000228D
:102ED0004FF0E0231A619A61704700004C00002017
:102EE00030B5184C031972B6174C184D2C60184C9D
:102EF0002C6000BF154C083C246804F00104002C31
:102F0000F8D1124C083C246844F480740F4D083DFD
:102F10002C6008E002C300BF0C4C0C34246804F0A1
:102F20000104002CF8D11400A2F10105AAB2F1D1DC
:102F3000064C083C246844F00104044D083D2C6014
:102F400062B630BD00000808EFCDAB890C3C0240F2
:102F5000050403020EB52A494A880888694600F02C
:102F60005FF810B327A000F0EAFDBDF8000000F004
:102F70000EFEBDF8000060B9214908881922002121
:102F8000FFF7AEFF1E494A880888224900F07CF806
:102F90000BE0BDF800001F49891FC988884204D092
:102FA000BDF800001B49891FC8801549CA88888858
:102FB000694600F035F810B317A000F0C0FDBDF869
:102FC000000000F0E4FDBDF8000060B90C498888FD
:102FD00019220021FFF784FF0949CA8888880F4910
:102FE00000F052F80BE0BDF800000C49091F097908
:102FF000884204D0BDF800000849091F08710EBDC1
:10300000880000200A656570726F6D5F696E697473
:103010003A0000006603002009000000580000206C
:103020002DE9F041074613460120DFF8588007EBF1
:1030300008054FF0000C21E02A8835F823404FF6B0
:10304000FF7808EA430835F82860A24202D121F847
:10305000022B0EE0B24202D121F8022B09E0B44269
:1030600002D121F8024B04E04FF0000821F8028B56
:1030700000202D1D0CF1010808F0FF0C9C45DBDB46
:10308000BDE8F08100000808F0B503460C4616467E
:10309000224FDD1972B6224FDFF888C0CCF80070DD
:1030A000214FCCF8007000BF1E4F083F3F6807F06B
:1030B0000107002FF8D11B4F083F3F6847F4807786
:1030C000DFF860C0ACF1080CCCF80070002015E00F
:1030D0000C4616460AE034F8027B80C500BF114F4B
:1030E0000C373F6807F00107002FF8D13700A6F131
:1030F000010C1FFA8CF6EED1471CF8B20328E7DB6F
:10310000084F083F3F6847F00107DFF818C0ACF1EF
:10311000080CCCF8007062B6F0BD00000000080892
:10312000EFCDAB890C3C02400504030200BF054A09
:10313000128802F04002002AF9D0C2B2014B1B1DD6
:103140001A8070470048004010B5002821D0114B6C
:103150000022001F196803E0814203D80A4649682B
:103160000029F9D152B11368841A9C4204D1006835
:1031700018441060104602E0506000E0186039B159
:1031800002680B1A934203D10B681A440260496823
:10319000416010BDA000002010B50446FFF758FBA9
:1031A0000723012221460848FDF7BAFD0648FDF72E
:1031B00063FE00BF02210448FDF77EFD0028F9D020
:1031C0000148FDF775FD10BD0024014000B58FB02A
:1031D00007A808A909AA0AABCDE90232CDE9041073
:1031E0000BA80CA9CDE9001045490968881E0DAB54
:1031F0000EAA44A1FDF726F84BA000F0A0FC0E9902
:10320000C8B200F018FD4AA000F099FC0D99C8B2B0
:1032100000F011FD47A000F092FC0C99C8B200F03C
:103220000AFD44A000F08BFC0B99C8B200F003FD2E
:1032300040A000F084FC0A99C8B200F0FCFC3DA05C
:1032400000F07DFC099988B200F0A1FC39A000F0E3
:1032500076FC089988B200F09AFC36A000F06FFC6A
:10326000079988B200F093FC32A000F068FC0D983A
:10327000052843D10C98DD2840D12F48C0780A9901
:10328000884201D10FB000BD2B490A98C8700B9835
:10329000012818D12948C088099988420BD009987B
:1032A00048B126490998C88025494A880888234991
:1032B000891DFFF7E9FE23A000F041FC1F49C888E3
:1032C00000F043FC1AE00B98022817D1234800793C
:1032D000099988420BD0099848B12049099808718A
:1032E0001749CA8888881D49091DFFF7CDFE1CA013
:1032F00000F025FC1949087900F027FC00BFC1E760
:1033000004000020253032642C25303278253032FC
:1033100078253032782530327825303478253034AD
:1033200078253034780000000A70617273653A00C5
:103330002C09000009000000580200206003002052
:10334000880000200A635F7765696768745F746846
:10335000726573686F6C643A0000000054000020CE
:103360000A635F75706C6F61645F74696D65733A51
:103370000000000010B51448807900B313A000F0DD
:10338000DEFB15A0FFF7D2F94FF47A70FFF768FD66
:1033900014A11548FCF730FF14490860084600687E
:1033A00028B1FFF713FF03201149087004E0002043
:1033B000054988710E490870FEF7FEF902E0002009
:1033C0000B49087010BD0000540000200A726563AC
:1033D000656976653A20000041542B4E4D47520DE9
:1033E0000A0000002C0000002B0100200400002037
:1033F000000000201CB56846FFF7FEFB9DF80400A6
:1034000070B90948807970B9FFF73CFC06498871AA
:1034100006A000F094FB0449887900F0EAFB02E082
:103420000020014988711CBD800000200A73796E5C
:103430003A000000F0B50446251200201FE02A09DA
:1034400005F00F03092A04DD02F1370601F81060C8
:1034500003E002F1300601F81060092B06DD03F1EC
:103460003706F7B24600761C8F5505E003F13006AB
:10347000F7B24600761C8F55E5B2461CF0B2022822
:10348000DDDBF0BD10B5C31700EB13730A24B4EBFA
:10349000231F07DC0246C31700EB13731B113733DE
:1034A0000B7006E00246C31700EB13731B11303399
:1034B0000B70C31700EB13731B11A0EB03130A2B44
:1034C00009DB0246C31700EB13731B11A0EB0313B8
:1034D00037334B7008E00246C31700EB13731B1120
:1034E000A0EB031330334B7010BDF0B50446154606
:1034F00000201FE0265C3209265C06F00F03092A33
:1035000004DD02F1370601F8106003E002F1300635
:1035100001F81060092B06DD03F13706F7B246000B
:10352000761C8F5505E003F13006F7B24600761C95
:103530008F55401CA842DDD3002601F81060F0BD75
:1035400000F042F805E0FEF7AFFA00F08DF800F069
:1035500001F8F8E710B51648007830B101280AD014
:1035600002280BD003281DD116E000F01BF9012022
:103570000F4908701AE000F031F917E00DA000F0D3
:10358000DEFA0E48407908B9FFF7F8F900F0D0FCF0
:1035900003200749087009E009A000F0D0FAFFF7FE
:1035A00095FA03E000200249087000BF00BF10BD7B
:1035B000000000200A73656E6400000054000020C3
:1035C0000A6765740000000010B54FF4A060FEF7B4
:1035D00007FCFFF723FCFEF79FFBFEF7B9FA4FF459
:1035E000165000F0FFFB4FF4165000F039FB4FF47B
:1035F000165000F097FB40F67F41C720FEF7C0FD54
:1036000040F67F4141F28730FEF786FEFFF718FB58
:10361000FDF7C6FFFDF736FC00F0DAFCFFF718F9FE
:10362000FFF7BAF900F0D2F800F0DEF8FFF792FCED
:1036300006A0FFF765F806A0FFF762F800F0E2F8D1
:1036400040F64E410520FEF733FA10BD0D0A00008A
:1036500056455253494F4E5F595F4D5F443A313999
:10366000313230390000000010B505A000F067FAD3
:103670000548807810B102200449087010BD000090
:103680000A6A75646765000054000020000000208D
:10369000F0B50B30154D20F007010024144A0FE05F
:1036A00003688B420BD38B4205D95E1A43184768D7
:1036B000C3E9006700E04368136002C004E0021D34
:1036C00010680028ECD12046002802D1286808B1F3
:1036D0000020F0BD064A07481060074A121A22F07F
:1036E0000702C0E9002401202860D7E7A4000020D9
:1036F000A0000020DC030020D80500200F488089AE
:1037000064280DDA0D48C089642804DA02200B49C8
:1037100081F82A0011E00120084981F82A000CE014
:103720000648C089642804DA0120044981F82A0087
:1037300003E00020014981F82A0070472A03002095
:1037400010B50021114881811420FFF725FD0F4994
:1037500088810846017B81810021C1811520FFF706
:103760001BFD0A49C8810846817BC18108A000F081
:10377000E6F90649888900F0E8F909A000F0DFF9C8
:103780000249C88900F0E1F910BD00002A030020B9
:103790000A70726573735F73616D706C653A0000D7
:1037A0000900000010B5084890F82900012809D147
:1037B0000020054981F82900FFF7C2FFFFF740F814
:1037C000FFF79CFF10BD00002A03002010B52C213C
:1037D0000148FCF706FD10BD2A03002010B5FEF7D6
:1037E000E7F800F01DF810BD10B5FEF78DF948217F
:1037F0000348FCF7F6FC19200149C88010BD000001
:103800006003002010B5FEF791F84FF47A70FFF7CF
:1038100027FB4FF47A70FFF723FBFEF787F810BD04
:1038200010B50A215D4800F0D7F85C491439C86327
:103830005BA000F084F959491439C86B00F048F9CD
:10384000002056491439087088800846C16B006C06
:10385000001D814206D851481438016CC06B001D10
:10386000814206D94D481438C06B4C49143908645C
:1038700010BD4A481438C06B642816D24748143823
:10388000C07805285ADAFD204449143908700846E2
:10389000C078401CC0B2C870052801DB0520C87084
:1038A0003E481438C16B416448E03C481438C16B51
:1038B000406C814226D3002038491439C87008462C
:1038C000406CC988084435491439C96B884235D8D9
:1038D00032481438406C20B900203049143908703F
:1038E00003E0FF202D49143908702C481438818FCB
:1038F000B0F84400081A2949143988800846C16B79
:1039000041641BE0002025491439C8700846C06B8B
:10391000C988014421481438406C81420ED8FE20E9
:103920001E49143908700846B0F84400898F401ABF
:103930001A49143988800846C16B41641748143805
:10394000C06B1649143908640846007848B1184815
:10395000807840F0040016498870022015490870EC
:1039600002E000201349087013A000F0E8F80B49AA
:103970001439087800F05FF9092000F0A3F807492E
:103980001439888800F003F9092000F09BF80349F6
:103990001439888800F09CF800BF69E774030020A0
:1039A0000A7765696768745F73616D706C653A006A
:1039B000540000200000002009675F776569676890
:1039C000742E73746120206368616E67655F646143
:1039D00074613A0920000000F0B502460C4600254B
:1039E00000231AE0002112E052F82170481C52F81E
:1039F0002000874209D952F82160481C52F8200063
:103A000042F82100481C42F82060481CC1B2601EE8
:103A1000C01A8842E8DC581CC3B2A342E2DB02238E
:103A200004E052F823000544581CC3B2A01E98427B
:103A3000F7DC0620B5FBF0F0F0BD2DE9F04780463D
:103A40000525C146AA465046FFF722FE0646002439
:103A50000CE00A2099FBF0F100FB119030550A2090
:103A600099FBF0F01FFA80F9601CC4B2AC42F0DBA5
:103A7000002406E0681E001B305C00B104E0601CFE
:103A8000C4B2E81EA042F5DC00BF274606E0691E6E
:103A9000C91B705C00F0CFF8781CC7B2A81EB842F2
:103AA000F5DC2E2000F00EF8707800F0C4F83078C5
:103AB00000F0C1F8762000F005F83046FFF744FB2F
:103AC000BDE8F08710B504462046FEF7ADFC10BDFA
:103AD000FEB50646374600240BE00A20B7FBF0F19E
:103AE00000FB11700DF804000A20B7FBF0F7601C12
:103AF000C4B20A2CF1DB002407E0C4F109001DF870
:103B0000000000B103E0601CC4B2082CF5DB00BF6C
:103B1000254607E0C5F109011DF8010000F08BF80A
:103B2000681CC5B2092DF5DB2E20FFF7CBFF9DF8F1
:103B3000000000F080F86720FFF7C4FFFEBD10B55D
:103B400004462046FEF7DCFD10BD7CB505462E463A
:103B500000240DE00A2096FBF0F100FB1160C0B2DA
:103B60000DF804000A2096FBF0F086B2601CC4B287
:103B7000052CEFDB002407E0C4F104011DF801006F
:103B800000F059F8601CC4B2052CF5DB7CBDF8B51B
:103B900005462E4669463046FFF74CFC002405E0FA
:103BA0001DF80400FFF78EFF601CC4B2042CF7DB85
:103BB000F8BDFEB505462E4600240BE00A20B6FBF4
:103BC000F0F100FB11600DF804000A20B6FBF0F6DE
:103BD000601CC4B20A2CF1DB002407E0C4F1090127
:103BE0001DF8010000F027F8601CC4B20A2CF5DBB8
:103BF000FEBDF8B505462E4600240DE00A2096FBD2
:103C0000F0F100FB1160C0B20DF804000A2096FB31
:103C1000F0F0C6B2601CC4B2032CEFDB002407E056
:103C2000C4F102011DF8010000F005F8601CC4B2E7
:103C3000032CF5DBF8BD38B5044625466946284611
:103C4000FFF720FC9DF80000302803D09DF800000D
:103C5000FFF738FF9DF80100FFF734FF38BD000083
:103C600010B588B0044601210846FEF7C5F80121C9
:103C70004804FEF7D1F8072202212748FDF71EFE6F
:103C8000072203212448FDF719FE04200690022094
:103C90008DF81C008DF81D0000208DF81E000120FD
:103CA0008DF81F0006A91C48FDF7C6FD08200690E8
:103CB00002208DF81C0006A91748FDF7BDFD26203F
:103CC0008DF8040001208DF8050002208DF8060013
:103CD00001208DF8070001A8FEF746F802940020A5
:103CE000ADF80C00ADF80E00ADF81000ADF8140002
:103CF0000C20ADF8120002A90848FEF791FC012241
:103D000040F225510548FEF765FC63210448FCF7A5
:103D100068FA08B010BD00000000024000440040F6
:103D2000F301002010B588B0044601210220FEF7FF
:103D300063F801218804FEF76FF807220A2127485B
:103D4000FDF7BCFD07220B212448FDF7B7FD4FF41A
:103D50008060069002208DF81C008DF81D00002068
:103D60008DF81E0001208DF81F0006A91B48FDF7E5
:103D700063FD4FF40060069002208DF81C0006A938
:103D80001648FDF759FD27208DF8040001208DF815
:103D900005008DF806008DF8070001A8FDF7E4FF87
:103DA00002940020ADF80C00ADF80E00ADF8100044
:103DB000ADF814000C20ADF8120002A90848FEF777
:103DC0002FFC012240F225510548FEF703FC01219A
:103DD0000348FEF7BCFB08B010BD00000004024021
:103DE0000048004010B588B0044601210846FEF79F
:103DF00003F801218803FEF71FF80722092128484C
:103E0000FDF75CFD07220A212548FDF757FD4FF419
:103E10000070069002208DF81C008DF81D00002017
:103E20008DF81E0001208DF81F0006A91C48FDF723
:103E300003FD4FF48060069002208DF81C0006A957
:103E40001748FDF7F9FC25208DF8040001208DF8B6
:103E5000050003208DF8060001208DF8070001A859
:103E6000FDF782FF02940020ADF80C00ADF80E00C3
:103E7000ADF81000ADF814000C20ADF8120002A946
:103E80000848FEF7CDFB012240F225510548FEF718
:103E9000A1FB01210348FEF75AFB08B010BD00004A
:103EA000000002400038014008B5002003460246E9
:103EB0000121009008A000F095F800F02DF90748C6
:103EC000807820F04000054988700846C07840F0AE
:103ED0004000C87008BD00003032000054000020CF
:103EE00008B500200090084842880023194607A022
:103EF00000F078F800F010F90548807820F02000F4
:103F00000349887008BD00005603002030320000CD
:103F10005400002005480078401C044908700846F9
:103F20000078C82801DD0120087070475C0000207F
:103F300010B51748C07800F08000802800D110BD6F
:103F400014A0FFF7FCFD12498878FFF774FE1048B3
:103F5000807800F0040010B100F0F8F816E00C488A
:103F6000807800F0400010B1FFF79EFF0EE0084897
:103F7000807800F0200010B1FFF7B2FF06E004489F
:103F8000807800F0010008B100F00CF800BFD6E71F
:103F9000540000200A7265706F72745F666C61670E
:103FA0003A00000008B500200346024601210090B7
:103FB00005A000F017F800F0AFF80448807820F072
:103FC00001000249887008BD303100005400002013
:103FD00003480021016041600320014908717047D6
:103FE000540000202DE9F0479AB005460E461746CA
:103FF0009846DDF888900024C8214148FCF7F1F884
:10400000022240A13E48FCF709F9A41C02223EA16D
:104010003B48FCF703F9A41C0F2211A93B48FFF70A
:1040200064FA1E2211A93648FCF7F8F81E34022261
:1040300029463348FCF7F2F8A41C354890F800A054
:1040400019A95046FFF71EFA022219A92C48FCF7BD
:10405000E5F8A41CB24619A95046FFF713FA02224C
:1040600019A92748FCF7DAF8A01CC4B20FA93846F2
:10407000FFF7E0F904220FA92148FCF7CFF8201D33
:10408000C4B20FA94046FFF7D5F904220FA91C4876
:10409000FCF7C4F8201DC4B20FA94846FFF7CAF9BF
:1040A00004220FA91648FCF7B9F8201DC4B20DA8C8
:1040B000FEF782FD062209A90DA8FEF77DFE0C225F
:1040C00002A909A8FFF711FA182202A90C48FCF767
:1040D000A5F804F11800C4B2062269460D48FFF79E
:1040E00004FA062269460648FCF798F8A01DC4B2F7
:1040F000002003490855FFF70DFF1AB0BDE8F0870F
:10410000620200203034000044440000A800002077
:104110005C000020C441000810B50A20FEF784F9B5
:104120000848FEF7EDFA0A20FEF77EF9054906A0D9
:10413000FDF75CF94FF47A70FEF792FEFDF73CF95B
:1041400010BD0000620200203431000008B515A047
:10415000FFF7F5FC17494879FFF74BFD1548407903
:1041600050B91548C0890090134883891348828844
:10417000017813A0FFF736FFFFF7CEFF0D48407917
:10418000401C0C494871084640790979884207D19A
:104190000848807820F004000649887000204871A3
:1041A00008BD00000A7265706F72745F636F756E90
:1041B000743A0000540000202A030020600300200D
:1041C00031320000312E31001F1C1F1E1F1E1F1F09
:1041D0001E1F1E1F1F1D1F1E1F1E1F1F1E1F1E1FF7
:1041E000DDDDDDDDDCBBBBDDDDDDDDDDDDDDDDDD44
:1041F0009888888888888888777777777788888884
:10420000855555566666666666666666666888881B
:104210008333333222222222222222222228888D14
:104220004042000800000020A80000004C270008C1
:10423000E8420008A8000020300900005C270008C0
:104240000000000000000000000000000304060859
:104250000C101820300000000001020304010203CA
:1042600004060708090000000048E80103040608E6
:104270000C101820300000000000000000010203B4
:10428000040607080900000000000000000000000C
:10429000000000000000000000000000010000001D
:1042A0000000303132333435363738396162636477
:1042B0006566000000000000000000000000000033
:1042C0000000000000000000000001006400010088
:1042D000C80001002C010100900101000000000055
:0842E0000000000000000000D6
:04000005080000F5FA
:00000001FF
