:020000040800F2
:10000000D807002009010008B11D0008E11A000806
:10001000AD1D0008651500087527000800000000E8
:1000200000000000000000000000000005200008A3
:10003000A517000800000000411E0008412100082B
:100040002301000823010008230100082301000800
:1000500023010008230100082301000823010008F0
:1000600023010008230100082301000823010008E0
:1000700023010008230100082301000823010008D0
:1000800023010008230100082301000823010008C0
:1000900023010008230100082301000823010008B0
:1000A00023010008230100082301000823010008A0
:1000B00023010008AD2100082922000823010008BF
:1000C0002301000823010008230100082301000880
:1000D0002301000895240008D52400083D250008C8
:1000E0002301000823010008230100082301000860
:1000F00023010008DFF80CD000F002FC00480047A4
:1001000089360008D807002006488047064800477F
:10011000FEE7FEE7FEE7FEE7FEE7FEE7FEE7FEE7B7
:10012000FEE7FEE745210008F500000838B5D0E9F4
:100130000221491E01EB410102EBC1014268C1EB02
:10014000011102EB81010268C1EB011102EB810296
:10015000D0E9043101EB410103EB81013023A1F52A
:10016000527191FBF3F4174D6C4302EBC41291FBF7
:10017000F3F403FB141100921A2902DB124B1A4408
:1001800000920C2291FBF2F3104C6343009C04EBB1
:10019000C313009391FBF2F302FB13110C4A08E026
:1001A000491E40F2A324535C6343009C04EBC31339
:1001B00000930029F4DC0146684600F085FA0098B7
:1001C00038BD00003F0C0F008051010067C20300E2
:1001D0005C400008D2B201E000F8012B491EFBD2BE
:1001E00070470022F6E710B513460A460446194642
:1001F000FFF7F0FF204610BD30B505462A460B46F6
:1002000012F8010B13F8014B08B1A042F8D01CB151
:10021000002802D06D1CF1E7284630BD10B5044619
:1002200000E0401C0378002BFBD100E0401C521E74
:1002300004D311F8013B0370002BF7D100210170AA
:10024000204610BD0FB400B58DB010A909900B90D9
:1002500000914FF0FF300A9000200C900548069066
:10026000054807906A4609A80F9900F087FA0DB073
:100270005DF814FB99070008B70700082DE9FF5F38
:100280001D464FF0FF3BD5E9014691465F464FF0D2
:100290000008A9697F1C01988847296A8246884717
:1002A0000028F6D1BAF1FF3F0CD024F4C064002E30
:1002B00019DD600614D5BAF12B0F09D0BAF12D0F54
:1002C0000ED103E0584604B0BDE8F09F44F48064CA
:1002D000A9697F1C01988847761E8246002E02DDA0
:1002E000BAF1300F03D0B9F1000F26D032E0A9697E
:1002F000761E44F400747F1C019888478246002EC5
:1003000005DDBAF1780F06D0BAF1580F03D0B9F174
:10031000000F10D01EE0B9F1000F02D0B9F1100F9C
:1003200018D1A969761E24F400747F1C01988847AF
:100330008246102002E0082000E00A20814609E001
:1003400008FB0908A969761E44F400747F1C019813
:1003500088478246002E05DD4946504600F0FAF9EE
:100360000028EDDAE96901988847A00502D46FF00A
:100370000100A8E7E00725D1600613D5600502D586
:10038000C8F1000000E0404629680A1D2A6009689B
:10039000220501D5087015E0220701D5088011E07B
:1003A00008600FE02868011D29600068210502D55A
:1003B00080F8008006E0210702D5A0F8008001E067
:1003C000C0F8008038467EE780EA010210B502F0EE
:1003D0000043400022D04A001FD0010E01EB126101
:1003E000C0F35600C2F3560240F4000042F400028B
:1003F000A0FB022000047F39140400D0401C50EA06
:10040000124001D44000491EC2B20C0604EBD010C9
:10041000401C4008802A02D003E0002010BD20F0DC
:100420000100002900DA0020184310BD2DE9FE4F1D
:1004300081EA030404F0004421F0004100944FF0ED
:10044000000B23F0004350EA01045ED052EA03049B
:100450005BD0C3F30A54C1F30A552C44A4F2F3341D
:100460000194A0FB0254C1F3130141F48011C3F3C2
:10047000130343F4801301FB024400FB034E840A80
:10048000970A44EA815447EA8357A4FB0768029518
:100490008D0A05FB07854FEA932C04FB0C542705B6
:1004A000029D4FEA065847EA1637B5EB08056EEB92
:1004B000070C870E920E47EA811742EA8312A7FBC8
:1004C0000201B6EB0B0164EB00042B0D43EA0C3385
:1004D0005E1844EB1C50DA465146E7FB0201C5F3B7
:1004E00013044FEA0B3343EA14534FEA0432019CDE
:1004F00043EA0603A4F10C040294009CCDE900B485
:1005000000F0B0F903B0BDE8F08F00200146F9E734
:100510002DE9F04D81EA030404F0004B21F0004581
:1005200014464FF0000A23F0004150EA050220D0A3
:1005300054EA01021DD0C5F30A570246C5F313035E
:10054000C1F31300C1F30A5640F4801543F480133D
:10055000A7EB0608101BD64608F2FD3873EB050022
:1005600002D308F1010801E092185B41B8F1000FD5
:1005700003DA00200146BDE8F08D00204FF4801121
:10058000064684460EE0171B73EB050705D3121BC6
:1005900063EB050306434CEA010C49084FEA3000BF
:1005A00092185B4150EA0107EDD152EA030012D0E4
:1005B00082EA040083EA0501084305D0101BAB4121
:1005C00006D20122002306E000224FF0004302E0A1
:1005D0006FF0010253101AEB06004CEB085110EBC0
:1005E0000A0041EB0B01BDE8F04D00F02CB90EB54F
:1005F00040F2334102910021CDE900110A460B4639
:1006000000F030F903B000BD20F00040C10DC0F390
:10061000160040F400007F2901DA00207047962977
:1006200003DCC1F19601C840704796398840704795
:10063000C1F30A5210B5C1F3130140F2FF3341F484
:1006400080119A4201DA002010BD40F233439A42F1
:10065000A2F2334203DC524200F01FF810BD90407A
:1006600010BD01F0004330B421F0004150EA010216
:1006700006D00A0DA2F56072C1F31301002A02DC54
:1006800030BC00207047440F44EAC104C100E018A8
:1006900030BC00EBC25000F09FB8202A04DB203AA7
:1006A00021FA02F00021704721FA02F3D040C2F192
:1006B000200291400843194670470000014900F0AC
:1006C00003B80000A803002010B500683C22B0FB6E
:1006D000F2F302FB1303B0FBF2F00B60B0FBF2F39A
:1006E00002FB1303B0FBF2F018224B60B0FBF2F3F5
:1006F00002FB1303B0FBF2F0021D8B600723B2FB79
:10070000F3F403FB1422800040F2B55300F66C3082
:100710008A61B0FBF3F2B0FBF3F403FB1400443244
:1007200080084A61C8613B2802D3920700D0401C70
:100730000022074C13460A61E25C824203D8801A09
:100740005B1C0B61F8E7401CC860084610BD000048
:10075000684000083A2800D2303820F02002412AB0
:1007600001D3A2F13700884201D34FF0FF30704728
:10077000026811441378016018467047D16004493B
:1007800051610449116200211161114600F0DEB887
:100790007107000843090008426842B1016811F876
:1007A000013B23B1521EC0E90012184670470121D7
:1007B000C160881E704742685AB1C368016843B976
:1007C00083688B4205D0491E521CC0E900120020EC
:1007D00070474FF0FF3070470029A8BF7047401C9A
:1007E000490008BF20F00100704710B4B0FA80FC47
:1007F00000FA0CF050EA010404BF10BC704749B184
:10080000CCF1200421FA04F411FA0CF118BF0121F3
:1008100021430843A3EB0C01CB1D4FEA00614FEAD3
:10082000102042BF002010BC704700EBC3501044A2
:100830000029A4BF10BC7047401C490008BF20F02D
:10084000010010BC704710B5141E73F1000408DAE3
:10085000401C41F1000192185B411A4301D120F084
:10086000010010BD2DE9F04D92469B4611B1B1FA41
:1008700081F202E0B0FA80F22032904600F052F8A5
:1008800004460F4640EA0A0041EA0B0153465A4625
:10089000084313D0114653EA010019D0C8F14002B1
:1008A0005046FFF7FAFE05460E4650465946424668
:1008B00000F038F8084305D0012004E0204639460E
:1008C000BDE8F08D0020054346EAE0762C4337432F
:1008D0000A986305E40AA0EB08000022FD0A44EA36
:1008E00047540A3002D500200146E9E701051019F6
:1008F0006941DDE9084500196941BDE8F04DA2E70D
:10090000064C074D06E0E06840F0010394E807005C
:1009100098471034AC42F6D3FFF7F0FBB440000820
:10092000D4400008202A04DB203A00FA02F100201B
:1009300070479140C2F1200320FA03F3194390401D
:100940007047C0B24FF4F05100F096B92DE9F34F63
:100950008BB04FF0000801F10C000C464FF0010B7A
:1009600046460DF1080A01906269012101989047FD
:1009700005002DD0252D2CD0216A8847C0B1626991
:10098000012101989047216A88470028F7D1411E2C
:1009900062690198904700E0761CA1690B9888472E
:1009A000216A88470028F7D1E1690B988847DBE77F
:1009B000A1690B9888470746A84201D1761CD3E766
:1009C000E1690B9888477F1C02D1B8F1000F6FD006
:1009D00046E1002762693D463946019890472A283A
:1009E00004D162690121019890470125DFF88492C2
:1009F0006269012101989047A0F130010A290AD2C9
:100A00004F45E5DC07EB870100EB4107303FDFD4C2
:100A100045F01005ECE7E90601D46FF000476C28BB
:100A20000AD04C2814D0682815D06A280DD0742814
:100A30001CD07A281AD01DE06269012101989047E4
:100A40006C2802D045F0040514E045F002050DE0E5
:100A500045F020050AE06269012101989047682865
:100A600002D045F0080505E045F400656269012102
:100A700001989047C4E9015765283DD019DC5828F2
:100A80007AD00CDC452837D004DC252826D0412834
:100A900031D131E046282FD047282CD12CE05B28DB
:100AA00077D0612828D063287CD0642823D15AE0ED
:100AB000D0E06F2848D008DC66281DD067281BD0FE
:100AC000692821D06E2816D127E0702845D07328D8
:100AD00068D0752847D078280DD14DE0A1690B98D2
:100AE0008847054625283FF469AFE1690B98884798
:100AF0006D1C3FF46AAFB3E023466A466FF0010015
:100B00000B99AFF300809EE045F040006060A807BD
:100B100023464FF0000236D43EE0E8077FF447AFAB
:100B20002068011D21600068290501D506701BE7BA
:100B3000290701D5068017E7A90703D5F117C0E9F2
:100B4000006111E706600FE745F040006060A8070C
:100B500023464FF0080216D41EE040F60E0125EAA7
:100B60000100606016E045F040006060A807234681
:100B70004FF00A0207D40FE045F040006060A8077C
:100B800008D5234610226FF001000B99AFF30080C7
:100B900059E007E0234610226FF001000B99FFF7A0
:100BA0006DFB50E04FF000094F464B46632802D0E2
:100BB0005B2806D040E0E80601D40120A0600127B0
:100BC0003AE062690121019890475E2805D14FF013
:100BD00001096269494601989047216939B90021A4
:100BE0000A46534643F82120491C0829FADBB0B3D2
:100BF000216969B9C11700EBD16253110AEB830176
:100C000022F01F02821A01200B68904003430B6000
:100C100062690121019890475D28E8D1B9F1000F80
:100C200009D00020514651F82020D24341F820201D
:100C3000401C0828F7DB02AB224600976FF001004A
:100C40000B99AFF3008000280CDA401C08D1BBF1EF
:100C5000000F05D04FF0FF300DB0BDE8F08FFFE77B
:100C60004046F9E7E90701D108F1010806444FF0D1
:100C7000000B79E6CCCCCC0C7F2801D9002208E00F
:100C8000064A02EB5002C007127800D1120902F0A6
:100C90000F02012090400840704700007440000897
:100CA00021B1826842F00102826003E0826822F092
:100CB000010282607047000010B504460548844276
:100CC00007D10121401501F0EDF80021601501F078
:100CD000E9F810BD002401400146886D80B27047DC
:100CE0000246002013680B400BB1012000E00020F9
:100CF0007047000030B50246002000235068104CB9
:100D000020400D790C6844EA052420435060906827
:100D10000C4C2040D1E903542C438D682C434D7971
:100D200044EA450420439060106B20F0F8700C7D7D
:100D3000641EE4B2234340EA0350106330BD000058
:100D4000FFFEFFFCFDF7FFC0F0B504460D46002096
:100D500000211D2D11DDE06DA5F11E0606EB4607F5
:100D6000072606FA07F18843A5F11E0606EB46069C
:100D700003FA06F10843E06534E0132D11DDE06865
:100D8000A5F1140606EB4607072606FA07F1884385
:100D9000A5F1140606EB460603FA06F10843E060E7
:100DA00020E0092D11DD2069A5F10A0606EB4607B2
:100DB000072606FA07F18843A5F10A0606EB460660
:100DC00003FA06F1084320610CE0606905EB450772
:100DD000072606FA07F1884305EB450603FA06F1F4
:100DE00008436061072A0FDA206C561E06EB86075F
:100DF0001F2606FA07F18843561E06EB860605FAFB
:100E000006F1084320644AE00D2A0FDAE06BD61F92
:100E100006EB86071F2606FA07F18843D61F06EB66
:100E2000860605FA06F10843E06338E0132A11DA72
:100E3000A06BA2F10D0606EB86071F2606FA07F146
:100E40008843A2F10D0606EB860605FA06F1084373
:100E5000A06324E0192A11DA606BA2F1130606EBF5
:100E600086071F2606FA07F18843A2F1130606EB50
:100E7000860605FA06F10843606310E0206BA2F1D4
:100E8000190606EB86071F2606FA07F18843A2F12A
:100E9000190606EB860605FA06F108432063F0BD45
:100EA000816841F0804181607047000010B5FDA06D
:100EB00001F062FC4FF4967000F076FCFBA1FC4858
:100EC000FFF79AF9FB49086000F05AFC0EE000F0C9
:100ED00057FCF4A001F050FC4FF4967000F064FC55
:100EE000F2A1F348FFF788F9F2490860F148006879
:100EF0000028ECD00120F04981F87200EFA001F049
:100F00003BFC4FF4967000F04FFCEFA1E848FFF770
:100F100073F9E849086000F033FC0EE000F030FCA3
:100F2000E6A001F029FC4FF4967000F03DFCE6A12C
:100F3000DF48FFF761F9DF490860DE4800680028F4
:100F4000ECD0E4A001F018FC4FF4967000F02CFCFB
:100F5000E3A1D748FFF750F9D6490860E2A001F0B5
:100F6000F5FBD448006801F0F1FB00F009FC15E046
:100F700000F006FCD7A001F0FFFB4FF4967000F0E4
:100F800013FCD7A1CA48FFF737F9CA490860D6A0B1
:100F900001F0DCFBC748006801F0D8FBC5480068D9
:100FA0000028E5D0D1A001F0E7FB4FF4967000F0E7
:100FB000FBFBD1A1BE48FFF71FF9BE490860102214
:100FC00008460168891DCE4801F0E8FE00F0D8FB14
:100FD00015E000F0D5FBC5A001F0CEFB4FF49670F4
:100FE00000F0E2FBC4A1B248FFF706F9B14908607E
:100FF000102208460168891DC14801F0CFFEAD48A6
:1010000000680028E5D0BFA001F0B6FB4FF4967051
:1010100000F0CAFBA5A1A648FFF7EEF8A5490860B5
:1010200000F0AEFB0EE000F0ABFBB6A001F0A4FBBD
:101030004FF4967000F0B8FB9CA19D48FFF7DCF8D8
:101040009C4908609B4800680028ECD0B1A001F0E2
:1010500093FB4FF4967000F0A7FBB1A19448FFF703
:10106000CBF89449086000F08BFB0EE000F088FBA1
:10107000A8A001F081FB4FF4967000F095FBA8A1A9
:101080008B48FFF7B9F88B4908608A480068002848
:10109000ECD0A6A001F070FB4FF4967000F084FB3A
:1010A000A5A18348FFF7A8F88249086008460068B0
:1010B000E8B10846006880793038096849793039E4
:1010C00001EB810100EB41007B4908700846007884
:1010D000632808D106E09AA001F038FB4FF496701F
:1010E00000F062FBF7E70420734981F872002BE0FF
:1010F00000F046FB8DA001F03FFB4FF4967000F02E
:1011000053FB8DA16A48FFF777F86A4908600846E3
:101110000068C8B1084600688079303809684979A4
:10112000303901EB810100EB41006349087008464A
:101130000078632808D106E081A001F007FB4FF496
:10114000967000F031FBF7E75A4800680028CFD0CE
:1011500000F016FB81A001F00FFB4FF4967000F039
:1011600023FB81A15248FFF747F85249086081A14B
:101170004F48FFF741F88249086000F001FB14E096
:1011800000F0FEFA75A001F0F7FA4FF4967000F047
:101190000BFB75A14648FFF72FF84649086075A17B
:1011A0004348FFF729F8764908604248006818B9B3
:1011B000734800680028E3D072A001F0DDFA4FF414
:1011C000967000F0F1FA39A13948FFF715F839495E
:1011D000086000F0D5FA0EE000F0D2FA69A001F044
:1011E000CBFA4FF4967000F0DFFA30A13048FFF7E9
:1011F00003F8304908602F48006818B96048006853
:101200000028E9D063A001F0B7FA4FF4967000F01F
:10121000CBFA64A12648FEF7EFFF2649086067A0D5
:1012200001F0AAFA4FF4967000F0BEFA1FA1204810
:10123000FEF7E2FF1F490860002404E000201C497B
:101240000855601CC4B2642CF8DB00F099FA5EA06B
:1012500001F092FA4FF4967000F0A6FA5DA11448DE
:10126000FEF7CAFF134908600EE000F089FA56A0A5
:1012700001F082FA4FF4967000F096FA55A10C48EE
:10128000FEF7BAFF0B4908600A4800680028ECD056
:101290000120524988710748006801F061FC00F0A4
:1012A0006FFA10BD41540D0A000000004F4B0000C2
:1012B0002301002004000020B000002041542B4EE8
:1012C00042414E443F0D0A002B4E42414E443A35B6
:1012D0000000000041542B43494D490D0A00000015
:1012E00034363031310000000D0A000041542B43E8
:1012F00047534E3D310D0A002B4347534E0000002B
:10130000A000002041542B43474154543D310D0A65
:101310000000000041542B43474154543F0D0A0044
:101320002B43474154543A310000000041542B43B1
:1013300053510D0A000000002B43535100000000E0
:10134000D0C5BAC5CBD1CBF7CAA7B0DCA3ACC7EB2D
:10135000B2E9BFB4D4ADD2F2210D0A0041542B43FF
:10136000455245473F0D0A002B43455245473A3009
:101370002C3100002B43455245473A312C310000B7
:101380000800002041542B43455245473D310D0A8A
:101390000000000041542B4E4D5354415455533FCF
:1013A0000D0A00002B4E4D5354415455533A494EAB
:1013B00049495449414C49534544000041542B4E3E
:1013C0004E4D493D320D0A0041542B43434C4B3F97
:1013D0000D0A00002B43434C4B000000800000200E
:1013E00010B507A10848FEF707FF0849086008463E
:1013F000006810B101200649887100F0C1F910BDE4
:101400002B4E4E4D49000000230100200400002017
:101410005400002070B504460D462A46214619A006
:1014200001F0AAF94FF47A7000F0BEF919A11A4838
:10143000FEF7E2FE194908600846006890B929469F
:10144000204600F049F868B915A001F095F94FF46D
:10145000967000F0A9F916A10F48FEF7CDFE0F49CE
:10146000086000BF19A10C48FEF7C6FE0B490860D2
:101470000846006810B101201649887100F080F913
:1014800070BD000041542B4E4D47533D25732C2514
:10149000730D0A004F4B00002301002004000020C0
:1014A00041542B4E4D5354415455533F0D0A0000A7
:1014B0002B4E4D5354415455533A4D4F5F44415474
:1014C000415F454E41424C45440000002B4E4E4D7D
:1014D00049000000540000202DE9F04104460D466B
:1014E0000026002700BF23E02A46214613A001F072
:1014F00043F94FF47A7000F057F914A11448FEF73D
:101500007BFE144908600846006808B1012711E015
:1015100011A10F48FEF770FE0E49086008460068EA
:1015200010B101200E49887100F02AF9701CC6B272
:10153000022ED9DB00BF3846BDE8F08141542B4E66
:101540004D47533D25732C25730D0A004F4B00006A
:1015500023010020040000202B4E4E4D49000000C6
:101560005400002000BFFEE710B566A001F004F9AA
:101570004FF4967000F018F964A16548FEF73CFE40
:101580006449086000F0FCF80EE000F0F9F85DA096
:1015900001F0F2F84FF4967000F006F95BA15C4898
:1015A000FEF72AFE5B4908605A4800680028ECD024
:1015B0000120594981F8720058A001F0DDF84FF47C
:1015C000967000F0F1F858A15148FEF715FE514908
:1015D000086000F0D5F80EE000F0D2F84FA001F05E
:1015E000CBF84FF4967000F0DFF84FA14848FEF7B3
:1015F00003FE48490860474800680028ECD04DA029
:1016000001F0BAF84FF4967000F0CEF84CA14048C3
:10161000FEF7F2FD3F49086000F0B2F80EE000F07E
:10162000AFF844A001F0A8F84FF4967000F0BCF8B1
:1016300043A13748FEF7E0FD3649086035480068A9
:101640000028ECD040A001F097F84FF4967000F01D
:10165000ABF82EA12E48FEF7CFFD2E49086005E01D
:101660002AA12B48FEF7C8FD2A49086029480068CE
:101670000028F5D000F084F836A001F07DF84FF492
:10168000967000F091F821A12148FEF7B5FD21499F
:10169000086005E01DA11E48FEF7AEFD1D4908606B
:1016A0001C4800680028F5D000F06AF831A001F06D
:1016B00063F84FF4FA6000F077F81EA001F05CF8D0
:1016C0004FF4967000F070F81DA11148FEF794FDDC
:1016D0001049086000F054F80EE000F051F815A031
:1016E00001F04AF84FF4967000F05EF814A1084833
:1016F000FEF782FD07490860064800680028ECD024
:1017000010BD000041540D0A000000004F4B0000C6
:101710002301002004000020B000002041542B4E83
:1017200042414E443F0D0A002B4E42414E443A3551
:101730000000000041542B43494D490D0A000000B0
:10174000343630313100000041542B4346554E3D74
:10175000300D0A0041542B4E4344503D3138302E59
:101760003130312E3134372E3131352C3536383356
:101770000D0A000041542B4E52420D0A0000000099
:10178000002004E00021054A1154411CC8B264281D
:10179000F8DB0021024A117070470000230100208D
:1017A0004500002070470000014600200D4A1288C5
:1017B0004A434FF0E0235A6100229A6101221A61E4
:1017C00000BF4FF0E022106900F001021AB100F4EE
:1017D0008032002AF5D000224FF0E0231A619A618E
:1017E000704700004E000020F0B502460B46002175
:1017F00000240025002000BF35E0012606FA01F490
:101800001E6806EA0405A5422CD110684F00032685
:10181000BE40B0431E794F00BE40304310601E7979
:10182000012E02D01E79022E12D190684F0003269D
:10183000BE40B0435E794F00BE4030439060908818
:1018400001268E40B0439E798E40B6B230439080E0
:10185000D0684F000326BE40B043DE794F00BE4043
:101860003043D060491C1029C7D3F0BDF0B5002328
:1018700000244D07ED0E02FA05F3CE1000F120050D
:1018800055F826504E07F70E0F26BE40B543CF1031
:1018900000F1200646F82750CE1000F1200555F83B
:1018A000265045EA0304CE1000F1200545F82640F5
:1018B000F0BD02460020138A0B400BB1012000E06E
:1018C000002070474183704701837047828A4A40F5
:1018D000828270470AB1018300E0418370470000B3
:1018E0002DE9FF5F00F0BAF828498860886CFEF7A0
:1018F0007EFECDE9000125498868FEF778FE804626
:101900000022234BFEF792FD0646224A224BFEF7A9
:10191000FFFD0446DDE90023FEF7FAFD82460022C2
:101920001E4BFEF783FDCDE90201FEF781FE17494C
:10193000C8600A2000F09EFD1449886802F0D6F8BD
:10194000092000F097FD092000F094FD0F49C868B8
:1019500002F07DF812480D4988601248C8600920DD
:1019600000F088FD092000F085FD0849886802F034
:10197000BDF8092000F07EFD092000F07BFD034941
:10198000C86802F064F8BDE8FF9F00005C03002017
:1019900000002440CDCCCCCCCCF4884000408F401B
:1019A0000EF47400E87601002DE9F04786B04FF0A0
:1019B000000A43E000F052F8234908610846006934
:1019C000896888422ED9204800691F498968401AD1
:1019D0001D490861886CFEF70AFE06460F461A4943
:1019E0000869FEF704FE80460022184BFEF71EFD34
:1019F000174A184BCDE90001FEF78AFD32463B46F7
:101A0000CDE90201FEF784FD04460022124BFEF7E9
:101A10000DFDCDE90401FEF70BFE0B49143141F831
:101A20002A0004E000210848143040F82A106420FD
:101A300001F022FA0AF1010000F0FF0ABAF10A0FE0
:101A4000B8DB06B0BDE8F0875C030020000024404E
:101A5000CDCCCCCCCCF4884000408F4070B5002277
:101A600010211E48FFF736FF0024012001F024FA60
:101A700000BF20211948FFF71CFF0028F9D10025DD
:101A800018E0012210211548FFF724FF640001200F
:101A900001F012FA002210211048FFF71BFF20214D
:101AA0000E48FFF706FF00B1641C012001F004FAA4
:101AB000681CC5B2182DE4DB012210210748FFF78E
:101AC00009FF84F40004012001F0F6F9002210213E
:101AD0000248FFF7FFFE204670BD000000000240F4
:101AE00000BFFEE74CF6CC4001490860704700009B
:101AF0000030004010B500F013F810BD70B5054679
:101B00000C4645F2555000F01FF8284600F010F83A
:101B1000204600F013F800F003F8FFF7E3FF70BD74
:101B20004AF6AA20014908607047000000300040D2
:101B3000014948607047000000300040014988605A
:101B40007047000000300040014908607047000005
:101B5000003000401CB50121084600F073F9102048
:101B6000009001208DF8040000208DF8060002206E
:101B70008DF8050069460848FFF736FE20200090E2
:101B800000208DF8040001208DF807006946024806
:101B9000FFF72AFE1CBD0000000002401CB5012119
:101BA000032000F04FF97020009000208DF8040011
:101BB00002208DF8070069460B48FFF715FE4FF429
:101BC0000050009000208DF8040002208DF80700DE
:101BD00069460648FFF708FE0548002101800120FC
:101BE000034948701CBD0000000002400004024090
:101BF0005000002010B55748407800287ED01021B2
:101C00005548FFF756FE012819D020215248FFF70A
:101C100050FE012813D040214F48FFF74AFE01280B
:101C20000DD04FF480514D48FFF743FE012806D0F8
:101C30004FF400514948FFF73CFE01286AD10A20C1
:101C400001F01AF900204349487010214248FFF77B
:101C500030FE01280BD111203E4908704048007821
:101C60000B303F490870612000F004FC4AE020215D
:101C70003948FFF71EFE01280BD122203549087094
:101C8000374800780B3036490870622000F0F2FBCC
:101C900038E040213048FFF70CFE01280BD13320FB
:101CA0002C4908702E4800780B302D4908706320AD
:101CB00000F0E0FB26E04FF480512848FFF7F9FDE3
:101CC00001280BD1552023490870254800780B3096
:101CD00023490870642000F0CDFB13E04FF400515D
:101CE0001E48FFF7E6FD01280CD16620194908704F
:101CF0001B4800780B301A49087000E00AE06520A4
:101D000000F0B8FB16480078422821DB0020144977
:101D100008701DE010211048FFF7CBFDC0B920214D
:101D20000D48FFF7C6FD98B940210B48FFF7C1FDEC
:101D300070B94FF480510948FFF7BBFD40B94FF42B
:101D400000510648FFF7B5FD10B901200149487060
:101D500010BD0000500000200000024000040240BE
:101D6000520000201CB50121022000F06BF8012078
:101D70008DF8040040F20B20009069460A48FFF7F6
:101D800033FD4FF400710848FFF79EFD0821064817
:101D9000FFF79AFD01210448FFF796FD0221024852
:101DA000FFF792FD1CBD00000004024000BFFEE7EB
:101DB0007047000070B5002100230F22C4781CB3C7
:101DC000174C246804F4E064C4F5E064C4F307210C
:101DD000C1F10404E3B20A4144789C40E1B2847842
:101DE000144021430C07210E0E4C057861550478F0
:101DF00004F01F050124AC4005786D11AD0005F11C
:101E0000E025C5F8004109E0047804F01F0501242D
:101E1000AC40054D0678761145F8264070BD0000AF
:101E20000CED00E000E400E080E100E00249014345
:101E3000024A1160704700000000FA050CED00E056
:101E40007047000029B1064A12680243044B1A6029
:101E500004E0034A12688243014B1A607047000095
:101E60001C38024029B1064A12680243044B1A602A
:101E700004E0034A12688243014B1A607047000075
:101E80002438024029B1064A12680243044B1A6002
:101E900004E0034A12688243014B1A607047000055
:101EA0002038024029B1064A12680243044B1A60E6
:101EB00004E0034A12688243014B1A607047000035
:101EC00014380240F0B5002100220023002600242F
:101ED0000025374F3F6807F00C0131B1042912D0BB
:101EE000082913D00C2934D113E0314F3F1F3F682C
:101EF000C7F342356F1C4FF0010C0CFA07FC4FEA98
:101F0000CC37076033E02B4F076030E02A4F076083
:101F10002DE0274F3F6807F47012254F3F6807F404
:101F20004003264F07EB92473A78012707EB93537C
:101F30001F4F3F6807F480362EB91E4F5743B7FB3B
:101F4000F3F7076004E01C4F5743B7FBF3F7076054
:101F50000DE0174F3F1F3F68C7F342356F1C4FF02E
:101F6000010C0CFA07FC4FEACC37076000BF00BF3A
:101F70000F4F3F6807F0F0010909114F7C5C0768BB
:101F8000E74047600A4F3F6807F4E061090A0C4FD9
:101F90007C5C4768E7408760054F3F6807F4605105
:101FA000C90A074F7C5C4768E740C760F0BD000086
:101FB000083802400024F40000127A000C000020CF
:101FC0001500002010B501460022002300204A1110
:101FD000012A02D1074C236802E0064C34342368FE
:101FE00001F01F02012494401C400CB1012000E0CC
:101FF000002010BD00380240014908607047000011
:1020000000004742704700000CB50020019000908E
:102010003E48006840F480303C49086000BF3B48BF
:10202000006800F4003000900198401C0190009876
:1020300018B90198B0F5A04FF1D13448006800F408
:10204000003010B10120009001E0002000900098C5
:10205000012859D12E48006840F004002C4908603E
:102060000846006840F0020008600846006840F03A
:102070000100086025482430006840F08050234962
:1020800024310860C8142349086000BF2148406813
:1020900000F010000028F9D11C48083000681B49E6
:1020A0000831086008460068086008460068086053
:1020B0000846006820F47D0008600846006840F487
:1020C000110008601148006840F080700F490860F6
:1020D00000BF0E48006800F000700028F9D00B48DF
:1020E0000830006820F003000849083108600846FD
:1020F000006840F00300086000BF04480830006832
:1021000000F00C000C28F8D10CBD00000038024093
:10211000003C024000700040042808D14FF0E0214C
:10212000096941F004014FF0E022116107E04FF02E
:10213000E021096921F004014FF0E02211617047AC
:102140007047000010B51548006840F480701349CE
:102150000860124808300068114908400F490831EA
:1021600008600E4800680F4908400C49086008469E
:10217000006820F48020086008480830006820F4D7
:102180007D000649083108600020091D0860FFF73E
:102190003BFF4FF000600449086010BD003802406A
:1021A0000CC0FF88FEFFFEEE08ED00E010B5012137
:1021B000054800F014F928B10121034800F000F9A6
:1021C000FFF718FD10BD0000000400407FB5054674
:1021D0000C4601210220FFF745FE0295ADF80440B0
:1021E0000020ADF80C00ADF8060001A90D4800F084
:1021F00011F9012211460B4800F002F91D208DF85B
:10220000000002208DF8010003208DF8020001205B
:102210008DF803006846FFF7CDFD0021014800F06E
:10222000D2F87FBD0004004010B50121444800F001
:10223000D6F800287ED00121414800F0C1F841487D
:102240000078401C3F4908703F4890F872000978B8
:10225000884219DC00203B4908703C48C07A0228BB
:1022600012D0394890F87200022809DD0821384858
:10227000FFF72AFB4FF400713548FFF727FB03E017
:1022800008213348FFF722FB32488078401C31494F
:10229000887008468078012803DB002088700120C0
:1022A00048702A48C07A02280CD12848407A401C3D
:1022B000264948720846407A3C2803DB00204872D1
:1022C00001208872244890F82800401C224981F897
:1022D0002800084690F82800012805DB002081F836
:1022E0002800012081F829001C480088401C1B4957
:1022F000088008460088B0F5167F0FDB00200880B4
:102300000846807840F00100887001201449487127
:102310001248807840F020001049887010480079F9
:10232000401C0F49087108460079022807DB00208D
:10233000087100E003E008460068401C086010BD1A
:10234000000800404A000020B00000204E0300209A
:10235000000402405C0300202203002054000020FF
:10236000800000207FB505460C4601210420FFF7C0
:1023700079FD0295ADF804400020ADF80C00ADF8F1
:10238000060001A90D4800F045F8012211460B484E
:1023900000F036F81E208DF8000002208DF80100B4
:1023A00001208DF802008DF803006846FFF702FD5A
:1023B0000121024800F007F87FBD0000000800403E
:1023C000CA430282704721B1028842F001020280B2
:1023D00004E002884FF6FE731A400280704730B561
:1023E0000246002000230024158A05EA010395898E
:1023F00005EA010413B10CB1012000E0002030BD5A
:102400001AB183890B43838102E083898B438381E3
:102410007047000000220288B0F1804F08D0104BB6
:10242000984205D00F4B984202D00F4B984204D1EE
:102430004FF68F731A404B881A430C4B984207D0C3
:102440000B4B984204D04FF6FF431A400B891A43B6
:1024500002804B68C3620B88038501238382704727
:102460000004004000080040000C00400010004044
:102470000014004010B5044600BF8021044800F05D
:1024800098F80028F9D02146014800F05AF910BD0B
:102490000038014010B540F225510B4800F096F885
:1024A00080B140F22551084800F068F8064800F075
:1024B00043F9C1B2054802780078401C034B1870FC
:1024C0000348815410BD0000003801404600002040
:1024D0008701002070B540F22551154800F076F8CC
:1024E00028B340F22551124800F048F8114802780C
:1024F0006421114800F010FB90B10D4800F01CF968
:10250000C4B2412C0CDB5A2C0ADC094800F014F947
:10251000C1B208480578681C064A10700648415543
:1025200004480078632802DD00200249087070BD6D
:102530000044004048000020EB01002010B540F2AC
:1025400025510B4800F042F880B140F2255108486F
:1025500000F014F8064800F0EFF8C1B20548027820
:102560000078401C034B18700348815410BD0000D4
:1025700000480040450000202301002010B5002243
:10258000002340F66A14A14200D100BF0A120124C0
:102590009440A3B2DC43048010BD21B1828942F48F
:1025A0000052828104E082894DF6FF731A408281D5
:1025B000704702460020B1F5007F00D100BF1388AC
:1025C0000B400BB1012000E00020704770B50246BF
:1025D000002400230025002040F66A16B14200D1F5
:1025E00000BFC1F3421501F01F03012606FA03F3F1
:1025F000012D02D19689334006E0022D02D1168AC0
:10260000334001E0968A33400C12012606FA04F4A6
:102610001688344013B10CB1012000E0002070BDD9
:10262000F0B50346002400260025002040F66A1776
:10263000B94200D100BF1846C1F3421401F01F0691
:10264000012707FA06F5012C01D10C3004E0022C19
:1026500001D1103000E014301AB107682F43076031
:1026600002E00768AF430760F0BD00002DE9FF47B7
:1026700005460E460024A14600BFA046B08900B121
:1026800000BF2C8A24F44054F08804432C82AC8987
:1026900041F20C608443B088318908437189084352
:1026A0000443AC81AC8A24F44074B0890443AC8206
:1026B0006846FFF707FC1F48854202D1DDF80C9001
:1026C00001E0DDF80890A88900F4004040B109EB72
:1026D000C90000EB091031684900B0FBF1F707E0D1
:1026E00009EBC90000EB091031688900B0FBF1F774
:1026F0006420B7FBF0F004012009642101FB10788D
:10270000A88900F4004040B1322000EBC800B0FBC3
:10271000F1F000F00700044308E0322000EB08105D
:102720006421B0FBF1F000F00F0004432C81BDE800
:10273000FF8700000038014001468888C0F3080088
:102740007047C1F308028280704700000BE000BFB1
:102750000749098801F040010029F9D00178044AAD
:10276000121D1180401C01780029F0D17047000033
:102770000038014000BFFEE70FB4054B10B503A9B8
:10278000044A029800F017F810BC5DF814FB000032
:10279000F13100089C00002002E008C8121F08C1A7
:1027A000002AFAD170477047002001E001C1121FD2
:1027B000002AFBD170472DE9F84F9946924688468A
:1027C0000546002706E025280AD051464A4690478C
:1027D0006D1C7F1C28780028F5D13846BDE8F88F9D
:1027E000002315F8011F18462E2915D115F8011FD1
:1027F00004232A290DD06FF02F022978A1F130048B
:10280000092C09D800EB800002EB400008446D1C45
:10281000F3E758F8040B6D1C2A78002ADDD0632AF0
:1028200007D0732A0FD0104651464A4690477F1C66
:102830002AE018F8042B8DF8002000218DF80110F3
:102840006E46012103E058F8046B4FF0FF315A0740
:102850004FF0000401D409E0641C84420BDA8C427E
:10286000FADB325D002AF7D105E0641C8C42FCDB08
:10287000305D0028F9D1274404E016F8010B5146D9
:102880004A469047641EF8D26D1CA3E710B500219C
:102890000148FEF705FA10BD0024014000B589B0DB
:1028A00001210320FFF7CEFA01214802FFF7EAFADF
:1028B0000120019003208DF8080000208DF80B0006
:1028C00001A91D48FEF790FF4FF4404001900320FE
:1028D0008DF8080000208DF80B0001A91748FEF7BD
:1028E00083FF1748FEF7E8F90120FFF785FB00BFDB
:1028F0002120FFF767FB0028FAD000208DF8100098
:102900008DF811004FF000700390002006900790A2
:1029100001208DF8200003A90948FEF7EBF90121F9
:102920000748FEF7BDF900BF40210548FEF7D8F97A
:102930000028F9D009B000BD0000024000040240A8
:10294000002401402DE9F84F002000901E4908881E
:10295000FDF74DFE80464FF066321C4BFDF766FDDD
:10296000064600221A4BFDF7D3FD044600224FF025
:102970008043FDF75BFD8246FDF773FE009015492D
:102980000098FDF721FD0446FDF73EFE0E49488004
:102990000846408880B90846007B401C08730846FA
:1029A000007B042803DB0846408888800AE006484C
:1029B00080880549488005E00020034908730846DF
:1029C00040888880BDE8F88F4E03002066660A4084
:1029D00000E06F400000C84210B50548807A28B179
:1029E00000F07CF8FFF7AEFF00F010F810BD00001B
:1029F0004E03002010B50E210348FDF7F2FB012025
:102A00000149887210BD00004E0300203148408803
:102A1000B0F5DC7F00DD70472E484088B0F5B97F07
:102A200016DC00202B49887108464088B0F5AF7F3E
:102A30001EDD002008720846C079401CC8710120C4
:102A400088720846C079032812DB0120C8720FE0A3
:102A5000002020490872C87108468079401C88719E
:102A60000120887208468079032801DB0020C872A3
:102A70001848C07A10B1012827D115E0164880788F
:102A800020F08000144988700846C07820F080004B
:102A9000C8700846807820F0400088700846C078EA
:102AA00020F04000C87011E00B48C07820F0800092
:102AB0000949C8700846C07800F0400020B90846AF
:102AC000807840F04000887000E000BF00BF00BF89
:102AD000A1E700004E0300205400002010B50020A4
:102AE0000549088000F092FB0349088008460078F9
:102AF0000880FFF7CBFE10BD4E03002010B505483F
:102B0000407920B100200349487100F047FC00F0F3
:102B100005FC10BD8000002010B503460C46114690
:102B20000AE0585C412802DB585C5A2802DD0A465C
:102B3000012010BD481CC1B2A142F2DB00210AE015
:102B4000585C412802DB585C5A2802DD0A46012005
:102B5000EFE7481CC1B29142F2DB0020E9E7000038
:102B600010B58EB0044600200C900D900A900B908A
:102B7000A41D04A805A906AA07ABCDE90032CDE93A
:102B8000021008AB09AA10A12046FDF75BFB0998CB
:102B900080B2ADF830000898C0B28DF832000798C6
:102BA000C0B28DF833000698C0B28DF83400059895
:102BB000C0B28DF835000498C0B28DF836000CA86C
:102BC00000F05EF80EB010BD253032642F25303293
:102BD000642F253032642C253032643A253032643B
:102BE0003A253032640000001CB5044600200090F5
:102BF0000190684600F018F8BDF80000A0F5FA60F2
:102C000020709DF8020060709DF80300A0709DF890
:102C10000400E0709DF8050020719DF806006071C9
:102C20000020A0711CBD000070B504460F48FDF7E0
:102C300045FD05462878A07128796071287A08300A
:102C40002071287BE070287C401CA070A88A00F2CC
:102C50006C7020802079182190FBF1F201FB1200AA
:102C60002071204600F044F870BD00008000002074
:102C70000248002101604160704700008000002090
:102C800010B50446208800F5FA602080204600F048
:102C900066F80149086010BD8000002010B50024CE
:102CA0000CA0FFF769FD4FF49670FEF77DFD0CA1B7
:102CB0000D48FDF7A1FA0D4908600846006820B1EB
:102CC00008460068FFF74CFF0124FEF759FD204637
:102CD00010BD000041542B43434C4B3F0D0A0000F4
:102CE0002B43434C4B3A00002301002004000020FA
:102CF000F0B5024611889378012B01D0022B04D144
:102D000003F10C00C3B2481E81B25D1C05EB450502
:102D1000052695FBF6F5D678022707FB03663544B2
:102D20000D440846CE1701EB967605EBA605642602
:102D300091FBF6F6AD1B4FF4C87691FBF6F63544E1
:102D4000072695FBF6F706FB1755ECB2601C072526
:102D500090FBF5F605FB1600D071D079F0BD30B5CB
:102D60008BB0044600252C216846FDF73AFA2088EE
:102D7000A0F26C700590A078401E0490E07803905B
:102D80002079029060790190A07900906846FDF763
:102D9000CDF9054628460BB030BD00002DE9F041C5
:102DA00005460F461646002403E0385D2855601C92
:102DB000C4B2B442F9DB0020A85504A0FFF7C6FC5A
:102DC0002846FFF7C3FCBDE8F08100000D0A0000B3
:102DD000F0B504461546002025E0265C0A2796FB40
:102DE000F7F6F2B2265C96FBF7FC07FB1C66F3B223
:102DF000092A04DD02F1370601F8106003E002F150
:102E0000300601F81060092B06DD03F13706F7B232
:102E10004600761C8F5505E003F13006F7B24600F8
:102E2000761C8F55401CA842D7D3002601F81060AD
:102E3000F0BD000010B56FF00400FFF76DF90A480F
:102E400000680A49B0FBF1F00949087008460078AB
:102E500000EB4001C1EBC0104FF6FF7101EAC0006A
:102E60000449088010BD00002800002000127A00EC
:102E70004C0000204E000020014600200D4A128820
:102E80004A434FF0E0235A6100229A6101221A61FD
:102E900000BF4FF0E022106900F001021AB100F407
:102EA0008032002AF5D000224FF0E0231A619A61A7
:102EB000704700004E000020014600200D4A1278A5
:102EC0004A434FF0E0235A6100229A6101221A61BD
:102ED00000BF4FF0E022106900F001021AB100F4C7
:102EE0008032002AF5D000224FF0E0231A619A6167
:102EF000704700004C00002030B5184C031972B622
:102F0000174C184D2C60184C2C6000BF154C083C19
:102F1000246804F00104002CF8D1124C083C246809
:102F200044F480740F4D083D2C6008E002C300BFDC
:102F30000C4C0C34246804F00104002CF8D114006B
:102F4000A2F10105AAB2F1D1064C083C246844F074
:102F50000104044D083D2C6062B630BD0000080835
:102F6000EFCDAB890C3C0240050403020EB54D4980
:102F70004A880888694600F0B5F800282AD0BDF8CC
:102F8000000060B94749088819220021FFF7B4FF03
:102F900044494A880888444900F0D8F80BE0BDF855
:102FA00000004149891FC988884204D0BDF800004B
:102FB0003D49891FC8803DA000F080FDBDF800009C
:102FC00000F082FD3FA000F079FD3749891FC888D5
:102FD00000F07AFD3349CA888888694600F082F893
:102FE00050B3BDF8000060B92E498888192200212D
:102FF000FFF782FF2B49CA888888334900F0A6F87A
:103000000BE0BDF800003049091F0979884204D05F
:10301000BDF800002C49091F08712CA000F04EFDDE
:10302000BDF8000000F050FD26A000F047FD264945
:10303000091F087900F048FD1A494A89088969463C
:1030400000F050F868B3BDF8000068B91549088968
:1030500019220021FFF750FF12494A8908891249B5
:10306000423100F073F80BE0BDF800000E49891FF3
:10307000896C884204D0BDF800000B49891F886420
:1030800015A000F01BFDBDF8000000F01DFD0DA017
:1030900000F014FD0449891FB1F8481088B200F00F
:1030A00013FD0EBD88000020620300200A656570D4
:1030B000726F6D5F696E69742C7765696768743AC1
:1030C0000000000009000000580000200920757071
:1030D0006C6F61643A0000000920666163746F726E
:1030E0003A0000002DE9F041074613460120DFF8C1
:1030F000588007EB08054FF0000C21E02A8835F8CE
:1031000023404FF6FF7808EA430835F82860A242CA
:1031100002D121F8022B0EE0B24202D121F8022B9B
:1031200009E0B44202D121F8024B04E04FF000085C
:1031300021F8028B00202D1D0CF1010808F0FF0C76
:103140009C45DBDBBDE8F08100000808F0B50346D4
:103150000C461646224FDD1972B6224FDFF888C0A2
:10316000CCF80070214FCCF8007000BF1E4F083F14
:103170003F6807F00107002FF8D11B4F083F3F6859
:1031800047F48077DFF860C0ACF1080CCCF8007031
:10319000002015E00C4616460AE034F8027B80C594
:1031A00000BF114F0C373F6807F00107002FF8D11F
:1031B0003700A6F1010C1FFA8CF6EED1471CF8B2CD
:1031C0000328E7DB084F083F3F6847F00107DFF8B7
:1031D00018C0ACF1080CCCF8007062B6F0BD00006D
:1031E00000000808EFCDAB890C3C02400504030247
:1031F00000BF054A128802F04002002AF9D0C2B28C
:10320000014B1B1D1A8070470048004010B5044652
:10321000FFF744FB0723012221460848FDF794FDF0
:103220000648FDF73DFE00BF02210448FDF758FDAA
:103230000028F9D00148FDF74FFD10BD00240140E2
:1032400000B58FB007A808A909AA0AABCDE90232D8
:10325000CDE904100BA80CA9CDE90010214909689B
:10326000881E0DAB0EAA20A1FCF7ECFF0D980528D7
:1032700035D10C98DD2832D12448C0780A9988428B
:1032800001D10FB000BD21490A98C8700B980128E0
:1032900011D11F48C0880999884220D00998F0B1FF
:1032A0001B490998C8801B494A8808881849891D04
:1032B000FFF74CFF13E00B98022810D11648007955
:1032C000099988420BD0099848B1134909980871A7
:1032D0001049CA8888881049091DFFF737FF00BFC9
:1032E000CFE7000004000020253032642C25303266
:1032F00078253032782530327825303278253034D0
:1033000078253034782530347800000050020020D1
:103310005C030020880000205400002010B51448F1
:10332000807900B313A000F0C9FB15A0FFF724FAC1
:103330004FF47A70FFF7A0FD14A11548FCF75CFF6D
:10334000144908600846006828B1FFF779FF032098
:103350001149087004E00020054988710E49087081
:10336000FEF70EFA02E000200B49087010BD0000C5
:10337000540000200A726563656976653A20000092
:1033800041542B4E4D47520D0A0000002C00000006
:103390002301002004000020000000201CB5684626
:1033A000FFF742FC9DF8040038B90648807938B927
:1033B000FFF774FC0349887102E00020014988711D
:1033C0001CBD000080000020F0B50446251200203E
:1033D0001FE02A0905F00F03092A04DD02F1370670
:1033E00001F8106003E002F1300601F81060092BCB
:1033F00006DD03F13706F7B24600761C8F5505E06F
:1034000003F13006F7B24600761C8F55E5B2461C34
:10341000F0B20228DDDBF0BD10B5C31700EB13736B
:103420000A24B4EB231F07DC0246C31700EB137317
:103430001B1137330B7006E00246C31700EB137302
:103440001B1130330B70C31700EB13731B11A0EB70
:1034500003130A2B09DB0246C31700EB13731B117E
:10346000A0EB031337334B7008E00246C31700EBA1
:1034700013731B11A0EB031330334B7010BDF0B569
:103480000446154600201FE0265C3209265C06F043
:103490000F03092A04DD02F1370601F8106003E08A
:1034A00002F1300601F81060092B06DD03F1370642
:1034B000F7B24600761C8F5505E003F13006F7B2EF
:1034C0004600761C8F55401CA842DDD3002601F82B
:1034D0001060F0BD2DE9F04F91B04FF0000A3BE0D5
:1034E000FEF7BCFA834622488068584529D2204816
:1034F0008068ABEB000B1E49886CFDF778F8CDE9CE
:1035000002015846FDF773F880460022194BFCF77C
:103510008DFF0646184A194BFCF7FAFFCDE900016A
:10352000DDE90223FCF7F4FF04460022144BFCF70C
:103530007DFFCDE90401FDF77BF807A941F82A00DA
:1035400003E0002007A941F82A006420FFF794FC5B
:103550000AF1010000F0FF0ABAF10A0FC0DB0A21EC
:1035600007A800F03DFA0690069811B0BDE8F08F6C
:103570005C03002000002440CDCCCCCCCCF48840AF
:1035800000408F401CB501210220FEF75BFC4FF488
:103590008050009000208DF8040001208DF8070075
:1035A00069460248FEF720F91CBD000000040240F5
:1035B0007CB50020009001904FF480512F48FEF719
:1035C00078F9002857D14FF47A70FFF755FC4FF483
:1035D00080512A48FEF76DF9012800D17CBD0121F8
:1035E0002648FEF76FF9FFF775FF0190044600903B
:1035F00001212248FEF768F9002617E0FEF77AFA63
:10360000FFF768FF044603E00094FFF763FF0446FA
:103610000098001DA042F7D3201D00998142F3D8E5
:1036200001983230A04200D202E0761C0A2EE5DB7F
:1036300000BF01211148FEF745F90198A04202D2CE
:103640000198251A01E00198051B0D48806CA842DD
:1036500009D045B10A4885640A494A890889084958
:103660004831FFF773FD4FF47A70FFF705FC012135
:103670000248FEF729F900BFB0E70000000402404D
:103680005C0300208800002000F036F805E0FEF71B
:1036900031FA00F083F800F001F8F8E710B51448AB
:1036A000007830B101280CD002280DD0032819D1A0
:1036B00015E0FFF77DFF00F0B9F801200C49087014
:1036C00014E000F0CFF811E00A48407908B9FFF79C
:1036D00083F900F0A7FB03200549087006E0FFF717
:1036E0000DFA03E000200249087000BF00BF10BDC2
:1036F000000000205400002010B54FF4A060FEF739
:1037000095FBFFF797FBFEF72DFBFEF747FAFFF758
:1037100039FF4FF4165000F0DFFA4FF4165000F066
:1037200019FA4FF4165000F077FA40F67F41C7209F
:10373000FEF74CFD40F67F4141F28730FEF712FE66
:10374000FFF796FAFDF710FFFDF7B0FB00F0A4FBC2
:10375000FFF7A4F8FFF74EF900F07CF800F088F8C6
:10376000FFF704FC06A0FEF7F1FF06A0FEF7EEFF50
:1037700000F08EF840F64E410520FEF7BFF910BD6F
:103780000D0A000056455253494F4E5F595F4D5F39
:10379000443A313931323131000000000348807839
:1037A00010B1022002490870704700005400002048
:1037B000000000200F48808964280DDA0D48C08978
:1037C000642804DA02200B4981F82A0011E0012064
:1037D000084981F82A000CE00648C089642804DA08
:1037E0000120044981F82A0003E00020014981F802
:1037F0002A0070472203002010B500210A48818169
:103800001420FFF703FD084988810846017B818168
:103810000021C1811520FFF7F9FC0349C881084642
:10382000817BC18110BD00002203002010B5084833
:1038300090F82900012809D10020054981F82900C4
:10384000FFF7DAFFFFF722F8FFF7B4FF10BD000023
:103850002203002010B52C210148FCF7C2FC10BD4A
:103860002203002010B5FEF79FF800F01FF810BDEE
:1038700010B5FEF76FF94C210448FCF7B2FC192093
:103880000249C8804FF47A70886410BD5C03002040
:1038900010B5FEF725F84FF47A70FFF7EDFA4FF404
:1038A0007A70FFF7E9FAFEF71BF810BD00B50A21A0
:1038B000484800F095F847491439C863002008705B
:1038C00088800846C16B006C001D814206D84148C3
:1038D0001438016CC06B001D814206D93D48143874
:1038E000C06B3C491439086400BD3A481438C06BB9
:1038F000642812D237481438C078052850DAFD20E1
:103900003449143908700846C078401CC0B2C870E9
:10391000052845DB0520C87042E02E481438C16BED
:10392000406C814223D300202A491439C8700846CC
:10393000406CC988084427491439C96B88422FD87C
:1039400024481438406C20B90020224914390870EA
:1039500003E0FF201F49143908701E481438818F76
:10396000B0F84400081A1B491439888018E0002078
:1039700018491439C8700846C06BC98801441548F5
:103980001438406C81420BD8FE201249143908705B
:103990000846B0F84400898F401A0E4914398880CF
:1039A0000C481438C06B0B49143908640846C16BC5
:1039B0004164007848B10848807840F00400064926
:1039C000887002200549087002E000200349087051
:1039D00000BF89E770030020540000200000002091
:1039E000F0B502460C46002500231AE0002112E043
:1039F00052F82170481C52F82000874209D952F829
:103A00002160481C52F8200042F82100481C42F86E
:103A10002060481CC1B2601EC01A8842E8DC581CF5
:103A2000C3B2A342E2DB022304E052F823000544C0
:103A3000581CC3B2A01E9842F7DC0620B5FBF0F07C
:103A4000F0BD10B504462046FEF714FD10BDFEB5CE
:103A50000646374600240BE00A20B7FBF0F100FBD6
:103A600011700DF804000A20B7FBF0F7601CC4B217
:103A70000A2CF1DB002407E0C4F109001DF8000066
:103A800000B103E0601CC4B2082CF5DB00BF254682
:103A900007E0C5F109011DF8010000F047F8681CB6
:103AA000C5B2092DF5DB2E20FFF7CBFF9DF80000F6
:103AB00000F03CF86720FFF7C4FFFEBD10B50446D8
:103AC0002046FEF743FE10BDF8B505462E46694672
:103AD0003046FFF779FC002405E01DF80400FFF7ED
:103AE000B0FF601CC4B2042CF7DBF8BDFEB5054680
:103AF0002E4600240BE00A20B6FBF0F100FB11601B
:103B00000DF804000A20B6FBF0F6601CC4B20A2CC3
:103B1000F1DB002407E0C4F109011DF8010000F009
:103B200005F8601CC4B20A2CF5DBFEBD38B50446AE
:103B3000254669462846FFF76FFC9DF800003028AF
:103B400003D09DF80000FFF77CFF9DF80100FFF710
:103B500078FF38BD10B588B0044601210846FEF74D
:103B600071F901214804FEF77DF907220221274857
:103B7000FDF77CFE072203212448FDF777FE042091
:103B8000069002208DF81C008DF81D0000208DF895
:103B90001E0001208DF81F0006A91C48FDF724FE19
:103BA0000820069002208DF81C0006A91748FDF792
:103BB0001BFE26208DF8040001208DF80500022050
:103BC0008DF8060001208DF8070001A8FEF7F2F835
:103BD00002940020ADF80C00ADF80E00ADF8100016
:103BE000ADF814000C20ADF8120002A90848FEF749
:103BF0003DFD012240F225510548FEF711FD6321EC
:103C00000448FCF7EEFA08B010BD000000000240C6
:103C100000440040EB01002010B588B004460121AB
:103C20000220FEF70FF901218804FEF71BF9072295
:103C30000A212748FDF71AFE07220B212448FDF729
:103C400015FE4FF48060069002208DF81C008DF860
:103C50001D0000208DF81E0001208DF81F0006A910
:103C60001B48FDF7C1FD4FF40060069002208DF85F
:103C70001C0006A91648FDF7B7FD27208DF80400A3
:103C800001208DF805008DF806008DF8070001A8C9
:103C9000FEF790F802940020ADF80C00ADF80E008D
:103CA000ADF81000ADF814000C20ADF8120002A918
:103CB0000848FEF7DBFC012240F225510548FEF7DB
:103CC000AFFC01210348FEF768FC08B010BD0000FE
:103CD000000402400048004010B588B004460121AD
:103CE0000846FEF7AFF801218803FEF7CBF807225C
:103CF00009212848FDF7BAFD07220A212548FDF7CA
:103D0000B5FD4FF40070069002208DF81C008DF870
:103D10001D0000208DF81E0001208DF81F0006A94F
:103D20001C48FDF761FD4FF48060069002208DF87D
:103D30001C0006A91748FDF757FD25208DF8040043
:103D400001208DF8050003208DF8060001208DF874
:103D5000070001A8FEF72EF802940020ADF80C0031
:103D6000ADF80E00ADF81000ADF814000C20ADF861
:103D7000120002A90848FEF779FC012240F2255101
:103D80000548FEF74DFC01210348FEF706FC08B08C
:103D900010BD0000000002400038014008B50020BE
:103DA000034602460121009008A000F07FF800F0D1
:103DB00017F90748807820F04000054988700846C8
:103DC000C07840F04000C87008BD000030320000EC
:103DD0005400002008B500200090084842880023C5
:103DE000194607A000F062F800F0FAF8054880785C
:103DF00020F020000349887008BD00004E03002019
:103E0000303200005400002005480078401C04496E
:103E1000087008460078C82801DD01200870704746
:103E20005C00002010B51048807800F0040010B14C
:103E300000F0E6F816E00C48807800F0400010B181
:103E4000FFF7ACFF0EE00848807800F0200010B1CA
:103E5000FFF7C0FF06E00448807800F0010008B1D9
:103E600000F004F810BD00005400002008B5002048
:103E7000034602460121009005A000F017F800F06B
:103E8000AFF80448807820F001000249887008BD2E
:103E900030310000540000200348002101604160DF
:103EA0000320014908717047540000202DE9F047B4
:103EB0009AB005460E4617469846DDF888900024CD
:103EC000C8214148FCF78DF9022240A13E48FCF789
:103ED000A5F9A41C02223EA13B48FCF79FF9A41CB3
:103EE0000F2211A93B48FFF7CAFA1E2211A9364832
:103EF000FCF794F91E34022229463348FCF78EF968
:103F0000A41C354890F800A019A95046FFF784FA80
:103F1000022219A92C48FCF781F9A41CB24619A960
:103F20005046FFF779FA022219A92748FCF776F9DB
:103F3000A01CC4B20FA93846FFF746FA04220FA905
:103F40002148FCF76BF9201DC4B20FA94046FFF7CA
:103F50003BFA04220FA91C48FCF760F9201DC4B2EB
:103F60000FA94846FFF730FA04220FA91648FCF7BC
:103F700055F9201DC4B20DA8FEF736FE062209A988
:103F80000DA8FEF725FF0C2202A909A8FFF777FA72
:103F9000182202A90C48FCF741F904F11800C4B238
:103FA000062269460D48FFF76AFA06226946064866
:103FB000FCF734F9A01DC4B2002003490855FFF7EF
:103FC00023FF1AB0BDE8F0875A0200203034000009
:103FD00044440000A00000205C000020584000087D
:103FE00010B5054905A0FDF715FA4FF47A70FEF7F4
:103FF00043FFFDF7F5F910BD5A02002034310000EF
:1040000008B51148407950B91048C08900900F4850
:1040100083890F48828801780EA0FFF747FFFFF7DA
:10402000DFFF09484079401C07494871084640793C
:104030000979884207D10448807820F004000249B9
:1040400088700020487108BD540000202203002021
:104050005C03002031320000312E31001F1C1F1E76
:104060001F1E1F1F1E1F1E1F1F1D1F1E1F1E1F1F67
:104070001E1F1E1FDDDDDDDDDCBBBBDDDDDDDDDDAF
:10408000DDDDDDDD98888888888888887777777790
:10409000778888888555555666666666666666665C
:1040A0006668888883333332222222222222222207
:1040B0002228888DD440000800000020A0000000C5
:1040C0009827000874410008A0000020380700006D
:1040D000A827000800000000000000000000000009
:1040E000030406080C101820300000000001020331
:1040F0000401020304060708090000000048E80163
:10410000030406080C101820300000000000000016
:104110000001020304060708090000000000000077
:10412000000000000000000000000000000000008F
:104130000100000000003031323334353637383971
:10414000616263646566000000000000000000001A
:10415000000000000000000000000000000001005E
:1041600064000100C80001002C0101009001010061
:04417000000000004B
:04000005080000F5FA
:00000001FF
