:020000040800F2
:100000002809002009010008411600089D13000876
:100010003D160008910E00085D1F0008000000005A
:10002000000000000000000000000000751800083B
:10003000D910000800000000D1160008B11900080E
:100040002301000823010008230100082301000800
:1000500023010008230100082301000823010008F0
:1000600023010008230100082301000823010008E0
:1000700023010008230100082301000823010008D0
:1000800023010008230100082301000823010008C0
:1000900023010008230100082301000823010008B0
:1000A00023010008230100082301000823010008A0
:1000B000230100081D1A0008991A000823010008EE
:1000C0002301000823010008230100082301000880
:1000D000230100087D1C0008BD1C0008251D000828
:1000E0002301000823010008230100082301000860
:1000F00023010008DFF80CD000F062FA0048004746
:10010000FF250008280900200648804706480047C8
:10011000FEE7FEE7FEE7FEE7FEE7FEE7FEE7FEE7B7
:10012000FEE7FEE7B5190008F5000008D2B201E0CD
:1001300000F8012B491EFBD270470022F6E710B5EC
:1001400013460A4604461946FFF7F0FF204610BD45
:1001500030B505462A460B4612F8010B13F8014B41
:1001600008B1A042F8D01CB1002802D06D1CF1E704
:10017000284630BD10B5044600E0401C0378002B33
:10018000FBD100E0401C521E04D311F8013B037068
:10019000002BF7D100210170204610BD80EA01023A
:1001A00010B502F00043400022D04A001FD0010EDB
:1001B00001EB1261C0F35600C2F3560240F4000096
:1001C00042F40002A0FB022000047F39140400D096
:1001D000401C50EA124001D44000491EC2B20C0635
:1001E00004EBD010401C4008802A02D003E000201D
:1001F00010BD20F00100002900DA0020184310BDD6
:100200002DE9FE4F81EA030404F0004421F000418F
:1002100000944FF0000B23F0004350EA01045ED03D
:1002200052EA03045BD0C3F30A54C1F30A552C44C9
:10023000A4F2F3340194A0FB0254C1F3130141F47E
:100240008011C3F3130343F4801301FB024400FB4A
:10025000034E840A970A44EA815447EA8357A4FB71
:10026000076802958D0A05FB07854FEA932C04FB6E
:100270000C542705029D4FEA065847EA1637B5EB9E
:1002800008056EEB070C870E920E47EA811742EACB
:100290008312A7FB0201B6EB0B0164EB00042B0DEC
:1002A00043EA0C335E1844EB1C50DA465146E7FB38
:1002B0000201C5F313044FEA0B3343EA14534FEA28
:1002C0000432019C43EA0603A4F10C040294009C4E
:1002D000CDE900B400F026F903B0BDE8F08F0020AE
:1002E0000146F9E72DE9F04D81EA030404F0004BE3
:1002F00021F0004514464FF0000A23F0004150EA77
:10030000050220D054EA01021DD0C5F30A57024667
:10031000C5F31303C1F31300C1F30A5640F480156B
:1003200043F48013A7EB0608101BD64608F2FD38ED
:1003300073EB050002D308F1010801E092185B415C
:10034000B8F1000F03DA00200146BDE8F08D00206F
:100350004FF48011064684460EE0171B73EB050729
:1003600005D3121B63EB050306434CEA010C490855
:100370004FEA300092185B4150EA0107EDD152EA92
:10038000030012D082EA040083EA0501084305D085
:10039000101BAB4106D20122002306E000224FF0E1
:1003A000004302E06FF0010253101AEB06004CEB21
:1003B000085110EB0A0041EB0B01BDE8F04D00F0D5
:1003C000A2B896230022114600F06FB80EB540F295
:1003D000334102910021CDE900110A460B4600F09D
:1003E000A1F803B000BD20F00040C10DC0F316001D
:1003F00040F400007F2901DA00207047962903DCD1
:10040000C1F19601C8407047963988407047C1F3E2
:100410000A5210B5C1F3130140F2FF3341F48011C9
:100420009A4201DA002010BD40F233439A42A2F210
:10043000334203DC524200F01FF810BD904010BD63
:1004400001F0004330B421F0004150EA010206D02F
:100450000A0DA2F56072C1F31301002A02DC30BC60
:1004600000207047440F44EAC104C100E01830BCCA
:1004700000EBC25000F010B8202A04DB203A21FA29
:1004800002F00021704721FA02F3D040C2F12002AD
:1004900091400843194670470029A8BF7047401C87
:1004A000490008BF20F00100704710B4B0FA80FC8A
:1004B00000FA0CF050EA010404BF10BC704749B1C7
:1004C000CCF1200421FA04F411FA0CF118BF012137
:1004D00021430843A3EB0C01CB1D4FEA00614FEA17
:1004E000102042BF002010BC704700EBC3501044E6
:1004F0000029A4BF10BC7047401C490008BF20F071
:10050000010010BC704710B5141E73F1000408DA26
:10051000401C41F1000192185B411A4301D120F0C7
:10052000010010BD2DE9F04D92469B4611B1B1FA84
:1005300081F202E0B0FA80F22032904600F052F8E8
:1005400004460F4640EA0A0041EA0B0153465A4668
:10055000084313D0114653EA010019D0C8F14002F4
:100560005046FFF789FF05460E465046594642461B
:1005700000F038F8084305D0012004E02046394651
:10058000BDE8F08D0020054346EAE0762C43374372
:100590000A986305E40AA0EB08000022FD0A44EA79
:1005A00047540A3002D500200146E9E70105101939
:1005B0006941DDE9084500196941BDE8F04DA2E750
:1005C000064C074D06E0E06840F0010394E80700A0
:1005D00098471034AC42F6D3FFF790FD5C3000082A
:1005E0007C300008202A04DB203A00FA02F10020C7
:1005F00070479140C2F1200320FA03F31943904061
:10060000704721B1826842F00102826003E0826893
:1006100022F00102826070470146886D80B2704707
:100620000246002013680B400BB1012000E00020BF
:100630007047000030B50246002000235068104C7F
:1006400020400D790C6844EA0524204350609068EE
:100650000C4C2040D1E903542C438D682C434D7938
:1006600044EA450420439060106B20F0F8700C7D44
:10067000641EE4B2234340EA0350106330BD00001F
:10068000FFFEFFFCFDF7FFC0F0B504460D4600205D
:1006900000211D2D11DDE06DA5F11E0606EB4607BC
:1006A000072606FA07F18843A5F11E0606EB460663
:1006B00003FA06F10843E06534E0132D11DDE0682C
:1006C000A5F1140606EB4607072606FA07F188434C
:1006D000A5F1140606EB460603FA06F10843E060AE
:1006E00020E0092D11DD2069A5F10A0606EB460779
:1006F000072606FA07F18843A5F10A0606EB460627
:1007000003FA06F1084320610CE0606905EB450738
:10071000072606FA07F1884305EB450603FA06F1BA
:1007200008436061072A0FDA206C561E06EB860725
:100730001F2606FA07F18843561E06EB860605FAC1
:1007400006F1084320644AE00D2A0FDAE06BD61F59
:1007500006EB86071F2606FA07F18843D61F06EB2D
:10076000860605FA06F10843E06338E0132A11DA39
:10077000A06BA2F10D0606EB86071F2606FA07F10D
:100780008843A2F10D0606EB860605FA06F108433A
:10079000A06324E0192A11DA606BA2F1130606EBBC
:1007A00086071F2606FA07F18843A2F1130606EB17
:1007B000860605FA06F10843606310E0206BA2F19B
:1007C000190606EB86071F2606FA07F18843A2F1F1
:1007D000190606EB860605FA06F108432063F0BD0C
:1007E000816841F0804181607047000010B5EAA047
:1007F00001F0B6FB4FF4967000F070FCE8A1E948F8
:10080000FFF7A6FCE849086000F050FC0EE000F09D
:100810004DFCE1A001F0A4FB4FF4967000F05EFCEB
:10082000DFA1E048FFF794FCDF490860DE4800687C
:100830000028ECD00120DD4981F87200DCA001F035
:100840008FFB4FF4967000F049FCDCA1D548FFF710
:100850007FFCD549086000F029FC0EE000F026FC82
:10086000D3A001F07DFB4FF4967000F037FCD3A1CC
:10087000CC48FFF76DFCCC490860CB4800680028E5
:10088000ECD0D1A001F06CFB4FF4967000F026FC88
:10089000D0A1C448FFF75CFCC3490860CFA001F0B9
:1008A00049FBC148006801F045FB00F0FFFB15E083
:1008B00000F0FCFBC4A001F053FB4FF4967000F075
:1008C0000DFCC4A1B748FFF743FCB7490860C3A0BB
:1008D00001F030FBB448006801F02CFBB24800681E
:1008E0000028E5D0BEA001F03BFB4FF4967000F06D
:1008F000F5FBBEA1AB48FFF72BFCAB49086010220B
:1009000008460168891DBB4801F012FD00F0CEFBCE
:1009100015E000F0CBFBB2A001F022FB4FF4967083
:1009200000F0DCFBB1A19F48FFF712FC9E49086074
:10093000102208460168891DAE4801F0F9FC9A486A
:1009400000680028E5D0ACA001F00AFB4FF49670D7
:1009500000F0C4FB92A19348FFF7FAFB92490860AC
:1009600000F0A4FB0EE000F0A1FBA3A001F0F8FA58
:100970004FF4967000F0B2FB89A18A48FFF7E8FBBC
:1009800089490860884800680028ECD09EA001F0E2
:10099000E7FA4FF4967000F0A1FB9EA18148FFF7A3
:1009A000D7FB8149086000F081FB0EE000F07EFB80
:1009B00095A001F0D5FA4FF4967000F08FFB95A149
:1009C0007848FFF7C5FB7849086077480068002839
:1009D000ECD093A001F0C4FA4FF4967000F07EFBC7
:1009E00092A17048FFF7B4FB6F49086008460068A1
:1009F000E8B10846006880793038096849793039AB
:100A000001EB810100EB410068490870084600785D
:100A1000632808D106E087A001F08CFA4FF49670A5
:100A200000F05CFBF7E70420604981F872002BE0DE
:100A300000F03CFB7AA001F093FA4FF4967000F0BE
:100A40004DFB7AA15748FFF783FB574908600846DA
:100A50000068C8B10846006880793038096849796B
:100A6000303901EB810100EB410050490870084624
:100A70000078632808D106E06EA001F05BFA4FF41D
:100A8000967000F02BFBF7E7474800680028CFD0AE
:100A900000F00CFB6EA001F063FA4FF4967000F0CA
:100AA0001DFB6EA13F48FFF753FB3F4908606EA155
:100AB0003C48FFF74DFB6F49086000F0F7FA14E07F
:100AC00000F0F4FA62A001F04BFA4FF4967000F0D7
:100AD00005FB62A13348FFF73BFB3349086062A185
:100AE0003048FFF735FB634908602F48006818B9A4
:100AF000604800680028E3D05FA001F031FA4FF4AD
:100B0000967000F0EBFA26A12648FFF721FB264954
:100B1000086000F0CBFA0EE000F0C8FA56A001F031
:100B20001FFA4FF4967000F0D9FA1DA11D48FFF787
:100B30000FFB1D4908601C48006818B94D48006843
:100B40000028E9D050A001F00BFA4FF4967000F0A5
:100B5000C5FA51A11348FFF7FBFA1349086008468C
:100B6000006810B152A001F0FBF94FF4967000F04C
:100B7000B5FA0BA10B48FFF7EBFA0B49086000240C
:100B800004E0002007490855601CC4B2642CF8DB5F
:100B900000F08CFA10BD000041540D0A0000000066
:100BA0004F4B0000EB0000200400002078000020E4
:100BB00041542B4E42414E443F0D0A002B4E4241C0
:100BC0004E443A350000000041542B43494D490D35
:100BD0000A00000034363031310000000D0A0000F8
:100BE00041542B4347534E3D310D0A002B4347538D
:100BF0004E0000006800002041542B4347415454EC
:100C00003D310D0A0000000041542B43474154542C
:100C10003F0D0A002B43474154543A310000000075
:100C200041542B4353510D0A000000002B435351F4
:100C300000000000D0C5BAC5CBD1CBF7CAA7B0DC45
:100C4000A3ACC7EBB2E9BFB4D4ADD2F2210D0A0018
:100C500041542B43455245473F0D0A002B43455213
:100C600045473A302C3100002B43455245473A3135
:100C70002C3100000800002041542B4345524547C9
:100C80003D310D0A0000000041542B4E4D5354419C
:100C90005455533F0D0A00002B4E4D5354415455AB
:100CA000533A494E49495449414C4953454400003F
:100CB00041542B4E4E4D493D310D0A0010B50CA14B
:100CC0000D48FFF745FA0D4908600846006868B10D
:100CD0000BA001F02FF900F0E9F9002404E0002056
:100CE00005490855601CC4B2642CF8DB10BD000037
:100CF0002B4E4E4D493A0000EB000020040000202E
:100D000052454345495645202B4E494D49204F4BAE
:100D1000210D0A0070B504460D462A46214619A049
:100D200001F01EF94FF47A7000F0D8F919A11A48B1
:100D3000FFF70EFA194908600846006828B118A0A4
:100D400001F0F8F800F0B2F919E02946204600F069
:100D50004DF8A0B916A001F003F94FF4967000F019
:100D6000BDF917A10C48FFF7F3F90C4908600846D4
:100D7000006810B119A001F0DDF800F097F900F05B
:100D800095F970BD41542B4E4D47533D25732C258D
:100D9000730D0A004F4B0000EB0000200400002000
:100DA00053454E442044415441204F4B210D0A00ED
:100DB00041542B4E4D5354415455533F0D0A00009E
:100DC0002B4E4D5354415455533A4D4F5F4441546B
:100DD000415F454E41424C4544000000436F6E6EFA
:100DE000656374204F4B210D0A0000002DE9F0418E
:100DF00005460E460027002427E017A001F09AF8C8
:100E000004F13101C8B200F029FF15A001F092F8F9
:100E10003246294613A001F0A3F84FF47A7000F08F
:100E20005DF914A11448FFF793F9144908600846C6
:100E3000006830B112A001F07DF800F037F9012709
:100E400005E000F033F9601CC4B2032CD5DB00BF11
:100E50003846BDE8F08100007265747279090000BF
:100E60000D0A000041542B4E4D47533D25732C2550
:100E7000730D0A004F4B0000EB000020040000201F
:100E800053454E442044415441204F4B210D0A000C
:100E900000BFFEE710B566A001F062F84FF496704F
:100EA00000F01CF964A16548FFF752F96449086035
:100EB00000F0FCF80EE000F0F9F85DA001F050F849
:100EC0004FF4967000F00AF95BA15C48FFF740F917
:100ED0005B4908605A4800680028ECD00120594955
:100EE00081F8720058A001F03BF84FF4967000F0C2
:100EF000F5F858A15148FFF72BF95149086000F067
:100F0000D5F80EE000F0D2F84FA001F029F84FF428
:100F1000967000F0E3F84FA14848FFF719F94849E7
:100F20000860474800680028ECD04DA001F018F890
:100F30004FF4967000F0D2F84CA14048FFF708F942
:100F40003F49086000F0B2F80EE000F0AFF844A0AE
:100F500001F006F84FF4967000F0C0F843A137484E
:100F6000FFF7F6F836490860354800680028ECD0ED
:100F700040A000F0F5FF4FF4967000F0AFF82EA1FE
:100F80002E48FFF7E5F82E49086005E02AA12B4816
:100F9000FFF7DEF82A490860294800680028F5D0E4
:100FA00000F084F836A000F0DBFF4FF4967000F0FC
:100FB00095F821A12148FFF7CBF82149086005E009
:100FC0001DA11E48FFF7C4F81D4908601C480068B1
:100FD0000028F5D000F06AF831A000F0C1FF4FF40E
:100FE000FA6000F07BF81EA000F0BAFF4FF4967094
:100FF00000F074F81DA11148FFF7AAF81049086025
:1010000000F054F80EE000F051F815A000F0A8FF31
:101010004FF4967000F062F814A10848FFF798F8B2
:1010200007490860064800680028ECD010BD0000A1
:1010300041540D0A000000004F4B0000EB0000205F
:10104000040000207800002041542B4E42414E44C1
:101050003F0D0A002B4E42414E443A35000000003D
:1010600041542B43494D490D0A00000034363031BC
:101070003100000041542B4346554E3D300D0A00CF
:1010800041542B4E4344503D3138302E3130312EB7
:101090003134372E3131352C353638330D0A0000D6
:1010A00041542B4E52420D0A0000000010B5084872
:1010B00000F040FF002404E0002005490855601CB2
:1010C000C4B2642CF8DB00200249087010BD000097
:1010D000EB00002045000020704700000146002082
:1010E0000D4A12884A434FF0E0235A6100229A6168
:1010F00001221A6100BF4FF0E022106900F00102E6
:101100001AB100F48032002AF5D000224FF0E0231B
:101110001A619A61704700004E000020F0B5024647
:101120000B46002100240025002000BF35E00126E9
:1011300006FA01F41E6806EA0405A5422CD11068DF
:101140004F000326BE40B0431E794F00BE403043DF
:1011500010601E79012E02D01E79022E12D19068E5
:101160004F000326BE40B0435E794F00BE4030437F
:101170009060908801268E40B0439E798E40B6B232
:1011800030439080D0684F000326BE40B043DE79E4
:101190004F00BE403043D060491C1029C7D3F0BD7A
:1011A000F0B5002300244D07ED0E02FA05F3CE1032
:1011B00000F1200555F826504E07F70E0F26BE40C9
:1011C000B543CF1000F1200646F82750CE1000F1AD
:1011D000200555F8265045EA0304CE1000F12005FD
:1011E00045F82640F0BD02460020138A0B400BB1A3
:1011F000012000E00020704701837047828A4A4046
:10120000828270470AB1018300E041837047000089
:101210002DE9F04100F080F81F498860896801EBF2
:1012200081014800FFF7D2F806461C4A1C4BFFF725
:1012300059F80446FFF7EBF81749C8600A2000F098
:101240000DFD1549886801F0C0FC092000F006FD7D
:10125000092000F003FD1049C86801F045FC114861
:101260000D49886046F63C60C860092000F0F6FC35
:10127000092000F0F3FC0849886801F0A6FC092069
:1012800000F0ECFC092000F0E9FC0349C86801F01B
:101290002BFCBDE8F0810000B40200209A999999D6
:1012A0009934A340C1DB69002DE9F041002429E015
:1012B00000F032F8154908610846006989688842DB
:1012C00019D91248006911498968401A0F49086103
:1012D000096901EB81014800FFF778F807460C4ADD
:1012E0000C4BFEF7FFFF0546FFF791F80749143155
:1012F00041F8240004E000210448143040F8241090
:10130000601CC4B2142CD3DBBDE8F081B402002011
:101310009A9999999934A34070B5002210211E48DA
:10132000FFF770FF0024012001F05EF800BF2021CC
:101330001948FFF758FF0028F9D1002518E00122CD
:1013400010211548FFF75EFF6400012001F04CF802
:10135000002210211048FFF755FF20210E48FFF70B
:1013600042FF00B1641C012001F03EF8681CC5B2C8
:10137000182DE4DB012210210748FFF743FF84F416
:101380000004012001F030F8002210210248FFF78C
:1013900039FF204670BD00000000024000BFFEE79C
:1013A00010B500F001F810BD4AF6AA200149086006
:1013B00070470000003000401CB50121084600F0D5
:1013C00089F91020009001208DF8040000208DF88C
:1013D000060002208DF8050069460848FFF79EFECA
:1013E0002020009000208DF8040001208DF80700D7
:1013F00069460248FFF792FE1CBD00000000024053
:101400001CB50121032000F065F970200090002038
:101410008DF8040002208DF8070069460B48FFF79D
:101420007DFE4FF44050009000208DF80400022013
:101430008DF8070069460648FFF770FE0548002151
:1014400001800120034948701CBD000000000240DB
:10145000000402405000002010B557484078002892
:101460007ED010215548FFF7BEFE012819D020215B
:101470005248FFF7B8FE012813D040214F48FFF72C
:10148000B2FE01280DD04FF480514D48FFF7ABFE5E
:10149000012806D04FF400514948FFF7A4FE012867
:1014A0006AD10A2000F080FF0020434948701021D3
:1014B0004248FFF798FE01280BD111203E490870E1
:1014C000404800780B303F490870612000F0C6FBAF
:1014D0004AE020213948FFF786FE01280BD122205F
:1014E00035490870374800780B303649087062205B
:1014F00000F0B4FB38E040213048FFF774FE0128CB
:101500000BD133202C4908702E4800780B302D4920
:101510000870632000F0A2FB26E04FF480512848B9
:10152000FFF761FE01280BD155202349087025489B
:1015300000780B3023490870642000F08FFB13E023
:101540004FF400511E48FFF74EFE01280CD16620D3
:10155000194908701B4800780B301A49087000E0E0
:101560000AE0652000F07AFB16480078422821DB6B
:101570000020144908701DE010211048FFF733FEC9
:10158000C0B920210D48FFF72EFE98B940210B4825
:10159000FFF729FE70B94FF480510948FFF723FE89
:1015A00040B94FF400510648FFF71DFE10B9012065
:1015B0000149487010BD00005000002000000240AA
:1015C00000040240520000201CB50121022000F05E
:1015D00081F801208DF8040040F20B20009069464C
:1015E0000A48FFF79BFD4FF400710848FFF704FE1F
:1015F00008210648FFF700FE01210448FFF7FCFD23
:1016000002210248FFF7F8FD1CBD00000004024063
:1016100010B54FF400710848FFF7EEFD08210648A9
:10162000FFF7EAFD01210448FFF7E6FD0221024829
:10163000FFF7E2FD10BD00000004024000BFFEE71E
:101640007047000070B5002100230F22C4781CB33E
:10165000174C246804F4E064C4F5E064C4F3072183
:10166000C1F10404E3B20A4144789C40E1B28478B9
:10167000144021430C07210E0E4C05786155047867
:1016800004F01F050124AC4005786D11AD0005F193
:10169000E025C5F8004109E0047804F01F050124A5
:1016A000AC40054D0678761145F8264070BD000027
:1016B0000CED00E000E400E080E100E002490143BD
:1016C000024A1160704700000000FA050CED00E0CE
:1016D0007047000029B1064A12680243044B1A60A1
:1016E00004E0034A12688243014B1A60704700000D
:1016F0001C38024029B1064A12680243044B1A60A2
:1017000004E0034A12688243014B1A6070470000EC
:101710002438024029B1064A12680243044B1A6079
:1017200004E0034A12688243014B1A6070470000CC
:1017300020380240F0B500210022002300260024BA
:101740000025374F3F6807F00C0131B1042912D052
:10175000082913D00C2934D113E0314F3F1F3F68C3
:10176000C7F342356F1C4FF0010C0CFA07FC4FEA2F
:10177000CC37076033E02B4F076030E02A4F07601B
:101780002DE0274F3F6807F47012254F3F6807F49C
:101790004003264F07EB92473A78012707EB935314
:1017A0001F4F3F6807F480362EB91E4F5743B7FBD3
:1017B000F3F7076004E01C4F5743B7FBF3F70760EC
:1017C0000DE0174F3F1F3F68C7F342356F1C4FF0C6
:1017D000010C0CFA07FC4FEACC37076000BF00BFD2
:1017E0000F4F3F6807F0F0010909114F7C5C076853
:1017F000E74047600A4F3F6807F4E061090A0C4F71
:101800007C5C4768E7408760054F3F6807F460519C
:10181000C90A074F7C5C4768E740C760F0BD00001D
:10182000083802400024F40000127A000C00002066
:101830001500002010B501460022002300204A11A7
:10184000012A02D1074C236802E0064C3434236895
:1018500001F01F02012494401C400CB1012000E063
:10186000002010BD003802400149086070470000A8
:1018700000004742704700000CB500200190009026
:101880003E48006840F480303C49086000BF3B4857
:10189000006800F4003000900198401C019000980E
:1018A00018B90198B0F5A04FF1D13448006800F4A0
:1018B000003010B10120009001E00020009000985D
:1018C000012859D12E48006840F004002C490860D6
:1018D0000846006840F0020008600846006840F0D2
:1018E0000100086025482430006840F080502349FA
:1018F00024310860C8142349086000BF21484068AB
:1019000000F010000028F9D11C48083000681B497D
:1019100008310860084600680860084600680860EA
:101920000846006820F47D0008600846006840F41E
:10193000110008601148006840F080700F4908608D
:1019400000BF0E48006800F000700028F9D00B4876
:101950000830006820F00300084908310860084694
:10196000006840F00300086000BF044808300068C9
:1019700000F00C000C28F8D10CBD0000003802402B
:10198000003C024000700040042808D14FF0E021E4
:10199000096941F004014FF0E022116107E04FF0C6
:1019A000E021096921F004014FF0E0221161704744
:1019B0007047000010B51548006840F48070134966
:1019C0000860124808300068114908400F49083182
:1019D00008600E4800680F4908400C490860084636
:1019E000006820F48020086008480830006820F46F
:1019F0007D000649083108600020091D0860FFF7D6
:101A00003BFF4FF000600449086010BD0038024001
:101A10000CC0FF88FEFFFEEE08ED00E010B50121CE
:101A2000054800F0D0F828B10121034800F0BCF8C7
:101A3000FFF712FD10BD0000000400407FB5054611
:101A40000C4601210220FFF755FE0295ADF8044037
:101A50000020ADF80C00ADF8060001A90D4800F01B
:101A6000CDF8012211460B4800F0BEF81D208DF87C
:101A7000000002208DF8010003208DF802000120F3
:101A80008DF803006846FFF7DDFD0021014800F0F6
:101A90008EF87FBD0004004010B50121254800F0FC
:101AA00092F8002844D00121224800F07DF8224815
:101AB0000078401C20490870204890F8720009788E
:101AC000884215DC00201C4908701C4890F8720000
:101AD000022809DD08211A48FFF78EFB4FF4007138
:101AE0001748FFF78BFB03E008211548FFF786FB3B
:101AF000144890F82800401C124981F82800084634
:101B000090F82800012805DB002081F8280001203A
:101B100081F829000C480088401C0B4908800846C1
:101B20000088B0F5167F03DB002008800120887054
:101B300010BD0000000800404A000020780000208E
:101B4000000402407C020020540000207FB50546BE
:101B50000C4601210420FFF7CDFD0295ADF80440AD
:101B60000020ADF80C00ADF8060001A90D4800F00A
:101B700045F8012211460B4800F036F81E208DF87A
:101B8000000002208DF8010001208DF802008DF880
:101B900003006846FFF756FD0121024800F007F8F0
:101BA0007FBD000000080040CA430282704721B197
:101BB000028842F00102028004E002884FF6FE73C0
:101BC0001A400280704730B50246002000230024EE
:101BD000158A05EA0103958905EA010413B10CB1E0
:101BE000012000E0002030BD1AB183890B438381BE
:101BF00002E083898B4383817047000000220288C2
:101C0000B0F1804F08D0104B984205D00F4B98424E
:101C100002D00F4B984204D14FF68F731A404B8875
:101C20001A430C4B984207D00B4B984204D04FF606
:101C3000FF431A400B891A4302804B68C3620B882A
:101C400003850123838270470004004000080040A0
:101C5000000C0040001000400014004010B5044685
:101C600000BF8021044800F098F80028F9D02146F0
:101C7000014800F05AF910BD0038014010B540F29B
:101C800025510B4800F096F880B140F225510848E4
:101C900000F068F8064800F043F9C1B20548027840
:101CA0000078401C034B18700348815410BD00009D
:101CB00000380140460000204F01002070B540F27E
:101CC0002551154800F076F828B340F22551124806
:101CD00000F048F8114802786421114800F004FB34
:101CE00090B10D4800F01CF9C4B2412C0CDB5A2C09
:101CF0000ADC094800F014F9C1B208480578681CEC
:101D0000064A10700648415504480078632802DDF1
:101D100000200249087070BD0044004048000020C7
:101D2000B301002010B540F225510B4800F042F8F5
:101D300080B140F22551084800F014F8064800F040
:101D4000EFF8C1B2054802780078401C034B1870C8
:101D50000348815410BD00000048004045000020A9
:101D6000EB00002010B50022002340F66A14A142C7
:101D700000D100BF0A1201249440A3B2DC430480C6
:101D800010BD21B1828942F40052828104E082892F
:101D90004DF6FF731A408281704702460020B1F56C
:101DA000007F00D100BF13880B400BB1012000E081
:101DB0000020704770B50246002400230025002053
:101DC00040F66A16B14200D100BFC1F3421501F0DE
:101DD0001F03012606FA03F3012D02D19689334031
:101DE00006E0022D02D1168A334001E0968A334084
:101DF0000C12012606FA04F41688344013B10CB113
:101E0000012000E0002070BDF0B50346002400264C
:101E10000025002040F66A17B94200D100BF1846DD
:101E2000C1F3421401F01F06012707FA06F5012C41
:101E300001D10C3004E0022C01D1103000E014304C
:101E40001AB107682F43076002E00768AF430760D5
:101E5000F0BD00002DE9FF4705460E460024A146CF
:101E600000BFA046B08900B100BF2C8A24F44054C2
:101E7000F08804432C82AC8941F20C608443B08822
:101E800031890843718908430443AC81AC8A24F446
:101E90004074B0890443AC826846FFF74BFC1F488E
:101EA000854202D1DDF80C9001E0DDF80890A889A8
:101EB00000F4004040B109EBC90000EB09103168A3
:101EC0004900B0FBF1F707E009EBC90000EB09108E
:101ED00031688900B0FBF1F76420B7FBF0F0040132
:101EE0002009642101FB1078A88900F4004040B16A
:101EF000322000EBC800B0FBF1F000F00700044313
:101F000008E0322000EB08106421B0FBF1F000F093
:101F10000F0004432C81BDE8FF870000003801401A
:101F200001468888C0F308007047C1F30802828028
:101F3000704700000BE000BF0749098801F040012D
:101F40000029F9D00178044A121D1180401C017843
:101F50000029F0D1704700000038014000BFFEE7C3
:101F60000FB4054B10B503A9044A029800F017F806
:101F700010BC5DF814FB0000292400085C00002060
:101F800002E008C8121F08C1002AFAD17047704742
:101F9000002001E001C1121F002AFBD170472DE98A
:101FA000F84F9946924688460546002706E02528C0
:101FB0000AD051464A4690476D1C7F1C287800285D
:101FC000F5D13846BDE8F88F002315F8011F1846F3
:101FD0002E2915D115F8011F04232A290DD06FF0E1
:101FE0002F022978A1F13004092C09D800EB8000D8
:101FF00002EB400008446D1CF3E758F8040B6D1C1D
:102000002A78002ADDD0632A07D0732A0FD0104621
:1020100051464A4690477F1C2AE018F8042B8DF859
:10202000002000218DF801106E46012103E058F8D0
:10203000046B4FF0FF315A074FF0000401D409E060
:10204000641C84420BDA8C42FADB325D002AF7D141
:1020500005E0641C8C42FCDB305D0028F9D127448C
:1020600004E016F8010B51464A469047641EF8D228
:102070006D1CA3E700B589B001210320FFF72AFBFF
:1020800001214802FFF746FB0120019003208DF853
:10209000080000208DF80B0001A91C48FFF73EF84E
:1020A0004FF44040019003208DF8080000208DF887
:1020B0000B0001A91648FFF731F80120FFF7D4FB08
:1020C00000BF2120FFF7B6FB0028FAD000208DF8D2
:1020D00010008DF811004FF0007003900020069062
:1020E000079001208DF8200003A90A48FEF7A2FA04
:1020F00001210848FEF785FA00BF40210548FEF798
:102100008FFA0028F9D009B000BD0000000002409D
:1021100000040240002401402DE9F84F1B490888C3
:10212000FEF74FF9009019490888FEF74FF98046ED
:102130004FF06632164BFEF763F806460022154B49
:10214000FEF7D0F8044600224FF08043FEF758F81F
:102150008246FEF775F900900F490098FEF71EF8C9
:102160000446FEF740F909494880092000F0B6FC12
:102170000649488800F06DFC092000F0AFFC0349D7
:10218000488800F0EEFCBDE8F88F0000A8020020AF
:1021900066660A4000E06F400000C84210B50020AB
:1021A0000449887100F082F8FFF7B6FF00F010F8DC
:1021B00010BD0000A8020020044800210160416019
:1021C000816001200149887170470000A802002049
:1021D00010B534484088B0F5B97F22DC0020314981
:1021E000C87108464088B0F5AF7F0CDC0846407ADD
:1021F000401C48720846407A032820DB022088727F
:10220000FFF706FA1BE00020264948720846007ACC
:10221000401C08720846007A032810DB01208872EF
:102220000DE000201F49487208720846C079401C22
:10223000C8710846C079032801DB0020887219485C
:10224000807A20B1012821D0022828D115E0164833
:10225000807820F02000144988700846C07820F06B
:102260002000C8700846807820F01000887008466A
:10227000C07820F01000C87012E00B48C07800F061
:10228000200010B920200849887009E00648C0786D
:1022900000F0100010B910200349887000E000BF62
:1022A00000BF10BDA80200205400002010B500207F
:1022B00008490880032100F005F90649088008460E
:1022C0000078088004A000F046FC0249088800F06D
:1022D0006AFC10BDA80200200A6261745F73616D20
:1022E000706C653A0000000010B503460C461146BC
:1022F0000AE0585C412802DB585C5A2802DD0A4695
:10230000012010BD481CC1B2A142F2DB00210AE04D
:10231000585C412802DB585C5A2802DD0A4601203D
:10232000EFE7481CC1B29142F2DB0020E9E7000070
:102330002DE9F04105460F461646002403E0385DBE
:102340002855601CC4B2B442F9DB0020A85504A093
:10235000FFF7F0FD2846FFF7EDFDBDE8F081000036
:102360000D0A000010B56FF00400FFF70DFB0A48DE
:1023700000680A49B0FBF1F0094908700846007886
:1023800000EB4001C1EBC0104FF6FF7101EAC00045
:102390000449088010BD00002800002000127A00C7
:1023A0004C0000204E000020014600200D4A1288FB
:1023B0004A434FF0E0235A6100229A6101221A61D8
:1023C00000BF4FF0E022106900F001021AB100F4E2
:1023D0008032002AF5D000224FF0E0231A619A6182
:1023E000704700004E000020014600200D4A127880
:1023F0004A434FF0E0235A6100229A6101221A6198
:1024000000BF4FF0E022106900F001021AB100F4A1
:102410008032002AF5D000224FF0E0231A619A6141
:10242000704700004C00002000BF054A128802F0EF
:102430004002002AF9D0C2B2014B1B1D1A8070471E
:102440000048004010B5002821D0114B0022001F89
:10245000196803E0814203D80A4649680029F9D186
:1024600052B11368841A9C4204D100681844106069
:10247000104602E0506000E0186039B102680B1AA3
:10248000934203D10B681A4402604968416010BD51
:102490006000002010B504460023012221460848B0
:1024A000FEF7F2F80648FEF79BF900BF0221044848
:1024B000FEF7B6F80028F9D00148FEF7ADF810BDD8
:1024C000002401402DE9F04107460C460025002676
:1024D00008E03846FFF7DEFF0544C820FFF784FF19
:1024E000701CC6B2A642F4DBB5FBF4F080B2BDE8C6
:1024F000F081F0B50446251200201FE02A0905F0FE
:102500000F03092A04DD02F1370601F8106003E029
:1025100002F1300601F81060092B06DD03F13706E1
:10252000F7B24600761C8F5505E003F13006F7B28E
:102530004600761C8F55E5B2461CF0B20228DDDB62
:10254000F0BD10B5C31700EB13730A24B4EB231FBF
:1025500007DC0246C31700EB13731B1137330B70F4
:1025600006E00246C31700EB13731B1130330B70E8
:10257000C31700EB13731B11A0EB03130A2B09DB2A
:102580000246C31700EB13731B11A0EB0313373381
:102590004B7008E00246C31700EB13731B11A0EB4E
:1025A000031330334B7010BDF0B5044615460020C0
:1025B0001FE0265C3209265C06F00F03092A04DDC1
:1025C00002F1370601F8106003E002F1300601F86D
:1025D0001060092B06DD03F13706F7B24600761CC2
:1025E0008F5505E003F13006F7B24600761C8F5593
:1025F000401CA842DDD3002601F81060F0BD00F0B9
:1026000029F805E0FEF7CCFE00F06CF800F002F8C7
:10261000F8E7000010B50E48007820B1012805D079
:1026200002280ED105E000F0D3F80EE000F0EAF841
:102630000BE0FFF7B3FD00F02FFC00200449087009
:1026400003E000200249087000BF00BF10BD000079
:102650000000002010B54FF4A060FFF72FF8FFF73F
:1026600081FEFEF7B1FFFEF7CBFE4FF4165000F0EF
:10267000A3FB4FF4165000F0DDFA4FF4165000F0B3
:102680003BFB40F67F41C720FFF7D8F940F67F417A
:1026900041F28730FFF75AFAFEF7FCFBFEF7A6F887
:1026A00000F05EFCFFF7E6FCFFF786FD00F0A2F805
:1026B00000F0AEF804A0FFF73DFC04A0FFF73AFCE1
:1026C00000F0B0F810BD00000D0A0000564552534E
:1026D000494F4E5F595F4D5F443A313931313037A0
:1026E000000000000348807810B102200249087001
:1026F000704700005400002000000020F0B50B30AF
:10270000154D20F007010024144A0FE003688B42A6
:102710000BD38B4205D95E1A43184768C3E900679B
:1027200000E04368136002C004E0021D1068002846
:10273000ECD12046002802D1286808B10020F0BD65
:10274000064A07481060074A121A22F00702C0E939
:10275000002401202860D7E76400002060000020EA
:102760002C030020280500200748C089012804DD2B
:102770000020054981F82A0005E00120024981F87E
:102780002A000249087070477C02002000000020E7
:1027900010B500210948C18103211520FFF792FEE1
:1027A0000649C8810846817BC18105A000F0D3F9A4
:1027B0000249C88900F0D5F910BD00007C02002054
:1027C0000A70726573735F73616D706C653A0000B7
:1027D00010B5074890F82900012807D100200449C6
:1027E00081F82900FFF7D4FFFFF7BEFF10BD0000FE
:1027F0007C02002010B52C210148FDF79EFC10BD85
:102800007C02002010B5FEF74FFD00F019F810BD56
:1028100010B5FEF7D1FD70210148FDF78EFC10BD0B
:10282000B402002010B5FEF7F3FC4FF47A70FFF706
:10283000BBFD4FF47A70FFF7B7FDFEF7E9FC10BD62
:1028400010B514215B4800F0D3F85A491439486692
:1028500059A000F080F957491439486E00F044F946
:10286000002054491439087088800846416E806EF3
:10287000001D814206D84F481438816E406E001DFD
:10288000814206D94B481438406E4A49143988664B
:1028900010BD48481438406E642816D24548143894
:1028A000C078052856DAFD204249143908700846D8
:1028B000C078401CC0B2C870052801DB0520C87074
:1028C0003C481438416EC16644E03A481438416EC1
:1028D000C06E814224D3002036491439C87008469E
:1028E000416EC06E1930814234D332481438C06E04
:1028F00020B900202F491439087003E0FF202D492A
:10290000143908702B481438B0F86410B0F86C0013
:10291000081A2849143988800846416EC16619E0B2
:10292000002024491439C8700846C16E406E193021
:1029300081420FD3FE201F49143908700846B0F8B1
:102940006C00B1F86410401A1A491439888008469E
:10295000416EC16617481438406E164914398866AE
:102960000846007848B11848807840F004001649BD
:10297000887002201549087002E000201349087091
:1029800013A000F0E8F80B491439087800F03DF97D
:10299000092000F0A3F807491439888800F003F9EA
:1029A000092000F09BF803491439888800F09CF84E
:1029B00000BF6DE7C80200200A7765696768745F29
:1029C00073616D706C653A005400002000000020B7
:1029D00009675F7765696768742E73746120206387
:1029E00068616E67655F646174613A092000000088
:1029F000F0B502460C46002500231AE0002112E043
:102A000052F82170481C52F82000874209D952F828
:102A10002160481C52F8200042F82100481C42F86E
:102A20002060481CC1B2601EC01A8842E8DC581CF5
:102A3000C3B2A342E2DB052304E052F823000544BD
:102A4000581CC3B2601F9842F7DC0A20B5FBF0F0B7
:102A5000F0BD2DE9F04780460525C146AA465046FF
:102A6000FFF74CFE064600240CE00A2099FBF0F12B
:102A700000FB119030550A2099FBF0F01FFA80F905
:102A8000601CC4B2AC42F0DB002406E0681E001BF0
:102A9000305C00B104E0601CC4B2E81EA042F5DC6A
:102AA00000BF274606E0691EC91B705C00F0ADF848
:102AB000781CC7B2A81EB842F5DC2E2000F00EF834
:102AC000707800F0A2F8307800F09FF8762000F0DF
:102AD00005F83046FFF7B6FCBDE8F08710B50446B0
:102AE0002046FFF7BBF810BDFEB50646374600246A
:102AF0000BE00A20B7FBF0F100FB11700DF80400A9
:102B00000A20B7FBF0F7601CC4B20A2CF1DB0024EA
:102B100007E0C4F109001DF8000000B103E0601CEB
:102B2000C4B2082CF5DB00BF254607E0C5F109015A
:102B30001DF8010000F069F8681CC5B2092DF5DB2D
:102B40002E20FFF7CBFF9DF8000000F05EF8672015
:102B5000FFF7C4FFFEBD10B504462046FFF7EAF9B3
:102B600010BD7CB505462E4600240DE00A2096FBDC
:102B7000F0F100FB1160C0B20DF804000A2096FBD2
:102B8000F0F086B2601CC4B2052CEFDB002407E035
:102B9000C4F104011DF8010000F037F8601CC4B254
:102BA000052CF5DB7CBDF8B505462E46694630465A
:102BB000FFF79FFC002405E01DF80400FFF78EFFDF
:102BC000601CC4B2042CF7DBF8BDFEB505462E46EA
:102BD00000240BE00A20B6FBF0F100FB11600DF8B9
:102BE00004000A20B6FBF0F6601CC4B20A2CF1DB2C
:102BF000002407E0C4F109011DF8010000F005F808
:102C0000601CC4B20A2CF5DBFEBD38B5044625466F
:102C100069462846FFF795FC9DF80000302803D050
:102C20009DF80000FFF75AFF9DF80100FFF756FFDF
:102C300038BD000010B588B0044601210846FEF7F3
:102C400049FD01214804FEF755FD072202212748CE
:102C5000FEF7A6FA072203212448FEF7A1FA042072
:102C6000069002208DF81C008DF81D0000208DF8C4
:102C70001E0001208DF81F0006A91C48FEF74EFA21
:102C80000820069002208DF81C0006A91748FEF7C0
:102C900045FA26208DF8040001208DF80500022059
:102CA0008DF8060001208DF8070001A8FEF7CAFC88
:102CB00002940020ADF80C00ADF80E00ADF8100045
:102CC000ADF814000C20ADF8120002A90848FFF777
:102CD000C1F8012240F225510548FFF795F863211C
:102CE0000448FDF72AFA08B010BD000000000240B9
:102CF00000440040B301002010B588B00446012113
:102D00000220FEF7E7FC01218804FEF7F3FC07220E
:102D10000A212748FEF744FA07220B212448FEF730
:102D20003FFA4FF48060069002208DF81C008DF869
:102D30001D0000208DF81E0001208DF81F0006A93F
:102D40001B48FEF7EBF94FF40060069002208DF867
:102D50001C0006A91648FEF7E1F927208DF80400AB
:102D600001208DF805008DF806008DF8070001A8F8
:102D7000FEF768FC02940020ADF80C00ADF80E00E0
:102D8000ADF81000ADF814000C20ADF8120002A947
:102D90000848FFF75FF8012240F225510548FFF788
:102DA00033F801210348FEF7ECFF08B010BD000026
:102DB000000402400048004010B588B004460121DC
:102DC0000846FEF787FC01218803FEF7A3FC0722D3
:102DD00009212848FEF7E4F907220A212548FEF7D1
:102DE000DFF94FF40070069002208DF81C008DF87A
:102DF0001D0000208DF81E0001208DF81F0006A97F
:102E00001C48FEF78BF94FF48060069002208DF885
:102E10001C0006A91748FEF781F925208DF804004B
:102E200001208DF8050003208DF8060001208DF8A3
:102E3000070001A8FEF706FC02940020ADF80C0084
:102E4000ADF80E00ADF81000ADF814000C20ADF890
:102E5000120002A90848FEF7FDFF012240F22551A9
:102E60000548FEF7D1FF01210348FEF78AFF08B0AD
:102E700010BD000000000240003801400548007805
:102E8000401C0449087008460078C82801DD01206C
:102E9000087070475800002010B52C48807800F06A
:102EA000200030B12948C07840F020002749C87080
:102EB00009E02648807800F0100020B12348C0784F
:102EC00000432249C8702248807A022800D110BDF0
:102ED0001E48807800F0010060B11C48807820F026
:102EE00001001A498870002201211AA000F03EF862
:102EF00000F0A4F81548807800F0020028B11348CB
:102F0000807820F00200114988701048807800F025
:102F1000040068B10D48807820F004000B498870E7
:102F20000D48828801780DA000F020F800F086F8A6
:102F30000648807800F0080028B10448807820F026
:102F400008000249887000BFC1E70000540000205B
:102F5000A802002030310000B4020020313200000D
:102F60000148002101607047540000202DE9F04124
:102F70008CB005460E461746002464212A48FDF70A
:102F8000DCF8022229A12848FDF7F4F8A41C02224B
:102F900027A12548FDF7EEF8A41C0F2203A9254818
:102FA000FFF702FB1E2203A91F48FDF7E3F81E34BA
:102FB000022229461C48FDF7DDF8A41C1E4890F8A3
:102FC00000800BA94046FFF7BCFA02220BA9164865
:102FD000FDF7D0F8A41CB0460BA94046FFF7B1FAA4
:102FE00002220BA91048FDF7C5F8A01CC4B201A924
:102FF0003846FFF77EFA042201A90B48FDF7BAF81C
:10300000201DC4B2002008490855FFF737FF0A20E9
:10301000FEF724FE0448FEF78DFF0A20FEF71EFE91
:103020000CB0BDE8F0810000170200203034000031
:1030300044440000680000205800002010B50549F5
:1030400005A0FDF767FE4FF47A70FFF7ADF9FDF7C5
:1030500035FE10BD17020020323200007C3000081F
:103060000000002068000000801F0008E430000815
:1030700068000020C0080000901F00080000000049
:103080000000000000000000030406080C101820D7
:1030900030000000000102030401020304060708D7
:1030A000090000000048E801030406080C1018207D
:1030B00030000000000000000001020304060708C1
:1030C00009000000000000000000000000000000F7
:1030D00000000000010000000000000000000000EF
:0430E00000000000EC
:04000005080000F5FA
:00000001FF
