:020000040800F2
:100000004009002009010008911600089513000816
:100010008D160008890E0008AD1F000800000000C2
:10002000000000000000000000000000C5180008EB
:10003000D11000080000000021170008011A000874
:100040002301000823010008230100082301000800
:1000500023010008230100082301000823010008F0
:1000600023010008230100082301000823010008E0
:1000700023010008230100082301000823010008D0
:1000800023010008230100082301000823010008C0
:1000900023010008230100082301000823010008B0
:1000A00023010008230100082301000823010008A0
:1000B000230100086D1A0008E91A0008230100084E
:1000C0002301000823010008230100082301000880
:1000D00023010008CD1C00080D1D0008751D000837
:1000E0002301000823010008230100082301000860
:1000F00023010008DFF80CD000F062FA0048004746
:100100001728000840090020064880470648004795
:10011000FEE7FEE7FEE7FEE7FEE7FEE7FEE7FEE7B7
:10012000FEE7FEE7051A0008F5000008D2B201E07C
:1001300000F8012B491EFBD270470022F6E710B5EC
:1001400013460A4604461946FFF7F0FF204610BD45
:1001500030B505462A460B4612F8010B13F8014B41
:1001600008B1A042F8D01CB1002802D06D1CF1E704
:10017000284630BD10B5044600E0401C0378002B33
:10018000FBD100E0401C521E04D311F8013B037068
:10019000002BF7D100210170204610BD80EA01023A
:1001A00010B502F00043400022D04A001FD0010EDB
:1001B00001EB1261C0F35600C2F3560240F4000096
:1001C00042F40002A0FB022000047F39140400D096
:1001D000401C50EA124001D44000491EC2B20C0635
:1001E00004EBD010401C4008802A02D003E000201D
:1001F00010BD20F00100002900DA0020184310BDD6
:100200002DE9FE4F81EA030404F0004421F000418F
:1002100000944FF0000B23F0004350EA01045ED03D
:1002200052EA03045BD0C3F30A54C1F30A552C44C9
:10023000A4F2F3340194A0FB0254C1F3130141F47E
:100240008011C3F3130343F4801301FB024400FB4A
:10025000034E840A970A44EA815447EA8357A4FB71
:10026000076802958D0A05FB07854FEA932C04FB6E
:100270000C542705029D4FEA065847EA1637B5EB9E
:1002800008056EEB070C870E920E47EA811742EACB
:100290008312A7FB0201B6EB0B0164EB00042B0DEC
:1002A00043EA0C335E1844EB1C50DA465146E7FB38
:1002B0000201C5F313044FEA0B3343EA14534FEA28
:1002C0000432019C43EA0603A4F10C040294009C4E
:1002D000CDE900B400F026F903B0BDE8F08F0020AE
:1002E0000146F9E72DE9F04D81EA030404F0004BE3
:1002F00021F0004514464FF0000A23F0004150EA77
:10030000050220D054EA01021DD0C5F30A57024667
:10031000C5F31303C1F31300C1F30A5640F480156B
:1003200043F48013A7EB0608101BD64608F2FD38ED
:1003300073EB050002D308F1010801E092185B415C
:10034000B8F1000F03DA00200146BDE8F08D00206F
:100350004FF48011064684460EE0171B73EB050729
:1003600005D3121B63EB050306434CEA010C490855
:100370004FEA300092185B4150EA0107EDD152EA92
:10038000030012D082EA040083EA0501084305D085
:10039000101BAB4106D20122002306E000224FF0E1
:1003A000004302E06FF0010253101AEB06004CEB21
:1003B000085110EB0A0041EB0B01BDE8F04D00F0D5
:1003C000A2B896230022114600F06FB80EB540F295
:1003D000334102910021CDE900110A460B4600F09D
:1003E000A1F803B000BD20F00040C10DC0F316001D
:1003F00040F400007F2901DA00207047962903DCD1
:10040000C1F19601C8407047963988407047C1F3E2
:100410000A5210B5C1F3130140F2FF3341F48011C9
:100420009A4201DA002010BD40F233439A42A2F210
:10043000334203DC524200F01FF810BD904010BD63
:1004400001F0004330B421F0004150EA010206D02F
:100450000A0DA2F56072C1F31301002A02DC30BC60
:1004600000207047440F44EAC104C100E01830BCCA
:1004700000EBC25000F010B8202A04DB203A21FA29
:1004800002F00021704721FA02F3D040C2F12002AD
:1004900091400843194670470029A8BF7047401C87
:1004A000490008BF20F00100704710B4B0FA80FC8A
:1004B00000FA0CF050EA010404BF10BC704749B1C7
:1004C000CCF1200421FA04F411FA0CF118BF012137
:1004D00021430843A3EB0C01CB1D4FEA00614FEA17
:1004E000102042BF002010BC704700EBC3501044E6
:1004F0000029A4BF10BC7047401C490008BF20F071
:10050000010010BC704710B5141E73F1000408DA26
:10051000401C41F1000192185B411A4301D120F0C7
:10052000010010BD2DE9F04D92469B4611B1B1FA84
:1005300081F202E0B0FA80F22032904600F052F8E8
:1005400004460F4640EA0A0041EA0B0153465A4668
:10055000084313D0114653EA010019D0C8F14002F4
:100560005046FFF789FF05460E465046594642461B
:1005700000F038F8084305D0012004E02046394651
:10058000BDE8F08D0020054346EAE0762C43374372
:100590000A986305E40AA0EB08000022FD0A44EA79
:1005A00047540A3002D500200146E9E70105101939
:1005B0006941DDE9084500196941BDE8F04DA2E750
:1005C000064C074D06E0E06840F0010394E80700A0
:1005D00098471034AC42F6D3FFF790FD94320008F0
:1005E000B4320008202A04DB203A00FA02F100208D
:1005F00070479140C2F1200320FA03F31943904061
:10060000704721B1826842F00102826003E0826893
:1006100022F00102826070470146886D80B2704707
:100620000246002013680B400BB1012000E00020BF
:100630007047000030B50246002000235068104C7F
:1006400020400D790C6844EA0524204350609068EE
:100650000C4C2040D1E903542C438D682C434D7938
:1006600044EA450420439060106B20F0F8700C7D44
:10067000641EE4B2234340EA0350106330BD00001F
:10068000FFFEFFFCFDF7FFC0F0B504460D4600205D
:1006900000211D2D11DDE06DA5F11E0606EB4607BC
:1006A000072606FA07F18843A5F11E0606EB460663
:1006B00003FA06F10843E06534E0132D11DDE0682C
:1006C000A5F1140606EB4607072606FA07F188434C
:1006D000A5F1140606EB460603FA06F10843E060AE
:1006E00020E0092D11DD2069A5F10A0606EB460779
:1006F000072606FA07F18843A5F10A0606EB460627
:1007000003FA06F1084320610CE0606905EB450738
:10071000072606FA07F1884305EB450603FA06F1BA
:1007200008436061072A0FDA206C561E06EB860725
:100730001F2606FA07F18843561E06EB860605FAC1
:1007400006F1084320644AE00D2A0FDAE06BD61F59
:1007500006EB86071F2606FA07F18843D61F06EB2D
:10076000860605FA06F10843E06338E0132A11DA39
:10077000A06BA2F10D0606EB86071F2606FA07F10D
:100780008843A2F10D0606EB860605FA06F108433A
:10079000A06324E0192A11DA606BA2F1130606EBBC
:1007A00086071F2606FA07F18843A2F1130606EB17
:1007B000860605FA06F10843606310E0206BA2F19B
:1007C000190606EB86071F2606FA07F18843A2F1F1
:1007D000190606EB860605FA06F108432063F0BD0C
:1007E000816841F0804181607047000010B5E8A049
:1007F00001F0DEFB4FF4967000F06CFCE6A1E748D8
:10080000FFF7A6FCE649086000F04CFC0EE000F0A3
:1008100049FCDFA001F0CCFB4FF4967000F05AFCCD
:10082000DDA1DE48FFF794FCDD490860DC48006884
:100830000028ECD00120DB4981F87200DAA001F039
:10084000B7FB4FF4967000F045FCDAA1D348FFF7F0
:100850007FFCD349086000F025FC0EE000F022FC8C
:10086000D1A001F0A5FB4FF4967000F033FCD1A1AC
:10087000CA48FFF76DFCCA490860C94800680028EB
:10088000ECD0CFA001F094FB4FF4967000F022FC66
:10089000CEA1C248FFF75CFCC1490860CDA001F0C1
:1008A00071FBBF48006801F06DFB00F0FBFB15E039
:1008B00000F0F8FBC2A001F07BFB4FF4967000F053
:1008C00009FCC2A1B548FFF743FCB5490860C1A0C7
:1008D00001F058FBB248006801F054FBB0480068D2
:1008E0000028E5D0BCA001F063FB4FF4967000F047
:1008F000F1FBBCA1A948FFF72BFCA9490860102215
:1009000008460168891DB94801F038FD00F0CAFBAE
:1009100015E000F0C7FBB0A001F04AFB4FF4967061
:1009200000F0D8FBAFA19D48FFF712FC9C4908607E
:10093000102208460168891DAC4801F01FFD984847
:1009400000680028E5D0AAA001F032FB4FF49670B1
:1009500000F0C0FB90A19148FFF7FAFB90490860B6
:1009600000F0A0FB0EE000F09DFBA1A001F020FB39
:100970004FF4967000F0AEFB87A18848FFF7E8FBC4
:1009800087490860864800680028ECD09CA001F0E8
:100990000FFB4FF4967000F09DFB9CA17F48FFF782
:1009A000D7FB7F49086000F07DFB0EE000F07AFB8A
:1009B00093A001F0FDFA4FF4967000F08BFB93A129
:1009C0007648FFF7C5FB764908607548006800283F
:1009D000ECD091A001F0ECFA4FF4967000F07AFBA5
:1009E00090A16E48FFF7B4FB6D49086008460068A7
:1009F000E8B10846006880793038096849793039AB
:100A000001EB810100EB410066490870084600785F
:100A1000632808D106E085A001F0B4FA4FF496707F
:100A200000F058FBF7E704205E4981F872002BE0E4
:100A300000F038FB78A001F0BBFA4FF4967000F09C
:100A400049FB78A15548FFF783FB554908600846E4
:100A50000068C8B10846006880793038096849796B
:100A6000303901EB810100EB41004E490870084626
:100A70000078632808D106E06CA001F083FA4FF4F7
:100A8000967000F027FBF7E7454800680028CFD0B4
:100A900000F008FB6CA001F08BFA4FF4967000F0A8
:100AA00019FB6CA13D48FFF753FB3D4908606CA161
:100AB0003A48FFF74DFB6D49086000F0F3FA14E087
:100AC00000F0F0FA60A001F073FA4FF4967000F0B5
:100AD00001FB60A13148FFF73BFB3149086060A191
:100AE0002E48FFF735FB614908602D48006818B9AA
:100AF0005E4800680028E3D05DA001F059FA4FF489
:100B0000967000F0E7FA24A12448FFF721FB24495E
:100B1000086000F0C7FA0EE000F0C4FA54A001F03B
:100B200047FA4FF4967000F0D5FA1BA11B48FFF767
:100B30000FFB1B4908601A48006818B94B48006849
:100B40000028E9D04EA001F033FA4FF4967000F07F
:100B5000C1FA4FA11148FFF7FBFA1149086052A0F2
:100B600001F026FA4FF4967000F0B4FA0AA10B488F
:100B7000FFF7EEFA0A490860002404E00020074964
:100B80000855601CC4B2642CF8DB00F08BFA10BD71
:100B900041540D0A000000004F4B000013010020DB
:100BA00004000020A000002041542B4E42414E443E
:100BB0003F0D0A002B4E42414E443A3500000000E2
:100BC00041542B43494D490D0A0000003436303161
:100BD000310000000D0A000041542B4347534E3DA5
:100BE000310D0A002B4347534E00000090000020B7
:100BF00041542B43474154543D310D0A000000003D
:100C000041542B43474154543F0D0A002B43474165
:100C100054543A310000000041542B4353510D0A03
:100C2000000000002B43535100000000D0C5BAC59E
:100C3000CBD1CBF7CAA7B0DCA3ACC7EBB2E9BFB44A
:100C4000D4ADD2F2210D0A0041542B434552454701
:100C50003F0D0A002B43455245473A302C310000E6
:100C60002B43455245473A312C3100000800002003
:100C700041542B43455245473D310D0A00000000C9
:100C800041542B4E4D5354415455533F0D0A0000CF
:100C90002B4E4D5354415455533A494E49495449AA
:100CA000414C49534544000041542B4E4E4D493D63
:100CB000310D0A0010B50CA10D48FFF749FA0D4996
:100CC00008600846006868B10BA001F05BF900F00D
:100CD000E9F9002404E0002005490855601CC4B26D
:100CE000642CF8DB10BD00002B4E4E4D493A00003D
:100CF0001301002004000020524543454956452079
:100D00002B4E494D49204F4B210D0A0070B504462A
:100D10000D462A46214619A001F04AF94FF47A708F
:100D200000F0D8F919A11A48FFF712FA194908601A
:100D30000846006828B118A001F024F900F0B2F9C3
:100D400019E02946204600F04DF8A0B916A001F0A0
:100D50002FF94FF4967000F0BDF917A10C48FFF77A
:100D6000F7F90C4908600846006810B119A001F0B5
:100D700009F900F097F900F095F970BD41542B4E38
:100D80004D47533D25732C25730D0A004F4B000032
:100D9000130100200400002053454E4420444154D8
:100DA00041204F4B210D0A0041542B4E4D535441CD
:100DB0005455533F0D0A00002B4E4D53544154558A
:100DC000533A4D4F5F444154415F454E41424C457B
:100DD00044000000436F6E6E656374204F4B210D1D
:100DE0000A0000002DE9F04105460E4600270024C8
:100DF00027E017A001F0C6F804F13101C8B200F0F5
:100E000055FF15A001F0BEF83246294613A001F0A7
:100E1000CFF84FF47A7000F05DF914A11448FFF791
:100E200097F9144908600846006830B112A001F033
:100E3000A9F800F037F9012705E000F033F9601C4C
:100E4000C4B2032CD5DB00BF3846BDE8F0810000FA
:100E500072657472790900000D0A000041542B4E2E
:100E60004D47533D25732C25730D0A004F4B000051
:100E7000130100200400002053454E4420444154F7
:100E800041204F4B210D0A0000BFFEE710B566A0C0
:100E900001F08EF84FF4967000F01CF964A16548DB
:100EA000FFF756F96449086000F0FCF80EE000F026
:100EB000F9F85DA001F07CF84FF4967000F00AF9A3
:100EC0005BA15C48FFF744F95B4908605A48006839
:100ED0000028ECD00120594981F8720058A001F097
:100EE00067F84FF4967000F0F5F858A15148FFF7F5
:100EF0002FF95149086000F0D5F80EE000F0D2F863
:100F00004FA001F055F84FF4967000F0E3F84FA1B0
:100F10004848FFF71DF9484908604748006800281D
:100F2000ECD04DA001F044F84FF4967000F0D2F8E8
:100F30004CA14048FFF70CF93F49086000F0B2F8B7
:100F40000EE000F0AFF844A001F032F84FF49670D4
:100F500000F0C0F843A13748FFF7FAF836490860B7
:100F6000354800680028ECD040A001F021F84FF48B
:100F7000967000F0AFF82EA12E48FFF7E9F82E4941
:100F8000086005E02AA12B48FFF7E2F82A4908602B
:100F9000294800680028F5D000F084F836A001F058
:100FA00007F84FF4967000F095F821A12148FFF75B
:100FB000CFF82149086005E01DA11E48FFF7C8F8D9
:100FC0001D4908601C4800680028F5D000F06AF848
:100FD00031A000F0EDFF4FF4FA6000F07BF81EA0A6
:100FE00000F0E6FF4FF4967000F074F81DA1114870
:100FF000FFF7AEF81049086000F054F80EE000F07A
:1010000051F815A000F0D4FF4FF4967000F062F88C
:1010100014A10848FFF79CF80749086006480068D3
:101020000028ECD010BD000041540D0A0000000063
:101030004F4B00001301002004000020A0000020FE
:1010400041542B4E42414E443F0D0A002B4E42412B
:101050004E443A350000000041542B43494D490DA0
:101060000A000000343630313100000041542B4377
:1010700046554E3D300D0A0041542B4E4344503DE1
:101080003138302E3130312E3134372E3131352C4C
:10109000353638330D0A000041542B4E52420D0AAA
:1010A0000000000010B5084800F06CFF002404E0C8
:1010B000002005490855601CC4B2642CF8DB0020F0
:1010C0000249087010BD00001301002045000020F7
:1010D00070470000014600200D4A12884A434FF035
:1010E000E0235A6100229A6101221A6100BF4FF089
:1010F000E022106900F001021AB100F48032002AE7
:10110000F5D000224FF0E0231A619A617047000089
:101110004E000020F0B502460B46002100240025B9
:10112000002000BF35E0012606FA01F41E6806EA39
:101130000405A5422CD110684F000326BE40B043E1
:101140001E794F00BE40304310601E79012E02D040
:101150001E79022E12D190684F000326BE40B04384
:101160005E794F00BE4030439060908801268E40EB
:10117000B0439E798E40B6B230439080D0684F0025
:101180000326BE40B043DE794F00BE403043D060FE
:10119000491C1029C7D3F0BDF0B5002300244D072A
:1011A000ED0E02FA05F3CE1000F1200555F8265099
:1011B0004E07F70E0F26BE40B543CF1000F12006B4
:1011C00046F82750CE1000F1200555F8265045EA84
:1011D0000304CE1000F1200545F82640F0BD02467C
:1011E0000020138A0B400BB1012000E00020704763
:1011F00001837047828A4A40828270470AB1018324
:1012000000E04183704700002DE9F04100F080F8D4
:101210001F498860896801EB81014800FFF7D6F813
:1012200006461C4A1C4BFFF75DF80446FFF7EFF833
:101230001749C8600A2000F039FD1549886801F097
:10124000E0FD092000F032FD092000F02FFD1049DB
:10125000C86801F065FD11480D49886046F63C609C
:10126000C860092000F022FD092000F01FFD084998
:10127000886801F0C6FD092000F018FD092000F083
:1012800015FD0349C86801F04BFDBDE8F081000081
:10129000D00200209A9999999934A340C1DB690042
:1012A0002DE9F041002429E000F032F815490861E9
:1012B000084600698968884219D9124800691149AD
:1012C0008968401A0F490861096901EB81014800EA
:1012D000FFF77CF807460C4A0C4BFFF703F805466E
:1012E000FFF795F80749143141F8240004E0002184
:1012F0000448143040F82410601CC4B2142CD3DB12
:10130000BDE8F081D00200209A9999999934A340C0
:1013100070B5002210211E48FFF770FF0024012045
:1013200001F088F800BF20211948FFF758FF002876
:10133000F9D1002518E0012210211548FFF75EFFC2
:101340006400012001F076F8002210211048FFF718
:1013500055FF20210E48FFF742FF00B1641C012019
:1013600001F068F8681CC5B2182DE4DB01221021D9
:101370000748FFF743FF84F40004012001F05AF806
:10138000002210210248FFF739FF204670BD0000FF
:101390000000024000BFFEE74CF6CC400149086067
:1013A000704700000030004010B500F013F810BD89
:1013B00070B505460C4645F2555000F01FF828461A
:1013C00000F010F8204600F013F800F003F8FFF7E3
:1013D000E3FF70BD4AF6AA2001490860704700008B
:1013E0000030004001494860704700000030004074
:1013F00001498860704700000030004001490860E2
:1014000070470000003000401CB50121084600F084
:1014100089F91020009001208DF8040000208DF83B
:10142000060002208DF8050069460848FFF772FEA5
:101430002020009000208DF8040001208DF8070086
:1014400069460248FFF766FE1CBD0000000002402E
:101450001CB50121032000F065F9702000900020E8
:101460008DF8040002208DF8070069460B48FFF74D
:1014700051FE4FF44050009000208DF804000220EF
:101480008DF8070069460648FFF744FE054800212D
:1014900001800120034948701CBD0000000002408B
:1014A000000402405000002010B557484078002842
:1014B0007ED010215548FFF792FE012819D0202137
:1014C0005248FFF78CFE012813D040214F48FFF708
:1014D00086FE01280DD04FF480514D48FFF77FFE66
:1014E000012806D04FF400514948FFF778FE012843
:1014F0006AD10A2000F07EFF002043494870102185
:101500004248FFF76CFE01280BD111203E490870BC
:10151000404800780B303F490870612000F0C6FB5E
:101520004AE020213948FFF75AFE01280BD122203A
:1015300035490870374800780B303649087062200A
:1015400000F0B4FB38E040213048FFF748FE0128A6
:101550000BD133202C4908702E4800780B302D49D0
:101560000870632000F0A2FB26E04FF48051284869
:10157000FFF735FE01280BD1552023490870254877
:1015800000780B3023490870642000F08FFB13E0D3
:101590004FF400511E48FFF722FE01280CD16620AF
:1015A000194908701B4800780B301A49087000E090
:1015B0000AE0652000F07AFB16480078422821DB1B
:1015C0000020144908701DE010211048FFF707FEA5
:1015D000C0B920210D48FFF702FE98B940210B4801
:1015E000FFF7FDFD70B94FF480510948FFF7F7FD93
:1015F00040B94FF400510648FFF7F1FD10B9012042
:101600000149487010BD0000500000200000024059
:1016100000040240520000201CB50121022000F00D
:1016200081F801208DF8040040F20B2000906946FB
:101630000A48FFF76FFD4FF400710848FFF7D8FD27
:1016400008210648FFF7D4FD01210448FFF7D0FD2B
:1016500002210248FFF7CCFD1CBD0000000402403F
:1016600010B54FF400710848FFF7C2FD0821064885
:10167000FFF7BEFD01210448FFF7BAFD0221024831
:10168000FFF7B6FD10BD00000004024000BFFEE7FA
:101690007047000070B5002100230F22C4781CB3EE
:1016A000174C246804F4E064C4F5E064C4F3072133
:1016B000C1F10404E3B20A4144789C40E1B2847869
:1016C000144021430C07210E0E4C05786155047817
:1016D00004F01F050124AC4005786D11AD0005F143
:1016E000E025C5F8004109E0047804F01F05012455
:1016F000AC40054D0678761145F8264070BD0000D7
:101700000CED00E000E400E080E100E0024901436C
:10171000024A1160704700000000FA050CED00E07D
:101720007047000029B1064A12680243044B1A6050
:1017300004E0034A12688243014B1A6070470000BC
:101740001C38024029B1064A12680243044B1A6051
:1017500004E0034A12688243014B1A60704700009C
:101760002438024029B1064A12680243044B1A6029
:1017700004E0034A12688243014B1A60704700007C
:1017800020380240F0B5002100220023002600246A
:101790000025374F3F6807F00C0131B1042912D002
:1017A000082913D00C2934D113E0314F3F1F3F6873
:1017B000C7F342356F1C4FF0010C0CFA07FC4FEADF
:1017C000CC37076033E02B4F076030E02A4F0760CB
:1017D0002DE0274F3F6807F47012254F3F6807F44C
:1017E0004003264F07EB92473A78012707EB9353C4
:1017F0001F4F3F6807F480362EB91E4F5743B7FB83
:10180000F3F7076004E01C4F5743B7FBF3F707609B
:101810000DE0174F3F1F3F68C7F342356F1C4FF075
:10182000010C0CFA07FC4FEACC37076000BF00BF81
:101830000F4F3F6807F0F0010909114F7C5C076802
:10184000E74047600A4F3F6807F4E061090A0C4F20
:101850007C5C4768E7408760054F3F6807F460514C
:10186000C90A074F7C5C4768E740C760F0BD0000CD
:10187000083802400024F40000127A000C00002016
:101880001500002010B501460022002300204A1157
:10189000012A02D1074C236802E0064C3434236845
:1018A00001F01F02012494401C400CB1012000E013
:1018B000002010BD00380240014908607047000058
:1018C00000004742704700000CB5002001900090D6
:1018D0003E48006840F480303C49086000BF3B4807
:1018E000006800F4003000900198401C01900098BE
:1018F00018B90198B0F5A04FF1D13448006800F450
:10190000003010B10120009001E00020009000980C
:10191000012859D12E48006840F004002C49086085
:101920000846006840F0020008600846006840F081
:101930000100086025482430006840F080502349A9
:1019400024310860C8142349086000BF214840685A
:1019500000F010000028F9D11C48083000681B492D
:10196000083108600846006808600846006808609A
:101970000846006820F47D0008600846006840F4CE
:10198000110008601148006840F080700F4908603D
:1019900000BF0E48006800F000700028F9D00B4826
:1019A0000830006820F00300084908310860084644
:1019B000006840F00300086000BF04480830006879
:1019C00000F00C000C28F8D10CBD000000380240DB
:1019D000003C024000700040042808D14FF0E02194
:1019E000096941F004014FF0E022116107E04FF076
:1019F000E021096921F004014FF0E02211617047F4
:101A00007047000010B51548006840F48070134915
:101A10000860124808300068114908400F49083131
:101A200008600E4800680F4908400C4908600846E5
:101A3000006820F48020086008480830006820F41E
:101A40007D000649083108600020091D0860FFF785
:101A50003BFF4FF000600449086010BD00380240B1
:101A60000CC0FF88FEFFFEEE08ED00E010B501217E
:101A7000054800F0D0F828B10121034800F0BCF877
:101A8000FFF712FD10BD0000000400407FB50546C1
:101A90000C4601210220FFF755FE0295ADF80440E7
:101AA0000020ADF80C00ADF8060001A90D4800F0CB
:101AB000CDF8012211460B4800F0BEF81D208DF82C
:101AC000000002208DF8010003208DF802000120A3
:101AD0008DF803006846FFF7DDFD0021014800F0A6
:101AE0008EF87FBD0004004010B50121254800F0AC
:101AF00092F8002844D00121224800F07DF82248C5
:101B00000078401C20490870204890F8720009783D
:101B1000884215DC00201C4908701C4890F87200AF
:101B2000022809DD08211A48FFF762FB4FF4007113
:101B30001748FFF75FFB03E008211548FFF75AFB42
:101B4000144890F82800401C124981F828000846E3
:101B500090F82800012805DB002081F828000120EA
:101B600081F829000C480088401C0B490880084671
:101B70000088B0F5167F03DB002008800120887004
:101B800010BD0000000800404A000020A000002016
:101B900000040240A4020020540000207FB5054646
:101BA0000C4601210420FFF7CDFD0295ADF804405D
:101BB0000020ADF80C00ADF8060001A90D4800F0BA
:101BC00045F8012211460B4800F036F81E208DF82A
:101BD000000002208DF8010001208DF802008DF830
:101BE00003006846FFF756FD0121024800F007F8A0
:101BF0007FBD000000080040CA430282704721B147
:101C0000028842F00102028004E002884FF6FE736F
:101C10001A400280704730B502460020002300249D
:101C2000158A05EA0103958905EA010413B10CB18F
:101C3000012000E0002030BD1AB183890B4383816D
:101C400002E083898B438381704700000022028871
:101C5000B0F1804F08D0104B984205D00F4B9842FE
:101C600002D00F4B984204D14FF68F731A404B8825
:101C70001A430C4B984207D00B4B984204D04FF6B6
:101C8000FF431A400B891A4302804B68C3620B88DA
:101C90000385012383827047000400400008004050
:101CA000000C0040001000400014004010B5044635
:101CB00000BF8021044800F098F80028F9D02146A0
:101CC000014800F05AF910BD0038014010B540F24B
:101CD00025510B4800F096F880B140F22551084894
:101CE00000F068F8064800F043F9C1B205480278F0
:101CF0000078401C034B18700348815410BD00004D
:101D000000380140460000207701002070B540F205
:101D10002551154800F076F828B340F225511248B5
:101D200000F048F8114802786421114800F002FBE5
:101D300090B10D4800F01CF9C4B2412C0CDB5A2CB8
:101D40000ADC094800F014F9C1B208480578681C9B
:101D5000064A10700648415504480078632802DDA1
:101D600000200249087070BD004400404800002077
:101D7000DB01002010B540F225510B4800F042F87D
:101D800080B140F22551084800F014F8064800F0F0
:101D9000EFF8C1B2054802780078401C034B187078
:101DA0000348815410BD0000004800404500002059
:101DB0001301002010B50022002340F66A14A1424E
:101DC00000D100BF0A1201249440A3B2DC43048076
:101DD00010BD21B1828942F40052828104E08289DF
:101DE0004DF6FF731A408281704702460020B1F51C
:101DF000007F00D100BF13880B400BB1012000E031
:101E00000020704770B50246002400230025002002
:101E100040F66A16B14200D100BFC1F3421501F08D
:101E20001F03012606FA03F3012D02D196893340E0
:101E300006E0022D02D1168A334001E0968A334033
:101E40000C12012606FA04F41688344013B10CB1C2
:101E5000012000E0002070BDF0B5034600240026FC
:101E60000025002040F66A17B94200D100BF18468D
:101E7000C1F3421401F01F06012707FA06F5012CF1
:101E800001D10C3004E0022C01D1103000E01430FC
:101E90001AB107682F43076002E00768AF43076085
:101EA000F0BD00002DE9FF4705460E460024A1467F
:101EB00000BFA046B08900B100BF2C8A24F4405472
:101EC000F08804432C82AC8941F20C608443B088D2
:101ED00031890843718908430443AC81AC8A24F4F6
:101EE0004074B0890443AC826846FFF74BFC1F483E
:101EF000854202D1DDF80C9001E0DDF80890A88958
:101F000000F4004040B109EBC90000EB0910316852
:101F10004900B0FBF1F707E009EBC90000EB09103D
:101F200031688900B0FBF1F76420B7FBF0F00401E1
:101F30002009642101FB1078A88900F4004040B119
:101F4000322000EBC800B0FBF1F000F007000443C2
:101F500008E0322000EB08106421B0FBF1F000F043
:101F60000F0004432C81BDE8FF87000000380140CA
:101F700001468888C0F308007047C1F308028280D8
:101F8000704700000BE000BF0749098801F04001DD
:101F90000029F9D00178044A121D1180401C0178F3
:101FA0000029F0D1704700000038014000BFFEE773
:101FB0000FB4054B10B503A9044A029800F017F8B6
:101FC00010BC5DF814FB00004126000884000020CE
:101FD00002E008C8121F08C1002AFAD170477047F2
:101FE000002001E001C1121F002AFBD170472DE93A
:101FF000F84F9946924688460546002706E0252870
:102000000AD051464A4690476D1C7F1C287800280C
:10201000F5D13846BDE8F88F002315F8011F1846A2
:102020002E2915D115F8011F04232A290DD06FF090
:102030002F022978A1F13004092C09D800EB800087
:1020400002EB400008446D1CF3E758F8040B6D1CCC
:102050002A78002ADDD0632A07D0732A0FD01046D1
:1020600051464A4690477F1C2AE018F8042B8DF809
:10207000002000218DF801106E46012103E058F880
:10208000046B4FF0FF315A074FF0000401D409E010
:10209000641C84420BDA8C42FADB325D002AF7D1F1
:1020A00005E0641C8C42FCDB305D0028F9D127443C
:1020B00004E016F8010B51464A469047641EF8D2D8
:1020C0006D1CA3E700B589B001210320FFF72AFBAF
:1020D00001214802FFF746FB0120019003208DF803
:1020E000080000208DF80B0001A91C48FFF712F82A
:1020F0004FF44040019003208DF8080000208DF837
:102100000B0001A91648FFF705F80120FFF7D4FBE3
:1021100000BF2120FFF7B6FB0028FAD000208DF881
:1021200010008DF811004FF0007003900020069011
:10213000079001208DF8200003A90A48FEF77AFADB
:1021400001210848FEF75DFA00BF40210548FEF76F
:1021500067FA0028F9D009B000BD00000000024075
:1021600000040240002401402DE9F84F1B49088873
:10217000FEF727F9009019490888FEF727F98046ED
:102180004FF06632164BFEF73BF806460022154B21
:10219000FEF7A8F8044600224FF08043FEF730F81F
:1021A0008246FEF74DF900900F490098FDF7F6FFC3
:1021B0000446FEF718F909494880092000F0AAFDF5
:1021C0000649488800F061FD092000F0A3FD03499D
:1021D000488800F0E2FDBDE8F88F000068000020AC
:1021E00066660A4000E06F400000C84210B500F08B
:1021F00083F8FFF7B9FF00F009F810BD024800218D
:1022000001604160704700006800002010B5384848
:102210004088B0F5DC7F00DD10BD35484088B0F562
:10222000B97F22DC00203249087108464088B0F5A9
:10223000AF7F0CDC08468079401C887108468079A5
:10224000032820DB0220C871FFF70AFA1BE00020F8
:102250002749887108464079401C487108464079F2
:10226000032810DB0120C8710DE00020204988718F
:10227000487108460079401C087108460079032817
:1022800001DB0020C8711A48C07920B1012821D093
:10229000022828D115E01748807820F02000154941
:1022A00088700846C07820F02000C8700846807802
:1022B00020F0100088700846C07820F01000C87028
:1022C00012E00C48C07800F0200010B92020094925
:1022D000887009E00748C07800F0100010B910209D
:1022E0000449887000E000BF00BF00BF94E7000011
:1022F000680000205400002010B500200849088024
:10230000032100F0EBF906490880084600780880B0
:1023100004A000F03CFD0249088800F060FD10BDFB
:10232000680000200A6261745F73616D706C653AC9
:102330000000000010B503460C4611460AE0585C48
:10234000412802DB585C5A2802DD0A46012010BDF4
:10235000481CC1B2A142F2DB00210AE0585C4128CE
:1023600002DB585C5A2802DD0A460120EFE7481CD0
:10237000C1B29142F2DB0020E9E700002DE9F04113
:1023800005460F461646002403E0385D2855601CBC
:10239000C4B2B442F9DB0020A85504A0FFF7F2FD57
:1023A0002846FFF7EFFDBDE8F08100000D0A0000B0
:1023B00010B56FF00400FFF70FFB0A4800680A49E8
:1023C000B0FBF1F0094908700846007800EB4001C5
:1023D000C1EBC0104FF6FF7101EAC000044908804C
:1023E00010BD00002800002000127A004C000020E0
:1023F0004E000020014600200D4A12884A434FF04B
:10240000E0235A6100229A6101221A6100BF4FF055
:10241000E022106900F001021AB100F48032002AB3
:10242000F5D000224FF0E0231A619A617047000056
:102430004E000020014600200D4A12784A434FF01A
:10244000E0235A6100229A6101221A6100BF4FF015
:10245000E022106900F001021AB100F48032002A73
:10246000F5D000224FF0E0231A619A617047000016
:102470004C00002030B5184C031972B6174C184D9B
:102480002C60184C2C6000BF154C083C246804F0EC
:102490000104002CF8D1124C083C246844F48074E8
:1024A0000F4D083D2C6008E002C300BF0C4C0C34FB
:1024B000246804F00104002CF8D11400A2F10105F5
:1024C000AAB2F1D1064C083C246844F00104044D42
:1024D000083D2C6062B630BD00000808EFCDAB8926
:1024E0000C3C0240050403021EB501240F494A8832
:1024F0000888694600F01EF838B1BDF800000C49A4
:10250000C988884202D0002400E0002464B9074949
:10251000088819220021FFF7ADFF04494A8808887E
:102520000349891D00F03AF81EBD0000700000202C
:10253000D00200202DE9F041074613460120DFF8C4
:10254000588007EB08054FF0000C21E02A8835F889
:1025500023404FF6FF7808EA430835F82860A24286
:1025600002D121F8022B0EE0B24202D121F8022B57
:1025700009E0B44202D121F8024B04E04FF0000818
:1025800021F8028B00202D1D0CF1010808F0FF0C32
:102590009C45DBDBBDE8F08100000808F0B5034690
:1025A0000C461646224FDD1972B6224FDFF888C05E
:1025B000CCF80070214FCCF8007000BF1E4F083FD0
:1025C0003F6807F00107002FF8D11B4F083F3F6815
:1025D00047F48077DFF860C0ACF1080CCCF80070ED
:1025E000002015E00C4616460AE034F8027B80C550
:1025F00000BF114F0C373F6807F00107002FF8D1DB
:102600003700A6F1010C1FFA8CF6EED1471CF8B288
:102610000328E7DB084F083F3F6847F00107DFF872
:1026200018C0ACF1080CCCF8007062B6F0BD000028
:1026300000000808EFCDAB890C3C02400504030202
:1026400000BF054A128802F04002002AF9D0C2B247
:10265000014B1B1D1A8070470048004010B5002830
:1026600021D0114B0022001F196803E0814203D8DA
:102670000A4649680029F9D152B11368841A9C426C
:1026800004D1006818441060104602E0506000E079
:10269000186039B102680B1A934203D10B681A44CF
:1026A00002604968416010BD8800002010B50446F2
:1026B0000023012221460848FDF7E6FF0648FEF701
:1026C0008FF800BF02210448FDF7AAFF0028F9D0C7
:1026D0000148FDF7A1FF10BD002401402DE9F041A4
:1026E00007460C460025002608E03846FFF7DEFFC7
:1026F0000544C820FFF79EFE701CC6B2A642F4DB5C
:10270000B5FBF4F080B2BDE8F081F0B504462512C7
:1027100000201FE02A0905F00F03092A04DD02F159
:10272000370601F8106003E002F1300601F810608E
:10273000092B06DD03F13706F7B24600761C8F55EC
:1027400005E003F13006F7B24600761C8F55E5B27E
:10275000461CF0B20228DDDBF0BD10B5C31700EB5C
:1027600013730A24B4EB231F07DC0246C31700EBE4
:1027700013731B1137330B7006E00246C31700EBCF
:1027800013731B1130330B70C31700EB13731B1142
:10279000A0EB03130A2B09DB0246C31700EB1373EC
:1027A0001B11A0EB031337334B7008E00246C3172D
:1027B00000EB13731B11A0EB031330334B7010BDF0
:1027C000F0B50446154600201FE0265C3209265C61
:1027D00006F00F03092A04DD02F1370601F8106044
:1027E00003E002F1300601F81060092B06DD03F169
:1027F0003706F7B24600761C8F5505E003F1300628
:10280000F7B24600761C8F55401CA842DDD3002647
:1028100001F81060F0BD00F029F805E0FEF7C4FDF6
:1028200000F072F800F002F8F8E7000010B50E486A
:10283000007820B1012805D002280ED105E000F073
:10284000D9F80EE000F0F0F80BE0FFF7CFFC00F055
:102850003FFC00200449087003E000200249087092
:1028600000BF00BF10BD00000000002010B54FF4F5
:10287000A060FEF74BFFFFF79BFDFEF7CDFEFEF7D6
:10288000E7FD4FF4165000F0B3FB4FF4165000F084
:10289000EDFA4FF4165000F04BFB40F67F41C72095
:1028A000FFF7F4F840F67F4141F28730FFF776F901
:1028B000FEF7ECFAFDF79AFF00F06EFCFFF702FC62
:1028C000FFF79CFC00F0A8F800F0B4F8FFF70CFE4E
:1028D00006A0FFF757FB06A0FFF754FB00F0B8F87F
:1028E00040F64E410520FEF763FD10BD0D0A0000C5
:1028F00056455253494F4E5F595F4D5F443A313907
:1029000031313037000000000348807810B10220D8
:1029100002490870704700005400002000000020A9
:10292000F0B50B30154D20F007010024144A0FE0DC
:1029300003688B420BD38B4205D95E1A4318476854
:10294000C3E9006700E04368136002C004E0021DB1
:1029500010680028ECD12046002802D1286808B170
:102960000020F0BD064A07481060074A121A22F0FC
:102970000702C0E9002401202860D7E78C0000206E
:102980008800002044030020400500200748C0893B
:102990000A2804DD0020054981F82A0005E001200D
:1029A000024981F82A00024908707047A4020020F9
:1029B0000000002010B500210948C1810321152025
:1029C000FFF78CFE0649C8810846817BC18105A0BE
:1029D00000F0DDF90249C88900F0DFF910BD000000
:1029E000A40200200A70726573735F73616D706C6E
:1029F000653A000010B5074890F82900012807D172
:102A00000020044981F82900FFF7D4FFFFF7BEFF3B
:102A100010BD0000A402002010B52C210148FDF7D4
:102A20008CFB10BDA402002010B5FEF739FC00F0AD
:102A30001DF810BD10B5FEF7E7FC70210348FDF747
:102A40007CFB19200149C88010BD0000D002002085
:102A500010B5FEF7D9FB4FF47A70FFF7CBFC4FF4BB
:102A60007A70FFF7C7FCFEF7CFFB10BD10B514213D
:102A70005E4800F0D9F85D49143948665CA000F062
:102A800086F95A491439486E00F04AF9002057492E
:102A90001439087088800846416E806E001D81429E
:102AA00006D852481438816E406E001D814206D906
:102AB0004E481438406E4D491439886610BD4B4855
:102AC0001438406E642816D248481438C078052857
:102AD0005CDAFD204549143908700846C078401C6E
:102AE000C0B2C870052801DB0520C8703F48143803
:102AF000416EC1664AE03D481438416EC06E814265
:102B000027D3002039491439C8700846C06EC988D7
:102B1000084436491439496E884237D83348143846
:102B2000C06E20B9002031491439087003E0FF203D
:102B30002E49143908702D481438B0F86410B0F8D4
:102B40006C00081A2949143988800846416EC1660C
:102B50001CE0002025491439C8700846406EC98819
:102B6000014422481438C06E81420FD8FE201F490C
:102B7000143908700846B0F86C00B1F86410401AB7
:102B80001A49143988800846416EC16617481438BE
:102B9000406E1649143988660846007848B11848CE
:102BA000807840F0040016498870022015490870AA
:102BB00002E000201349087013A000F0E8F80B4968
:102BC0001439087800F03DF9092000F0A3F807490E
:102BD0001439888800F003F9092000F09BF80349B4
:102BE0001439888800F09CF800BF67E7E4020020F1
:102BF0000A7765696768745F73616D706C653A0028
:102C0000540000200000002009675F77656967684D
:102C1000742E73746120206368616E67655F646100
:102C200074613A0920000000F0B502460C46002508
:102C300000231AE0002112E052F82170481C52F8DB
:102C40002000874209D952F82160481C52F8200020
:102C500042F82100481C42F82060481CC1B2601EA6
:102C6000C01A8842E8DC581CC3B2A342E2DB052349
:102C700004E052F823000544581CC3B2601F984278
:102C8000F7DC0A20B5FBF0F0F0BD2DE9F0478046F7
:102C90000525C146AA465046FFF742FE06460024D7
:102CA0000CE00A2099FBF0F100FB119030550A204E
:102CB00099FBF0F01FFA80F9601CC4B2AC42F0DB63
:102CC000002406E0681E001B305C00B104E0601CBC
:102CD000C4B2E81EA042F5DC00BF274606E0691E2C
:102CE000C91B705C00F0ADF8781CC7B2A81EB842D2
:102CF000F5DC2E2000F00EF8707800F0A2F83078A5
:102D000000F09FF8762000F005F83046FFF7A6FCAB
:102D1000BDE8F08710B504462046FEF7C7FF10BD9A
:102D2000FEB50646374600240BE00A20B7FBF0F15B
:102D300000FB11700DF804000A20B7FBF0F7601CCF
:102D4000C4B20A2CF1DB002407E0C4F109001DF82D
:102D5000000000B103E0601CC4B2082CF5DB00BF2A
:102D6000254607E0C5F109011DF8010000F069F8EA
:102D7000681CC5B2092DF5DB2E20FFF7CBFF9DF8AF
:102D8000000000F05EF86720FFF7C4FFFEBD10B53D
:102D900004462046FFF7F6F810BD7CB505462E46E2
:102DA00000240DE00A2096FBF0F100FB1160C0B298
:102DB0000DF804000A2096FBF0F086B2601CC4B245
:102DC000052CEFDB002407E0C4F104011DF801002D
:102DD00000F037F8601CC4B2052CF5DB7CBDF8B5FB
:102DE00005462E4669463046FFF78FFC002405E075
:102DF0001DF80400FFF78EFF601CC4B2042CF7DB43
:102E0000F8BDFEB505462E4600240BE00A20B6FBB1
:102E1000F0F100FB11600DF804000A20B6FBF0F69B
:102E2000601CC4B20A2CF1DB002407E0C4F10901E4
:102E30001DF8010000F005F8601CC4B20A2CF5DB97
:102E4000FEBD38B50446254669462846FFF785FC91
:102E50009DF80000302803D09DF80000FFF75AFFCE
:102E60009DF80100FFF756FF38BD000010B588B08F
:102E7000044601210846FEF755FC01214804FEF7EF
:102E800061FC072202212748FEF786F90722032169
:102E90002448FEF781F90420069002208DF81C00DA
:102EA0008DF81D0000208DF81E0001208DF81F00F8
:102EB00006A91C48FEF72EF90820069002208DF87E
:102EC0001C0006A91748FEF725F926208DF80400F6
:102ED00001208DF8050002208DF8060001208DF8F4
:102EE000070001A8FEF7D6FB02940020ADF80C0005
:102EF000ADF80E00ADF81000ADF814000C20ADF8E0
:102F0000120002A90848FEF7CDFF012240F2255128
:102F10000548FEF7A1FF63210448FDF70EF908B04C
:102F200010BD00000000024000440040DB01002012
:102F300010B588B0044601210220FEF7F3FB012101
:102F40008804FEF7FFFB07220A212748FEF724F931
:102F500007220B212448FEF71FF94FF480600690EA
:102F600002208DF81C008DF81D0000208DF81E0039
:102F700001208DF81F0006A91B48FEF7CBF84FF47F
:102F80000060069002208DF81C0006A91648FEF786
:102F9000C1F827208DF8040001208DF805008DF878
:102FA00006008DF8070001A8FEF774FB02940020CC
:102FB000ADF80C00ADF80E00ADF81000ADF814003F
:102FC0000C20ADF8120002A90848FEF76BFF0122A1
:102FD00040F225510548FEF73FFF01210348FEF767
:102FE000F8FE08B010BD0000000402400048004098
:102FF00010B588B0044601210846FEF793FB012175
:103000008803FEF7AFFB072209212848FEF7C4F822
:1030100007220A212548FEF7BFF84FF400700690FA
:1030200002208DF81C008DF81D0000208DF81E0078
:1030300001208DF81F0006A91C48FEF76BF84FF41D
:103040008060069002208DF81C0006A91748FEF744
:1030500061F825208DF8040001208DF8050003207B
:103060008DF8060001208DF8070001A8FEF712FB7D
:1030700002940020ADF80C00ADF80E00ADF8100081
:10308000ADF814000C20ADF8120002A90848FEF7B4
:1030900009FF012240F225510548FEF7DDFE01211E
:1030A0000348FEF796FE08B010BD00000000024085
:1030B0000038014005480078401C04490870084663
:1030C0000078C82801DD01200870704758000020F2
:1030D00010B52C48807800F0200030B12948C07825
:1030E00040F020002749C87009E02648807800F0A9
:1030F000100020B12348C07800432249C8702248FC
:10310000C079022800D110BD1E48807800F001006F
:1031100060B11C48807820F001001A4988700022B4
:1031200001211AA000F03EF800F0A4F815488078BC
:1031300000F0020028B11348807820F00200114905
:1031400088701048807800F0040068B10D488078DD
:1031500020F004000B4988700D48828801780DA08A
:1031600000F020F800F086F80648807800F00800AB
:1031700028B10448807820F008000249887000BF18
:10318000C1E700005400002068000020303100003A
:10319000D002002031320000014800210160704758
:1031A000540000202DE9F0418CB005460E4617462C
:1031B000002464212A48FCF7C0FF022229A12848E4
:1031C000FCF7D8FFA41C022227A12548FCF7D2FF58
:1031D000A41C0F2203A92548FFF7F2FA1E2203A917
:1031E0001F48FCF7C7FF1E34022229461C48FCF783
:1031F000C1FFA41C1E4890F800800BA94046FFF7B1
:10320000ACFA02220BA91648FCF7B4FFA41CB04686
:103210000BA94046FFF7A1FA02220BA91048FCF7C0
:10322000A9FFA01CC4B201A93846FFF76EFA042218
:1032300001A90B48FCF79EFF201DC4B200200849DD
:103240000855FFF737FF0A20FEF730FD0448FEF768
:1032500099FE0A20FEF72AFD0CB0BDE8F0810000BF
:103260003F02002030340000444400009000002061
:103270005800002010B5054905A0FDF747FD4FF4A3
:103280007A70FFF7B7F8FDF715FD10BD3F0200207B
:1032900032320000B432000800000020900000002C
:1032A000D01F00084433000890000020B008000040
:1032B000E01F000800000000000000000000000007
:1032C000030406080C10182030000000000102035F
:1032D0000401020304060708090000000048E80191
:1032E000030406080C101820300000000000000045
:1032F00000010203040607080900000000000000A6
:1033000000000000000000000000000001000000BC
:1033100000000000000000000000000000000000AD
:10332000000000000000010064000100C80001006E
:103330002C010100900101000000000000000000CD
:043340000000000089
:04000005080000F5FA
:00000001FF
